{
  "contractName": "BrokenRewardListener",
  "abi": [
    {
      "constant": false,
      "inputs": [
        {
          "internalType": "address",
          "name": "",
          "type": "address"
        },
        {
          "internalType": "uint256",
          "name": "",
          "type": "uint256"
        },
        {
          "internalType": "uint256",
          "name": "",
          "type": "uint256"
        }
      ],
      "name": "rewarded",
      "outputs": [],
      "payable": false,
      "stateMutability": "nonpayable",
      "type": "function"
    },
    {
      "constant": true,
      "inputs": [
        {
          "internalType": "bytes32",
          "name": "",
          "type": "bytes32"
        },
        {
          "internalType": "address",
          "name": "",
          "type": "address"
        }
      ],
      "name": "canImplementInterfaceForAddress",
      "outputs": [
        {
          "internalType": "bytes32",
          "name": "",
          "type": "bytes32"
        }
      ],
      "payable": false,
      "stateMutability": "view",
      "type": "function"
    }
  ],
  "bytecode": "0x608060405234801561001057600080fd5b50610168806100206000396000f3fe608060405234801561001057600080fd5b50600436106100365760003560e01c80631aa049681461003b578063249cb3fa1461006f575b600080fd5b61006d6004803603606081101561005157600080fd5b506001600160a01b0381351690602081013590604001356100ad565b005b61009b6004803603604081101561008557600080fd5b50803590602001356001600160a01b03166100f2565b60408051918252519081900360200190f35b6040805162461bcd60e51b8152602060048201526015602482015274746869732077696c6c206e6576657220776f726b2160581b604482015290519081900360640190fd5b50506040805173455243313832305f4143434550545f4d4147494360601b60208083019190915282516014818403018152603490920190925280519101209056fea265627a7a72315820c741d35d1a080e961d3e603755dffbdf503680cbff07b2f5b9faf6a502f67f2964736f6c634300050c0032",
  "source": "pragma solidity 0.5.12;\n\nimport \"@openzeppelin/contracts-ethereum-package/contracts/introspection/IERC1820Implementer.sol\";\nimport \"../IRewardListener.sol\";\n\ncontract BrokenRewardListener is IRewardListener, IERC1820Implementer {\n  bytes32 constant internal ERC1820_ACCEPT_MAGIC = keccak256(abi.encodePacked(\"ERC1820_ACCEPT_MAGIC\"));\n\n  function rewarded(address, uint256, uint256) external {\n    revert(\"this will never work!\");\n  }\n\n  function canImplementInterfaceForAddress(bytes32, address) external view returns (bytes32) {\n    return ERC1820_ACCEPT_MAGIC;\n  }\n}",
  "sourcePath": "/home/manjain/Documents/LetsPool/src/pooltogether-contracts/contracts/test/BrokenRewardListener.sol",
  "compiler": {
    "name": "solc",
    "version": "0.5.12+commit.7709ece9.Emscripten.clang"
  },
  "schemaVersion": "3.1.0",
  "updatedAt": "2020-05-21T20:34:55.085Z",
  "devdoc": {
    "methods": {}
  },
  "userdoc": {
    "methods": {}
  }
}