{
  "contractName": "CErc20Mock",
  "abi": [
    {
      "constant": true,
      "inputs": [],
      "name": "underlying",
      "outputs": [
        {
          "internalType": "address",
          "name": "",
          "type": "address"
        }
      ],
      "payable": false,
      "stateMutability": "view",
      "type": "function"
    },
    {
      "constant": false,
      "inputs": [
        {
          "internalType": "address",
          "name": "_token",
          "type": "address"
        },
        {
          "internalType": "uint256",
          "name": "_supplyRatePerBlock",
          "type": "uint256"
        }
      ],
      "name": "initialize",
      "outputs": [],
      "payable": false,
      "stateMutability": "nonpayable",
      "type": "function"
    },
    {
      "constant": false,
      "inputs": [
        {
          "internalType": "uint256",
          "name": "amount",
          "type": "uint256"
        }
      ],
      "name": "mint",
      "outputs": [
        {
          "internalType": "uint256",
          "name": "",
          "type": "uint256"
        }
      ],
      "payable": false,
      "stateMutability": "nonpayable",
      "type": "function"
    },
    {
      "constant": true,
      "inputs": [],
      "name": "getCash",
      "outputs": [
        {
          "internalType": "uint256",
          "name": "",
          "type": "uint256"
        }
      ],
      "payable": false,
      "stateMutability": "view",
      "type": "function"
    },
    {
      "constant": false,
      "inputs": [
        {
          "internalType": "uint256",
          "name": "requestedAmount",
          "type": "uint256"
        }
      ],
      "name": "redeemUnderlying",
      "outputs": [
        {
          "internalType": "uint256",
          "name": "",
          "type": "uint256"
        }
      ],
      "payable": false,
      "stateMutability": "nonpayable",
      "type": "function"
    },
    {
      "constant": false,
      "inputs": [
        {
          "internalType": "address",
          "name": "account",
          "type": "address"
        }
      ],
      "name": "reward",
      "outputs": [],
      "payable": false,
      "stateMutability": "nonpayable",
      "type": "function"
    },
    {
      "constant": false,
      "inputs": [
        {
          "internalType": "address",
          "name": "account",
          "type": "address"
        },
        {
          "internalType": "uint256",
          "name": "amount",
          "type": "uint256"
        }
      ],
      "name": "rewardCustom",
      "outputs": [],
      "payable": false,
      "stateMutability": "nonpayable",
      "type": "function"
    },
    {
      "constant": false,
      "inputs": [
        {
          "internalType": "address",
          "name": "account",
          "type": "address"
        }
      ],
      "name": "balanceOfUnderlying",
      "outputs": [
        {
          "internalType": "uint256",
          "name": "",
          "type": "uint256"
        }
      ],
      "payable": false,
      "stateMutability": "nonpayable",
      "type": "function"
    },
    {
      "constant": true,
      "inputs": [],
      "name": "supplyRatePerBlock",
      "outputs": [
        {
          "internalType": "uint256",
          "name": "",
          "type": "uint256"
        }
      ],
      "payable": false,
      "stateMutability": "view",
      "type": "function"
    },
    {
      "constant": false,
      "inputs": [
        {
          "internalType": "uint256",
          "name": "_supplyRatePerBlock",
          "type": "uint256"
        }
      ],
      "name": "setSupplyRateMantissa",
      "outputs": [],
      "payable": false,
      "stateMutability": "nonpayable",
      "type": "function"
    }
  ],
  "bytecode": "0x608060405234801561001057600080fd5b50610698806100206000396000f3fe608060405234801561001057600080fd5b506004361061009e5760003560e01c80636f307dc3116100665780636f307dc314610154578063852a12e314610178578063a0712d6814610195578063ae9d70b0146101b2578063cd6dc687146101ba5761009e565b806305ca520f146100a35780633af9e669146100d15780633b1d21a2146101095780635a2c37ca146101115780636353586b1461012e575b600080fd5b6100cf600480360360408110156100b957600080fd5b506001600160a01b0381351690602001356101e6565b005b6100f7600480360360208110156100e757600080fd5b50356001600160a01b0316610208565b60408051918252519081900360200190f35b6100f7610227565b6100cf6004803603602081101561012757600080fd5b50356102a3565b6100cf6004803603602081101561014457600080fd5b50356001600160a01b03166102a8565b61015c6102cd565b604080516001600160a01b039092168252519081900360200190f35b6100f76004803603602081101561018e57600080fd5b50356102dc565b6100f7600480360360208110156101ab57600080fd5b5035610422565b6100f7610513565b6100cf600480360360408110156101d057600080fd5b506001600160a01b038135169060200135610519565b6001600160a01b03909116600090815260346020526040902080549091019055565b6001600160a01b0381166000908152603460205260409020545b919050565b603354604080516370a0823160e01b815230600482015290516000926001600160a01b0316916370a08231916024808301926020929190829003018186803b15801561027257600080fd5b505afa158015610286573d6000803e3d6000fd5b505050506040513d602081101561029c57600080fd5b5051905090565b603555565b6001600160a01b03166000908152603460205260409020805460646078909102049055565b6033546001600160a01b031681565b33600090815260346020526040812054821115610340576040805162461bcd60e51b815260206004820152601d60248201527f696e73756666696369656e7420756e6465726c79696e672066756e6473000000604482015290519081900360640190fd5b33600081815260346020908152604080832080548790039055603354815163a9059cbb60e01b815260048101959095526024850187905290516001600160a01b039091169363a9059cbb9360448083019493928390030190829087803b1580156103a957600080fd5b505af11580156103bd573d6000803e3d6000fd5b505050506040513d60208110156103d357600080fd5b5051610222576040805162461bcd60e51b8152602060048201526019602482015278636f756c64206e6f74207472616e7366657220746f6b656e7360381b604482015290519081900360640190fd5b33600081815260346020908152604080832080548601905560335481516323b872dd60e01b8152600481019590955230602486015260448501869052905192936001600160a01b03909116926323b872dd9260648084019391929182900301818787803b15801561049257600080fd5b505af11580156104a6573d6000803e3d6000fd5b505050506040513d60208110156104bc57600080fd5b505161050b576040805162461bcd60e51b8152602060048201526019602482015278636f756c64206e6f74207472616e7366657220746f6b656e7360381b604482015290519081900360640190fd5b506000919050565b60355490565b600054610100900460ff1680610532575061053261062f565b80610540575060005460ff16155b61057b5760405162461bcd60e51b815260040180806020018281038252602e815260200180610636602e913960400191505060405180910390fd5b600054610100900460ff161580156105a6576000805460ff1961ff0019909116610100171660011790555b6001600160a01b0383166105f8576040805162461bcd60e51b81526020600482015260146024820152731d1bdad95b881a5cc81b9bdd081919599a5b995960621b604482015290519081900360640190fd5b603380546001600160a01b0319166001600160a01b0385161790556035829055801561062a576000805461ff00191690555b505050565b303b159056fe436f6e747261637420696e7374616e63652068617320616c7265616479206265656e20696e697469616c697a6564a265627a7a72315820c05511db85f8de7aa0eaffba5be2e9dfff5fdb786e48d72c8686a20e68c16a8464736f6c634300050c0032",
  "source": "/**\nCopyright 2020 PoolTogether Inc.\n\nThis file is part of PoolTogether.\n\nPoolTogether is free software: you can redistribute it and/or modify\nit under the terms of the GNU General Public License as published by\nthe Free Software Foundation under version 3 of the License.\n\nPoolTogether is distributed in the hope that it will be useful,\nbut WITHOUT ANY WARRANTY; without even the implied warranty of\nMERCHANTABILITY or FITNESS FOR A PARTICULAR PURPOSE.  See the\nGNU General Public License for more details.\n\nYou should have received a copy of the GNU General Public License\nalong with PoolTogether.  If not, see <https://www.gnu.org/licenses/>.\n*/\n\npragma solidity 0.5.12;\n\nimport \"../compound/ICErc20.sol\";\nimport \"@openzeppelin/upgrades/contracts/Initializable.sol\";\nimport \"@openzeppelin/contracts-ethereum-package/contracts/token/ERC20/IERC20.sol\";\n\ncontract CErc20Mock is Initializable, ICErc20 {\n  mapping(address => uint256) ownerTokenAmounts;\n\n  uint256 __supplyRatePerBlock;\n\n  function initialize (address _token, uint256 _supplyRatePerBlock) public initializer {\n    require(_token != address(0), \"token is not defined\");\n    underlying = _token;\n    __supplyRatePerBlock = _supplyRatePerBlock;\n  }\n\n  function mint(uint256 amount) external returns (uint) {\n    ownerTokenAmounts[msg.sender] = ownerTokenAmounts[msg.sender] + amount;\n    require(IERC20(underlying).transferFrom(msg.sender, address(this), amount), \"could not transfer tokens\");\n    return 0;\n  }\n\n  function getCash() external view returns (uint) {\n    return IERC20(underlying).balanceOf(address(this));\n  }\n\n  function redeemUnderlying(uint256 requestedAmount) external returns (uint) {\n    require(requestedAmount <= ownerTokenAmounts[msg.sender], \"insufficient underlying funds\");\n    ownerTokenAmounts[msg.sender] = ownerTokenAmounts[msg.sender] - requestedAmount;\n    require(IERC20(underlying).transfer(msg.sender, requestedAmount), \"could not transfer tokens\");\n  }\n\n  function reward(address account) external {\n    ownerTokenAmounts[account] = (ownerTokenAmounts[account] * 120) / 100;\n  }\n\n  function rewardCustom(address account, uint256 amount) external {\n    ownerTokenAmounts[account] = ownerTokenAmounts[account] + amount;\n  }\n\n  function balanceOfUnderlying(address account) external returns (uint) {\n    return ownerTokenAmounts[account];\n  }\n\n  function supplyRatePerBlock() external view returns (uint) {\n    return __supplyRatePerBlock;\n  }\n\n  function setSupplyRateMantissa(uint256 _supplyRatePerBlock) external {\n    __supplyRatePerBlock = _supplyRatePerBlock;\n  }\n}\n",
  "sourcePath": "/home/manjain/Documents/LetsPool/src/pooltogether-contracts/contracts/test/CErc20Mock.sol",
  "compiler": {
    "name": "solc",
    "version": "0.5.12+commit.7709ece9.Emscripten.clang"
  },
  "schemaVersion": "3.1.0",
  "updatedAt": "2020-05-21T20:34:55.086Z",
  "devdoc": {
    "methods": {}
  },
  "userdoc": {
    "methods": {}
  }
}