{
  "contractName": "ERC777Mintable",
  "abi": [
    {
      "anonymous": false,
      "inputs": [
        {
          "indexed": true,
          "internalType": "address",
          "name": "owner",
          "type": "address"
        },
        {
          "indexed": true,
          "internalType": "address",
          "name": "spender",
          "type": "address"
        },
        {
          "indexed": false,
          "internalType": "uint256",
          "name": "value",
          "type": "uint256"
        }
      ],
      "name": "Approval",
      "type": "event"
    },
    {
      "anonymous": false,
      "inputs": [
        {
          "indexed": true,
          "internalType": "address",
          "name": "operator",
          "type": "address"
        },
        {
          "indexed": true,
          "internalType": "address",
          "name": "tokenHolder",
          "type": "address"
        }
      ],
      "name": "AuthorizedOperator",
      "type": "event"
    },
    {
      "anonymous": false,
      "inputs": [
        {
          "indexed": true,
          "internalType": "address",
          "name": "operator",
          "type": "address"
        },
        {
          "indexed": true,
          "internalType": "address",
          "name": "from",
          "type": "address"
        },
        {
          "indexed": false,
          "internalType": "uint256",
          "name": "amount",
          "type": "uint256"
        },
        {
          "indexed": false,
          "internalType": "bytes",
          "name": "data",
          "type": "bytes"
        },
        {
          "indexed": false,
          "internalType": "bytes",
          "name": "operatorData",
          "type": "bytes"
        }
      ],
      "name": "Burned",
      "type": "event"
    },
    {
      "anonymous": false,
      "inputs": [
        {
          "indexed": true,
          "internalType": "address",
          "name": "operator",
          "type": "address"
        },
        {
          "indexed": true,
          "internalType": "address",
          "name": "to",
          "type": "address"
        },
        {
          "indexed": false,
          "internalType": "uint256",
          "name": "amount",
          "type": "uint256"
        },
        {
          "indexed": false,
          "internalType": "bytes",
          "name": "data",
          "type": "bytes"
        },
        {
          "indexed": false,
          "internalType": "bytes",
          "name": "operatorData",
          "type": "bytes"
        }
      ],
      "name": "Minted",
      "type": "event"
    },
    {
      "anonymous": false,
      "inputs": [
        {
          "indexed": true,
          "internalType": "address",
          "name": "operator",
          "type": "address"
        },
        {
          "indexed": true,
          "internalType": "address",
          "name": "tokenHolder",
          "type": "address"
        }
      ],
      "name": "RevokedOperator",
      "type": "event"
    },
    {
      "anonymous": false,
      "inputs": [
        {
          "indexed": true,
          "internalType": "address",
          "name": "operator",
          "type": "address"
        },
        {
          "indexed": true,
          "internalType": "address",
          "name": "from",
          "type": "address"
        },
        {
          "indexed": true,
          "internalType": "address",
          "name": "to",
          "type": "address"
        },
        {
          "indexed": false,
          "internalType": "uint256",
          "name": "amount",
          "type": "uint256"
        },
        {
          "indexed": false,
          "internalType": "bytes",
          "name": "data",
          "type": "bytes"
        },
        {
          "indexed": false,
          "internalType": "bytes",
          "name": "operatorData",
          "type": "bytes"
        }
      ],
      "name": "Sent",
      "type": "event"
    },
    {
      "anonymous": false,
      "inputs": [
        {
          "indexed": true,
          "internalType": "address",
          "name": "from",
          "type": "address"
        },
        {
          "indexed": true,
          "internalType": "address",
          "name": "to",
          "type": "address"
        },
        {
          "indexed": false,
          "internalType": "uint256",
          "name": "value",
          "type": "uint256"
        }
      ],
      "name": "Transfer",
      "type": "event"
    },
    {
      "constant": true,
      "inputs": [
        {
          "internalType": "address",
          "name": "holder",
          "type": "address"
        },
        {
          "internalType": "address",
          "name": "spender",
          "type": "address"
        }
      ],
      "name": "allowance",
      "outputs": [
        {
          "internalType": "uint256",
          "name": "",
          "type": "uint256"
        }
      ],
      "payable": false,
      "stateMutability": "view",
      "type": "function"
    },
    {
      "constant": false,
      "inputs": [
        {
          "internalType": "address",
          "name": "spender",
          "type": "address"
        },
        {
          "internalType": "uint256",
          "name": "value",
          "type": "uint256"
        }
      ],
      "name": "approve",
      "outputs": [
        {
          "internalType": "bool",
          "name": "",
          "type": "bool"
        }
      ],
      "payable": false,
      "stateMutability": "nonpayable",
      "type": "function"
    },
    {
      "constant": false,
      "inputs": [
        {
          "internalType": "address",
          "name": "operator",
          "type": "address"
        }
      ],
      "name": "authorizeOperator",
      "outputs": [],
      "payable": false,
      "stateMutability": "nonpayable",
      "type": "function"
    },
    {
      "constant": true,
      "inputs": [
        {
          "internalType": "address",
          "name": "tokenHolder",
          "type": "address"
        }
      ],
      "name": "balanceOf",
      "outputs": [
        {
          "internalType": "uint256",
          "name": "",
          "type": "uint256"
        }
      ],
      "payable": false,
      "stateMutability": "view",
      "type": "function"
    },
    {
      "constant": false,
      "inputs": [
        {
          "internalType": "uint256",
          "name": "amount",
          "type": "uint256"
        },
        {
          "internalType": "bytes",
          "name": "data",
          "type": "bytes"
        }
      ],
      "name": "burn",
      "outputs": [],
      "payable": false,
      "stateMutability": "nonpayable",
      "type": "function"
    },
    {
      "constant": true,
      "inputs": [],
      "name": "decimals",
      "outputs": [
        {
          "internalType": "uint8",
          "name": "",
          "type": "uint8"
        }
      ],
      "payable": false,
      "stateMutability": "pure",
      "type": "function"
    },
    {
      "constant": true,
      "inputs": [],
      "name": "defaultOperators",
      "outputs": [
        {
          "internalType": "address[]",
          "name": "",
          "type": "address[]"
        }
      ],
      "payable": false,
      "stateMutability": "view",
      "type": "function"
    },
    {
      "constant": true,
      "inputs": [],
      "name": "granularity",
      "outputs": [
        {
          "internalType": "uint256",
          "name": "",
          "type": "uint256"
        }
      ],
      "payable": false,
      "stateMutability": "view",
      "type": "function"
    },
    {
      "constant": false,
      "inputs": [
        {
          "internalType": "string",
          "name": "name",
          "type": "string"
        },
        {
          "internalType": "string",
          "name": "symbol",
          "type": "string"
        },
        {
          "internalType": "address[]",
          "name": "defaultOperators",
          "type": "address[]"
        }
      ],
      "name": "initialize",
      "outputs": [],
      "payable": false,
      "stateMutability": "nonpayable",
      "type": "function"
    },
    {
      "constant": true,
      "inputs": [
        {
          "internalType": "address",
          "name": "operator",
          "type": "address"
        },
        {
          "internalType": "address",
          "name": "tokenHolder",
          "type": "address"
        }
      ],
      "name": "isOperatorFor",
      "outputs": [
        {
          "internalType": "bool",
          "name": "",
          "type": "bool"
        }
      ],
      "payable": false,
      "stateMutability": "view",
      "type": "function"
    },
    {
      "constant": true,
      "inputs": [],
      "name": "name",
      "outputs": [
        {
          "internalType": "string",
          "name": "",
          "type": "string"
        }
      ],
      "payable": false,
      "stateMutability": "view",
      "type": "function"
    },
    {
      "constant": false,
      "inputs": [
        {
          "internalType": "address",
          "name": "account",
          "type": "address"
        },
        {
          "internalType": "uint256",
          "name": "amount",
          "type": "uint256"
        },
        {
          "internalType": "bytes",
          "name": "data",
          "type": "bytes"
        },
        {
          "internalType": "bytes",
          "name": "operatorData",
          "type": "bytes"
        }
      ],
      "name": "operatorBurn",
      "outputs": [],
      "payable": false,
      "stateMutability": "nonpayable",
      "type": "function"
    },
    {
      "constant": false,
      "inputs": [
        {
          "internalType": "address",
          "name": "sender",
          "type": "address"
        },
        {
          "internalType": "address",
          "name": "recipient",
          "type": "address"
        },
        {
          "internalType": "uint256",
          "name": "amount",
          "type": "uint256"
        },
        {
          "internalType": "bytes",
          "name": "data",
          "type": "bytes"
        },
        {
          "internalType": "bytes",
          "name": "operatorData",
          "type": "bytes"
        }
      ],
      "name": "operatorSend",
      "outputs": [],
      "payable": false,
      "stateMutability": "nonpayable",
      "type": "function"
    },
    {
      "constant": false,
      "inputs": [
        {
          "internalType": "address",
          "name": "operator",
          "type": "address"
        }
      ],
      "name": "revokeOperator",
      "outputs": [],
      "payable": false,
      "stateMutability": "nonpayable",
      "type": "function"
    },
    {
      "constant": false,
      "inputs": [
        {
          "internalType": "address",
          "name": "recipient",
          "type": "address"
        },
        {
          "internalType": "uint256",
          "name": "amount",
          "type": "uint256"
        },
        {
          "internalType": "bytes",
          "name": "data",
          "type": "bytes"
        }
      ],
      "name": "send",
      "outputs": [],
      "payable": false,
      "stateMutability": "nonpayable",
      "type": "function"
    },
    {
      "constant": true,
      "inputs": [],
      "name": "symbol",
      "outputs": [
        {
          "internalType": "string",
          "name": "",
          "type": "string"
        }
      ],
      "payable": false,
      "stateMutability": "view",
      "type": "function"
    },
    {
      "constant": true,
      "inputs": [],
      "name": "totalSupply",
      "outputs": [
        {
          "internalType": "uint256",
          "name": "",
          "type": "uint256"
        }
      ],
      "payable": false,
      "stateMutability": "view",
      "type": "function"
    },
    {
      "constant": false,
      "inputs": [
        {
          "internalType": "address",
          "name": "recipient",
          "type": "address"
        },
        {
          "internalType": "uint256",
          "name": "amount",
          "type": "uint256"
        }
      ],
      "name": "transfer",
      "outputs": [
        {
          "internalType": "bool",
          "name": "",
          "type": "bool"
        }
      ],
      "payable": false,
      "stateMutability": "nonpayable",
      "type": "function"
    },
    {
      "constant": false,
      "inputs": [
        {
          "internalType": "address",
          "name": "holder",
          "type": "address"
        },
        {
          "internalType": "address",
          "name": "recipient",
          "type": "address"
        },
        {
          "internalType": "uint256",
          "name": "amount",
          "type": "uint256"
        }
      ],
      "name": "transferFrom",
      "outputs": [
        {
          "internalType": "bool",
          "name": "",
          "type": "bool"
        }
      ],
      "payable": false,
      "stateMutability": "nonpayable",
      "type": "function"
    },
    {
      "constant": false,
      "inputs": [
        {
          "internalType": "address",
          "name": "account",
          "type": "address"
        },
        {
          "internalType": "uint256",
          "name": "amount",
          "type": "uint256"
        },
        {
          "internalType": "bytes",
          "name": "userData",
          "type": "bytes"
        }
      ],
      "name": "mint",
      "outputs": [
        {
          "internalType": "bool",
          "name": "",
          "type": "bool"
        }
      ],
      "payable": false,
      "stateMutability": "nonpayable",
      "type": "function"
    }
  ],
  "bytecode": "0x60806040526126c8806100136000396000f3fe608060405234801561001057600080fd5b506004361061012c5760003560e01c8063959b8c3f116100ad578063d95b637111610071578063d95b637114610703578063dd62ed3e14610731578063fad8b32a1461075f578063fc673c4f14610785578063fe9d9303146108585761012c565b8063959b8c3f1461047b57806395d89b41146104a15780639bd9bbc6146104a9578063a9059cbb1461052c578063ca275931146105585761012c565b8063313ce567116100f4578063313ce56714610296578063556f0dc7146102b457806362ad1b83146102bc57806370a082311461039c57806394d008ef146103c25761012c565b806306e485381461013157806306fdde0314610189578063095ea7b31461020657806318160ddd1461024657806323b872dd14610260575b600080fd5b6101396108cd565b60408051602080825283518183015283519192839290830191858101910280838360005b8381101561017557818101518382015260200161015d565b505050509050019250505060405180910390f35b610191610930565b6040805160208082528351818301528351919283929083019185019080838360005b838110156101cb5781810151838201526020016101b3565b50505050905090810190601f1680156101f85780820380516001836020036101000a031916815260200191505b509250505060405180910390f35b6102326004803603604081101561021c57600080fd5b506001600160a01b0381351690602001356109bd565b604080519115158252519081900360200190f35b61024e6109df565b60408051918252519081900360200190f35b6102326004803603606081101561027657600080fd5b506001600160a01b038135811691602081013590911690604001356109e5565b61029e610b68565b6040805160ff9092168252519081900360200190f35b61024e610b6d565b61039a600480360360a08110156102d257600080fd5b6001600160a01b03823581169260208101359091169160408201359190810190608081016060820135600160201b81111561030c57600080fd5b82018360208201111561031e57600080fd5b803590602001918460018302840111600160201b8311171561033f57600080fd5b919390929091602081019035600160201b81111561035c57600080fd5b82018360208201111561036e57600080fd5b803590602001918460018302840111600160201b8311171561038f57600080fd5b509092509050610b72565b005b61024e600480360360208110156103b257600080fd5b50356001600160a01b0316610c48565b610232600480360360608110156103d857600080fd5b6001600160a01b0382351691602081013591810190606081016040820135600160201b81111561040757600080fd5b82018360208201111561041957600080fd5b803590602001918460018302840111600160201b8311171561043a57600080fd5b91908080601f016020809104026020016040519081016040528093929190818152602001838380828437600092019190915250929550610c63945050505050565b61039a6004803603602081101561049157600080fd5b50356001600160a01b0316610c81565b610191610dcd565b61039a600480360360608110156104bf57600080fd5b6001600160a01b0382351691602081013591810190606081016040820135600160201b8111156104ee57600080fd5b82018360208201111561050057600080fd5b803590602001918460018302840111600160201b8311171561052157600080fd5b509092509050610e2e565b6102326004803603604081101561054257600080fd5b506001600160a01b038135169060200135610e96565b61039a6004803603606081101561056e57600080fd5b810190602081018135600160201b81111561058857600080fd5b82018360208201111561059a57600080fd5b803590602001918460018302840111600160201b831117156105bb57600080fd5b91908080601f0160208091040260200160405190810160405280939291908181526020018383808284376000920191909152509295949360208101935035915050600160201b81111561060d57600080fd5b82018360208201111561061f57600080fd5b803590602001918460018302840111600160201b8311171561064057600080fd5b91908080601f0160208091040260200160405190810160405280939291908181526020018383808284376000920191909152509295949360208101935035915050600160201b81111561069257600080fd5b8201836020820111156106a457600080fd5b803590602001918460208302840111600160201b831117156106c557600080fd5b919080806020026020016040519081016040528093929190818152602001838360200280828437600092019190915250929550610f6f945050505050565b6102326004803603604081101561071957600080fd5b506001600160a01b03813581169160200135166111d5565b61024e6004803603604081101561074757600080fd5b506001600160a01b0381358116916020013516611277565b61039a6004803603602081101561077557600080fd5b50356001600160a01b03166112a2565b61039a6004803603608081101561079b57600080fd5b6001600160a01b0382351691602081013591810190606081016040820135600160201b8111156107ca57600080fd5b8201836020820111156107dc57600080fd5b803590602001918460018302840111600160201b831117156107fd57600080fd5b919390929091602081019035600160201b81111561081a57600080fd5b82018360208201111561082c57600080fd5b803590602001918460018302840111600160201b8311171561084d57600080fd5b5090925090506113ee565b61039a6004803603604081101561086e57600080fd5b81359190810190604081016020820135600160201b81111561088f57600080fd5b8201836020820111156108a157600080fd5b803590602001918460018302840111600160201b831117156108c257600080fd5b5090925090506114bf565b6060603780548060200260200160405190810160405280929190818152602001828054801561092557602002820191906000526020600020905b81546001600160a01b03168152600190910190602001808311610907575b505050505090505b90565b60358054604080516020601f60026000196101006001881615020190951694909404938401819004810282018101909252828152606093909290918301828280156109255780601f1061099157610100808354040283529160200191610925565b820191906000526020600020905b81548152906001019060200180831161099f57509395945050505050565b6000806109c8611522565b90506109d5818585611526565b5060019392505050565b60345490565b60006001600160a01b038316610a2c5760405162461bcd60e51b81526004018080602001828103825260248152602001806125af6024913960400191505060405180910390fd5b6001600160a01b038416610a715760405162461bcd60e51b81526004018080602001828103825260268152602001806126286026913960400191505060405180910390fd5b6000610a7b611522565b9050610aa98186868660405180602001604052806000815250604051806020016040528060008152506115cd565b610ad5818686866040518060200160405280600081525060405180602001604052806000815250611814565b610b2f8582610b2a866040518060600160405280602981526020016125ff602991396001600160a01b03808c166000908152603b60209081526040808320938b1683529290522054919063ffffffff611a2e16565b611526565b610b5d8186868660405180602001604052806000815250604051806020016040528060008152506000611ac5565b506001949350505050565b601290565b600190565b610b83610b7d611522565b886111d5565b610bbe5760405162461bcd60e51b815260040180806020018281038252602c8152602001806125d3602c913960400191505060405180910390fd5b610c3f610bc9611522565b88888888888080601f01602080910402602001604051908101604052809392919081815260200183838082843760009201919091525050604080516020601f8c018190048102820181019092528a815292508a915089908190840183828082843760009201919091525060019250611d65915050565b50505050505050565b6001600160a01b031660009081526033602052604090205490565b60006109d53385858560405180602001604052806000815250611e30565b806001600160a01b0316610c93611522565b6001600160a01b03161415610cd95760405162461bcd60e51b81526004018080602001828103825260248152602001806124ef6024913960400191505060405180910390fd5b6001600160a01b03811660009081526038602052604090205460ff1615610d3c57603a6000610d06611522565b6001600160a01b03908116825260208083019390935260409182016000908120918516815292529020805460ff19169055610d83565b600160396000610d4a611522565b6001600160a01b03908116825260208083019390935260409182016000908120918616815292529020805460ff19169115159190911790555b610d8b611522565b6001600160a01b0316816001600160a01b03167ff4caeb2d6ca8932a215a353d0703c326ec2d81fc68170f320eb2ab49e9df61f960405160405180910390a350565b60368054604080516020601f60026000196101006001881615020190951694909404938401819004810282018101909252828152606093909290918301828280156109255780601f1061099157610100808354040283529160200191610925565b610e90610e39611522565b610e41611522565b868686868080601f01602080910402602001604051908101604052809392919081815260200183838082843760009201829052506040805160208101909152908152925060019150611d659050565b50505050565b60006001600160a01b038316610edd5760405162461bcd60e51b81526004018080602001828103825260248152602001806125af6024913960400191505060405180910390fd5b6000610ee7611522565b9050610f158182868660405180602001604052806000815250604051806020016040528060008152506115cd565b610f41818286866040518060200160405280600081525060405180602001604052806000815250611814565b6109d58182868660405180602001604052806000815250604051806020016040528060008152506000611ac5565b600054610100900460ff1680610f885750610f8861205b565b80610f96575060005460ff16155b610fd15760405162461bcd60e51b815260040180806020018281038252602e815260200180612581602e913960400191505060405180910390fd5b600054610100900460ff16158015610ffc576000805460ff1961ff0019909116610100171660011790555b835161100f906035906020870190612366565b508251611023906036906020860190612366565b5081516110379060379060208501906123e4565b5060005b603754811015611094576001603860006037848154811061105857fe5b6000918252602080832091909101546001600160a01b031683528201929092526040019020805460ff191691151591909117905560010161103b565b50604080516a22a9219b9b9baa37b5b2b760a91b8152815190819003600b0181206329965a1d60e01b82523060048301819052602483019190915260448201529051731820a4b7618bde71dce8cdc73aab6c95905fad24916329965a1d91606480830192600092919082900301818387803b15801561111257600080fd5b505af1158015611126573d6000803e3d6000fd5b5050604080516922a92199182a37b5b2b760b11b8152815190819003600a0181206329965a1d60e01b82523060048301819052602483019190915260448201529051731820a4b7618bde71dce8cdc73aab6c95905fad2493506329965a1d9250606480830192600092919082900301818387803b1580156111a657600080fd5b505af11580156111ba573d6000803e3d6000fd5b505050508015610e90576000805461ff001916905550505050565b6000816001600160a01b0316836001600160a01b0316148061124057506001600160a01b03831660009081526038602052604090205460ff16801561124057506001600160a01b038083166000908152603a602090815260408083209387168352929052205460ff16155b8061127057506001600160a01b0380831660009081526039602090815260408083209387168352929052205460ff165b9392505050565b6001600160a01b039182166000908152603b6020908152604080832093909416825291909152205490565b6112aa611522565b6001600160a01b0316816001600160a01b031614156112fa5760405162461bcd60e51b81526004018080602001828103825260218152602001806125136021913960400191505060405180910390fd5b6001600160a01b03811660009081526038602052604090205460ff1615611366576001603a6000611329611522565b6001600160a01b03908116825260208083019390935260409182016000908120918616815292529020805460ff19169115159190911790556113a4565b60396000611372611522565b6001600160a01b03908116825260208083019390935260409182016000908120918516815292529020805460ff191690555b6113ac611522565b6001600160a01b0316816001600160a01b03167f50546e66e5f44d728365dc3908c63bc5cfeeab470722c1677e3073a6ac294aa160405160405180910390a350565b6113ff6113f9611522565b876111d5565b61143a5760405162461bcd60e51b815260040180806020018281038252602c8152602001806125d3602c913960400191505060405180910390fd5b6114b7611445611522565b878787878080601f01602080910402602001604051908101604052809392919081815260200183838082843760009201919091525050604080516020601f8b01819004810282018101909252898152925089915088908190840183828082843760009201919091525061206192505050565b505050505050565b61151d6114ca611522565b6114d2611522565b8585858080601f016020809104026020016040519081016040528093929190818152602001838380828437600092018290525060408051602081019091529081529250612061915050565b505050565b3390565b6001600160a01b03821661156b5760405162461bcd60e51b81526004018080602001828103825260238152602001806126716023913960400191505060405180910390fd5b6001600160a01b038084166000818152603b6020908152604080832094871680845294825291829020859055815185815291517f8c5be1e5ebec7d5bd14f71427d1e84f3dd0314c0f7b2291e5b200ac8c7c3b9259281900390910190a3505050565b6040805163555ddc6560e11b81526001600160a01b03871660048201527f29ddb589b1fb5fc7cf394961c1adf5f8c6454761adf795e67fe149f658abe89560248201529051600091731820a4b7618bde71dce8cdc73aab6c95905fad249163aabbb8ca91604480820192602092909190829003018186803b15801561165157600080fd5b505afa158015611665573d6000803e3d6000fd5b505050506040513d602081101561167b57600080fd5b505190506001600160a01b03811615610c3f57806001600160a01b03166375ab97828888888888886040518763ffffffff1660e01b815260040180876001600160a01b03166001600160a01b03168152602001866001600160a01b03166001600160a01b03168152602001856001600160a01b03166001600160a01b031681526020018481526020018060200180602001838103835285818151815260200191508051906020019080838360005b83811015611741578181015183820152602001611729565b50505050905090810190601f16801561176e5780820380516001836020036101000a031916815260200191505b50838103825284518152845160209182019186019080838360005b838110156117a1578181015183820152602001611789565b50505050905090810190601f1680156117ce5780820380516001836020036101000a031916815260200191505b5098505050505050505050600060405180830381600087803b1580156117f357600080fd5b505af1158015611807573d6000803e3d6000fd5b5050505050505050505050565b611857836040518060600160405280602781526020016124a6602791396001600160a01b038816600090815260336020526040902054919063ffffffff611a2e16565b6001600160a01b03808716600090815260336020526040808220939093559086168152205461188c908463ffffffff61228e16565b60336000866001600160a01b03166001600160a01b0316815260200190815260200160002081905550836001600160a01b0316856001600160a01b0316876001600160a01b03167f06b541ddaa720db2b10a4d0cdac39b8d360425fc073085fac19bc82614677987868686604051808481526020018060200180602001838103835285818151815260200191508051906020019080838360005b8381101561193e578181015183820152602001611926565b50505050905090810190601f16801561196b5780820380516001836020036101000a031916815260200191505b50838103825284518152845160209182019186019080838360005b8381101561199e578181015183820152602001611986565b50505050905090810190601f1680156119cb5780820380516001836020036101000a031916815260200191505b509550505050505060405180910390a4836001600160a01b0316856001600160a01b03167fddf252ad1be2c89b69c2b068fc378daa952ba7f163c4a11628f55a4df523b3ef856040518082815260200191505060405180910390a3505050505050565b60008184841115611abd5760405162461bcd60e51b81526004018080602001828103825283818151815260200191508051906020019080838360005b83811015611a82578181015183820152602001611a6a565b50505050905090810190601f168015611aaf5780820380516001836020036101000a031916815260200191505b509250505060405180910390fd5b505050900390565b6040805163555ddc6560e11b81526001600160a01b03871660048201527fb281fc8c12954d22544db45de3159a39272895b169a852b314f9cc762e44c53b60248201529051600091731820a4b7618bde71dce8cdc73aab6c95905fad249163aabbb8ca91604480820192602092909190829003018186803b158015611b4957600080fd5b505afa158015611b5d573d6000803e3d6000fd5b505050506040513d6020811015611b7357600080fd5b505190506001600160a01b03811615611d0757806001600160a01b03166223de298989898989896040518763ffffffff1660e01b815260040180876001600160a01b03166001600160a01b03168152602001866001600160a01b03166001600160a01b03168152602001856001600160a01b03166001600160a01b031681526020018481526020018060200180602001838103835285818151815260200191508051906020019080838360005b83811015611c38578181015183820152602001611c20565b50505050905090810190601f168015611c655780820380516001836020036101000a031916815260200191505b50838103825284518152845160209182019186019080838360005b83811015611c98578181015183820152602001611c80565b50505050905090810190601f168015611cc55780820380516001836020036101000a031916815260200191505b5098505050505050505050600060405180830381600087803b158015611cea57600080fd5b505af1158015611cfe573d6000803e3d6000fd5b50505050611d5b565b8115611d5b57611d1f866001600160a01b03166122e8565b15611d5b5760405162461bcd60e51b815260040180806020018281038252604d815260200180612534604d913960600191505060405180910390fd5b5050505050505050565b6001600160a01b038616611daa5760405162461bcd60e51b81526004018080602001828103825260228152602001806124846022913960400191505060405180910390fd5b6001600160a01b038516611e05576040805162461bcd60e51b815260206004820181905260248201527f4552433737373a2073656e6420746f20746865207a65726f2061646472657373604482015290519081900360640190fd5b611e138787878787876115cd565b611e21878787878787611814565b610c3f87878787878787611ac5565b6001600160a01b038416611e8b576040805162461bcd60e51b815260206004820181905260248201527f4552433737373a206d696e7420746f20746865207a65726f2061646472657373604482015290519081900360640190fd5b603454611e9e908463ffffffff61228e16565b6034556001600160a01b038416600090815260336020526040902054611eca908463ffffffff61228e16565b6001600160a01b038516600090815260336020526040812091909155611ef7908690868686866001611ac5565b836001600160a01b0316856001600160a01b03167f2fe5be0146f74c5bce36c0b80911af6c7d86ff27e89d5cfa61fc681327954e5d858585604051808481526020018060200180602001838103835285818151815260200191508051906020019080838360005b83811015611f76578181015183820152602001611f5e565b50505050905090810190601f168015611fa35780820380516001836020036101000a031916815260200191505b50838103825284518152845160209182019186019080838360005b83811015611fd6578181015183820152602001611fbe565b50505050905090810190601f1680156120035780820380516001836020036101000a031916815260200191505b509550505050505060405180910390a36040805184815290516001600160a01b038616916000917fddf252ad1be2c89b69c2b068fc378daa952ba7f163c4a11628f55a4df523b3ef9181900360200190a35050505050565b303b1590565b6001600160a01b0384166120a65760405162461bcd60e51b81526004018080602001828103825260228152602001806124cd6022913960400191505060405180910390fd5b6120b5858560008686866115cd565b6120f88360405180606001604052806023815260200161264e602391396001600160a01b038716600090815260336020526040902054919063ffffffff611a2e16565b6001600160a01b038516600090815260336020526040902055603454612124908463ffffffff61232416565b603481905550836001600160a01b0316856001600160a01b03167fa78a9be3a7b862d26933ad85fb11d80ef66b8f972d7cbba06621d583943a4098858585604051808481526020018060200180602001838103835285818151815260200191508051906020019080838360005b838110156121a9578181015183820152602001612191565b50505050905090810190601f1680156121d65780820380516001836020036101000a031916815260200191505b50838103825284518152845160209182019186019080838360005b838110156122095781810151838201526020016121f1565b50505050905090810190601f1680156122365780820380516001836020036101000a031916815260200191505b509550505050505060405180910390a36040805184815290516000916001600160a01b038716917fddf252ad1be2c89b69c2b068fc378daa952ba7f163c4a11628f55a4df523b3ef9181900360200190a35050505050565b600082820183811015611270576040805162461bcd60e51b815260206004820152601b60248201527f536166654d6174683a206164646974696f6e206f766572666c6f770000000000604482015290519081900360640190fd5b6000813f7fc5d2460186f7233c927e7db2dcc703c0e500b653ca82273b7bfad8045d85a470811580159061231c5750808214155b949350505050565b600061127083836040518060400160405280601e81526020017f536166654d6174683a207375627472616374696f6e206f766572666c6f770000815250611a2e565b828054600181600116156101000203166002900490600052602060002090601f016020900481019282601f106123a757805160ff19168380011785556123d4565b828001600101855582156123d4579182015b828111156123d45782518255916020019190600101906123b9565b506123e0929150612445565b5090565b828054828255906000526020600020908101928215612439579160200282015b8281111561243957825182546001600160a01b0319166001600160a01b03909116178255602090920191600190910190612404565b506123e092915061245f565b61092d91905b808211156123e0576000815560010161244b565b61092d91905b808211156123e05780546001600160a01b031916815560010161246556fe4552433737373a2073656e642066726f6d20746865207a65726f20616464726573734552433737373a207472616e7366657220616d6f756e7420657863656564732062616c616e63654552433737373a206275726e2066726f6d20746865207a65726f20616464726573734552433737373a20617574686f72697a696e672073656c66206173206f70657261746f724552433737373a207265766f6b696e672073656c66206173206f70657261746f724552433737373a20746f6b656e20726563697069656e7420636f6e747261637420686173206e6f20696d706c656d656e74657220666f7220455243373737546f6b656e73526563697069656e74436f6e747261637420696e7374616e63652068617320616c7265616479206265656e20696e697469616c697a65644552433737373a207472616e7366657220746f20746865207a65726f20616464726573734552433737373a2063616c6c6572206973206e6f7420616e206f70657261746f7220666f7220686f6c6465724552433737373a207472616e7366657220616d6f756e74206578636565647320616c6c6f77616e63654552433737373a207472616e736665722066726f6d20746865207a65726f20616464726573734552433737373a206275726e20616d6f756e7420657863656564732062616c616e63654552433737373a20617070726f766520746f20746865207a65726f2061646472657373a265627a7a72315820d877bcc818ad856acb70f5256cea2d8304ef9ceba2b7b053d6666a8622c02ddd64736f6c634300050c0032",
  "source": "pragma solidity 0.5.12;\n\nimport \"@openzeppelin/contracts-ethereum-package/contracts/token/ERC777/ERC777.sol\";\n\n/**\n * @dev Extension of {ERC20} that adds a set of accounts with the {MinterRole},\n * which have permission to mint (create) new tokens as they see fit.\n *\n * At construction, the deployer of the contract is the only minter.\n */\ncontract ERC777Mintable is ERC777 {\n    /**\n     * @dev See {ERC20-_mint}.\n     *\n     * Requirements:\n     *\n     * - the caller must have the {MinterRole}.\n     */\n    function mint(address account, uint256 amount, bytes memory userData) public returns (bool) {\n        _mint(msg.sender, account, amount, userData, \"\");\n        return true;\n    }\n}\n",
  "sourcePath": "/home/manjain/Documents/LetsPool/src/pooltogether-contracts/contracts/test/ERC777Mintable.sol",
  "compiler": {
    "name": "solc",
    "version": "0.5.12+commit.7709ece9.Emscripten.clang"
  },
  "schemaVersion": "3.1.0",
  "updatedAt": "2020-05-21T20:34:55.088Z",
  "devdoc": {
    "details": "Extension of {ERC20} that adds a set of accounts with the {MinterRole}, which have permission to mint (create) new tokens as they see fit. * At construction, the deployer of the contract is the only minter.",
    "methods": {
      "allowance(address,address)": {
        "details": "See {IERC20-allowance}.     * Note that operator and allowance concepts are orthogonal: operators may not have allowance, and accounts with allowance may not be operators themselves."
      },
      "approve(address,uint256)": {
        "details": "See {IERC20-approve}.     * Note that accounts cannot have allowance issued by their operators."
      },
      "authorizeOperator(address)": {
        "details": "See {IERC777-authorizeOperator}."
      },
      "balanceOf(address)": {
        "details": "Returns the amount of tokens owned by an account (`tokenHolder`)."
      },
      "burn(uint256,bytes)": {
        "details": "See {IERC777-burn}.     * Also emits a {Transfer} event for ERC20 compatibility."
      },
      "decimals()": {
        "details": "See {ERC20Detailed-decimals}.     * Always returns 18, as per the [ERC777 EIP](https://eips.ethereum.org/EIPS/eip-777#backward-compatibility)."
      },
      "defaultOperators()": {
        "details": "See {IERC777-defaultOperators}."
      },
      "granularity()": {
        "details": "See {IERC777-granularity}.     * This implementation always returns `1`."
      },
      "initialize(string,string,address[])": {
        "details": "`defaultOperators` may be an empty array."
      },
      "isOperatorFor(address,address)": {
        "details": "See {IERC777-isOperatorFor}."
      },
      "mint(address,uint256,bytes)": {
        "details": "See {ERC20-_mint}.     * Requirements:     * - the caller must have the {MinterRole}."
      },
      "name()": {
        "details": "See {IERC777-name}."
      },
      "operatorBurn(address,uint256,bytes,bytes)": {
        "details": "See {IERC777-operatorBurn}.     * Emits {Burned} and {Transfer} events."
      },
      "operatorSend(address,address,uint256,bytes,bytes)": {
        "details": "See {IERC777-operatorSend}.     * Emits {Sent} and {Transfer} events."
      },
      "revokeOperator(address)": {
        "details": "See {IERC777-revokeOperator}."
      },
      "send(address,uint256,bytes)": {
        "details": "See {IERC777-send}.     * Also emits a {Transfer} event for ERC20 compatibility."
      },
      "symbol()": {
        "details": "See {IERC777-symbol}."
      },
      "totalSupply()": {
        "details": "See {IERC777-totalSupply}."
      },
      "transfer(address,uint256)": {
        "details": "See {IERC20-transfer}.     * Unlike `send`, `recipient` is _not_ required to implement the {IERC777Recipient} interface if it is a contract.     * Also emits a {Sent} event."
      },
      "transferFrom(address,address,uint256)": {
        "details": "See {IERC20-transferFrom}.    * Note that operator and allowance concepts are orthogonal: operators cannot call `transferFrom` (unless they have allowance), and accounts with allowance cannot call `operatorSend` (unless they are operators).    * Emits {Sent}, {Transfer} and {Approval} events."
      }
    }
  },
  "userdoc": {
    "methods": {}
  }
}