{
  "contractName": "ExposedDrawManager",
  "abi": [
    {
      "constant": false,
      "inputs": [],
      "name": "openNextDraw",
      "outputs": [],
      "payable": false,
      "stateMutability": "nonpayable",
      "type": "function"
    },
    {
      "constant": false,
      "inputs": [
        {
          "internalType": "address",
          "name": "user",
          "type": "address"
        },
        {
          "internalType": "uint256",
          "name": "amount",
          "type": "uint256"
        }
      ],
      "name": "deposit",
      "outputs": [],
      "payable": false,
      "stateMutability": "nonpayable",
      "type": "function"
    },
    {
      "constant": false,
      "inputs": [
        {
          "internalType": "address",
          "name": "_addr",
          "type": "address"
        },
        {
          "internalType": "uint256",
          "name": "_amount",
          "type": "uint256"
        }
      ],
      "name": "depositCommitted",
      "outputs": [],
      "payable": false,
      "stateMutability": "nonpayable",
      "type": "function"
    },
    {
      "constant": false,
      "inputs": [
        {
          "internalType": "address",
          "name": "user",
          "type": "address"
        }
      ],
      "name": "withdraw",
      "outputs": [],
      "payable": false,
      "stateMutability": "nonpayable",
      "type": "function"
    },
    {
      "constant": false,
      "inputs": [
        {
          "internalType": "address",
          "name": "user",
          "type": "address"
        },
        {
          "internalType": "uint256",
          "name": "amount",
          "type": "uint256"
        }
      ],
      "name": "withdrawOpen",
      "outputs": [],
      "payable": false,
      "stateMutability": "nonpayable",
      "type": "function"
    },
    {
      "constant": false,
      "inputs": [
        {
          "internalType": "address",
          "name": "user",
          "type": "address"
        },
        {
          "internalType": "uint256",
          "name": "amount",
          "type": "uint256"
        }
      ],
      "name": "withdrawCommitted",
      "outputs": [],
      "payable": false,
      "stateMutability": "nonpayable",
      "type": "function"
    },
    {
      "constant": true,
      "inputs": [
        {
          "internalType": "address",
          "name": "user",
          "type": "address"
        }
      ],
      "name": "balanceOf",
      "outputs": [
        {
          "internalType": "uint256",
          "name": "",
          "type": "uint256"
        }
      ],
      "payable": false,
      "stateMutability": "view",
      "type": "function"
    },
    {
      "constant": true,
      "inputs": [
        {
          "internalType": "address",
          "name": "user",
          "type": "address"
        }
      ],
      "name": "committedBalanceOf",
      "outputs": [
        {
          "internalType": "uint256",
          "name": "",
          "type": "uint256"
        }
      ],
      "payable": false,
      "stateMutability": "view",
      "type": "function"
    },
    {
      "constant": true,
      "inputs": [
        {
          "internalType": "address",
          "name": "user",
          "type": "address"
        }
      ],
      "name": "openBalanceOf",
      "outputs": [
        {
          "internalType": "uint256",
          "name": "",
          "type": "uint256"
        }
      ],
      "payable": false,
      "stateMutability": "view",
      "type": "function"
    },
    {
      "constant": true,
      "inputs": [],
      "name": "committedSupply",
      "outputs": [
        {
          "internalType": "uint256",
          "name": "",
          "type": "uint256"
        }
      ],
      "payable": false,
      "stateMutability": "view",
      "type": "function"
    },
    {
      "constant": true,
      "inputs": [],
      "name": "openSupply",
      "outputs": [
        {
          "internalType": "uint256",
          "name": "",
          "type": "uint256"
        }
      ],
      "payable": false,
      "stateMutability": "view",
      "type": "function"
    },
    {
      "constant": true,
      "inputs": [],
      "name": "openDrawIndex",
      "outputs": [
        {
          "internalType": "uint256",
          "name": "",
          "type": "uint256"
        }
      ],
      "payable": false,
      "stateMutability": "view",
      "type": "function"
    },
    {
      "constant": true,
      "inputs": [
        {
          "internalType": "uint256",
          "name": "token",
          "type": "uint256"
        }
      ],
      "name": "draw",
      "outputs": [
        {
          "internalType": "address",
          "name": "",
          "type": "address"
        }
      ],
      "payable": false,
      "stateMutability": "view",
      "type": "function"
    },
    {
      "constant": true,
      "inputs": [
        {
          "internalType": "address",
          "name": "user",
          "type": "address"
        }
      ],
      "name": "consolidatedDrawIndex",
      "outputs": [
        {
          "internalType": "uint256",
          "name": "",
          "type": "uint256"
        }
      ],
      "payable": false,
      "stateMutability": "view",
      "type": "function"
    },
    {
      "constant": true,
      "inputs": [
        {
          "internalType": "address",
          "name": "user",
          "type": "address"
        }
      ],
      "name": "latestDrawIndex",
      "outputs": [
        {
          "internalType": "uint256",
          "name": "",
          "type": "uint256"
        }
      ],
      "payable": false,
      "stateMutability": "view",
      "type": "function"
    },
    {
      "constant": true,
      "inputs": [
        {
          "internalType": "bytes32",
          "name": "entropy",
          "type": "bytes32"
        }
      ],
      "name": "drawWithEntropy",
      "outputs": [
        {
          "internalType": "address",
          "name": "",
          "type": "address"
        }
      ],
      "payable": false,
      "stateMutability": "view",
      "type": "function"
    }
  ],
  "bytecode": "0x608060405234801561001057600080fd5b5061092a806100206000396000f3fe608060405234801561001057600080fd5b50600436106101005760003560e01c80637251ac6e11610097578063a8fa4e1411610066578063a8fa4e14146102c1578063ababbdd3146102e7578063e8f099f4146102ef578063f5748ae6146102f757610100565b80637251ac6e1461023b57806379f08771146102675780637bcc667a1461028d5780638f550e4b146102b957610100565b806351cff8d9116100d357806351cff8d9146101ac57806358a9e6a6146101d25780635a541bf7146101f857806370a082311461021557610100565b80633b30414714610105578063478000681461013e57806347e7ef24146101585780635019348514610186575b600080fd5b6101226004803603602081101561011b57600080fd5b5035610323565b604080516001600160a01b039092168252519081900360200190f35b6101466103b0565b60408051918252519081900360200190f35b6101846004803603604081101561016e57600080fd5b506001600160a01b038135169060200135610434565b005b6101466004803603602081101561019c57600080fd5b50356001600160a01b03166104b6565b610184600480360360208110156101c257600080fd5b50356001600160a01b0316610519565b610146600480360360208110156101e857600080fd5b50356001600160a01b0316610593565b6101226004803603602081101561020e57600080fd5b50356105ae565b6101466004803603602081101561022b57600080fd5b50356001600160a01b0316610609565b6101846004803603604081101561025157600080fd5b506001600160a01b03813516906020013561066c565b6101466004803603602081101561027d57600080fd5b50356001600160a01b03166106d2565b610184600480360360408110156102a357600080fd5b506001600160a01b038135169060200135610735565b61018461079b565b610146600480360360208110156102d757600080fd5b50356001600160a01b031661081b565b610146610836565b61014661083c565b6101846004803603604081101561030d57600080fd5b506001600160a01b03813516906020013561088f565b60408051636eff2f1f60e11b815260006004820181905260248201849052915173__DrawManager___________________________9163ddfe5e3e916044808301926020929190829003018186803b15801561037e57600080fd5b505af4158015610392573d6000803e3d6000fd5b505050506040513d60208110156103a857600080fd5b505192915050565b60008073__DrawManager___________________________63ed21d6ea90916040518263ffffffff1660e01b81526004018082815260200191505060206040518083038186803b15801561040357600080fd5b505af4158015610417573d6000803e3d6000fd5b505050506040513d602081101561042d57600080fd5b5051905090565b604080516371a28dbb60e11b81526000600482018190526001600160a01b038516602483015260448201849052915173__DrawManager___________________________9263e3451b769260648082019391829003018186803b15801561049a57600080fd5b505af41580156104ae573d6000803e3d6000fd5b505050505050565b6040805163713b41f560e11b81526000600482018190526001600160a01b0384166024830152915173__DrawManager___________________________9163e27683ea916044808301926020929190829003018186803b15801561037e57600080fd5b60408051631326e7a760e21b81526000600482018190526001600160a01b0384166024830152915173__DrawManager___________________________92634c9b9e9c9260448082019391829003018186803b15801561057857600080fd5b505af415801561058c573d6000803e3d6000fd5b5050505050565b6001600160a01b031660009081526001602052604090205490565b60408051633484b6bb60e01b815260006004820181905260248201849052915173__DrawManager___________________________91633484b6bb916044808301926020929190829003018186803b15801561037e57600080fd5b604080516305a094bf60e51b81526000600482018190526001600160a01b0384166024830152915173__DrawManager___________________________9163b41297e0916044808301926020929190829003018186803b15801561037e57600080fd5b604080516383e8aad560e01b81526000600482018190526001600160a01b038516602483015260448201849052915173__DrawManager___________________________926383e8aad59260648082019391829003018186803b15801561049a57600080fd5b604080516311f43c3360e31b81526000600482018190526001600160a01b0384166024830152915173__DrawManager___________________________91638fa1e198916044808301926020929190829003018186803b15801561037e57600080fd5b604080516349ec2abb60e11b81526000600482018190526001600160a01b038516602483015260448201849052915173__DrawManager___________________________926393d855769260648082019391829003018186803b15801561049a57600080fd5b60408051630c520e5160e31b815260006004820152905173__DrawManager___________________________916362907288916024808301926020929190829003018186803b1580156107ed57600080fd5b505af4158015610801573d6000803e3d6000fd5b505050506040513d602081101561081757600080fd5b5050565b6001600160a01b031660009081526002602052604090205490565b60045490565b60008073__DrawManager___________________________63663d9a7a90916040518263ffffffff1660e01b81526004018082815260200191505060206040518083038186803b15801561040357600080fd5b604080516362559ecd60e11b81526000600482018190526001600160a01b038516602483015260448201849052915173__DrawManager___________________________9263c4ab3d9a9260648082019391829003018186803b15801561049a57600080fdfea265627a7a723158208e541d1c2dedae8e37e40df3376c707a6e63fd944570b930ae508b440c0990f864736f6c634300050c0032",
  "source": "/**\nCopyright 2020 PoolTogether Inc.\n\nThis file is part of PoolTogether.\n\nPoolTogether is free software: you can redistribute it and/or modify\nit under the terms of the GNU General Public License as published by\nthe Free Software Foundation under version 3 of the License.\n\nPoolTogether is distributed in the hope that it will be useful,\nbut WITHOUT ANY WARRANTY; without even the implied warranty of\nMERCHANTABILITY or FITNESS FOR A PARTICULAR PURPOSE.  See the\nGNU General Public License for more details.\n\nYou should have received a copy of the GNU General Public License\nalong with PoolTogether.  If not, see <https://www.gnu.org/licenses/>.\n*/\n\npragma solidity 0.5.12;\n\nimport \"../DrawManager.sol\";\n\ncontract ExposedDrawManager {\n    using DrawManager for DrawManager.State;\n\n    DrawManager.State state;\n\n    function openNextDraw() public {\n      state.openNextDraw();\n    }\n\n    function deposit(address user, uint256 amount) public {\n      state.deposit(user, amount);\n    }\n\n    function depositCommitted(address _addr, uint256 _amount) public {\n      state.depositCommitted(_addr, _amount);\n    }\n\n    function withdraw(address user) public {\n      state.withdraw(user);\n    }\n\n    function withdrawOpen(address user, uint256 amount) public {\n      state.withdrawOpen(user, amount);\n    }\n\n    function withdrawCommitted(address user, uint256 amount) public {\n      state.withdrawCommitted(user, amount);\n    }\n\n    function balanceOf(address user) public view returns (uint256) {\n      return state.balanceOf(user);\n    }\n\n    function committedBalanceOf(address user) public view returns (uint256) {\n      return state.committedBalanceOf(user);\n    }\n\n    function openBalanceOf(address user) public view returns (uint256) {\n      return state.openBalanceOf(user);\n    }\n\n    function committedSupply() public view returns (uint256) {\n      return state.committedSupply();\n    }\n\n    function openSupply() public view returns (uint256) {\n      return state.openSupply();\n    }\n\n    function openDrawIndex() public view returns (uint256) {\n      return state.openDrawIndex;\n    }\n\n    function draw(uint256 token) public view returns (address) {\n      return state.draw(token);\n    }\n\n    function consolidatedDrawIndex(address user) public view returns (uint256) {\n        return state.consolidatedDrawIndices[user];\n    }\n\n    function latestDrawIndex(address user) public view returns (uint256) {\n        return state.latestDrawIndices[user];\n    }\n\n    function drawWithEntropy(bytes32 entropy) public view returns (address) {\n        return state.drawWithEntropy(entropy);\n    }\n}",
  "sourcePath": "/home/manjain/Documents/LetsPool/src/pooltogether-contracts/contracts/test/ExposedDrawManager.sol",
  "compiler": {
    "name": "solc",
    "version": "0.5.12+commit.7709ece9.Emscripten.clang"
  },
  "schemaVersion": "3.1.0",
  "updatedAt": "2020-05-21T20:34:55.089Z",
  "devdoc": {
    "methods": {}
  },
  "userdoc": {
    "methods": {}
  }
}