{
  "contractName": "ExposedBlocklock",
  "abi": [
    {
      "constant": false,
      "inputs": [
        {
          "internalType": "uint256",
          "name": "lockDuration",
          "type": "uint256"
        }
      ],
      "name": "setLockDuration",
      "outputs": [],
      "payable": false,
      "stateMutability": "nonpayable",
      "type": "function"
    },
    {
      "constant": false,
      "inputs": [
        {
          "internalType": "uint256",
          "name": "cooldownDuration",
          "type": "uint256"
        }
      ],
      "name": "setCooldownDuration",
      "outputs": [],
      "payable": false,
      "stateMutability": "nonpayable",
      "type": "function"
    },
    {
      "constant": true,
      "inputs": [
        {
          "internalType": "uint256",
          "name": "blockNumber",
          "type": "uint256"
        }
      ],
      "name": "isLocked",
      "outputs": [
        {
          "internalType": "bool",
          "name": "",
          "type": "bool"
        }
      ],
      "payable": false,
      "stateMutability": "view",
      "type": "function"
    },
    {
      "constant": false,
      "inputs": [
        {
          "internalType": "uint256",
          "name": "blockNumber",
          "type": "uint256"
        }
      ],
      "name": "lock",
      "outputs": [],
      "payable": false,
      "stateMutability": "nonpayable",
      "type": "function"
    },
    {
      "constant": false,
      "inputs": [
        {
          "internalType": "uint256",
          "name": "blockNumber",
          "type": "uint256"
        }
      ],
      "name": "unlock",
      "outputs": [],
      "payable": false,
      "stateMutability": "nonpayable",
      "type": "function"
    },
    {
      "constant": true,
      "inputs": [
        {
          "internalType": "uint256",
          "name": "blockNumber",
          "type": "uint256"
        }
      ],
      "name": "canLock",
      "outputs": [
        {
          "internalType": "bool",
          "name": "",
          "type": "bool"
        }
      ],
      "payable": false,
      "stateMutability": "view",
      "type": "function"
    },
    {
      "constant": true,
      "inputs": [],
      "name": "lockDuration",
      "outputs": [
        {
          "internalType": "uint256",
          "name": "",
          "type": "uint256"
        }
      ],
      "payable": false,
      "stateMutability": "view",
      "type": "function"
    },
    {
      "constant": true,
      "inputs": [],
      "name": "cooldownDuration",
      "outputs": [
        {
          "internalType": "uint256",
          "name": "",
          "type": "uint256"
        }
      ],
      "payable": false,
      "stateMutability": "view",
      "type": "function"
    },
    {
      "constant": true,
      "inputs": [],
      "name": "cooldownEndAt",
      "outputs": [
        {
          "internalType": "uint256",
          "name": "",
          "type": "uint256"
        }
      ],
      "payable": false,
      "stateMutability": "view",
      "type": "function"
    },
    {
      "constant": true,
      "inputs": [],
      "name": "lockEndAt",
      "outputs": [
        {
          "internalType": "uint256",
          "name": "",
          "type": "uint256"
        }
      ],
      "payable": false,
      "stateMutability": "view",
      "type": "function"
    }
  ],
  "bytecode": "0x608060405234801561001057600080fd5b5061051f806100206000396000f3fe608060405234801561001057600080fd5b506004361061009e5760003560e01c80639512cb22116100665780639512cb2214610109578063966be07514610111578063c2d9830c1461012e578063dd4670641461015f578063f6aacfb11461017c5761009e565b806304554443146100a357806335269315146100bd5780633c10e560146100c55780634eb665af146100cd5780636198e339146100ec575b600080fd5b6100ab610199565b60408051918252519081900360200190f35b6100ab61019f565b6100ab6101a5565b6100ea600480360360208110156100e357600080fd5b50356101b6565b005b6100ea6004803603602081101561010257600080fd5b5035610228565b6100ab61027f565b6100ea6004803603602081101561012757600080fd5b503561028b565b61014b6004803603602081101561014457600080fd5b50356102e2565b604080519115158252519081900360200190f35b6100ea6004803603602081101561017557600080fd5b503561036f565b61014b6004803603602081101561019257600080fd5b50356103c6565b60025490565b60035490565b60006101b16000610420565b905090565b604080516343be6ded60e01b815260006004820181905260248201849052915173__Blocklock_____________________________926343be6ded9260448082019391829003018186803b15801561020d57600080fd5b505af4158015610221573d6000803e3d6000fd5b5050505050565b6040805163cc89d03b60e01b815260006004820181905260248201849052915173__Blocklock_____________________________9263cc89d03b9260448082019391829003018186803b15801561020d57600080fd5b60006101b1600061046a565b60408051636611206360e01b815260006004820181905260248201849052915173__Blocklock_____________________________9263661120639260448082019391829003018186803b15801561020d57600080fd5b60408051631307db5360e11b815260006004820181905260248201849052915173__Blocklock_____________________________9163260fb6a6916044808301926020929190829003018186803b15801561033d57600080fd5b505af4158015610351573d6000803e3d6000fd5b505050506040513d602081101561036757600080fd5b505192915050565b60408051633e825e6d60e01b815260006004820181905260248201849052915173__Blocklock_____________________________92633e825e6d9260448082019391829003018186803b15801561020d57600080fd5b6040805162dec4c960e41b815260006004820181905260248201849052915173__Blocklock_____________________________91630dec4c90916044808301926020929190829003018186803b15801561033d57600080fd5b60028101548154600091829161043b9163ffffffff61048916565b905082600001548360010154101580156104585750808360010154105b15610464575060018201545b92915050565b6000610464826003015461047d84610420565b9063ffffffff61048916565b6000828201838110156104e3576040805162461bcd60e51b815260206004820152601b60248201527f536166654d6174683a206164646974696f6e206f766572666c6f770000000000604482015290519081900360640190fd5b939250505056fea265627a7a72315820cb9265981604ff687c33136bdd06e27da6617e47572a20147d3ef06e9bfd54a164736f6c634300050c0032",
  "source": "pragma solidity 0.5.12;\n\nimport \"../Blocklock.sol\";\n\ncontract ExposedBlocklock {\n  using Blocklock for Blocklock.State;\n\n  Blocklock.State state;\n\n  function setLockDuration(uint256 lockDuration) public {\n    state.setLockDuration(lockDuration);\n  }\n\n  function setCooldownDuration(uint256 cooldownDuration) public {\n    state.setCooldownDuration(cooldownDuration);\n  }\n\n  function isLocked(uint256 blockNumber) public view returns (bool) {\n    return state.isLocked(blockNumber);\n  }\n\n  function lock(uint256 blockNumber) public {\n    state.lock(blockNumber);\n  }\n\n  function unlock(uint256 blockNumber) public {\n    state.unlock(blockNumber);\n  }\n\n  function canLock(uint256 blockNumber) public view returns (bool) {\n    return state.canLock(blockNumber);\n  }\n\n  function lockDuration() public view returns (uint256) {\n    return state.lockDuration;\n  }\n\n  function cooldownDuration() public view returns (uint256) {\n    return state.cooldownDuration;\n  }\n\n  function cooldownEndAt() public view returns (uint256) {\n    return state.cooldownEndAt();\n  }\n\n  function lockEndAt() public view returns (uint256) {\n    return state.lockEndAt();\n  }\n}\n",
  "sourcePath": "/home/manjain/Documents/LetsPool/src/pooltogether-contracts/contracts/test/ExposedBlocklock.sol",
  "compiler": {
    "name": "solc",
    "version": "0.5.12+commit.7709ece9.Emscripten.clang"
  },
  "schemaVersion": "3.1.0",
  "updatedAt": "2020-05-21T20:34:55.088Z",
  "devdoc": {
    "methods": {}
  },
  "userdoc": {
    "methods": {}
  }
}