{
  "contractName": "MCDAwarePool",
  "abi": [
    {
      "anonymous": false,
      "inputs": [
        {
          "indexed": true,
          "internalType": "address",
          "name": "admin",
          "type": "address"
        }
      ],
      "name": "AdminAdded",
      "type": "event"
    },
    {
      "anonymous": false,
      "inputs": [
        {
          "indexed": true,
          "internalType": "address",
          "name": "admin",
          "type": "address"
        }
      ],
      "name": "AdminRemoved",
      "type": "event"
    },
    {
      "anonymous": false,
      "inputs": [
        {
          "indexed": true,
          "internalType": "uint256",
          "name": "drawId",
          "type": "uint256"
        }
      ],
      "name": "Committed",
      "type": "event"
    },
    {
      "anonymous": false,
      "inputs": [
        {
          "indexed": true,
          "internalType": "address",
          "name": "sender",
          "type": "address"
        },
        {
          "indexed": false,
          "internalType": "uint256",
          "name": "amount",
          "type": "uint256"
        }
      ],
      "name": "CommittedDepositWithdrawn",
      "type": "event"
    },
    {
      "anonymous": false,
      "inputs": [
        {
          "indexed": true,
          "internalType": "address",
          "name": "sender",
          "type": "address"
        },
        {
          "indexed": false,
          "internalType": "uint256",
          "name": "amount",
          "type": "uint256"
        }
      ],
      "name": "Deposited",
      "type": "event"
    },
    {
      "anonymous": false,
      "inputs": [
        {
          "indexed": true,
          "internalType": "address",
          "name": "sender",
          "type": "address"
        },
        {
          "indexed": false,
          "internalType": "uint256",
          "name": "amount",
          "type": "uint256"
        }
      ],
      "name": "DepositedAndCommitted",
      "type": "event"
    },
    {
      "anonymous": false,
      "inputs": [
        {
          "indexed": true,
          "internalType": "address",
          "name": "sender",
          "type": "address"
        }
      ],
      "name": "DepositsPaused",
      "type": "event"
    },
    {
      "anonymous": false,
      "inputs": [
        {
          "indexed": true,
          "internalType": "address",
          "name": "sender",
          "type": "address"
        }
      ],
      "name": "DepositsUnpaused",
      "type": "event"
    },
    {
      "anonymous": false,
      "inputs": [
        {
          "indexed": true,
          "internalType": "address",
          "name": "sender",
          "type": "address"
        },
        {
          "indexed": false,
          "internalType": "uint256",
          "name": "amount",
          "type": "uint256"
        },
        {
          "indexed": false,
          "internalType": "uint256",
          "name": "drawId",
          "type": "uint256"
        }
      ],
      "name": "FeeCollected",
      "type": "event"
    },
    {
      "anonymous": false,
      "inputs": [
        {
          "indexed": true,
          "internalType": "address",
          "name": "feeBeneficiary",
          "type": "address"
        }
      ],
      "name": "NextFeeBeneficiaryChanged",
      "type": "event"
    },
    {
      "anonymous": false,
      "inputs": [
        {
          "indexed": false,
          "internalType": "uint256",
          "name": "feeFraction",
          "type": "uint256"
        }
      ],
      "name": "NextFeeFractionChanged",
      "type": "event"
    },
    {
      "anonymous": false,
      "inputs": [
        {
          "indexed": true,
          "internalType": "address",
          "name": "sender",
          "type": "address"
        },
        {
          "indexed": false,
          "internalType": "uint256",
          "name": "amount",
          "type": "uint256"
        }
      ],
      "name": "OpenDepositWithdrawn",
      "type": "event"
    },
    {
      "anonymous": false,
      "inputs": [
        {
          "indexed": true,
          "internalType": "uint256",
          "name": "drawId",
          "type": "uint256"
        },
        {
          "indexed": true,
          "internalType": "address",
          "name": "feeBeneficiary",
          "type": "address"
        },
        {
          "indexed": false,
          "internalType": "bytes32",
          "name": "secretHash",
          "type": "bytes32"
        },
        {
          "indexed": false,
          "internalType": "uint256",
          "name": "feeFraction",
          "type": "uint256"
        }
      ],
      "name": "Opened",
      "type": "event"
    },
    {
      "anonymous": false,
      "inputs": [
        {
          "indexed": true,
          "internalType": "uint256",
          "name": "drawId",
          "type": "uint256"
        },
        {
          "indexed": true,
          "internalType": "address",
          "name": "winner",
          "type": "address"
        },
        {
          "indexed": true,
          "internalType": "address",
          "name": "impl",
          "type": "address"
        }
      ],
      "name": "RewardListenerFailed",
      "type": "event"
    },
    {
      "anonymous": false,
      "inputs": [
        {
          "indexed": true,
          "internalType": "uint256",
          "name": "drawId",
          "type": "uint256"
        },
        {
          "indexed": true,
          "internalType": "address",
          "name": "winner",
          "type": "address"
        },
        {
          "indexed": false,
          "internalType": "bytes32",
          "name": "entropy",
          "type": "bytes32"
        },
        {
          "indexed": false,
          "internalType": "uint256",
          "name": "winnings",
          "type": "uint256"
        },
        {
          "indexed": false,
          "internalType": "uint256",
          "name": "fee",
          "type": "uint256"
        }
      ],
      "name": "Rewarded",
      "type": "event"
    },
    {
      "anonymous": false,
      "inputs": [
        {
          "indexed": true,
          "internalType": "uint256",
          "name": "drawId",
          "type": "uint256"
        }
      ],
      "name": "RolledOver",
      "type": "event"
    },
    {
      "anonymous": false,
      "inputs": [
        {
          "indexed": true,
          "internalType": "address",
          "name": "sender",
          "type": "address"
        },
        {
          "indexed": false,
          "internalType": "uint256",
          "name": "amount",
          "type": "uint256"
        }
      ],
      "name": "SponsorshipAndFeesWithdrawn",
      "type": "event"
    },
    {
      "anonymous": false,
      "inputs": [
        {
          "indexed": true,
          "internalType": "address",
          "name": "sender",
          "type": "address"
        },
        {
          "indexed": false,
          "internalType": "uint256",
          "name": "amount",
          "type": "uint256"
        }
      ],
      "name": "SponsorshipDeposited",
      "type": "event"
    },
    {
      "anonymous": false,
      "inputs": [
        {
          "indexed": true,
          "internalType": "address",
          "name": "sender",
          "type": "address"
        },
        {
          "indexed": false,
          "internalType": "uint256",
          "name": "amount",
          "type": "uint256"
        }
      ],
      "name": "Withdrawn",
      "type": "event"
    },
    {
      "constant": true,
      "inputs": [],
      "name": "accountedBalance",
      "outputs": [
        {
          "internalType": "uint256",
          "name": "",
          "type": "uint256"
        }
      ],
      "payable": false,
      "stateMutability": "view",
      "type": "function"
    },
    {
      "constant": false,
      "inputs": [
        {
          "internalType": "address",
          "name": "_admin",
          "type": "address"
        }
      ],
      "name": "addAdmin",
      "outputs": [],
      "payable": false,
      "stateMutability": "nonpayable",
      "type": "function"
    },
    {
      "constant": false,
      "inputs": [],
      "name": "balance",
      "outputs": [
        {
          "internalType": "uint256",
          "name": "",
          "type": "uint256"
        }
      ],
      "payable": false,
      "stateMutability": "nonpayable",
      "type": "function"
    },
    {
      "constant": true,
      "inputs": [
        {
          "internalType": "address",
          "name": "_addr",
          "type": "address"
        }
      ],
      "name": "balanceOf",
      "outputs": [
        {
          "internalType": "uint256",
          "name": "",
          "type": "uint256"
        }
      ],
      "payable": false,
      "stateMutability": "view",
      "type": "function"
    },
    {
      "constant": true,
      "inputs": [],
      "name": "cToken",
      "outputs": [
        {
          "internalType": "contract ICErc20",
          "name": "",
          "type": "address"
        }
      ],
      "payable": false,
      "stateMutability": "view",
      "type": "function"
    },
    {
      "constant": true,
      "inputs": [
        {
          "internalType": "bytes32",
          "name": "_entropy",
          "type": "bytes32"
        }
      ],
      "name": "calculateWinner",
      "outputs": [
        {
          "internalType": "address",
          "name": "",
          "type": "address"
        }
      ],
      "payable": false,
      "stateMutability": "view",
      "type": "function"
    },
    {
      "constant": true,
      "inputs": [],
      "name": "canLock",
      "outputs": [
        {
          "internalType": "bool",
          "name": "",
          "type": "bool"
        }
      ],
      "payable": false,
      "stateMutability": "view",
      "type": "function"
    },
    {
      "constant": true,
      "inputs": [
        {
          "internalType": "address",
          "name": "_addr",
          "type": "address"
        }
      ],
      "name": "committedBalanceOf",
      "outputs": [
        {
          "internalType": "uint256",
          "name": "",
          "type": "uint256"
        }
      ],
      "payable": false,
      "stateMutability": "view",
      "type": "function"
    },
    {
      "constant": true,
      "inputs": [],
      "name": "committedSupply",
      "outputs": [
        {
          "internalType": "uint256",
          "name": "",
          "type": "uint256"
        }
      ],
      "payable": false,
      "stateMutability": "view",
      "type": "function"
    },
    {
      "constant": true,
      "inputs": [],
      "name": "cooldownDuration",
      "outputs": [
        {
          "internalType": "uint256",
          "name": "",
          "type": "uint256"
        }
      ],
      "payable": false,
      "stateMutability": "view",
      "type": "function"
    },
    {
      "constant": true,
      "inputs": [],
      "name": "cooldownEndAt",
      "outputs": [
        {
          "internalType": "uint256",
          "name": "",
          "type": "uint256"
        }
      ],
      "payable": false,
      "stateMutability": "view",
      "type": "function"
    },
    {
      "constant": true,
      "inputs": [],
      "name": "currentCommittedDrawId",
      "outputs": [
        {
          "internalType": "uint256",
          "name": "",
          "type": "uint256"
        }
      ],
      "payable": false,
      "stateMutability": "view",
      "type": "function"
    },
    {
      "constant": true,
      "inputs": [],
      "name": "currentOpenDrawId",
      "outputs": [
        {
          "internalType": "uint256",
          "name": "",
          "type": "uint256"
        }
      ],
      "payable": false,
      "stateMutability": "view",
      "type": "function"
    },
    {
      "constant": false,
      "inputs": [
        {
          "internalType": "uint256",
          "name": "_amount",
          "type": "uint256"
        }
      ],
      "name": "depositPool",
      "outputs": [],
      "payable": false,
      "stateMutability": "nonpayable",
      "type": "function"
    },
    {
      "constant": false,
      "inputs": [
        {
          "internalType": "uint256",
          "name": "_amount",
          "type": "uint256"
        }
      ],
      "name": "depositSponsorship",
      "outputs": [],
      "payable": false,
      "stateMutability": "nonpayable",
      "type": "function"
    },
    {
      "constant": true,
      "inputs": [
        {
          "internalType": "uint256",
          "name": "_blocks",
          "type": "uint256"
        }
      ],
      "name": "estimatedInterestRate",
      "outputs": [
        {
          "internalType": "uint256",
          "name": "",
          "type": "uint256"
        }
      ],
      "payable": false,
      "stateMutability": "view",
      "type": "function"
    },
    {
      "constant": true,
      "inputs": [
        {
          "internalType": "uint256",
          "name": "_drawId",
          "type": "uint256"
        }
      ],
      "name": "getDraw",
      "outputs": [
        {
          "internalType": "uint256",
          "name": "feeFraction",
          "type": "uint256"
        },
        {
          "internalType": "address",
          "name": "feeBeneficiary",
          "type": "address"
        },
        {
          "internalType": "uint256",
          "name": "openedBlock",
          "type": "uint256"
        },
        {
          "internalType": "bytes32",
          "name": "secretHash",
          "type": "bytes32"
        },
        {
          "internalType": "bytes32",
          "name": "entropy",
          "type": "bytes32"
        },
        {
          "internalType": "address",
          "name": "winner",
          "type": "address"
        },
        {
          "internalType": "uint256",
          "name": "netWinnings",
          "type": "uint256"
        },
        {
          "internalType": "uint256",
          "name": "fee",
          "type": "uint256"
        }
      ],
      "payable": false,
      "stateMutability": "view",
      "type": "function"
    },
    {
      "constant": false,
      "inputs": [],
      "name": "initialize",
      "outputs": [],
      "payable": false,
      "stateMutability": "nonpayable",
      "type": "function"
    },
    {
      "constant": true,
      "inputs": [
        {
          "internalType": "address",
          "name": "_admin",
          "type": "address"
        }
      ],
      "name": "isAdmin",
      "outputs": [
        {
          "internalType": "bool",
          "name": "",
          "type": "bool"
        }
      ],
      "payable": false,
      "stateMutability": "view",
      "type": "function"
    },
    {
      "constant": true,
      "inputs": [],
      "name": "isLocked",
      "outputs": [
        {
          "internalType": "bool",
          "name": "",
          "type": "bool"
        }
      ],
      "payable": false,
      "stateMutability": "view",
      "type": "function"
    },
    {
      "constant": true,
      "inputs": [],
      "name": "lockDuration",
      "outputs": [
        {
          "internalType": "uint256",
          "name": "",
          "type": "uint256"
        }
      ],
      "payable": false,
      "stateMutability": "view",
      "type": "function"
    },
    {
      "constant": true,
      "inputs": [],
      "name": "lockEndAt",
      "outputs": [
        {
          "internalType": "uint256",
          "name": "",
          "type": "uint256"
        }
      ],
      "payable": false,
      "stateMutability": "view",
      "type": "function"
    },
    {
      "constant": false,
      "inputs": [],
      "name": "lockTokens",
      "outputs": [],
      "payable": false,
      "stateMutability": "nonpayable",
      "type": "function"
    },
    {
      "constant": false,
      "inputs": [
        {
          "internalType": "address",
          "name": "_from",
          "type": "address"
        },
        {
          "internalType": "address",
          "name": "_to",
          "type": "address"
        },
        {
          "internalType": "uint256",
          "name": "_amount",
          "type": "uint256"
        }
      ],
      "name": "moveCommitted",
      "outputs": [
        {
          "internalType": "bool",
          "name": "",
          "type": "bool"
        }
      ],
      "payable": false,
      "stateMutability": "nonpayable",
      "type": "function"
    },
    {
      "constant": true,
      "inputs": [],
      "name": "nextFeeBeneficiary",
      "outputs": [
        {
          "internalType": "address",
          "name": "",
          "type": "address"
        }
      ],
      "payable": false,
      "stateMutability": "view",
      "type": "function"
    },
    {
      "constant": true,
      "inputs": [],
      "name": "nextFeeFraction",
      "outputs": [
        {
          "internalType": "uint256",
          "name": "",
          "type": "uint256"
        }
      ],
      "payable": false,
      "stateMutability": "view",
      "type": "function"
    },
    {
      "constant": true,
      "inputs": [
        {
          "internalType": "address",
          "name": "_addr",
          "type": "address"
        }
      ],
      "name": "openBalanceOf",
      "outputs": [
        {
          "internalType": "uint256",
          "name": "",
          "type": "uint256"
        }
      ],
      "payable": false,
      "stateMutability": "view",
      "type": "function"
    },
    {
      "constant": false,
      "inputs": [
        {
          "internalType": "bytes32",
          "name": "nextSecretHash",
          "type": "bytes32"
        }
      ],
      "name": "openNextDraw",
      "outputs": [],
      "payable": false,
      "stateMutability": "nonpayable",
      "type": "function"
    },
    {
      "constant": true,
      "inputs": [],
      "name": "openSupply",
      "outputs": [
        {
          "internalType": "uint256",
          "name": "",
          "type": "uint256"
        }
      ],
      "payable": false,
      "stateMutability": "view",
      "type": "function"
    },
    {
      "constant": false,
      "inputs": [],
      "name": "pauseDeposits",
      "outputs": [],
      "payable": false,
      "stateMutability": "nonpayable",
      "type": "function"
    },
    {
      "constant": true,
      "inputs": [],
      "name": "paused",
      "outputs": [
        {
          "internalType": "bool",
          "name": "",
          "type": "bool"
        }
      ],
      "payable": false,
      "stateMutability": "view",
      "type": "function"
    },
    {
      "constant": true,
      "inputs": [],
      "name": "poolToken",
      "outputs": [
        {
          "internalType": "contract PoolToken",
          "name": "",
          "type": "address"
        }
      ],
      "payable": false,
      "stateMutability": "view",
      "type": "function"
    },
    {
      "constant": false,
      "inputs": [
        {
          "internalType": "address",
          "name": "_admin",
          "type": "address"
        }
      ],
      "name": "removeAdmin",
      "outputs": [],
      "payable": false,
      "stateMutability": "nonpayable",
      "type": "function"
    },
    {
      "constant": false,
      "inputs": [
        {
          "internalType": "bytes32",
          "name": "_secret",
          "type": "bytes32"
        },
        {
          "internalType": "bytes32",
          "name": "_salt",
          "type": "bytes32"
        }
      ],
      "name": "reward",
      "outputs": [],
      "payable": false,
      "stateMutability": "nonpayable",
      "type": "function"
    },
    {
      "constant": false,
      "inputs": [
        {
          "internalType": "bytes32",
          "name": "nextSecretHash",
          "type": "bytes32"
        },
        {
          "internalType": "bytes32",
          "name": "lastSecret",
          "type": "bytes32"
        },
        {
          "internalType": "bytes32",
          "name": "_salt",
          "type": "bytes32"
        }
      ],
      "name": "rewardAndOpenNextDraw",
      "outputs": [],
      "payable": false,
      "stateMutability": "nonpayable",
      "type": "function"
    },
    {
      "constant": false,
      "inputs": [],
      "name": "rollover",
      "outputs": [],
      "payable": false,
      "stateMutability": "nonpayable",
      "type": "function"
    },
    {
      "constant": false,
      "inputs": [
        {
          "internalType": "bytes32",
          "name": "nextSecretHash",
          "type": "bytes32"
        }
      ],
      "name": "rolloverAndOpenNextDraw",
      "outputs": [],
      "payable": false,
      "stateMutability": "nonpayable",
      "type": "function"
    },
    {
      "constant": true,
      "inputs": [],
      "name": "saiPool",
      "outputs": [
        {
          "internalType": "contract MCDAwarePool",
          "name": "",
          "type": "address"
        }
      ],
      "payable": false,
      "stateMutability": "view",
      "type": "function"
    },
    {
      "constant": true,
      "inputs": [],
      "name": "scdMcdMigration",
      "outputs": [
        {
          "internalType": "contract ScdMcdMigration",
          "name": "",
          "type": "address"
        }
      ],
      "payable": false,
      "stateMutability": "view",
      "type": "function"
    },
    {
      "constant": false,
      "inputs": [
        {
          "internalType": "address",
          "name": "_feeBeneficiary",
          "type": "address"
        }
      ],
      "name": "setNextFeeBeneficiary",
      "outputs": [],
      "payable": false,
      "stateMutability": "nonpayable",
      "type": "function"
    },
    {
      "constant": false,
      "inputs": [
        {
          "internalType": "uint256",
          "name": "_feeFraction",
          "type": "uint256"
        }
      ],
      "name": "setNextFeeFraction",
      "outputs": [],
      "payable": false,
      "stateMutability": "nonpayable",
      "type": "function"
    },
    {
      "constant": false,
      "inputs": [
        {
          "internalType": "contract PoolToken",
          "name": "_poolToken",
          "type": "address"
        }
      ],
      "name": "setPoolToken",
      "outputs": [],
      "payable": false,
      "stateMutability": "nonpayable",
      "type": "function"
    },
    {
      "constant": true,
      "inputs": [
        {
          "internalType": "address",
          "name": "_sender",
          "type": "address"
        }
      ],
      "name": "sponsorshipAndFeeBalanceOf",
      "outputs": [
        {
          "internalType": "uint256",
          "name": "",
          "type": "uint256"
        }
      ],
      "payable": false,
      "stateMutability": "view",
      "type": "function"
    },
    {
      "constant": true,
      "inputs": [],
      "name": "supplyRatePerBlock",
      "outputs": [
        {
          "internalType": "uint256",
          "name": "",
          "type": "uint256"
        }
      ],
      "payable": false,
      "stateMutability": "view",
      "type": "function"
    },
    {
      "constant": true,
      "inputs": [],
      "name": "token",
      "outputs": [
        {
          "internalType": "contract IERC20",
          "name": "",
          "type": "address"
        }
      ],
      "payable": false,
      "stateMutability": "view",
      "type": "function"
    },
    {
      "constant": true,
      "inputs": [
        {
          "internalType": "address",
          "name": "_addr",
          "type": "address"
        }
      ],
      "name": "totalBalanceOf",
      "outputs": [
        {
          "internalType": "uint256",
          "name": "",
          "type": "uint256"
        }
      ],
      "payable": false,
      "stateMutability": "view",
      "type": "function"
    },
    {
      "constant": false,
      "inputs": [],
      "name": "transferBalanceToSponsorship",
      "outputs": [],
      "payable": false,
      "stateMutability": "nonpayable",
      "type": "function"
    },
    {
      "constant": false,
      "inputs": [],
      "name": "unlockTokens",
      "outputs": [],
      "payable": false,
      "stateMutability": "nonpayable",
      "type": "function"
    },
    {
      "constant": false,
      "inputs": [],
      "name": "unpauseDeposits",
      "outputs": [],
      "payable": false,
      "stateMutability": "nonpayable",
      "type": "function"
    },
    {
      "constant": false,
      "inputs": [
        {
          "internalType": "uint256",
          "name": "amount",
          "type": "uint256"
        }
      ],
      "name": "withdraw",
      "outputs": [],
      "payable": false,
      "stateMutability": "nonpayable",
      "type": "function"
    },
    {
      "constant": false,
      "inputs": [],
      "name": "withdraw",
      "outputs": [],
      "payable": false,
      "stateMutability": "nonpayable",
      "type": "function"
    },
    {
      "constant": false,
      "inputs": [
        {
          "internalType": "uint256",
          "name": "_amount",
          "type": "uint256"
        }
      ],
      "name": "withdrawCommittedDeposit",
      "outputs": [
        {
          "internalType": "bool",
          "name": "",
          "type": "bool"
        }
      ],
      "payable": false,
      "stateMutability": "nonpayable",
      "type": "function"
    },
    {
      "constant": false,
      "inputs": [
        {
          "internalType": "address",
          "name": "_from",
          "type": "address"
        },
        {
          "internalType": "uint256",
          "name": "_amount",
          "type": "uint256"
        }
      ],
      "name": "withdrawCommittedDepositFrom",
      "outputs": [
        {
          "internalType": "bool",
          "name": "",
          "type": "bool"
        }
      ],
      "payable": false,
      "stateMutability": "nonpayable",
      "type": "function"
    },
    {
      "constant": false,
      "inputs": [
        {
          "internalType": "uint256",
          "name": "_amount",
          "type": "uint256"
        }
      ],
      "name": "withdrawOpenDeposit",
      "outputs": [],
      "payable": false,
      "stateMutability": "nonpayable",
      "type": "function"
    },
    {
      "constant": false,
      "inputs": [
        {
          "internalType": "uint256",
          "name": "_amount",
          "type": "uint256"
        }
      ],
      "name": "withdrawSponsorshipAndFee",
      "outputs": [],
      "payable": false,
      "stateMutability": "nonpayable",
      "type": "function"
    },
    {
      "constant": false,
      "inputs": [
        {
          "internalType": "address",
          "name": "_owner",
          "type": "address"
        },
        {
          "internalType": "address",
          "name": "_cToken",
          "type": "address"
        },
        {
          "internalType": "uint256",
          "name": "_feeFraction",
          "type": "uint256"
        },
        {
          "internalType": "address",
          "name": "_feeBeneficiary",
          "type": "address"
        },
        {
          "internalType": "uint256",
          "name": "lockDuration",
          "type": "uint256"
        },
        {
          "internalType": "uint256",
          "name": "cooldownDuration",
          "type": "uint256"
        }
      ],
      "name": "init",
      "outputs": [],
      "payable": false,
      "stateMutability": "nonpayable",
      "type": "function"
    },
    {
      "constant": false,
      "inputs": [
        {
          "internalType": "uint256",
          "name": "lockDuration",
          "type": "uint256"
        },
        {
          "internalType": "uint256",
          "name": "cooldownDuration",
          "type": "uint256"
        }
      ],
      "name": "initMCDAwarePool",
      "outputs": [],
      "payable": false,
      "stateMutability": "nonpayable",
      "type": "function"
    },
    {
      "constant": false,
      "inputs": [
        {
          "internalType": "contract ScdMcdMigration",
          "name": "_scdMcdMigration",
          "type": "address"
        },
        {
          "internalType": "contract MCDAwarePool",
          "name": "_saiPool",
          "type": "address"
        }
      ],
      "name": "initMigration",
      "outputs": [],
      "payable": false,
      "stateMutability": "nonpayable",
      "type": "function"
    },
    {
      "constant": false,
      "inputs": [
        {
          "internalType": "address",
          "name": "",
          "type": "address"
        },
        {
          "internalType": "address",
          "name": "from",
          "type": "address"
        },
        {
          "internalType": "address",
          "name": "",
          "type": "address"
        },
        {
          "internalType": "uint256",
          "name": "amount",
          "type": "uint256"
        },
        {
          "internalType": "bytes",
          "name": "",
          "type": "bytes"
        },
        {
          "internalType": "bytes",
          "name": "",
          "type": "bytes"
        }
      ],
      "name": "tokensReceived",
      "outputs": [],
      "payable": false,
      "stateMutability": "nonpayable",
      "type": "function"
    },
    {
      "constant": false,
      "inputs": [],
      "name": "saiToken",
      "outputs": [
        {
          "internalType": "contract GemLike",
          "name": "",
          "type": "address"
        }
      ],
      "payable": false,
      "stateMutability": "nonpayable",
      "type": "function"
    },
    {
      "constant": false,
      "inputs": [],
      "name": "daiToken",
      "outputs": [
        {
          "internalType": "contract GemLike",
          "name": "",
          "type": "address"
        }
      ],
      "payable": false,
      "stateMutability": "nonpayable",
      "type": "function"
    }
  ],
  "bytecode": "0x608060405234801561001057600080fd5b50614ff5806100206000396000f3fe608060405234801561001057600080fd5b50600436106103ae5760003560e01c806370a08231116101f4578063a69121001161011a578063cbdf382c116100ad578063f27413ca1161007c578063f27413ca146109eb578063f968f493146109f3578063fc0c546a146109fb578063fe8e190114610a03576103ae565b8063cbdf382c146109b0578063cfb51052146109b8578063d9b6ccbf146109db578063e8f099f4146109e3576103ae565b8063b69ef8a8116100e9578063b69ef8a814610914578063be22f5461461091c578063be6307c814610924578063c1ebb4ac14610993576103ae565b8063a69121001461089d578063ac2defea146108e7578063ae9d70b014610904578063b056b49a1461090c576103ae565b80639512cb2211610192578063a30184de11610161578063a30184de14610844578063a3aac0e21461084c578063a423cd2914610869578063a4e2d63414610895576103ae565b80639512cb22146107f657806395cad80d146107fe5780639ad8bd78146108065780639e63a8c51461080e576103ae565b80637f77fc4d116101ce5780637f77fc4d146107a05780638129fc1c146107a8578063815d85d2146107b0578063944b1479146107d9576103ae565b806370a082311461075d57806377bbb7571461078357806379f087711461075d576103ae565b80633c10e560116102d95780634b0ee02a1161027757806363d8882a1161024657806363d8882a1461070357806369e527da1461070b5780636cbb721f1461072f5780637048027514610737576103ae565b80634b0ee02a1461068957806350193485146106af578063569afbc8146106d55780635c975abb146106fb576103ae565b80633d3d6a1a116102b35780633d3d6a1a14610621578063426d58e514610647578063435edacd146106645780634780006814610681576103ae565b80633c10e560146105f45780633c4be957146105fc5780633ccfd60b14610619576103ae565b80631785f53c11610351578063304c967011610320578063304c96701461059057806333ce01fd1461059857806335269315146105be578063391cc955146105c6576103ae565b80631785f53c146104f6578063234409441461051c57806324d7806c146105395780632e1a7d4d14610573576103ae565b80630937eb541161038d5780630937eb54146104c15780630a56293d146104c95780630ea0ffc4146104d157806314f74b8c146104ee576103ae565b806223de29146103b3578063021919801461049f57806304554443146104a7575b600080fd5b61049d600480360360c08110156103c957600080fd5b6001600160a01b03823581169260208101358216926040820135909216916060820135919081019060a08101608082013564010000000081111561040c57600080fd5b82018360208201111561041e57600080fd5b8035906020019184600183028401116401000000008311171561044057600080fd5b91939092909160208101903564010000000081111561045e57600080fd5b82018360208201111561047057600080fd5b8035906020019184600183028401116401000000008311171561049257600080fd5b509092509050610a26565b005b61049d610cb5565b6104af610d86565b60408051918252519081900360200190f35b6104af610d8d565b61049d610d93565b61049d600480360360208110156104e757600080fd5b5035610e54565b6104af610f74565b61049d6004803603602081101561050c57600080fd5b50356001600160a01b0316610f7a565b61049d6004803603602081101561053257600080fd5b50356110b4565b61055f6004803603602081101561054f57600080fd5b50356001600160a01b03166112e7565b604080519115158252519081900360200190f35b61049d6004803603602081101561058957600080fd5b5035611302565b6104af61152c565b61049d600480360360208110156105ae57600080fd5b50356001600160a01b0316611532565b6104af6116b6565b61049d600480360360408110156105dc57600080fd5b506001600160a01b03813581169160200135166116bc565b6104af611715565b61049d6004803603602081101561061257600080fd5b5035611726565b61049d6117c0565b61049d6004803603602081101561063757600080fd5b50356001600160a01b0316611a9e565b61049d6004803603602081101561065d57600080fd5b5035611af6565b61055f6004803603602081101561067a57600080fd5b5035611c1e565b6104af611d49565b6104af6004803603602081101561069f57600080fd5b50356001600160a01b0316611dce565b6104af600480360360208110156106c557600080fd5b50356001600160a01b0316611de9565b6104af600480360360208110156106eb57600080fd5b50356001600160a01b0316611e80565b61055f611f39565b61049d611f42565b610713612013565b604080516001600160a01b039092168252519081900360200190f35b61055f612022565b61049d6004803603602081101561074d57600080fd5b50356001600160a01b031661207e565b6104af6004803603602081101561077357600080fd5b50356001600160a01b03166120d6565b6104af6004803603602081101561079957600080fd5b503561213b565b6104af612155565b61049d61217a565b61049d600480360360608110156107c657600080fd5b5080359060208101359060400135612220565b61049d600480360360208110156107ef57600080fd5b5035612287565b6104af6122df565b61049d6122eb565b6107136123c7565b61055f6004803603606081101561082457600080fd5b506001600160a01b038135811691602081013590911690604001356123d6565b610713612780565b61049d6004803603602081101561086257600080fd5b5035612849565b61055f6004803603604081101561087f57600080fd5b506001600160a01b0381351690602001356128a9565b61055f6129d3565b61049d600480360360c08110156108b357600080fd5b506001600160a01b038135811691602081013582169160408201359160608101359091169060808101359060a00135612a2e565b610713600480360360208110156108fd57600080fd5b5035612af6565b6104af612b52565b61049d612bab565b6104af612d25565b610713612d71565b6109416004803603602081101561093a57600080fd5b5035612e26565b604080519889526001600160a01b0397881660208a0152888101969096526060880194909452608087019290925290931660a085015260c084019290925260e083019190915251908190036101000190f35b61049d600480360360208110156109a957600080fd5b5035612e76565b610713612f3e565b61049d600480360360408110156109ce57600080fd5b5080359060200135612f4d565b6107136134f5565b6104af613504565b610713613558565b61049d613567565b61071361360e565b61049d60048036036040811015610a1957600080fd5b5080359060200135613653565b60735460ff1615610a6e576040805162461bcd60e51b815260206004820152600d60248201526c141bdbdb0bd90b5c185d5cd959609a1b604482015290519081900360640190fd5b610a7661366c565b6001600160a01b0316336001600160a01b031614610acb576040805162461bcd60e51b815260206004820152600d60248201526c506f6f6c2f7361692d6f6e6c7960981b604482015290519081900360640190fd5b610ad3612d71565b6001600160a01b0316610ae461360e565b6001600160a01b031614610b2e576040805162461bcd60e51b815260206004820152600c60248201526b506f6f6c2f6e6f742d64616960a01b604482015290519081900360640190fd5b610b3661366c565b6001600160a01b031663e77c646d866040518263ffffffff1660e01b8152600401808281526020018060200182810382526000815260200160200192505050600060405180830381600087803b158015610b8f57600080fd5b505af1158015610ba3573d6000803e3d6000fd5b50505050610baf612780565b6079546040805163095ea7b360e01b81526001600160a01b039283166004820152602481018990529051929091169163095ea7b39160448082019260009290919082900301818387803b158015610c0557600080fd5b505af1158015610c19573d6000803e3d6000fd5b50506079546040805163fbabdebd60e01b8152600481018a905290516001600160a01b03909216935063fbabdebd925060248082019260009290919082900301818387803b158015610c6a57600080fd5b505af1158015610c7e573d6000803e3d6000fd5b505050506000610c8c612155565b1115610ca157610c9c8786613701565b610cab565b610cab8786613891565b5050505050505050565b60735460ff1615610cfd576040805162461bcd60e51b815260206004820152600d60248201526c141bdbdb0bd90b5c185d5cd959609a1b604482015290519081900360640190fd5b610d0e60723363ffffffff61395e16565b610d4c576040805162461bcd60e51b815260206004820152600a6024820152692837b7b617b0b236b4b760b11b604482015290519081900360640190fd5b6073805460ff1916600117905560405133907feb225a736fbfee3f85ccb72bdf84ff0396ab358b7970e2cc351ab3e3fd92358d90600090a2565b6076545b90565b60695481565b610da460723363ffffffff61395e16565b610de2576040805162461bcd60e51b815260206004820152600a6024820152692837b7b617b0b236b4b760b11b604482015290519081900360640190fd5b60408051633e825e6d60e01b815260746004820152436024820152905173__Blocklock_____________________________91633e825e6d916044808301926000929190829003018186803b158015610e3a57600080fd5b505af4158015610e4e573d6000803e3d6000fd5b50505050565b60338054600101908190556040805162dec4c960e41b815260746004820152436024820152905173__Blocklock_____________________________91630dec4c90916044808301926020929190829003018186803b158015610eb657600080fd5b505af4158015610eca573d6000803e3d6000fd5b505050506040513d6020811015610ee057600080fd5b505115610f22576040805162461bcd60e51b815260206004820152600b60248201526a141bdbdb0bdb1bd8dad95960aa1b604482015290519081900360640190fd5b610f2c33836139c5565b6033548114610f70576040805162461bcd60e51b815260206004820152601f6024820152600080516020614f0f833981519152604482015290519081900360640190fd5b5050565b60685481565b610f8b60723363ffffffff61395e16565b610fc9576040805162461bcd60e51b815260206004820152600a6024820152692837b7b617b0b236b4b760b11b604482015290519081900360640190fd5b610fda60728263ffffffff61395e16565b61101b576040805162461bcd60e51b815260206004820152600d60248201526c2837b7b617b73796b0b236b4b760991b604482015290519081900360640190fd5b6001600160a01b03811633141561106c576040805162461bcd60e51b815260206004820152601060248201526f2837b7b617b932b6b7bb3296b9b2b63360811b604482015290519081900360640190fd5b61107d60728263ffffffff613a9216565b6040516001600160a01b038216907fa3b62bc36326052d97ea62d63c3d60308ed4c3ea8ac079dd8499f1e9c4f80c0f90600090a250565b6110bc61152c565b6110fc576040805162461bcd60e51b815260206004820152600c60248201526b2837b7b617b73796b7b832b760a11b604482015290519081900360640190fd5b60735460ff1615611144576040805162461bcd60e51b815260206004820152600d60248201526c141bdbdb0bd90b5c185d5cd959609a1b604482015290519081900360640190fd5b60338054600101908190556040805162dec4c960e41b815260746004820152436024820152905173__Blocklock_____________________________91630dec4c90916044808301926020929190829003018186803b1580156111a657600080fd5b505af41580156111ba573d6000803e3d6000fd5b505050506040513d60208110156111d057600080fd5b505115611212576040805162461bcd60e51b815260206004820152600b60248201526a141bdbdb0bdb1bd8dad95960aa1b604482015290519081900360640190fd5b61121a61360e565b604080516323b872dd60e01b81523360048201523060248201526044810185905290516001600160a01b0392909216916323b872dd916064808201926020929091908290030181600087803b15801561127257600080fd5b505af1158015611286573d6000803e3d6000fd5b505050506040513d602081101561129c57600080fd5b50516112dd576040805162461bcd60e51b815260206004820152600b60248201526a141bdbdb0bdd0b59985a5b60aa1b604482015290519081900360640190fd5b610f2c3383613891565b60006112fa60728363ffffffff61395e16565b90505b919050565b60338054600101908190556040805162dec4c960e41b815260746004820152436024820152905173__Blocklock_____________________________91630dec4c90916044808301926020929190829003018186803b15801561136457600080fd5b505af4158015611378573d6000803e3d6000fd5b505050506040513d602081101561138e57600080fd5b5051156113d0576040805162461bcd60e51b815260206004820152600b60248201526a141bdbdb0bdb1bd8dad95960aa1b604482015290519081900360640190fd5b8160006113dc33611e80565b905081811015611406576113ef81611726565b6113ff828263ffffffff613af916565b9150611416565b61140f82611726565b5050610f2c565b6040805163713b41f560e11b8152606c6004820152336024820152905160009173__DrawManager___________________________9163e27683ea91604480820192602092909190829003018186803b15801561147257600080fd5b505af4158015611486573d6000803e3d6000fd5b505050506040513d602081101561149c57600080fd5b50519050828110156114c9576114b233826139c5565b6114c2838263ffffffff613af916565b92506114db565b6114d333846139c5565b505050610f2c565b6114e53384613b3b565b5050506033548114610f70576040805162461bcd60e51b815260206004820152601f6024820152600080516020614f0f833981519152604482015290519081900360640190fd5b60705490565b61154360723363ffffffff61395e16565b611581576040805162461bcd60e51b815260206004820152600a6024820152692837b7b617b0b236b4b760b11b604482015290519081900360640190fd5b6078546001600160a01b0316156115d4576040805162461bcd60e51b8152602060048201526012602482015271141bdbdb0bdd1bdad95b8b5dd85ccb5cd95d60721b604482015290519081900360640190fd5b306001600160a01b0316816001600160a01b03166316f0115b6040518163ffffffff1660e01b815260040160206040518083038186803b15801561161757600080fd5b505afa15801561162b573d6000803e3d6000fd5b505050506040513d602081101561164157600080fd5b50516001600160a01b031614611694576040805162461bcd60e51b81526020600482015260136024820152720a0deded85ee8ded6cadc5adad2e6dac2e8c6d606b1b604482015290519081900360640190fd5b607880546001600160a01b0319166001600160a01b0392909216919091179055565b60775490565b6116cd60723363ffffffff61395e16565b61170b576040805162461bcd60e51b815260206004820152600a6024820152692837b7b617b0b236b4b760b11b604482015290519081900360640190fd5b610f708282613bc8565b60006117216074613c8a565b905090565b600061173133611e80565b90508082111561177c576040805162461bcd60e51b8152602060048201526011602482015270506f6f6c2f657863656564732d7366656560781b604482015290519081900360640190fd5b6117863383613cd0565b60408051838152905133917f6a4d2bc0b4e5453e814890ffd34fde45f1820118a5e3e08c8273e6befd8cc050919081900360200190a25050565b60338054600101908190556040805162dec4c960e41b815260746004820152436024820152905173__Blocklock_____________________________91630dec4c90916044808301926020929190829003018186803b15801561182257600080fd5b505af4158015611836573d6000803e3d6000fd5b505050506040513d602081101561184c57600080fd5b50511561188e576040805162461bcd60e51b815260206004820152600b60248201526a141bdbdb0bdb1bd8dad95960aa1b604482015290519081900360640190fd5b604080516311f43c3360e31b8152606c6004820152336024820152905160009173__DrawManager___________________________91638fa1e19891604480820192602092909190829003018186803b1580156118ea57600080fd5b505af41580156118fe573d6000803e3d6000fd5b505050506040513d602081101561191457600080fd5b5051336000818152606a6020526040808220548151631326e7a760e21b8152606c6004820152602481019490945290519394509273__DrawManager___________________________92634c9b9e9c926044808301939192829003018186803b15801561198057600080fd5b505af4158015611994573d6000803e3d6000fd5b505050506119a23382613cd0565b6078546001600160a01b031615611a1f57607854604080516314274ad960e01b81523360048201526024810185905290516001600160a01b03909216916314274ad99160448082019260009290919082900301818387803b158015611a0657600080fd5b505af1158015611a1a573d6000803e3d6000fd5b505050505b60408051828152905133917f7084f5476618d8e60b11ef0d7d3f06914655adb8793e28ff7f018d4c76d505d5919081900360200190a250506033548114611a9b576040805162461bcd60e51b815260206004820152601f6024820152600080516020614f0f833981519152604482015290519081900360640190fd5b50565b611aaf60723363ffffffff61395e16565b611aed576040805162461bcd60e51b815260206004820152600a6024820152692837b7b617b0b236b4b760b11b604482015290519081900360640190fd5b611a9b81613efb565b60735460ff1615611b3e576040805162461bcd60e51b815260206004820152600d60248201526c141bdbdb0bd90b5c185d5cd959609a1b604482015290519081900360640190fd5b6033805460010190819055611b5161360e565b604080516323b872dd60e01b81523360048201523060248201526044810185905290516001600160a01b0392909216916323b872dd916064808201926020929091908290030181600087803b158015611ba957600080fd5b505af1158015611bbd573d6000803e3d6000fd5b505050506040513d6020811015611bd357600080fd5b5051611c14576040805162461bcd60e51b815260206004820152600b60248201526a141bdbdb0bdd0b59985a5b60aa1b604482015290519081900360640190fd5b610f2c3383613f90565b60338054600101908190556040805162dec4c960e41b81526074600482015243602482015290516000929173__Blocklock_____________________________91630dec4c9091604480820192602092909190829003018186803b158015611c8557600080fd5b505af4158015611c99573d6000803e3d6000fd5b505050506040513d6020811015611caf57600080fd5b505115611cf1576040805162461bcd60e51b815260206004820152600b60248201526a141bdbdb0bdb1bd8dad95960aa1b604482015290519081900360640190fd5b611cfb3384613b3b565b600191506033548114611d43576040805162461bcd60e51b815260206004820152601f6024820152600080516020614f0f833981519152604482015290519081900360640190fd5b50919050565b6000606c73__DrawManager___________________________63ed21d6ea90916040518263ffffffff1660e01b81526004018082815260200191505060206040518083038186803b158015611d9d57600080fd5b505af4158015611db1573d6000803e3d6000fd5b505050506040513d6020811015611dc757600080fd5b5051905090565b6001600160a01b03166000908152606a602052604090205490565b6040805163713b41f560e11b8152606c60048201526001600160a01b0383166024820152905160009173__DrawManager___________________________9163e27683ea91604480820192602092909190829003018186803b158015611e4e57600080fd5b505af4158015611e62573d6000803e3d6000fd5b505050506040513d6020811015611e7857600080fd5b505192915050565b604080516305a094bf60e51b8152606c60048201526001600160a01b038316602482015290516000916112fa9173__DrawManager___________________________9163b41297e0916044808301926020929190829003018186803b158015611ee857600080fd5b505af4158015611efc573d6000803e3d6000fd5b505050506040513d6020811015611f1257600080fd5b50516001600160a01b0384166000908152606a60205260409020549063ffffffff613af916565b60735460ff1681565b60735460ff16611f8d576040805162461bcd60e51b8152602060048201526011602482015270141bdbdb0bd90b5b9bdd0b5c185d5cd959607a1b604482015290519081900360640190fd5b611f9e60723363ffffffff61395e16565b611fdc576040805162461bcd60e51b815260206004820152600a6024820152692837b7b617b0b236b4b760b11b604482015290519081900360640190fd5b6073805460ff1916905560405133907fd92e31f504caf26579aa9a5860a669bf0ccf07c267baa65bc79bf3ee57cfa27c90600090a2565b6066546001600160a01b031681565b60408051631307db5360e11b815260746004820152436024820152905160009173__Blocklock_____________________________9163260fb6a691604480820192602092909190829003018186803b158015611d9d57600080fd5b61208f60723363ffffffff61395e16565b6120cd576040805162461bcd60e51b815260206004820152600a6024820152692837b7b617b0b236b4b760b11b604482015290519081900360640190fd5b611a9b81613fdd565b604080516311f43c3360e31b8152606c60048201526001600160a01b0383166024820152905160009173__DrawManager___________________________91638fa1e19891604480820192602092909190829003018186803b158015611e4e57600080fd5b60006112fa82612149612b52565b9063ffffffff61402516565b60006001606c600401541115612172575060705460001901610d8a565b506000610d8a565b600054610100900460ff1680612193575061219361407e565b806121a1575060005460ff16155b6121dc5760405162461bcd60e51b815260040180806020018281038252602e815260200180614f93602e913960400191505060405180910390fd5b600054610100900460ff16158015612207576000805460ff1961ff0019909116610100171660011790555b60016033558015611a9b576000805461ff001916905550565b61223160723363ffffffff61395e16565b61226f576040805162461bcd60e51b815260206004820152600a6024820152692837b7b617b0b236b4b760b11b604482015290519081900360640190fd5b6122798282612f4d565b61228283612e76565b505050565b61229860723363ffffffff61395e16565b6122d6576040805162461bcd60e51b815260206004820152600a6024820152692837b7b617b0b236b4b760b11b604482015290519081900360640190fd5b611a9b81614084565b6000611721607461410a565b60735460ff1615612333576040805162461bcd60e51b815260206004820152600d60248201526c141bdbdb0bd90b5c185d5cd959609a1b604482015290519081900360640190fd5b6123c53061233f61360e565b6001600160a01b03166370a08231306040518263ffffffff1660e01b815260040180826001600160a01b03166001600160a01b0316815260200191505060206040518083038186803b15801561239457600080fd5b505afa1580156123a8573d6000803e3d6000fd5b505050506040513d60208110156123be57600080fd5b5051613f90565b565b6067546001600160a01b031681565b6078546000906001600160a01b0316331461242a576040805162461bcd60e51b815260206004820152600f60248201526e2837b7b617b7b7363c96ba37b5b2b760891b604482015290519081900360640190fd5b604080516311f43c3360e31b8152606c60048201526001600160a01b038616602482015290518591849160009173__DrawManager___________________________91638fa1e19891604480820192602092909190829003018186803b15801561249357600080fd5b505af41580156124a7573d6000803e3d6000fd5b505050506040513d60208110156124bd57600080fd5b5051905080821115612509576040805162461bcd60e51b815260206004820152601060248201526f6e6f7420656e6f7567682066756e647360801b604482015290519081900360640190fd5b6040805162dec4c960e41b815260746004820152436024820152905173__Blocklock_____________________________91630dec4c90916044808301926020929190829003018186803b15801561256057600080fd5b505af4158015612574573d6000803e3d6000fd5b505050506040513d602081101561258a57600080fd5b5051156125cc576040805162461bcd60e51b815260206004820152600b60248201526a141bdbdb0bdb1bd8dad95960aa1b604482015290519081900360640190fd5b604080518082018252601981527f6d6f766520636f756c64206e6f742073756220616d6f756e74000000000000006020808301919091526001600160a01b038a166000908152606a909152919091205461262d91879063ffffffff61412916565b6001600160a01b038089166000908152606a60205260408082209390935590881681522054612662908663ffffffff6141c016565b6001600160a01b038088166000908152606a60205260408082209390935582516362559ecd60e11b8152606c6004820152918a16602483015260448201889052915173__DrawManager___________________________9263c4ab3d9a9260648082019391829003018186803b1580156126db57600080fd5b505af41580156126ef573d6000803e3d6000fd5b5050604080516349ec2abb60e11b8152606c60048201526001600160a01b038a16602482015260448101899052905173__DrawManager___________________________93506393d8557692506064808301926000929190829003018186803b15801561275b57600080fd5b505af415801561276f573d6000803e3d6000fd5b5060019a9950505050505050505050565b60795460408051630b14408f60e01b815290516000926001600160a01b031691630b14408f916004808301926020929190829003018186803b1580156127c557600080fd5b505afa1580156127d9573d6000803e3d6000fd5b505050506040513d60208110156127ef57600080fd5b505160408051637bd2bea760e01b815290516001600160a01b0390921691637bd2bea7916004808201926020929091908290030181600087803b15801561283557600080fd5b505af1158015611db1573d6000803e3d6000fd5b61285a60723363ffffffff61395e16565b612898576040805162461bcd60e51b815260206004820152600a6024820152692837b7b617b0b236b4b760b11b604482015290519081900360640190fd5b6128a0612bab565b611a9b81612e76565b6078546000906001600160a01b031633146128fd576040805162461bcd60e51b815260206004820152600f60248201526e2837b7b617b7b7363c96ba37b5b2b760891b604482015290519081900360640190fd5b6040805162dec4c960e41b815260746004820152436024820152905173__Blocklock_____________________________91630dec4c90916044808301926020929190829003018186803b15801561295457600080fd5b505af4158015612968573d6000803e3d6000fd5b505050506040513d602081101561297e57600080fd5b5051156129c0576040805162461bcd60e51b815260206004820152600b60248201526a141bdbdb0bdb1bd8dad95960aa1b604482015290519081900360640190fd5b6129ca838361421a565b90505b92915050565b6040805162dec4c960e41b815260746004820152436024820152905160009173__Blocklock_____________________________91630dec4c9091604480820192602092909190829003018186803b158015611d9d57600080fd5b600054610100900460ff1680612a475750612a4761407e565b80612a55575060005460ff16155b612a905760405162461bcd60e51b815260040180806020018281038252602e815260200180614f93602e913960400191505060405180910390fd5b600054610100900460ff16158015612abb576000805460ff1961ff0019909116610100171660011790555b612ac98787878787876142ef565b612ad161444d565b612adb83836144e0565b8015612aed576000805461ff00191690555b50505050505050565b6000606c73__DrawManager___________________________633484b6bb9091846040518363ffffffff1660e01b8152600401808381526020018281526020019250505060206040518083038186803b158015611e4e57600080fd5b60665460408051630ae9d70b60e41b815290516000926001600160a01b03169163ae9d70b0916004808301926020929190829003018186803b158015612b9757600080fd5b505afa158015611db1573d6000803e3d6000fd5b612bbc60723363ffffffff61395e16565b612bfa576040805162461bcd60e51b815260206004820152600a6024820152692837b7b617b0b236b4b760b11b604482015290519081900360640190fd5b6000612c04612155565b11612c47576040805162461bcd60e51b815260206004820152600e60248201526d141bdbdb0bd8dbdb5b5a5d1d195960921b604482015290519081900360640190fd5b612c4f6145be565b15612c90576040805162461bcd60e51b815260206004820152600c60248201526b506f6f6c2f616c726561647960a01b604482015290519081900360640190fd5b6000612c9a612155565b6000818152606b60205260408082206001600482015590519293509183917f53d7daff7a7443f21eac131333ba8e4123eccaca1ca37c67665dca97f990f6f091a26040805160018152600060208201819052818301819052915184917f39d270b67baa0bff7a394d3427e52a85d706cae15e649754ec7b54f3c9deb3f0919081900360600190a35050565b60665460408051633af9e66960e01b815230600482015290516000926001600160a01b031691633af9e66991602480830192602092919082900301818787803b15801561283557600080fd5b60795460408051633045916f60e21b815290516000926001600160a01b03169163c11645bc916004808301926020929190829003018186803b158015612db657600080fd5b505afa158015612dca573d6000803e3d6000fd5b505050506040513d6020811015612de057600080fd5b50516040805163f4b9fa7560e01b815290516001600160a01b039092169163f4b9fa75916004808201926020929091908290030181600087803b15801561283557600080fd5b6000908152606b60205260409020805460018201546002830154600384015460048501546005860154600687015460079097015495976001600160a01b0395861697949693959294929091169290565b612e8760723363ffffffff61395e16565b612ec5576040805162461bcd60e51b815260206004820152600a6024820152692837b7b617b0b236b4b760b11b604482015290519081900360640190fd5b6000612ecf612155565b1115612f2057612edd6145be565b612f20576040805162461bcd60e51b815260206004820152600f60248201526e141bdbdb0bdb9bdd0b5c995dd85c99608a1b604482015290519081900360640190fd5b612f2861152c565b15612f3557612f356145e9565b611a9b8161469c565b6078546001600160a01b031681565b612f5e60723363ffffffff61395e16565b612f9c576040805162461bcd60e51b815260206004820152600a6024820152692837b7b617b0b236b4b760b11b604482015290519081900360640190fd5b6040805162dec4c960e41b815260746004820152436024820152905173__Blocklock_____________________________91630dec4c90916044808301926020929190829003018186803b158015612ff357600080fd5b505af4158015613007573d6000803e3d6000fd5b505050506040513d602081101561301d57600080fd5b5051613060576040805162461bcd60e51b815260206004820152600d60248201526c141bdbdb0bdd5b9b1bd8dad959609a1b604482015290519081900360640190fd5b600061306a612155565b116130ad576040805162461bcd60e51b815260206004820152600e60248201526d141bdbdb0bd8dbdb5b5a5d1d195960921b604482015290519081900360640190fd5b6130b56145be565b156130f6576040805162461bcd60e51b815260206004820152600c60248201526b506f6f6c2f616c726561647960a01b604482015290519081900360640190fd5b60338054600101908190556040805163cc89d03b60e01b815260746004820152436024820152905173__Blocklock_____________________________9163cc89d03b916044808301926000929190829003018186803b15801561315957600080fd5b505af415801561316d573d6000803e3d6000fd5b50505050600061317b612155565b90506000606b60008381526020019081526020016000209050848460405160200180838152602001828152602001925050506040516020818303038152906040528051906020012081600301541461320c576040805162461bcd60e51b815260206004820152600f60248201526e141bdbdb0bd898590b5cd958dc995d608a1b604482015290519081900360640190fd5b6040805160208082018890528251808303820181529183019092528051910120600061323782612af6565b90506000613243612d25565b905060006069548211156132715761326e61326960695484613af990919063ffffffff16565b614814565b90505b600061328186600001548361489f565b60018701546001600160a01b03166000908152606a60205260409020549091506132b1908263ffffffff6141c016565b60018701546001600160a01b03166000908152606a60205260408120919091556132e1838363ffffffff613af916565b6005880180546001600160a01b0319166001600160a01b0388169081179091556006890182905560078901849055600489018890559091501580159061332657508015155b156133f95760698490556001600160a01b0385166000908152606a6020526040902054613359908263ffffffff6141c016565b6001600160a01b0386166000818152606a60205260408082209390935582516371a28dbb60e11b8152606c6004820152602481019290925260448201849052915173__DrawManager___________________________9263e3451b769260648082019391829003018186803b1580156133d157600080fd5b505af41580156133e5573d6000803e3d6000fd5b505050506133f485828a614aaf565b613410565b60695461340c908363ffffffff6141c016565b6069555b604080518781526020810183905280820184905290516001600160a01b038716918a917f39d270b67baa0bff7a394d3427e52a85d706cae15e649754ec7b54f3c9deb3f09181900360600190a3600187015460408051848152602081018b905281516001600160a01b03909316927f108516ddcf5ba43cea6bb2cd5ff6d59ac196c1c86ccb9178332b9dd72d1ca561929181900390910190a250505050505050506033548114612282576040805162461bcd60e51b815260206004820152601f6024820152600080516020614f0f833981519152604482015290519081900360640190fd5b6079546001600160a01b031681565b6000606c73__DrawManager___________________________63663d9a7a90916040518263ffffffff1660e01b81526004018082815260200191505060206040518083038186803b158015611d9d57600080fd5b607a546001600160a01b031681565b61357860723363ffffffff61395e16565b6135b6576040805162461bcd60e51b815260206004820152600a6024820152692837b7b617b0b236b4b760b11b604482015290519081900360640190fd5b6040805163cc89d03b60e01b815260746004820152436024820152905173__Blocklock_____________________________9163cc89d03b916044808301926000929190829003018186803b158015610e3a57600080fd5b60665460408051636f307dc360e01b815290516000926001600160a01b031691636f307dc3916004808301926020929190829003018186803b158015612b9757600080fd5b61365b61444d565b607654610f7057610f7082826144e0565b607a546000906001600160a01b03161561217257607a60009054906101000a90046001600160a01b03166001600160a01b031663cbdf382c6040518163ffffffff1660e01b815260040160206040518083038186803b1580156136ce57600080fd5b505afa1580156136e2573d6000803e3d6000fd5b505050506040513d60208110156136f857600080fd5b50519050610d8a565b6040805162dec4c960e41b815260746004820152436024820152905173__Blocklock_____________________________91630dec4c90916044808301926020929190829003018186803b15801561375857600080fd5b505af415801561376c573d6000803e3d6000fd5b505050506040513d602081101561378257600080fd5b5051156137c4576040805162461bcd60e51b815260206004820152600b60248201526a141bdbdb0bdb1bd8dad95960aa1b604482015290519081900360640190fd5b604080516349ec2abb60e11b8152606c60048201526001600160a01b038416602482015260448101839052905173__DrawManager___________________________916393d85576916064808301926000929190829003018186803b15801561382c57600080fd5b505af4158015613840573d6000803e3d6000fd5b5050505061384e8282614cb0565b6040805182815290516001600160a01b038416917fc3a2b1de03156df25decfda8ed3e5aaa02ad33dc5fdf3f13aa9e7f6a7a8ae100919081900360200190a25050565b604080516371a28dbb60e11b8152606c60048201526001600160a01b038416602482015260448101839052905173__DrawManager___________________________9163e3451b76916064808301926000929190829003018186803b1580156138f957600080fd5b505af415801561390d573d6000803e3d6000fd5b5050505061391b8282614cb0565b6040805182815290516001600160a01b038416917f2da466a7b24304f47e87fa2e1e5a81b9831ce54fec19055ce277ca2f39ba42c4919081900360200190a25050565b60006001600160a01b0382166139a55760405162461bcd60e51b8152600401808060200182810382526022815260200180614f716022913960400191505060405180910390fd5b506001600160a01b03166000908152602091909152604090205460ff1690565b604080516383e8aad560e01b8152606c60048201526001600160a01b038416602482015260448101839052905173__DrawManager___________________________916383e8aad5916064808301926000929190829003018186803b158015613a2d57600080fd5b505af4158015613a41573d6000803e3d6000fd5b50505050613a4f8282613cd0565b6040805182815290516001600160a01b038416917f377533556d4ebd6be8b81e3573fd7e7bf70feb8737df314e8e7953cbb395f004919081900360200190a25050565b613a9c828261395e565b613ad75760405162461bcd60e51b8152600401808060200182810382526021815260200180614f2f6021913960400191505060405180910390fd5b6001600160a01b0316600090815260209190915260409020805460ff19169055565b60006129ca83836040518060400160405280601e81526020017f536166654d6174683a207375627472616374696f6e206f766572666c6f770000815250614129565b613b45828261421a565b506078546001600160a01b031615610f7057607854604080516314274ad960e01b81526001600160a01b03858116600483015260248201859052915191909216916314274ad991604480830192600092919082900301818387803b158015613bac57600080fd5b505af1158015613bc0573d6000803e3d6000fd5b505050505050565b6079546001600160a01b031615613c12576040805162461bcd60e51b8152602060048201526009602482015268141bdbdb0bda5b9a5d60ba1b604482015290519081900360640190fd5b6001600160a01b038216613c5c576040805162461bcd60e51b815260206004820152600c60248201526b2837b7b617b6b4b396b232b360a11b604482015290519081900360640190fd5b607980546001600160a01b039384166001600160a01b031991821617909155607a8054929093169116179055565b600281015481546000918291613ca59163ffffffff6141c016565b90508260000154836001015410158015613cc25750808360010154105b156112fa5750506001015490565b6001600160a01b0382166000908152606a602052604090205480821115613d2e576040805162461bcd60e51b815260206004820152600d60248201526c506f6f6c2f6e6f2d66756e647360981b604482015290519081900360640190fd5b613d3e818363ffffffff613af916565b6001600160a01b0384166000908152606a6020526040902055606954613d6a908363ffffffff613af916565b6069556066546040805163852a12e360e01b81526004810185905290516001600160a01b039092169163852a12e3916024808201926020929091908290030181600087803b158015613dbb57600080fd5b505af1158015613dcf573d6000803e3d6000fd5b505050506040513d6020811015613de557600080fd5b505115613e27576040805162461bcd60e51b815260206004820152600b60248201526a506f6f6c2f72656465656d60a81b604482015290519081900360640190fd5b613e2f61360e565b6001600160a01b031663a9059cbb84846040518363ffffffff1660e01b815260040180836001600160a01b03166001600160a01b0316815260200182815260200192505050602060405180830381600087803b158015613e8e57600080fd5b505af1158015613ea2573d6000803e3d6000fd5b505050506040513d6020811015613eb857600080fd5b5051612282576040805162461bcd60e51b815260206004820152600d60248201526c2837b7b617ba3930b739b332b960991b604482015290519081900360640190fd5b6001600160a01b038116613f46576040805162461bcd60e51b815260206004820152600d60248201526c506f6f6c2f6e6f742d7a65726f60981b604482015290519081900360640190fd5b606780546001600160a01b0319166001600160a01b0383169081179091556040517f4adde74fa6a2bac1c22b89b0488eb67527c033fc6110f443d1424a91a0d41d4590600090a250565b613f9a8282614cb0565b6040805182815290516001600160a01b038416917f6dd4ea9218ce2f17ec77769fa65225b906e99dd3f597b7e087df3bdd8f7899dd919081900360200190a25050565b613fee60728263ffffffff614e8d16565b6040516001600160a01b038216907f44d6d25963f097ad14f29f06854a01f575648a1ef82f30e562ccd3889717e33990600090a250565b600082614034575060006129cd565b8282028284828161404157fe5b04146129ca5760405162461bcd60e51b8152600401808060200182810382526021815260200180614f506021913960400191505060405180910390fd5b303b1590565b670de0b6b3a76400008111156140cf576040805162461bcd60e51b815260206004820152600b60248201526a506f6f6c2f6c6573732d3160a81b604482015290519081900360640190fd5b60688190556040805182815290517f19cbde830537adec39ff348fcf33c89911750be4bc7433a01b3836d71ddb78819181900360200190a150565b60006112fa826003015461411d84613c8a565b9063ffffffff6141c016565b600081848411156141b85760405162461bcd60e51b81526004018080602001828103825283818151815260200191508051906020019080838360005b8381101561417d578181015183820152602001614165565b50505050905090810190601f1680156141aa5780820380516001836020036101000a031916815260200191505b509250505060405180910390fd5b505050900390565b6000828201838110156129ca576040805162461bcd60e51b815260206004820152601b60248201527f536166654d6174683a206164646974696f6e206f766572666c6f770000000000604482015290519081900360640190fd5b604080516362559ecd60e11b8152606c60048201526001600160a01b038416602482015260448101839052905160009173__DrawManager___________________________9163c4ab3d9a916064808201928692909190829003018186803b15801561428557600080fd5b505af4158015614299573d6000803e3d6000fd5b505050506142a78383613cd0565b6040805183815290516001600160a01b038516917f5bd2fe46fdbb7534e8b97cffa63f641b75d3485cba0cfb856f0703409cf65e70919081900360200190a250600192915050565b600054610100900460ff1680614308575061430861407e565b80614316575060005460ff16155b6143515760405162461bcd60e51b815260040180806020018281038252602e815260200180614f93602e913960400191505060405180910390fd5b600054610100900460ff1615801561437c576000805460ff1961ff0019909116610100171660011790555b6001600160a01b0387166143c9576040805162461bcd60e51b815260206004820152600f60248201526e506f6f6c2f6f776e65722d7a65726f60881b604482015290519081900360640190fd5b6001600160a01b038616614417576040805162461bcd60e51b815260206004820152601060248201526f506f6f6c2f63746f6b656e2d7a65726f60801b604482015290519081900360640190fd5b606680546001600160a01b0319166001600160a01b03881617905561443b87613fdd565b61444485614084565b612ad184613efb565b604080516329965a1d60e01b815230600482018190527fb281fc8c12954d22544db45de3159a39272895b169a852b314f9cc762e44c53b602483015260448201529051731820a4b7618bde71dce8cdc73aab6c95905fad24916329965a1d91606480830192600092919082900301818387803b1580156144cc57600080fd5b505af1158015610e4e573d6000803e3d6000fd5b604080516343be6ded60e01b81526074600482015260248101849052905173__Blocklock_____________________________916343be6ded916044808301926000929190829003018186803b15801561453957600080fd5b505af415801561454d573d6000803e3d6000fd5b505060408051636611206360e01b81526074600482015260248101859052905173__Blocklock_____________________________9350636611206392506044808301926000929190829003018186803b1580156145aa57600080fd5b505af4158015613bc0573d6000803e3d6000fd5b600080606b60006145cd612155565b8152602081019190915260400160002060040154151591505090565b60006145f361152c565b60405190915081907f023ad9f3cfd45bbf91919354cab651602c11b3d4267df2f095331f1e31c0c42990600090a26078546001600160a01b031615611a9b576078546001600160a01b031663a359470961464b611d49565b6040518263ffffffff1660e01b815260040180828152602001915050600060405180830381600087803b15801561468157600080fd5b505af1158015614695573d6000803e3d6000fd5b5050505050565b60408051630c520e5160e31b8152606c6004820152905173__DrawManager___________________________916362907288916024808301926020929190829003018186803b1580156146ee57600080fd5b505af4158015614702573d6000803e3d6000fd5b505050506040513d602081101561471857600080fd5b50506040805161010081018252606880548252606780546001600160a01b039081166020858101918252438688019081526060870189815260006080890181815260a08a0182815260c08b0183815260e08c01848152607080548652606b8952948e90209c518d55975160018d018054918b166001600160a01b0319928316179055955160028d0155935160038c0155905160048b01555160058a01805491881691909416179092555160068801559151600790960195909555915491549254855187815294850152845191169391927f3ba93e35d4f024f23249948504642bc624ab65bc80542daab33f8583f1b8d72f92908290030190a350565b60008073__FixidityLib___________________________63f800d6726040518163ffffffff1660e01b815260040160206040518083038186803b15801561485b57600080fd5b505af415801561486f573d6000803e3d6000fd5b505050506040513d602081101561488557600080fd5b50519050808311156148985790506112fd565b5090919050565b60008073__FixidityLib___________________________63bd5cbd62846040518263ffffffff1660e01b81526004018082815260200191505060206040518083038186803b1580156148f157600080fd5b505af4158015614905573d6000803e3d6000fd5b505050506040513d602081101561491b57600080fd5b50516040805163d6c1528b60e01b81526004810187905260126024820152905191925060009173__FixidityLib___________________________91633c4308a8918591849163d6c1528b91604480820192602092909190829003018186803b15801561498757600080fd5b505af415801561499b573d6000803e3d6000fd5b505050506040513d60208110156149b157600080fd5b5051604080516001600160e01b031960e086901b16815260048101939093526024830191909152516044808301926020929190829003018186803b1580156149f857600080fd5b505af4158015614a0c573d6000803e3d6000fd5b505050506040513d6020811015614a2257600080fd5b505160408051630e99899360e01b815260048101839052905191925073__FixidityLib___________________________91630e99899391602480820192602092909190829003018186803b158015614a7a57600080fd5b505af4158015614a8e573d6000803e3d6000fd5b505050506040513d6020811015614aa457600080fd5b505195945050505050565b6040805163555ddc6560e11b81526001600160a01b03851660048201527f68f03b0b1a978ee238a70b362091d993343460bc1a2830ab3f708936d9f564a460248201529051600091731820a4b7618bde71dce8cdc73aab6c95905fad249163aabbb8ca91604480820192602092909190829003018186803b158015614b3357600080fd5b505afa158015614b47573d6000803e3d6000fd5b505050506040513d6020811015614b5d57600080fd5b505190506001600160a01b03811615610e4e57604080516001600160a01b03868116602483015260448201869052606480830186905283518084039091018152608490920183526020820180516001600160e01b0316630354092d60e31b178152925182516000949286169362030d40939092918291908083835b60208310614bf75780518252601f199092019160209182019101614bd8565b6001836020036101000a03801982511681845116808217855250505050505090500191505060006040518083038160008787f1925050503d8060008114614c5a576040519150601f19603f3d011682016040523d82523d6000602084013e614c5f565b606091505b505090508061469557816001600160a01b0316856001600160a01b0316847fea0a60a98b5cdcd8aa181fe33e194645a2f58d715af888f2ad1df758203e14ad60405160405180910390a45050505050565b6001600160a01b0382166000908152606a6020526040902054614cd9908263ffffffff6141c016565b6001600160a01b0383166000908152606a6020526040902055606954614d05908263ffffffff6141c016565b606955614d1061360e565b6066546040805163095ea7b360e01b81526001600160a01b039283166004820152602481018590529051929091169163095ea7b3916044808201926020929091908290030181600087803b158015614d6757600080fd5b505af1158015614d7b573d6000803e3d6000fd5b505050506040513d6020811015614d9157600080fd5b5051614dd3576040805162461bcd60e51b815260206004820152600c60248201526b506f6f6c2f617070726f766560a01b604482015290519081900360640190fd5b6066546040805163140e25ad60e31b81526004810184905290516001600160a01b039092169163a0712d68916024808201926020929091908290030181600087803b158015614e2157600080fd5b505af1158015614e35573d6000803e3d6000fd5b505050506040513d6020811015614e4b57600080fd5b505115610f70576040805162461bcd60e51b815260206004820152600b60248201526a506f6f6c2f737570706c7960a81b604482015290519081900360640190fd5b614e97828261395e565b15614ee9576040805162461bcd60e51b815260206004820152601f60248201527f526f6c65733a206163636f756e7420616c72656164792068617320726f6c6500604482015290519081900360640190fd5b6001600160a01b0316600090815260209190915260409020805460ff1916600117905556fe5265656e7472616e637947756172643a207265656e7472616e742063616c6c00526f6c65733a206163636f756e7420646f6573206e6f74206861766520726f6c65536166654d6174683a206d756c7469706c69636174696f6e206f766572666c6f77526f6c65733a206163636f756e7420697320746865207a65726f2061646472657373436f6e747261637420696e7374616e63652068617320616c7265616479206265656e20696e697469616c697a6564a265627a7a7231582064b1d0d09746bf1ac1ecf53dd160f2c558193ddbe9cf919e3f4d2dc1e1b27ab864736f6c634300050c0032",
  "source": "/**\nCopyright 2020 PoolTogether Inc.\n\nThis file is part of PoolTogether.\n\nPoolTogether is free software: you can redistribute it and/or modify\nit under the terms of the GNU General Public License as published by\nthe Free Software Foundation under version 3 of the License.\n\nPoolTogether is distributed in the hope that it will be useful,\nbut WITHOUT ANY WARRANTY; without even the implied warranty of\nMERCHANTABILITY or FITNESS FOR A PARTICULAR PURPOSE.  See the\nGNU General Public License for more details.\n\nYou should have received a copy of the GNU General Public License\nalong with PoolTogether.  If not, see <https://www.gnu.org/licenses/>.\n*/\n\npragma solidity 0.5.12;\n\nimport \"./BasePool.sol\";\nimport \"scd-mcd-migration/src/ScdMcdMigration.sol\";\nimport { GemLike } from \"scd-mcd-migration/src/Interfaces.sol\";\nimport \"@openzeppelin/contracts-ethereum-package/contracts/token/ERC777/IERC777Recipient.sol\";\n\n/**\n * @title MCDAwarePool\n * @author Brendan Asselstine brendan@pooltogether.us\n * @notice This contract is a Pool that is aware of the new Multi-Collateral Dai.  It uses the ERC777Recipient interface to\n * detect if it's being transferred tickets from the old single collateral Dai (Sai) Pool.  If it is, it migrates the Sai to Dai\n * and immediately deposits the new Dai as committed tickets for that user.  We are knowingly bypassing the committed period for\n * users to encourage them to migrate to the MCD Pool.\n */\ncontract MCDAwarePool is BasePool, IERC777Recipient {\n  IERC1820Registry constant internal ERC1820_REGISTRY = IERC1820Registry(0x1820a4B7618BdE71Dce8cdc73aAB6C95905faD24);\n\n  // keccak256(\"ERC777TokensRecipient\")\n  bytes32 constant internal TOKENS_RECIPIENT_INTERFACE_HASH =\n      0xb281fc8c12954d22544db45de3159a39272895b169a852b314f9cc762e44c53b;\n\n  uint256 internal constant DEFAULT_LOCK_DURATION = 40;\n  uint256 internal constant DEFAULT_COOLDOWN_DURATION = 80;\n\n  /**\n   * @notice The address of the ScdMcdMigration contract (see https://github.com/makerdao/developerguides/blob/master/mcd/upgrading-to-multi-collateral-dai/upgrading-to-multi-collateral-dai.md#direct-integration-with-smart-contracts)\n   */\n  ScdMcdMigration public scdMcdMigration;\n\n  /**\n   * @notice The address of the Sai Pool contract\n   */\n  MCDAwarePool public saiPool;\n\n  /**\n   * @notice Initializes the contract.\n   * @param _owner The initial administrator of the contract\n   * @param _cToken The Compound cToken to bind this Pool to\n   * @param _feeFraction The fraction of the winnings to give to the beneficiary\n   * @param _feeBeneficiary The beneficiary who receives the fee\n   */\n  function init (\n    address _owner,\n    address _cToken,\n    uint256 _feeFraction,\n    address _feeBeneficiary,\n    uint256 lockDuration,\n    uint256 cooldownDuration\n  ) public initializer {\n    super.init(\n      _owner,\n      _cToken,\n      _feeFraction,\n      _feeBeneficiary,\n      lockDuration,\n      cooldownDuration\n    );\n    initRegistry();\n    initBlocklock(lockDuration, cooldownDuration);\n  }\n\n  /**\n   * @notice Used to initialize the BasePool contract after an upgrade.  Registers the MCDAwarePool with the ERC1820 registry so that it can receive tokens, and inits the block lock.\n   */\n  function initMCDAwarePool(uint256 lockDuration, uint256 cooldownDuration) public {\n    initRegistry();\n    if (blocklock.lockDuration == 0) {\n      initBlocklock(lockDuration, cooldownDuration);\n    }\n  }\n\n  function initRegistry() internal {\n    ERC1820_REGISTRY.setInterfaceImplementer(address(this), TOKENS_RECIPIENT_INTERFACE_HASH, address(this));\n  }\n\n  function initMigration(ScdMcdMigration _scdMcdMigration, MCDAwarePool _saiPool) public onlyAdmin {\n    _initMigration(_scdMcdMigration, _saiPool);\n  }\n\n  function _initMigration(ScdMcdMigration _scdMcdMigration, MCDAwarePool _saiPool) internal {\n    require(address(scdMcdMigration) == address(0), \"Pool/init\");\n    require(address(_scdMcdMigration) != address(0), \"Pool/mig-def\");\n    scdMcdMigration = _scdMcdMigration;\n    saiPool = _saiPool; // may be null\n  }\n\n  /**\n   * @notice Called by an ERC777 token when tokens are sent, transferred, or minted.  If the sender is the original Sai Pool\n   * and this pool is bound to the Dai token then it will accept the transfer, migrate the tokens, and deposit on behalf of\n   * the sender.  It will reject all other tokens.\n   *\n   * If there is a committed draw this function will mint the user tickets immediately, otherwise it will place them in the\n   * open prize.  This is to encourage migration.\n   *\n   * @param from The sender\n   * @param amount The amount they are transferring\n   */\n  function tokensReceived(\n    address, // operator\n    address from,\n    address, // to address can't be anything but us because we don't implement ERC1820ImplementerInterface\n    uint256 amount,\n    bytes calldata,\n    bytes calldata\n  ) external unlessDepositsPaused {\n    require(msg.sender == address(saiPoolToken()), \"Pool/sai-only\");\n    require(address(token()) == address(daiToken()), \"Pool/not-dai\");\n\n    // cash out of the Pool.  This call transfers sai to this contract\n    saiPoolToken().redeem(amount, '');\n\n    // approve of the transfer to the migration contract\n    saiToken().approve(address(scdMcdMigration), amount);\n\n    // migrate the sai to dai.  The contract now has dai\n    scdMcdMigration.swapSaiToDai(amount);\n\n    if (currentCommittedDrawId() > 0) {\n      // now deposit the dai as tickets\n      _depositPoolFromCommitted(from, amount);\n    } else {\n      _depositPoolFrom(from, amount);\n    }\n  }\n\n  /**\n   * @notice Returns the address of the PoolSai pool token contract\n   * @return The address of the Sai PoolToken contract\n   */\n  function saiPoolToken() internal view returns (PoolToken) {\n    if (address(saiPool) != address(0)) {\n      return saiPool.poolToken();\n    } else {\n      return PoolToken(0);\n    }\n  }\n\n  /**\n   * @notice Returns the address of the Sai token\n   * @return The address of the sai token\n   */\n  function saiToken() public returns (GemLike) {\n    return scdMcdMigration.saiJoin().gem();\n  }\n\n  /**\n   * @notice Returns the address of the Dai token\n   * @return The address of the Dai token.\n   */\n  function daiToken() public returns (GemLike) {\n    return scdMcdMigration.daiJoin().dai();\n  }\n}\n",
  "sourcePath": "/home/manjain/Documents/LetsPool/src/pooltogether-contracts/contracts/MCDAwarePool.sol",
  "compiler": {
    "name": "solc",
    "version": "0.5.12+commit.7709ece9.Emscripten.clang"
  },
  "schemaVersion": "3.1.0",
  "updatedAt": "2020-05-21T20:34:55.064Z",
  "devdoc": {
    "author": "Brendan Asselstine brendan@pooltogether.us",
    "methods": {
      "addAdmin(address)": {
        "params": {
          "_admin": "The address of the admin to add"
        }
      },
      "balance()": {
        "return": "The cToken underlying balance for this contract."
      },
      "balanceOf(address)": {
        "params": {
          "_addr": "The address of the user to check."
        },
        "return": "The user's current balance."
      },
      "calculateWinner(bytes32)": {
        "params": {
          "_entropy": "The entropy to use to select the winner"
        },
        "return": "The winning address"
      },
      "canLock()": {
        "return": "True if the contract can be locked, false otherwise"
      },
      "committedBalanceOf(address)": {
        "params": {
          "_addr": "The address of the user"
        },
        "return": "The total committed balance for the user"
      },
      "committedSupply()": {
        "return": "The total committed balance."
      },
      "cooldownDuration()": {
        "return": "The cooldown duration in blocks"
      },
      "cooldownEndAt()": {
        "return": "The block number at which the cooldown ends and the contract can be re-locked"
      },
      "currentCommittedDrawId()": {
        "return": "The current committed Draw id"
      },
      "currentOpenDrawId()": {
        "return": "The current open Draw id"
      },
      "daiToken()": {
        "return": "The address of the Dai token."
      },
      "depositPool(uint256)": {
        "params": {
          "_amount": "The amount of the token underlying the cToken to deposit."
        }
      },
      "depositSponsorship(uint256)": {
        "params": {
          "_amount": "The amount of the token underlying the cToken to deposit."
        }
      },
      "estimatedInterestRate(uint256)": {
        "params": {
          "_blocks": "The number of block that interest accrued for"
        },
        "return": "The total estimated interest as a 18 point fixed decimal."
      },
      "getDraw(uint256)": {
        "params": {
          "_drawId": "The id of the Draw to retrieve info for."
        },
        "return": "Fields including: feeFraction: the fee fraction feeBeneficiary: the beneficiary of the fee openedBlock: The block at which the draw was opened secretHash: The hash of the secret committed to this draw. entropy: the entropy used to select the winner winner: the address of the winner netWinnings: the total winnings less the fee fee: the fee taken by the beneficiary"
      },
      "init(address,address,uint256,address,uint256,uint256)": {
        "params": {
          "_cToken": "The Compound cToken to bind this Pool to",
          "_feeBeneficiary": "The beneficiary who receives the fee",
          "_feeFraction": "The fraction of the winnings to give to the beneficiary",
          "_owner": "The initial administrator of the contract"
        }
      },
      "isAdmin(address)": {
        "params": {
          "_admin": "The address to check"
        },
        "return": "True if the address is an admin, false otherwise."
      },
      "isLocked()": {
        "return": "True if the contract is locked, false otherwise"
      },
      "lockDuration()": {
        "return": "Returns the duration of the lock in blocks."
      },
      "lockEndAt()": {
        "return": "The block number at which the lock expires"
      },
      "lockTokens()": {
        "details": "The lock only lasts for a duration of blocks.  The lock cannot be relocked until the cooldown duration completes."
      },
      "moveCommitted(address,address,uint256)": {
        "params": {
          "_amount": "The amount of tokens to transfer",
          "_from": "The account to move tokens from",
          "_to": "The account that is receiving the tokens"
        }
      },
      "openBalanceOf(address)": {
        "params": {
          "_addr": "The address of the user"
        },
        "return": "The total open balance for the user"
      },
      "openNextDraw(bytes32)": {
        "params": {
          "nextSecretHash": "The secret hash to use to open a new Draw"
        }
      },
      "openSupply()": {
        "return": "The total open balance"
      },
      "removeAdmin(address)": {
        "params": {
          "_admin": "The address of the admin to remove"
        }
      },
      "reward(bytes32,bytes32)": {
        "params": {
          "_salt": "The salt that was used to conceal the secret",
          "_secret": "The secret to reveal for the current committed Draw"
        }
      },
      "rewardAndOpenNextDraw(bytes32,bytes32,bytes32)": {
        "params": {
          "_salt": "The salt that was used to conceal the secret",
          "lastSecret": "The secret to reveal to reward the current committed Draw.",
          "nextSecretHash": "The secret hash to use to open a new Draw"
        }
      },
      "rollover()": {
        "details": "This function will be removed once the entropy is decentralized."
      },
      "rolloverAndOpenNextDraw(bytes32)": {
        "details": "This function will be removed once the winner selection has been decentralized.",
        "params": {
          "nextSecretHash": "The hash to commit for the next draw"
        }
      },
      "saiToken()": {
        "return": "The address of the sai token"
      },
      "setNextFeeBeneficiary(address)": {
        "params": {
          "_feeBeneficiary": "The beneficiary for the fee fraction.  Cannot be the 0 address."
        }
      },
      "setNextFeeFraction(uint256)": {
        "params": {
          "_feeFraction": "The fee fraction to use. Must be between 0 and 1 and formatted as a fixed point number with 18 decimals (as in Ether)."
        }
      },
      "sponsorshipAndFeeBalanceOf(address)": {
        "params": {
          "_sender": "The user whose balance should be returned"
        }
      },
      "supplyRatePerBlock()": {
        "return": "The cToken supply rate per block"
      },
      "token()": {
        "return": "An ERC20 token address"
      },
      "tokensReceived(address,address,address,uint256,bytes,bytes)": {
        "params": {
          "amount": "The amount they are transferring",
          "from": "The sender"
        }
      },
      "totalBalanceOf(address)": {
        "params": {
          "_addr": "The address of the user to check."
        },
        "return": "The user's current balance."
      },
      "withdraw(uint256)": {
        "params": {
          "amount": "The amount to withdraw."
        }
      },
      "withdrawCommittedDeposit(uint256)": {
        "params": {
          "_amount": "The amount to withdraw"
        }
      },
      "withdrawCommittedDepositFrom(address,uint256)": {
        "params": {
          "_amount": "The amount to withdraw",
          "_from": "The user to withdraw from"
        }
      },
      "withdrawOpenDeposit(uint256)": {
        "params": {
          "_amount": "The amount to withdraw"
        }
      },
      "withdrawSponsorshipAndFee(uint256)": {
        "params": {
          "_amount": "The amount to withdraw"
        }
      }
    },
    "title": "MCDAwarePool"
  },
  "userdoc": {
    "methods": {
      "addAdmin(address)": {
        "notice": "Adds an administrator. Can only be called by administrators. Fires the AdminAdded event."
      },
      "balance()": {
        "notice": "Returns the underlying balance of this contract in the cToken."
      },
      "balanceOf(address)": {
        "notice": "Returns a user's committed balance.  This is the balance of their Pool tokens."
      },
      "calculateWinner(bytes32)": {
        "notice": "Calculates a winner using the passed entropy for the current committed balances."
      },
      "canLock()": {
        "notice": "Returns whether the contract can be locked"
      },
      "committedBalanceOf(address)": {
        "notice": "Returns the total of the address's balance in committed Draws.  That is, the total that contributes to their chances of winning."
      },
      "committedSupply()": {
        "notice": "Returns the total committed balance.  Used to compute an address's chances of winning."
      },
      "cooldownDuration()": {
        "notice": "Returns the cooldown duration.  The cooldown period starts after the Pool has been unlocked. The Pool cannot be locked during the cooldown period."
      },
      "cooldownEndAt()": {
        "notice": "Check cooldown end block"
      },
      "currentCommittedDrawId()": {
        "notice": "Returns the id of the current committed Draw."
      },
      "currentOpenDrawId()": {
        "notice": "Returns the id of the current open Draw."
      },
      "daiToken()": {
        "notice": "Returns the address of the Dai token"
      },
      "depositPool(uint256)": {
        "notice": "Deposits into the pool under the current open Draw.  The deposit is transferred into the cToken. Once the open draw is committed, the deposit will be added to the user's total committed balance and increase their chances of winning proportional to the total committed balance of all users."
      },
      "depositSponsorship(uint256)": {
        "notice": "Allows a user to deposit a sponsorship amount.  The deposit is transferred into the cToken. Sponsorships allow a user to contribute to the pool without becoming eligible to win.  They can withdraw their sponsorship at any time. The deposit will immediately be added to Compound and the interest will contribute to the next draw."
      },
      "estimatedInterestRate(uint256)": {
        "notice": "Calculates the total estimated interest earned for the given number of blocks"
      },
      "getDraw(uint256)": {
        "notice": "Gets information for a given draw."
      },
      "init(address,address,uint256,address,uint256,uint256)": {
        "notice": "Initializes the contract."
      },
      "initMCDAwarePool(uint256,uint256)": {
        "notice": "Used to initialize the BasePool contract after an upgrade.  Registers the MCDAwarePool with the ERC1820 registry so that it can receive tokens, and inits the block lock."
      },
      "isAdmin(address)": {
        "notice": "Checks whether a given address is an administrator."
      },
      "isLocked()": {
        "notice": "Check if the contract is locked."
      },
      "lockDuration()": {
        "notice": "Duration of the lock"
      },
      "lockEndAt()": {
        "notice": "Returns the block number at which the lock expires"
      },
      "lockTokens()": {
        "notice": "Locks the movement of tokens (essentially the committed deposits and winnings)"
      },
      "moveCommitted(address,address,uint256)": {
        "notice": "Allows the associated PoolToken to move committed tokens from one user to another."
      },
      "openBalanceOf(address)": {
        "notice": "Returns the total of the address's balance in the open Draw.  That is, the total that will *eventually* contribute to their chances of winning."
      },
      "openNextDraw(bytes32)": {
        "notice": "Commits the current open draw, if any, and opens the next draw using the passed hash.  Really this function is only called twice: the first after Pool contract creation and the second immediately after. Can only be called by an admin. May fire the Committed event, and always fires the Open event."
      },
      "openSupply()": {
        "notice": "Returns the total open balance.  This balance is the number of tickets purchased for the open draw."
      },
      "pauseDeposits()": {
        "notice": "Pauses all deposits into the contract.  This was added so that we can slowly deprecate Pools.  Users can continue to collect rewards and withdraw, but eventually the Pool will grow smaller.   * emits DepositsPaused"
      },
      "removeAdmin(address)": {
        "notice": "Removes an administrator Can only be called by an admin. Admins cannot remove themselves.  This ensures there is always one admin."
      },
      "reward(bytes32,bytes32)": {
        "notice": "Rewards the winner for the current committed Draw using the passed secret. The gross winnings are calculated by subtracting the accounted balance from the current underlying cToken balance. A winner is calculated using the revealed secret. If there is a winner (i.e. any eligible users) then winner's balance is updated with their net winnings. The draw beneficiary's balance is updated with the fee. The accounted balance is updated to include the fee and, if there was a winner, the net winnings. Fires the Rewarded event."
      },
      "rewardAndOpenNextDraw(bytes32,bytes32,bytes32)": {
        "notice": "Rewards the current committed draw using the passed secret, commits the current open draw, and opens the next draw using the passed secret hash. Can only be called by an admin. Fires the Rewarded event, the Committed event, and the Open event."
      },
      "rollover()": {
        "notice": "A function that skips the reward for the committed draw id."
      },
      "rolloverAndOpenNextDraw(bytes32)": {
        "notice": "Ignores the current draw, and opens the next draw."
      },
      "saiToken()": {
        "notice": "Returns the address of the Sai token"
      },
      "setNextFeeBeneficiary(address)": {
        "notice": "Sets the fee beneficiary for subsequent Draws. Can only be called by admins."
      },
      "setNextFeeFraction(uint256)": {
        "notice": "Sets the beneficiary fee fraction for subsequent Draws. Fires the NextFeeFractionChanged event. Can only be called by an admin."
      },
      "sponsorshipAndFeeBalanceOf(address)": {
        "notice": "Returns the total balance of the user's sponsorship and fees"
      },
      "supplyRatePerBlock()": {
        "notice": "Convenience function to return the supplyRatePerBlock value from the money market contract."
      },
      "token()": {
        "notice": "Returns the token underlying the cToken."
      },
      "tokensReceived(address,address,address,uint256,bytes,bytes)": {
        "notice": "Called by an ERC777 token when tokens are sent, transferred, or minted.  If the sender is the original Sai Pool and this pool is bound to the Dai token then it will accept the transfer, migrate the tokens, and deposit on behalf of the sender.  It will reject all other tokens.   * If there is a committed draw this function will mint the user tickets immediately, otherwise it will place them in the open prize.  This is to encourage migration."
      },
      "totalBalanceOf(address)": {
        "notice": "Returns a user's total balance.  This includes their sponsorships, fees, open deposits, and committed deposits."
      },
      "transferBalanceToSponsorship()": {
        "notice": "Deposits the token balance for this contract as a sponsorship. If people erroneously transfer tokens to this contract, this function will allow us to recoup those tokens as sponsorship."
      },
      "unlockTokens()": {
        "notice": "Unlocks the movement of tokens (essentially the committed deposits)"
      },
      "unpauseDeposits()": {
        "notice": "Unpauses all deposits into the contract   * emits DepositsUnpaused"
      },
      "withdraw()": {
        "notice": "Withdraw the sender's entire balance back to them."
      },
      "withdraw(uint256)": {
        "notice": "Withdraws the given amount from the user's deposits.  It first withdraws from their sponsorship, then their open deposits, then their committed deposits."
      },
      "withdrawCommittedDeposit(uint256)": {
        "notice": "Withdraws from the user's committed deposits"
      },
      "withdrawCommittedDepositFrom(address,uint256)": {
        "notice": "Allows the associated PoolToken to withdraw for a user; useful when redeeming through the token."
      },
      "withdrawOpenDeposit(uint256)": {
        "notice": "Withdraws from the user's open deposits"
      },
      "withdrawSponsorshipAndFee(uint256)": {
        "notice": "Withdraws only from the sender's sponsorship and fee balances"
      }
    },
    "notice": "This contract is a Pool that is aware of the new Multi-Collateral Dai.  It uses the ERC777Recipient interface to detect if it's being transferred tickets from the old single collateral Dai (Sai) Pool.  If it is, it migrates the Sai to Dai and immediately deposits the new Dai as committed tickets for that user.  We are knowingly bypassing the committed period for users to encourage them to migrate to the MCD Pool."
  }
}