{
  "contractName": "MockRewardListener",
  "abi": [
    {
      "constant": true,
      "inputs": [],
      "name": "lastDrawId",
      "outputs": [
        {
          "internalType": "uint256",
          "name": "",
          "type": "uint256"
        }
      ],
      "payable": false,
      "stateMutability": "view",
      "type": "function"
    },
    {
      "constant": true,
      "inputs": [],
      "name": "lastWinner",
      "outputs": [
        {
          "internalType": "address",
          "name": "",
          "type": "address"
        }
      ],
      "payable": false,
      "stateMutability": "view",
      "type": "function"
    },
    {
      "constant": true,
      "inputs": [],
      "name": "lastWinnings",
      "outputs": [
        {
          "internalType": "uint256",
          "name": "",
          "type": "uint256"
        }
      ],
      "payable": false,
      "stateMutability": "view",
      "type": "function"
    },
    {
      "constant": false,
      "inputs": [
        {
          "internalType": "address",
          "name": "winner",
          "type": "address"
        },
        {
          "internalType": "uint256",
          "name": "winnings",
          "type": "uint256"
        },
        {
          "internalType": "uint256",
          "name": "drawId",
          "type": "uint256"
        }
      ],
      "name": "rewarded",
      "outputs": [],
      "payable": false,
      "stateMutability": "nonpayable",
      "type": "function"
    },
    {
      "constant": true,
      "inputs": [
        {
          "internalType": "bytes32",
          "name": "",
          "type": "bytes32"
        },
        {
          "internalType": "address",
          "name": "",
          "type": "address"
        }
      ],
      "name": "canImplementInterfaceForAddress",
      "outputs": [
        {
          "internalType": "bytes32",
          "name": "",
          "type": "bytes32"
        }
      ],
      "payable": false,
      "stateMutability": "view",
      "type": "function"
    }
  ],
  "bytecode": "0x608060405234801561001057600080fd5b506101bc806100206000396000f3fe608060405234801561001057600080fd5b50600436106100575760003560e01c80631aa049681461005c578063249cb3fa146100905780634e81e2f0146100ce578063e552fe4a146100d6578063fe188184146100de575b600080fd5b61008e6004803603606081101561007257600080fd5b506001600160a01b038135169060208101359060400135610102565b005b6100bc600480360360408110156100a657600080fd5b50803590602001356001600160a01b031661012b565b60408051918252519081900360200190f35b6100bc61016c565b6100bc610172565b6100e6610178565b604080516001600160a01b039092168252519081900360200190f35b600080546001600160a01b0319166001600160a01b039490941693909317909255600155600255565b50506040805173455243313832305f4143434550545f4d4147494360601b602080830191909152825160148184030181526034909201909252805191012090565b60025481565b60015481565b6000546001600160a01b03168156fea265627a7a72315820a004d2728638a42b919739cf89820321756bcdb0ea176f7debddb9979912c8fa64736f6c634300050c0032",
  "source": "pragma solidity 0.5.12;\n\nimport \"@openzeppelin/contracts-ethereum-package/contracts/introspection/IERC1820Implementer.sol\";\nimport \"../IRewardListener.sol\";\n\ncontract MockRewardListener is IRewardListener, IERC1820Implementer {\n  bytes32 constant internal ERC1820_ACCEPT_MAGIC = keccak256(abi.encodePacked(\"ERC1820_ACCEPT_MAGIC\"));\n\n  address public lastWinner;\n  uint256 public lastWinnings;\n  uint256 public lastDrawId;\n\n  function rewarded(address winner, uint256 winnings, uint256 drawId) external {\n    lastWinner = winner;\n    lastWinnings = winnings;\n    lastDrawId = drawId;\n  }\n\n  function canImplementInterfaceForAddress(bytes32, address) external view returns (bytes32) {\n    return ERC1820_ACCEPT_MAGIC;\n  }\n}",
  "sourcePath": "/home/manjain/Documents/LetsPool/src/pooltogether-contracts/contracts/test/MockRewardListener.sol",
  "compiler": {
    "name": "solc",
    "version": "0.5.12+commit.7709ece9.Emscripten.clang"
  },
  "schemaVersion": "3.1.0",
  "updatedAt": "2020-05-21T20:34:55.093Z",
  "devdoc": {
    "methods": {}
  },
  "userdoc": {
    "methods": {}
  }
}