{
  "contractName": "MockERC777Sender",
  "abi": [
    {
      "constant": true,
      "inputs": [],
      "name": "amount",
      "outputs": [
        {
          "internalType": "uint256",
          "name": "",
          "type": "uint256"
        }
      ],
      "payable": false,
      "stateMutability": "view",
      "type": "function"
    },
    {
      "constant": true,
      "inputs": [],
      "name": "count",
      "outputs": [
        {
          "internalType": "uint256",
          "name": "",
          "type": "uint256"
        }
      ],
      "payable": false,
      "stateMutability": "view",
      "type": "function"
    },
    {
      "constant": true,
      "inputs": [],
      "name": "from",
      "outputs": [
        {
          "internalType": "address",
          "name": "",
          "type": "address"
        }
      ],
      "payable": false,
      "stateMutability": "view",
      "type": "function"
    },
    {
      "constant": true,
      "inputs": [],
      "name": "operator",
      "outputs": [
        {
          "internalType": "address",
          "name": "",
          "type": "address"
        }
      ],
      "payable": false,
      "stateMutability": "view",
      "type": "function"
    },
    {
      "constant": true,
      "inputs": [],
      "name": "operatorData",
      "outputs": [
        {
          "internalType": "bytes",
          "name": "",
          "type": "bytes"
        }
      ],
      "payable": false,
      "stateMutability": "view",
      "type": "function"
    },
    {
      "constant": true,
      "inputs": [],
      "name": "to",
      "outputs": [
        {
          "internalType": "address",
          "name": "",
          "type": "address"
        }
      ],
      "payable": false,
      "stateMutability": "view",
      "type": "function"
    },
    {
      "constant": true,
      "inputs": [],
      "name": "userData",
      "outputs": [
        {
          "internalType": "bytes",
          "name": "",
          "type": "bytes"
        }
      ],
      "payable": false,
      "stateMutability": "view",
      "type": "function"
    },
    {
      "constant": false,
      "inputs": [
        {
          "internalType": "address",
          "name": "_operator",
          "type": "address"
        },
        {
          "internalType": "address",
          "name": "_from",
          "type": "address"
        },
        {
          "internalType": "address",
          "name": "_to",
          "type": "address"
        },
        {
          "internalType": "uint256",
          "name": "_amount",
          "type": "uint256"
        },
        {
          "internalType": "bytes",
          "name": "_userData",
          "type": "bytes"
        },
        {
          "internalType": "bytes",
          "name": "_operatorData",
          "type": "bytes"
        }
      ],
      "name": "tokensToSend",
      "outputs": [],
      "payable": false,
      "stateMutability": "nonpayable",
      "type": "function"
    },
    {
      "constant": true,
      "inputs": [
        {
          "internalType": "bytes32",
          "name": "interfaceHash",
          "type": "bytes32"
        },
        {
          "internalType": "address",
          "name": "",
          "type": "address"
        }
      ],
      "name": "canImplementInterfaceForAddress",
      "outputs": [
        {
          "internalType": "bytes32",
          "name": "",
          "type": "bytes32"
        }
      ],
      "payable": false,
      "stateMutability": "view",
      "type": "function"
    }
  ],
  "bytecode": "0x608060405234801561001057600080fd5b50610566806100206000396000f3fe608060405234801561001057600080fd5b50600436106100935760003560e01c806375ab97821161006657806375ab97821461010a5780638d17fefd146101f6578063aa8c217c14610273578063bea6998f1461027b578063d5ce33891461028357610093565b806306661abd1461009857806313151981146100b2578063249cb3fa146100d6578063570ca73514610102575b600080fd5b6100a061028b565b60408051918252519081900360200190f35b6100ba610291565b604080516001600160a01b039092168252519081900360200190f35b6100a0600480360360408110156100ec57600080fd5b50803590602001356001600160a01b03166102a0565b6100ba610319565b6101f4600480360360c081101561012057600080fd5b6001600160a01b03823581169260208101358216926040820135909216916060820135919081019060a08101608082013564010000000081111561016357600080fd5b82018360208201111561017557600080fd5b8035906020019184600183028401116401000000008311171561019757600080fd5b9193909290916020810190356401000000008111156101b557600080fd5b8201836020820111156101c757600080fd5b803590602001918460018302840111640100000000831117156101e957600080fd5b509092509050610328565b005b6101fe610398565b6040805160208082528351818301528351919283929083019185019080838360005b83811015610238578181015183820152602001610220565b50505050905090810190601f1680156102655780820380516001836020036101000a031916815260200191505b509250505060405180910390f35b6100a0610426565b6101fe61042c565b6100ba610487565b60005481565b6003546001600160a01b031681565b60007f29ddb589b1fb5fc7cf394961c1adf5f8c6454761adf795e67fe149f658abe89583141561030f57604051602001808073455243313832305f4143434550545f4d4147494360601b8152506014019050604051602081830303815290604052805190602001209050610313565b5060005b92915050565b6001546001600160a01b031681565b60008054600190810190915580546001600160a01b03808b166001600160a01b031992831617909255600280548a84169083161790556003805492891692909116919091179055600485905561038060058585610496565b5061038d60068383610496565b505050505050505050565b6006805460408051602060026001851615610100026000190190941693909304601f8101849004840282018401909252818152929183018282801561041e5780601f106103f35761010080835404028352916020019161041e565b820191906000526020600020905b81548152906001019060200180831161040157829003601f168201915b505050505081565b60045481565b6005805460408051602060026001851615610100026000190190941693909304601f8101849004840282018401909252818152929183018282801561041e5780601f106103f35761010080835404028352916020019161041e565b6002546001600160a01b031681565b828054600181600116156101000203166002900490600052602060002090601f016020900481019282601f106104d75782800160ff19823516178555610504565b82800160010185558215610504579182015b828111156105045782358255916020019190600101906104e9565b50610510929150610514565b5090565b61052e91905b80821115610510576000815560010161051a565b9056fea265627a7a72315820e991e8963f914583a536a322855c69d38cc3f1f1aeff8c72c5774f12fce5a58c64736f6c634300050c0032",
  "source": "pragma solidity 0.5.12;\n\nimport \"@openzeppelin/contracts-ethereum-package/contracts/token/ERC777/IERC777Sender.sol\";\nimport \"@openzeppelin/contracts-ethereum-package/contracts/introspection/IERC1820Implementer.sol\";\n\ncontract MockERC777Sender is IERC777Sender, IERC1820Implementer {\n  bytes32 constant private ERC1820_ACCEPT_MAGIC = keccak256(abi.encodePacked(\"ERC1820_ACCEPT_MAGIC\"));\n  bytes32 constant private TOKENS_SENDER_INTERFACE_HASH =\n      0x29ddb589b1fb5fc7cf394961c1adf5f8c6454761adf795e67fe149f658abe895;\n\n  uint256 public count;\n  address public operator;\n  address public from;\n  address public to;\n  uint256 public amount;\n  bytes public userData;\n  bytes public operatorData;\n\n  function tokensToSend(\n    address _operator,\n    address _from,\n    address _to,\n    uint256 _amount,\n    bytes calldata _userData,\n    bytes calldata _operatorData\n  ) external {\n    count = count + 1;\n    operator = _operator;\n    from = _from;\n    to = _to;\n    amount = _amount;\n    userData = _userData;\n    operatorData = _operatorData;\n  }\n\n  function canImplementInterfaceForAddress(bytes32 interfaceHash, address) external view returns (bytes32) {\n    if (interfaceHash == TOKENS_SENDER_INTERFACE_HASH) {\n      return ERC1820_ACCEPT_MAGIC;\n    } else {\n      return bytes32(0x00);\n    }\n  }\n}",
  "sourcePath": "/home/manjain/Documents/LetsPool/src/pooltogether-contracts/contracts/test/MockERC777Sender.sol",
  "compiler": {
    "name": "solc",
    "version": "0.5.12+commit.7709ece9.Emscripten.clang"
  },
  "schemaVersion": "3.1.0",
  "updatedAt": "2020-05-21T20:34:55.092Z",
  "devdoc": {
    "methods": {}
  },
  "userdoc": {
    "methods": {}
  }
}