{
  "contractName": "MockJoinLike",
  "abi": [
    {
      "inputs": [
        {
          "internalType": "address",
          "name": "_gem",
          "type": "address"
        },
        {
          "internalType": "address",
          "name": "_dai",
          "type": "address"
        }
      ],
      "payable": false,
      "stateMutability": "nonpayable",
      "type": "constructor"
    },
    {
      "constant": true,
      "inputs": [],
      "name": "dai",
      "outputs": [
        {
          "internalType": "address",
          "name": "",
          "type": "address"
        }
      ],
      "payable": false,
      "stateMutability": "view",
      "type": "function"
    },
    {
      "constant": true,
      "inputs": [],
      "name": "gem",
      "outputs": [
        {
          "internalType": "address",
          "name": "",
          "type": "address"
        }
      ],
      "payable": false,
      "stateMutability": "view",
      "type": "function"
    }
  ],
  "bytecode": "0x608060405234801561001057600080fd5b5060405161012b38038061012b8339818101604052604081101561003357600080fd5b508051602090910151600080546001600160a01b039384166001600160a01b0319918216179091556001805493909216921691909117905560b2806100796000396000f3fe6080604052348015600f57600080fd5b506004361060325760003560e01c80637bd2bea7146037578063f4b9fa75146059575b600080fd5b603d605f565b604080516001600160a01b039092168252519081900360200190f35b603d606e565b6000546001600160a01b031681565b6001546001600160a01b03168156fea265627a7a723158205c4f8add61dd960917a75e6842757c02c11f023f437b7a6ae0d0ea5f82e13a4664736f6c634300050c0032",
  "source": "pragma solidity 0.5.12;\n\n// import { GemLike, JoinLike } from \"scd-mcd-migration/src/Interfaces.sol\";\n\ncontract MockJoinLike {\n  address public gem;\n  address public dai;\n\n  constructor(\n    address _gem,\n    address _dai\n  ) public {\n    gem = _gem;\n    dai = _dai;\n  }\n}",
  "sourcePath": "/home/manjain/Documents/LetsPool/src/pooltogether-contracts/contracts/test/maker/MockJoinLike.sol",
  "compiler": {
    "name": "solc",
    "version": "0.5.12+commit.7709ece9.Emscripten.clang"
  },
  "schemaVersion": "3.1.0",
  "updatedAt": "2020-05-21T20:34:55.095Z",
  "devdoc": {
    "methods": {}
  },
  "userdoc": {
    "methods": {}
  }
}