{
  "contractName": "MockScdMcdMigration",
  "abi": [
    {
      "constant": true,
      "inputs": [],
      "name": "dai",
      "outputs": [
        {
          "internalType": "contract Token",
          "name": "",
          "type": "address"
        }
      ],
      "payable": false,
      "stateMutability": "view",
      "type": "function"
    },
    {
      "constant": true,
      "inputs": [],
      "name": "daiJoin",
      "outputs": [
        {
          "internalType": "contract MockJoinLike",
          "name": "",
          "type": "address"
        }
      ],
      "payable": false,
      "stateMutability": "view",
      "type": "function"
    },
    {
      "constant": true,
      "inputs": [],
      "name": "sai",
      "outputs": [
        {
          "internalType": "contract Token",
          "name": "",
          "type": "address"
        }
      ],
      "payable": false,
      "stateMutability": "view",
      "type": "function"
    },
    {
      "constant": true,
      "inputs": [],
      "name": "saiJoin",
      "outputs": [
        {
          "internalType": "contract MockJoinLike",
          "name": "",
          "type": "address"
        }
      ],
      "payable": false,
      "stateMutability": "view",
      "type": "function"
    },
    {
      "constant": false,
      "inputs": [
        {
          "internalType": "contract Token",
          "name": "_sai",
          "type": "address"
        },
        {
          "internalType": "contract Token",
          "name": "_dai",
          "type": "address"
        }
      ],
      "name": "initialize",
      "outputs": [],
      "payable": false,
      "stateMutability": "nonpayable",
      "type": "function"
    },
    {
      "constant": false,
      "inputs": [
        {
          "internalType": "contract Token",
          "name": "_sai",
          "type": "address"
        }
      ],
      "name": "setSai",
      "outputs": [],
      "payable": false,
      "stateMutability": "nonpayable",
      "type": "function"
    },
    {
      "constant": false,
      "inputs": [
        {
          "internalType": "contract Token",
          "name": "_dai",
          "type": "address"
        }
      ],
      "name": "setDai",
      "outputs": [],
      "payable": false,
      "stateMutability": "nonpayable",
      "type": "function"
    },
    {
      "constant": false,
      "inputs": [
        {
          "internalType": "uint256",
          "name": "wad",
          "type": "uint256"
        }
      ],
      "name": "swapSaiToDai",
      "outputs": [],
      "payable": false,
      "stateMutability": "nonpayable",
      "type": "function"
    }
  ],
  "bytecode": "0x608060405234801561001057600080fd5b506106b6806100206000396000f3fe608060405234801561001057600080fd5b50600436106100885760003560e01c8063b4c6c0c01161005b578063b4c6c0c01461010f578063c11645bc14610135578063f4b9fa751461013d578063fbabdebd1461014557610088565b80630b14408f1461008d578063485cc955146100b157806377dda533146100e15780639166cba414610107575b600080fd5b610095610162565b604080516001600160a01b039092168252519081900360200190f35b6100df600480360360408110156100c757600080fd5b506001600160a01b0381358116916020013516610171565b005b6100df600480360360208110156100f757600080fd5b50356001600160a01b03166102fc565b610095610370565b6100df6004803603602081101561012557600080fd5b50356001600160a01b031661037f565b6100956103f3565b610095610402565b6100df6004803603602081101561015b57600080fd5b5035610411565b6033546001600160a01b031681565b600054610100900460ff168061018a575061018a610515565b80610198575060005460ff16155b6101d35760405162461bcd60e51b815260040180806020018281038252602e815260200180610654602e913960400191505060405180910390fd5b600054610100900460ff161580156101fe576000805460ff1961ff0019909116610100171660011790555b82600060405161020d9061051b565b6001600160a01b03928316815291166020820152604080519182900301906000f080158015610240573d6000803e3d6000fd5b50603360006101000a8154816001600160a01b0302191690836001600160a01b031602179055506000826040516102769061051b565b6001600160a01b03928316815291166020820152604080519182900301906000f0801580156102a9573d6000803e3d6000fd5b50603480546001600160a01b03199081166001600160a01b03938416179091556035805482168684161790556036805490911691841691909117905580156102f7576000805461ff00191690555b505050565b60008160405161030b9061051b565b6001600160a01b03928316815291166020820152604080519182900301906000f08015801561033e573d6000803e3d6000fd5b50603480546001600160a01b039283166001600160a01b03199182161790915560368054939092169216919091179055565b6035546001600160a01b031681565b80600060405161038e9061051b565b6001600160a01b03928316815291166020820152604080519182900301906000f0801580156103c1573d6000803e3d6000fd5b50603380546001600160a01b039283166001600160a01b03199182161790915560358054939092169216919091179055565b6034546001600160a01b031681565b6036546001600160a01b031681565b603554604080516323b872dd60e01b81523360048201523060248201526044810184905290516001600160a01b03909216916323b872dd916064808201926020929091908290030181600087803b15801561046b57600080fd5b505af115801561047f573d6000803e3d6000fd5b505050506040513d602081101561049557600080fd5b50506036546040805163a9059cbb60e01b81523360048201526024810184905290516001600160a01b039092169163a9059cbb916044808201926020929091908290030181600087803b1580156104eb57600080fd5b505af11580156104ff573d6000803e3d6000fd5b505050506040513d60208110156102f757600080fd5b303b1590565b61012b806105298339019056fe608060405234801561001057600080fd5b5060405161012b38038061012b8339818101604052604081101561003357600080fd5b508051602090910151600080546001600160a01b039384166001600160a01b0319918216179091556001805493909216921691909117905560b2806100796000396000f3fe6080604052348015600f57600080fd5b506004361060325760003560e01c80637bd2bea7146037578063f4b9fa75146059575b600080fd5b603d605f565b604080516001600160a01b039092168252519081900360200190f35b603d606e565b6000546001600160a01b031681565b6001546001600160a01b03168156fea265627a7a723158205c4f8add61dd960917a75e6842757c02c11f023f437b7a6ae0d0ea5f82e13a4664736f6c634300050c0032436f6e747261637420696e7374616e63652068617320616c7265616479206265656e20696e697469616c697a6564a265627a7a72315820235f7cc0b465bd86d197bbc4bc3b5a9d3ec0b28776c7f52233129b3027f73b8b64736f6c634300050c0032",
  "source": "pragma solidity 0.5.12;\n\nimport \"@openzeppelin/upgrades/contracts/Initializable.sol\";\nimport { GemLike } from \"scd-mcd-migration/src/Interfaces.sol\";\nimport \"./MockJoinLike.sol\";\nimport \"../Token.sol\";\n\ncontract MockScdMcdMigration is Initializable {\n\n  MockJoinLike public saiJoin;\n  MockJoinLike public daiJoin;\n  Token public sai;\n  Token public dai;\n\n  function initialize (\n    Token _sai,\n    Token _dai\n  ) public initializer {\n    saiJoin = new MockJoinLike(address(_sai), address(0));\n    daiJoin = new MockJoinLike(address(0), address(_dai));\n    sai = _sai;\n    dai = _dai;\n  }\n\n  function setSai(Token _sai) public {\n    saiJoin = new MockJoinLike(address(_sai), address(0));\n    sai = _sai;\n  }\n\n  function setDai(Token _dai) public {\n    daiJoin = new MockJoinLike(address(0), address(_dai));\n    dai = _dai;\n  }\n\n  function swapSaiToDai(\n    uint256 wad\n  ) external {\n    // Get wad amount of SAI from user's wallet:\n    sai.transferFrom(msg.sender, address(this), wad);\n    dai.transfer(msg.sender, wad);\n  }\n}",
  "sourcePath": "/home/manjain/Documents/LetsPool/src/pooltogether-contracts/contracts/test/maker/MockScdMcdMigration.sol",
  "compiler": {
    "name": "solc",
    "version": "0.5.12+commit.7709ece9.Emscripten.clang"
  },
  "schemaVersion": "3.1.0",
  "updatedAt": "2020-05-21T20:34:55.096Z",
  "devdoc": {
    "methods": {}
  },
  "userdoc": {
    "methods": {}
  }
}