{
  "contractName": "MockERC777Recipient",
  "abi": [
    {
      "constant": true,
      "inputs": [],
      "name": "amount",
      "outputs": [
        {
          "internalType": "uint256",
          "name": "",
          "type": "uint256"
        }
      ],
      "payable": false,
      "stateMutability": "view",
      "type": "function"
    },
    {
      "constant": true,
      "inputs": [],
      "name": "count",
      "outputs": [
        {
          "internalType": "uint256",
          "name": "",
          "type": "uint256"
        }
      ],
      "payable": false,
      "stateMutability": "view",
      "type": "function"
    },
    {
      "constant": true,
      "inputs": [],
      "name": "from",
      "outputs": [
        {
          "internalType": "address",
          "name": "",
          "type": "address"
        }
      ],
      "payable": false,
      "stateMutability": "view",
      "type": "function"
    },
    {
      "constant": true,
      "inputs": [],
      "name": "operator",
      "outputs": [
        {
          "internalType": "address",
          "name": "",
          "type": "address"
        }
      ],
      "payable": false,
      "stateMutability": "view",
      "type": "function"
    },
    {
      "constant": true,
      "inputs": [],
      "name": "operatorData",
      "outputs": [
        {
          "internalType": "bytes",
          "name": "",
          "type": "bytes"
        }
      ],
      "payable": false,
      "stateMutability": "view",
      "type": "function"
    },
    {
      "constant": true,
      "inputs": [],
      "name": "to",
      "outputs": [
        {
          "internalType": "address",
          "name": "",
          "type": "address"
        }
      ],
      "payable": false,
      "stateMutability": "view",
      "type": "function"
    },
    {
      "constant": true,
      "inputs": [],
      "name": "userData",
      "outputs": [
        {
          "internalType": "bytes",
          "name": "",
          "type": "bytes"
        }
      ],
      "payable": false,
      "stateMutability": "view",
      "type": "function"
    },
    {
      "constant": false,
      "inputs": [
        {
          "internalType": "address",
          "name": "_operator",
          "type": "address"
        },
        {
          "internalType": "address",
          "name": "_from",
          "type": "address"
        },
        {
          "internalType": "address",
          "name": "_to",
          "type": "address"
        },
        {
          "internalType": "uint256",
          "name": "_amount",
          "type": "uint256"
        },
        {
          "internalType": "bytes",
          "name": "_userData",
          "type": "bytes"
        },
        {
          "internalType": "bytes",
          "name": "_operatorData",
          "type": "bytes"
        }
      ],
      "name": "tokensReceived",
      "outputs": [],
      "payable": false,
      "stateMutability": "nonpayable",
      "type": "function"
    },
    {
      "constant": true,
      "inputs": [
        {
          "internalType": "bytes32",
          "name": "interfaceHash",
          "type": "bytes32"
        },
        {
          "internalType": "address",
          "name": "",
          "type": "address"
        }
      ],
      "name": "canImplementInterfaceForAddress",
      "outputs": [
        {
          "internalType": "bytes32",
          "name": "",
          "type": "bytes32"
        }
      ],
      "payable": false,
      "stateMutability": "view",
      "type": "function"
    }
  ],
  "bytecode": "0x608060405234801561001057600080fd5b50610565806100206000396000f3fe608060405234801561001057600080fd5b50600436106100925760003560e01c8063570ca73511610066578063570ca735146101ed5780638d17fefd146101f5578063aa8c217c14610272578063bea6998f1461027a578063d5ce33891461028257610092565b806223de291461009757806306661abd14610183578063131519811461019d578063249cb3fa146101c1575b600080fd5b610181600480360360c08110156100ad57600080fd5b6001600160a01b03823581169260208101358216926040820135909216916060820135919081019060a0810160808201356401000000008111156100f057600080fd5b82018360208201111561010257600080fd5b8035906020019184600183028401116401000000008311171561012457600080fd5b91939092909160208101903564010000000081111561014257600080fd5b82018360208201111561015457600080fd5b8035906020019184600183028401116401000000008311171561017657600080fd5b50909250905061028a565b005b61018b6102fa565b60408051918252519081900360200190f35b6101a5610300565b604080516001600160a01b039092168252519081900360200190f35b61018b600480360360408110156101d757600080fd5b50803590602001356001600160a01b031661030f565b6101a5610388565b6101fd610397565b6040805160208082528351818301528351919283929083019185019080838360005b8381101561023757818101518382015260200161021f565b50505050905090810190601f1680156102645780820380516001836020036101000a031916815260200191505b509250505060405180910390f35b61018b610425565b6101fd61042b565b6101a5610486565b60008054600190810190915580546001600160a01b03808b166001600160a01b031992831617909255600280548a8416908316179055600380549289169290911691909117905560048590556102e260058585610495565b506102ef60068383610495565b505050505050505050565b60005481565b6003546001600160a01b031681565b60007fb281fc8c12954d22544db45de3159a39272895b169a852b314f9cc762e44c53b83141561037e57604051602001808073455243313832305f4143434550545f4d4147494360601b8152506014019050604051602081830303815290604052805190602001209050610382565b5060005b92915050565b6001546001600160a01b031681565b6006805460408051602060026001851615610100026000190190941693909304601f8101849004840282018401909252818152929183018282801561041d5780601f106103f25761010080835404028352916020019161041d565b820191906000526020600020905b81548152906001019060200180831161040057829003601f168201915b505050505081565b60045481565b6005805460408051602060026001851615610100026000190190941693909304601f8101849004840282018401909252818152929183018282801561041d5780601f106103f25761010080835404028352916020019161041d565b6002546001600160a01b031681565b828054600181600116156101000203166002900490600052602060002090601f016020900481019282601f106104d65782800160ff19823516178555610503565b82800160010185558215610503579182015b828111156105035782358255916020019190600101906104e8565b5061050f929150610513565b5090565b61052d91905b8082111561050f5760008155600101610519565b9056fea265627a7a723158201d76294e31e4af65877a56e6dd4089efa9bd324bdb028e8d320802d6ddeef47964736f6c634300050c0032",
  "source": "pragma solidity 0.5.12;\n\nimport \"@openzeppelin/contracts-ethereum-package/contracts/token/ERC777/IERC777Recipient.sol\";\nimport \"@openzeppelin/contracts-ethereum-package/contracts/introspection/IERC1820Implementer.sol\";\n\ncontract MockERC777Recipient is IERC777Recipient, IERC1820Implementer {\n  bytes32 constant private ERC1820_ACCEPT_MAGIC = keccak256(abi.encodePacked(\"ERC1820_ACCEPT_MAGIC\"));\n  bytes32 constant private TOKENS_RECIPIENT_INTERFACE_HASH =\n      0xb281fc8c12954d22544db45de3159a39272895b169a852b314f9cc762e44c53b;\n\n  uint256 public count;\n  address public operator;\n  address public from;\n  address public to;\n  uint256 public amount;\n  bytes public userData;\n  bytes public operatorData;\n\n  function tokensReceived(\n    address _operator,\n    address _from,\n    address _to,\n    uint256 _amount,\n    bytes calldata _userData,\n    bytes calldata _operatorData\n  ) external {\n    count = count + 1;\n    operator = _operator;\n    from = _from;\n    to = _to;\n    amount = _amount;\n    userData = _userData;\n    operatorData = _operatorData;\n  }\n\n  function canImplementInterfaceForAddress(bytes32 interfaceHash, address) external view returns (bytes32) {\n    if (interfaceHash == TOKENS_RECIPIENT_INTERFACE_HASH) {\n      return ERC1820_ACCEPT_MAGIC;\n    } else {\n      return bytes32(0x00);\n    }\n  }\n}",
  "sourcePath": "/home/manjain/Documents/LetsPool/src/pooltogether-contracts/contracts/test/MockERC777Recipient.sol",
  "compiler": {
    "name": "solc",
    "version": "0.5.12+commit.7709ece9.Emscripten.clang"
  },
  "schemaVersion": "3.1.0",
  "updatedAt": "2020-05-21T20:34:55.091Z",
  "devdoc": {
    "methods": {}
  },
  "userdoc": {
    "methods": {}
  }
}