{
  "contractName": "RecipientWhitelistPoolTokenDecimals",
  "abi": [
    {
      "anonymous": false,
      "inputs": [
        {
          "indexed": true,
          "internalType": "address",
          "name": "owner",
          "type": "address"
        },
        {
          "indexed": true,
          "internalType": "address",
          "name": "spender",
          "type": "address"
        },
        {
          "indexed": false,
          "internalType": "uint256",
          "name": "value",
          "type": "uint256"
        }
      ],
      "name": "Approval",
      "type": "event"
    },
    {
      "anonymous": false,
      "inputs": [
        {
          "indexed": true,
          "internalType": "address",
          "name": "operator",
          "type": "address"
        },
        {
          "indexed": true,
          "internalType": "address",
          "name": "tokenHolder",
          "type": "address"
        }
      ],
      "name": "AuthorizedOperator",
      "type": "event"
    },
    {
      "anonymous": false,
      "inputs": [
        {
          "indexed": true,
          "internalType": "address",
          "name": "operator",
          "type": "address"
        },
        {
          "indexed": true,
          "internalType": "address",
          "name": "from",
          "type": "address"
        },
        {
          "indexed": false,
          "internalType": "uint256",
          "name": "amount",
          "type": "uint256"
        },
        {
          "indexed": false,
          "internalType": "bytes",
          "name": "data",
          "type": "bytes"
        },
        {
          "indexed": false,
          "internalType": "bytes",
          "name": "operatorData",
          "type": "bytes"
        }
      ],
      "name": "Burned",
      "type": "event"
    },
    {
      "anonymous": false,
      "inputs": [
        {
          "indexed": true,
          "internalType": "address",
          "name": "operator",
          "type": "address"
        },
        {
          "indexed": true,
          "internalType": "address",
          "name": "to",
          "type": "address"
        },
        {
          "indexed": false,
          "internalType": "uint256",
          "name": "amount",
          "type": "uint256"
        },
        {
          "indexed": false,
          "internalType": "bytes",
          "name": "data",
          "type": "bytes"
        },
        {
          "indexed": false,
          "internalType": "bytes",
          "name": "operatorData",
          "type": "bytes"
        }
      ],
      "name": "Minted",
      "type": "event"
    },
    {
      "anonymous": false,
      "inputs": [
        {
          "indexed": true,
          "internalType": "address",
          "name": "admin",
          "type": "address"
        },
        {
          "indexed": true,
          "internalType": "address",
          "name": "recipient",
          "type": "address"
        },
        {
          "indexed": false,
          "internalType": "bool",
          "name": "whitelisted",
          "type": "bool"
        }
      ],
      "name": "RecipientWhitelisted",
      "type": "event"
    },
    {
      "anonymous": false,
      "inputs": [
        {
          "indexed": true,
          "internalType": "address",
          "name": "operator",
          "type": "address"
        },
        {
          "indexed": true,
          "internalType": "address",
          "name": "from",
          "type": "address"
        },
        {
          "indexed": false,
          "internalType": "uint256",
          "name": "amount",
          "type": "uint256"
        },
        {
          "indexed": false,
          "internalType": "bytes",
          "name": "data",
          "type": "bytes"
        },
        {
          "indexed": false,
          "internalType": "bytes",
          "name": "operatorData",
          "type": "bytes"
        }
      ],
      "name": "Redeemed",
      "type": "event"
    },
    {
      "anonymous": false,
      "inputs": [
        {
          "indexed": true,
          "internalType": "address",
          "name": "operator",
          "type": "address"
        },
        {
          "indexed": true,
          "internalType": "address",
          "name": "tokenHolder",
          "type": "address"
        }
      ],
      "name": "RevokedOperator",
      "type": "event"
    },
    {
      "anonymous": false,
      "inputs": [
        {
          "indexed": true,
          "internalType": "address",
          "name": "operator",
          "type": "address"
        },
        {
          "indexed": true,
          "internalType": "address",
          "name": "from",
          "type": "address"
        },
        {
          "indexed": true,
          "internalType": "address",
          "name": "to",
          "type": "address"
        },
        {
          "indexed": false,
          "internalType": "uint256",
          "name": "amount",
          "type": "uint256"
        },
        {
          "indexed": false,
          "internalType": "bytes",
          "name": "data",
          "type": "bytes"
        },
        {
          "indexed": false,
          "internalType": "bytes",
          "name": "operatorData",
          "type": "bytes"
        }
      ],
      "name": "Sent",
      "type": "event"
    },
    {
      "anonymous": false,
      "inputs": [
        {
          "indexed": true,
          "internalType": "address",
          "name": "from",
          "type": "address"
        },
        {
          "indexed": true,
          "internalType": "address",
          "name": "to",
          "type": "address"
        },
        {
          "indexed": false,
          "internalType": "uint256",
          "name": "value",
          "type": "uint256"
        }
      ],
      "name": "Transfer",
      "type": "event"
    },
    {
      "anonymous": false,
      "inputs": [
        {
          "indexed": true,
          "internalType": "address",
          "name": "admin",
          "type": "address"
        },
        {
          "indexed": false,
          "internalType": "bool",
          "name": "enabled",
          "type": "bool"
        }
      ],
      "name": "WhitelistEnabled",
      "type": "event"
    },
    {
      "constant": true,
      "inputs": [
        {
          "internalType": "address",
          "name": "holder",
          "type": "address"
        },
        {
          "internalType": "address",
          "name": "spender",
          "type": "address"
        }
      ],
      "name": "allowance",
      "outputs": [
        {
          "internalType": "uint256",
          "name": "",
          "type": "uint256"
        }
      ],
      "payable": false,
      "stateMutability": "view",
      "type": "function"
    },
    {
      "constant": false,
      "inputs": [
        {
          "internalType": "address",
          "name": "spender",
          "type": "address"
        },
        {
          "internalType": "uint256",
          "name": "value",
          "type": "uint256"
        }
      ],
      "name": "approve",
      "outputs": [
        {
          "internalType": "bool",
          "name": "",
          "type": "bool"
        }
      ],
      "payable": false,
      "stateMutability": "nonpayable",
      "type": "function"
    },
    {
      "constant": false,
      "inputs": [
        {
          "internalType": "address",
          "name": "operator",
          "type": "address"
        }
      ],
      "name": "authorizeOperator",
      "outputs": [],
      "payable": false,
      "stateMutability": "nonpayable",
      "type": "function"
    },
    {
      "constant": true,
      "inputs": [
        {
          "internalType": "address",
          "name": "_addr",
          "type": "address"
        }
      ],
      "name": "balanceOf",
      "outputs": [
        {
          "internalType": "uint256",
          "name": "",
          "type": "uint256"
        }
      ],
      "payable": false,
      "stateMutability": "view",
      "type": "function"
    },
    {
      "constant": false,
      "inputs": [
        {
          "internalType": "uint256",
          "name": "",
          "type": "uint256"
        },
        {
          "internalType": "bytes",
          "name": "",
          "type": "bytes"
        }
      ],
      "name": "burn",
      "outputs": [],
      "payable": false,
      "stateMutability": "nonpayable",
      "type": "function"
    },
    {
      "constant": true,
      "inputs": [],
      "name": "decimals",
      "outputs": [
        {
          "internalType": "uint8",
          "name": "",
          "type": "uint8"
        }
      ],
      "payable": false,
      "stateMutability": "view",
      "type": "function"
    },
    {
      "constant": false,
      "inputs": [
        {
          "internalType": "address",
          "name": "spender",
          "type": "address"
        },
        {
          "internalType": "uint256",
          "name": "subtractedValue",
          "type": "uint256"
        }
      ],
      "name": "decreaseAllowance",
      "outputs": [
        {
          "internalType": "bool",
          "name": "",
          "type": "bool"
        }
      ],
      "payable": false,
      "stateMutability": "nonpayable",
      "type": "function"
    },
    {
      "constant": true,
      "inputs": [],
      "name": "defaultOperators",
      "outputs": [
        {
          "internalType": "address[]",
          "name": "",
          "type": "address[]"
        }
      ],
      "payable": false,
      "stateMutability": "view",
      "type": "function"
    },
    {
      "constant": true,
      "inputs": [],
      "name": "granularity",
      "outputs": [
        {
          "internalType": "uint256",
          "name": "",
          "type": "uint256"
        }
      ],
      "payable": false,
      "stateMutability": "view",
      "type": "function"
    },
    {
      "constant": false,
      "inputs": [
        {
          "internalType": "address",
          "name": "spender",
          "type": "address"
        },
        {
          "internalType": "uint256",
          "name": "addedValue",
          "type": "uint256"
        }
      ],
      "name": "increaseAllowance",
      "outputs": [
        {
          "internalType": "bool",
          "name": "",
          "type": "bool"
        }
      ],
      "payable": false,
      "stateMutability": "nonpayable",
      "type": "function"
    },
    {
      "constant": false,
      "inputs": [
        {
          "internalType": "string",
          "name": "name",
          "type": "string"
        },
        {
          "internalType": "string",
          "name": "symbol",
          "type": "string"
        },
        {
          "internalType": "address[]",
          "name": "defaultOperators",
          "type": "address[]"
        },
        {
          "internalType": "contract BasePool",
          "name": "pool",
          "type": "address"
        }
      ],
      "name": "init",
      "outputs": [],
      "payable": false,
      "stateMutability": "nonpayable",
      "type": "function"
    },
    {
      "constant": false,
      "inputs": [
        {
          "internalType": "string",
          "name": "name",
          "type": "string"
        },
        {
          "internalType": "string",
          "name": "symbol",
          "type": "string"
        },
        {
          "internalType": "address[]",
          "name": "defaultOperators",
          "type": "address[]"
        },
        {
          "internalType": "contract BasePool",
          "name": "pool",
          "type": "address"
        },
        {
          "internalType": "uint8",
          "name": "decimals",
          "type": "uint8"
        }
      ],
      "name": "init",
      "outputs": [],
      "payable": false,
      "stateMutability": "nonpayable",
      "type": "function"
    },
    {
      "constant": true,
      "inputs": [
        {
          "internalType": "address",
          "name": "operator",
          "type": "address"
        },
        {
          "internalType": "address",
          "name": "tokenHolder",
          "type": "address"
        }
      ],
      "name": "isOperatorFor",
      "outputs": [
        {
          "internalType": "bool",
          "name": "",
          "type": "bool"
        }
      ],
      "payable": false,
      "stateMutability": "view",
      "type": "function"
    },
    {
      "constant": true,
      "inputs": [],
      "name": "name",
      "outputs": [
        {
          "internalType": "string",
          "name": "",
          "type": "string"
        }
      ],
      "payable": false,
      "stateMutability": "view",
      "type": "function"
    },
    {
      "constant": false,
      "inputs": [
        {
          "internalType": "address",
          "name": "",
          "type": "address"
        },
        {
          "internalType": "uint256",
          "name": "",
          "type": "uint256"
        },
        {
          "internalType": "bytes",
          "name": "",
          "type": "bytes"
        },
        {
          "internalType": "bytes",
          "name": "",
          "type": "bytes"
        }
      ],
      "name": "operatorBurn",
      "outputs": [],
      "payable": false,
      "stateMutability": "nonpayable",
      "type": "function"
    },
    {
      "constant": false,
      "inputs": [
        {
          "internalType": "address",
          "name": "account",
          "type": "address"
        },
        {
          "internalType": "uint256",
          "name": "amount",
          "type": "uint256"
        },
        {
          "internalType": "bytes",
          "name": "data",
          "type": "bytes"
        },
        {
          "internalType": "bytes",
          "name": "operatorData",
          "type": "bytes"
        }
      ],
      "name": "operatorRedeem",
      "outputs": [],
      "payable": false,
      "stateMutability": "nonpayable",
      "type": "function"
    },
    {
      "constant": false,
      "inputs": [
        {
          "internalType": "address",
          "name": "sender",
          "type": "address"
        },
        {
          "internalType": "address",
          "name": "recipient",
          "type": "address"
        },
        {
          "internalType": "uint256",
          "name": "amount",
          "type": "uint256"
        },
        {
          "internalType": "bytes",
          "name": "data",
          "type": "bytes"
        },
        {
          "internalType": "bytes",
          "name": "operatorData",
          "type": "bytes"
        }
      ],
      "name": "operatorSend",
      "outputs": [],
      "payable": false,
      "stateMutability": "nonpayable",
      "type": "function"
    },
    {
      "constant": true,
      "inputs": [],
      "name": "pool",
      "outputs": [
        {
          "internalType": "contract BasePool",
          "name": "",
          "type": "address"
        }
      ],
      "payable": false,
      "stateMutability": "view",
      "type": "function"
    },
    {
      "constant": false,
      "inputs": [
        {
          "internalType": "uint256",
          "name": "amount",
          "type": "uint256"
        }
      ],
      "name": "poolMint",
      "outputs": [],
      "payable": false,
      "stateMutability": "nonpayable",
      "type": "function"
    },
    {
      "constant": false,
      "inputs": [
        {
          "internalType": "address",
          "name": "from",
          "type": "address"
        },
        {
          "internalType": "uint256",
          "name": "amount",
          "type": "uint256"
        }
      ],
      "name": "poolRedeem",
      "outputs": [],
      "payable": false,
      "stateMutability": "nonpayable",
      "type": "function"
    },
    {
      "constant": false,
      "inputs": [
        {
          "internalType": "uint256",
          "name": "amount",
          "type": "uint256"
        },
        {
          "internalType": "bytes",
          "name": "data",
          "type": "bytes"
        }
      ],
      "name": "redeem",
      "outputs": [],
      "payable": false,
      "stateMutability": "nonpayable",
      "type": "function"
    },
    {
      "constant": false,
      "inputs": [
        {
          "internalType": "address",
          "name": "operator",
          "type": "address"
        }
      ],
      "name": "revokeOperator",
      "outputs": [],
      "payable": false,
      "stateMutability": "nonpayable",
      "type": "function"
    },
    {
      "constant": false,
      "inputs": [
        {
          "internalType": "address",
          "name": "recipient",
          "type": "address"
        },
        {
          "internalType": "uint256",
          "name": "amount",
          "type": "uint256"
        },
        {
          "internalType": "bytes",
          "name": "data",
          "type": "bytes"
        }
      ],
      "name": "send",
      "outputs": [],
      "payable": false,
      "stateMutability": "nonpayable",
      "type": "function"
    },
    {
      "constant": true,
      "inputs": [],
      "name": "symbol",
      "outputs": [
        {
          "internalType": "string",
          "name": "",
          "type": "string"
        }
      ],
      "payable": false,
      "stateMutability": "view",
      "type": "function"
    },
    {
      "constant": true,
      "inputs": [],
      "name": "totalSupply",
      "outputs": [
        {
          "internalType": "uint256",
          "name": "",
          "type": "uint256"
        }
      ],
      "payable": false,
      "stateMutability": "view",
      "type": "function"
    },
    {
      "constant": false,
      "inputs": [
        {
          "internalType": "address",
          "name": "recipient",
          "type": "address"
        },
        {
          "internalType": "uint256",
          "name": "amount",
          "type": "uint256"
        }
      ],
      "name": "transfer",
      "outputs": [
        {
          "internalType": "bool",
          "name": "",
          "type": "bool"
        }
      ],
      "payable": false,
      "stateMutability": "nonpayable",
      "type": "function"
    },
    {
      "constant": false,
      "inputs": [
        {
          "internalType": "address",
          "name": "holder",
          "type": "address"
        },
        {
          "internalType": "address",
          "name": "recipient",
          "type": "address"
        },
        {
          "internalType": "uint256",
          "name": "amount",
          "type": "uint256"
        }
      ],
      "name": "transferFrom",
      "outputs": [
        {
          "internalType": "bool",
          "name": "",
          "type": "bool"
        }
      ],
      "payable": false,
      "stateMutability": "nonpayable",
      "type": "function"
    },
    {
      "constant": true,
      "inputs": [],
      "name": "recipientWhitelistEnabled",
      "outputs": [
        {
          "internalType": "bool",
          "name": "",
          "type": "bool"
        }
      ],
      "payable": false,
      "stateMutability": "view",
      "type": "function"
    },
    {
      "constant": true,
      "inputs": [
        {
          "internalType": "address",
          "name": "_recipient",
          "type": "address"
        }
      ],
      "name": "recipientWhitelisted",
      "outputs": [
        {
          "internalType": "bool",
          "name": "",
          "type": "bool"
        }
      ],
      "payable": false,
      "stateMutability": "view",
      "type": "function"
    },
    {
      "constant": false,
      "inputs": [
        {
          "internalType": "bool",
          "name": "_enabled",
          "type": "bool"
        }
      ],
      "name": "setRecipientWhitelistEnabled",
      "outputs": [],
      "payable": false,
      "stateMutability": "nonpayable",
      "type": "function"
    },
    {
      "constant": false,
      "inputs": [
        {
          "internalType": "address",
          "name": "_recipient",
          "type": "address"
        },
        {
          "internalType": "bool",
          "name": "_whitelisted",
          "type": "bool"
        }
      ],
      "name": "setRecipientWhitelisted",
      "outputs": [],
      "payable": false,
      "stateMutability": "nonpayable",
      "type": "function"
    }
  ],
  "bytecode": "0x608060405234801561001057600080fd5b506131b0806100206000396000f3fe608060405234801561001057600080fd5b50600436106101e55760003560e01c8063959b8c3f1161010f578063d7d5b928116100a2578063e77c646d11610071578063e77c646d14610b39578063fad8b32a14610bae578063fc673c4f14610bd4578063fe9d930314610ca7576101e5565b8063d7d5b9281461084e578063d95b637114610921578063dd62ed3e1461094f578063e3d7b3081461097d576101e5565b8063a457c2d7116100de578063a457c2d7146107a9578063a884b930146107d5578063a9059cbb146107f4578063c8cb23f814610820576101e5565b8063959b8c3f146106db57806395d89b41146107015780639bd9bbc614610709578063a35947091461078c576101e5565b8063313ce56711610187578063625cbfae11610156578063625cbfae1461041957806362ad1b831461042157806370a08231146104ff57806388a8a91914610525576101e5565b8063313ce567146103a157806339509351146103bf5780634bf67fa6146103eb578063556f0dc714610411576101e5565b806314274ad9116101c357806314274ad9146102ff57806316f0115b1461032d57806318160ddd1461035157806323b872dd1461036b576101e5565b806306e48538146101ea57806306fdde0314610242578063095ea7b3146102bf575b600080fd5b6101f2610cde565b60408051602080825283518183015283519192839290830191858101910280838360005b8381101561022e578181015183820152602001610216565b505050509050019250505060405180910390f35b61024a610d41565b6040805160208082528351818301528351919283929083019185019080838360005b8381101561028457818101518382015260200161026c565b50505050905090810190601f1680156102b15780820380516001836020036101000a031916815260200191505b509250505060405180910390f35b6102eb600480360360408110156102d557600080fd5b506001600160a01b038135169060200135610dce565b604080519115158252519081900360200190f35b61032b6004803603604081101561031557600080fd5b506001600160a01b038135169060200135610de6565b005b610335610ef7565b604080516001600160a01b039092168252519081900360200190f35b610359610f06565b60408051918252519081900360200190f35b6102eb6004803603606081101561038157600080fd5b506001600160a01b03813581169160208101359091169060400135610f7c565b6103a9611126565b6040805160ff9092168252519081900360200190f35b6102eb600480360360408110156103d557600080fd5b506001600160a01b038135169060200135611136565b6102eb6004803603602081101561040157600080fd5b50356001600160a01b031661117b565b610359611199565b6102eb61119e565b61032b600480360360a081101561043757600080fd5b6001600160a01b03823581169260208101359091169160408201359190810190608081016060820135600160201b81111561047157600080fd5b82018360208201111561048357600080fd5b803590602001918460018302840111600160201b831117156104a457600080fd5b919390929091602081019035600160201b8111156104c157600080fd5b8201836020820111156104d357600080fd5b803590602001918460018302840111600160201b831117156104f457600080fd5b5090925090506111ae565b6103596004803603602081101561051557600080fd5b50356001600160a01b0316611282565b61032b6004803603608081101561053b57600080fd5b810190602081018135600160201b81111561055557600080fd5b82018360208201111561056757600080fd5b803590602001918460018302840111600160201b8311171561058857600080fd5b91908080601f0160208091040260200160405190810160405280939291908181526020018383808284376000920191909152509295949360208101935035915050600160201b8111156105da57600080fd5b8201836020820111156105ec57600080fd5b803590602001918460018302840111600160201b8311171561060d57600080fd5b91908080601f0160208091040260200160405190810160405280939291908181526020018383808284376000920191909152509295949360208101935035915050600160201b81111561065f57600080fd5b82018360208201111561067157600080fd5b803590602001918460208302840111600160201b8311171561069257600080fd5b919080806020026020016040519081016040528093929190818152602001838360200280828437600092019190915250929550505090356001600160a01b031691506113059050565b61032b600480360360208110156106f157600080fd5b50356001600160a01b03166113b9565b61024a6114c6565b61032b6004803603606081101561071f57600080fd5b6001600160a01b0382351691602081013591810190606081016040820135600160201b81111561074e57600080fd5b82018360208201111561076057600080fd5b803590602001918460018302840111600160201b8311171561078157600080fd5b509092509050611527565b61032b600480360360208110156107a257600080fd5b503561157e565b6102eb600480360360408110156107bf57600080fd5b506001600160a01b03813516906020013561160b565b61032b600480360360208110156107eb57600080fd5b50351515611673565b6102eb6004803603604081101561080a57600080fd5b506001600160a01b03813516906020013561179d565b61032b6004803603604081101561083657600080fd5b506001600160a01b0381351690602001351515611885565b61032b6004803603608081101561086457600080fd5b6001600160a01b0382351691602081013591810190606081016040820135600160201b81111561089357600080fd5b8201836020820111156108a557600080fd5b803590602001918460018302840111600160201b831117156108c657600080fd5b919390929091602081019035600160201b8111156108e357600080fd5b8201836020820111156108f557600080fd5b803590602001918460018302840111600160201b8311171561091657600080fd5b5090925090506119ba565b6102eb6004803603604081101561093757600080fd5b506001600160a01b0381358116916020013516611a8c565b6103596004803603604081101561096557600080fd5b506001600160a01b0381358116916020013516611b2e565b61032b600480360360a081101561099357600080fd5b810190602081018135600160201b8111156109ad57600080fd5b8201836020820111156109bf57600080fd5b803590602001918460018302840111600160201b831117156109e057600080fd5b91908080601f0160208091040260200160405190810160405280939291908181526020018383808284376000920191909152509295949360208101935035915050600160201b811115610a3257600080fd5b820183602082011115610a4457600080fd5b803590602001918460018302840111600160201b83111715610a6557600080fd5b91908080601f0160208091040260200160405190810160405280939291908181526020018383808284376000920191909152509295949360208101935035915050600160201b811115610ab757600080fd5b820183602082011115610ac957600080fd5b803590602001918460208302840111600160201b83111715610aea57600080fd5b919080806020026020016040519081016040528093929190818152602001838360200280828437600092019190915250929550505081356001600160a01b03169250506020013560ff16611b59565b61032b60048036036040811015610b4f57600080fd5b81359190810190604081016020820135600160201b811115610b7057600080fd5b820183602082011115610b8257600080fd5b803590602001918460018302840111600160201b83111715610ba357600080fd5b509092509050611c0c565b61032b60048036036020811015610bc457600080fd5b50356001600160a01b0316611c61565b61032b60048036036080811015610bea57600080fd5b6001600160a01b0382351691602081013591810190606081016040820135600160201b811115610c1957600080fd5b820183602082011115610c2b57600080fd5b803590602001918460018302840111600160201b83111715610c4c57600080fd5b919390929091602081019035600160201b811115610c6957600080fd5b820183602082011115610c7b57600080fd5b803590602001918460018302840111600160201b83111715610c9c57600080fd5b509092509050611d70565b61032b60048036036040811015610cbd57600080fd5b81359190810190604081016020820135600160201b811115610c6957600080fd5b60606035805480602002602001604051908101604052809291908181526020018280548015610d3657602002820191906000526020600020905b81546001600160a01b03168152600190910190602001808311610d18575b505050505090505b90565b60338054604080516020601f6002600019610100600188161502019095169490940493840181900481028201810190925282815260609390929091830182828015610d365780601f10610da257610100808354040283529160200191610d36565b820191906000526020600020905b815481529060010190602001808311610db057509395945050505050565b600033610ddc818585611db4565b5060019392505050565b603a546001600160a01b03163314610e3b576040805162461bcd60e51b8152602060048201526013602482015272141bdbdb151bdad95b8bdbdb9b1e4b5c1bdbdb606a1b604482015290519081900360640190fd5b610e6882836000846040518060200160405280600081525060405180602001604052806000815250611e67565b60408051828152606060208201819052600090820181905260a082840181905282015290516001600160a01b0384169182917f1f58e3485c3f6fc2bddf52e2bd0d82ad5c19e1ac9ab403b1aa9f0a1794d2bfb69181900360e00190a36040805182815290516000916001600160a01b0385169160008051602061315c8339815191529181900360200190a35050565b603a546001600160a01b031690565b603a5460408051633a3c267d60e21b815290516000926001600160a01b03169163e8f099f4916004808301926020929190829003018186803b158015610f4b57600080fd5b505afa158015610f5f573d6000803e3d6000fd5b505050506040513d6020811015610f7557600080fd5b5051905090565b60006001600160a01b038316610fcd576040805162461bcd60e51b8152602060048201526011602482015270506f6f6c546f6b656e2f746f2d7a65726f60781b604482015290519081900360640190fd5b6001600160a01b03841661101e576040805162461bcd60e51b8152602060048201526013602482015272506f6f6c546f6b656e2f66726f6d2d7a65726f60681b604482015290519081900360640190fd5b600033905061104f818686866040518060200160405280600081525060405180602001604052806000815250611e67565b61107b818686866040518060200160405280600081525060405180602001604052806000815250611ef6565b6040805180820182526016815275506f6f6c546f6b656e2f6578636565642d616c6c6f7760501b6020808301919091526001600160a01b038089166000908152603983528481209186168152915291909120546110ed91879184916110e89190889063ffffffff6120e316565b611db4565b61111b818686866040518060200160405280600081525060405180602001604052806000815250600061217a565b506001949350505050565b603a54600160a01b900460ff1690565b3360008181526039602090815260408083206001600160a01b038716845290915281205490916111729185906110e8908663ffffffff61243016565b50600192915050565b6001600160a01b03166000908152603b602052604090205460ff1690565b600190565b603a54600160a81b900460ff1690565b6111b83388611a8c565b611202576040805162461bcd60e51b81526020600482015260166024820152752837b7b62a37b5b2b717b737ba16b7b832b930ba37b960511b604482015290519081900360640190fd5b6112793388888888888080601f01602080910402602001604051908101604052809392919081815260200183838082843760009201919091525050604080516020601f8c018190048102820181019092528a815292508a915089908190840183828082843760009201919091525061248a92505050565b50505050505050565b603a54604080516379f0877160e01b81526001600160a01b038481166004830152915160009392909216916379f0877191602480820192602092909190829003018186803b1580156112d357600080fd5b505afa1580156112e7573d6000803e3d6000fd5b505050506040513d60208110156112fd57600080fd5b505192915050565b600054610100900460ff168061131e575061131e612556565b8061132c575060005460ff16155b6113675760405162461bcd60e51b815260040180806020018281038252602e81526020018061312e602e913960400191505060405180910390fd5b600054610100900460ff16158015611392576000805460ff1961ff0019909116610100171660011790555b6113a085858585601261255c565b80156113b2576000805461ff00191690555b5050505050565b336001600160a01b038216141561140d576040805162461bcd60e51b81526020600482015260136024820152722837b7b62a37b5b2b717b0baba3416b9b2b63360691b604482015290519081900360640190fd5b6001600160a01b03811660009081526036602052604090205460ff161561145e573360009081526038602090815260408083206001600160a01b03851684529091529020805460ff1916905561148d565b3360009081526037602090815260408083206001600160a01b03851684529091529020805460ff191660011790555b60405133906001600160a01b038316907ff4caeb2d6ca8932a215a353d0703c326ec2d81fc68170f320eb2ab49e9df61f990600090a350565b60348054604080516020601f6002600019610100600188161502019095169490940493840181900481028201810190925282815260609390929091830182828015610d365780601f10610da257610100808354040283529160200191610d36565b6115783333868686868080601f01602080910402602001604051908101604052809392919081815260200183838082843760009201829052506040805160208101909152908152925061248a915050565b50505050565b603a546001600160a01b031633146115d3576040805162461bcd60e51b8152602060048201526013602482015272141bdbdb151bdad95b8bdbdb9b1e4b5c1bdbdb606a1b604482015290519081900360640190fd5b603a54604080516020808201835260008083528351918201909352918252611608926001600160a01b031691829185916125e4565b50565b6040805180820182526012815271506f6f6c546f6b656e2f6e6567617469766560701b602080830191909152336000818152603983528481206001600160a01b038816825290925292812054909261117292909186916110e89190879063ffffffff6120e316565b61167b610ef7565b6001600160a01b03166324d7806c336040518263ffffffff1660e01b815260040180826001600160a01b03166001600160a01b0316815260200191505060206040518083038186803b1580156116d057600080fd5b505afa1580156116e4573d6000803e3d6000fd5b505050506040513d60208110156116fa57600080fd5b5051611747576040805162461bcd60e51b81526020600482015260176024820152762bb434ba32b634b9ba2a37b5b2b717b4b996b0b236b4b760491b604482015290519081900360640190fd5b603a8054821515600160a81b810260ff60a81b1990921691909117909155604080519182525133917f643561a6454325dc43853b954eb9350a955ea80047c134c779c055bcbf459137919081900360200190a250565b60006001600160a01b0383166117fa576040805162461bcd60e51b815260206004820152601760248201527f506f6f6c546f6b656e2f7472616e736665722d7a65726f000000000000000000604482015290519081900360640190fd5b600033905061182b818286866040518060200160405280600081525060405180602001604052806000815250611e67565b611857818286866040518060200160405280600081525060405180602001604052806000815250611ef6565b610ddc818286866040518060200160405280600081525060405180602001604052806000815250600061217a565b61188d610ef7565b6001600160a01b03166324d7806c336040518263ffffffff1660e01b815260040180826001600160a01b03166001600160a01b0316815260200191505060206040518083038186803b1580156118e257600080fd5b505afa1580156118f6573d6000803e3d6000fd5b505050506040513d602081101561190c57600080fd5b5051611959576040805162461bcd60e51b81526020600482015260176024820152762bb434ba32b634b9ba2a37b5b2b717b4b996b0b236b4b760491b604482015290519081900360640190fd5b6001600160a01b0382166000818152603b6020908152604091829020805460ff19168515159081179091558251908152915133927f0a40230cc5a9cbd3edc99d49ffd13beb7dc906030a2dde3b53a53b62fc8979cd92908290030190a35050565b6119c43387611a8c565b611a0e576040805162461bcd60e51b81526020600482015260166024820152752837b7b62a37b5b2b717b737ba16b7b832b930ba37b960511b604482015290519081900360640190fd5b611a8433878787878080601f01602080910402602001604051908101604052809392919081815260200183838082843760009201919091525050604080516020601f8b01819004810282018101909252898152925089915088908190840183828082843760009201919091525061273692505050565b505050505050565b6000816001600160a01b0316836001600160a01b03161480611af757506001600160a01b03831660009081526036602052604090205460ff168015611af757506001600160a01b0380831660009081526038602090815260408083209387168352929052205460ff16155b80611b2757506001600160a01b0380831660009081526037602090815260408083209387168352929052205460ff165b9392505050565b6001600160a01b03918216600090815260396020908152604080832093909416825291909152205490565b600054610100900460ff1680611b725750611b72612556565b80611b80575060005460ff16155b611bbb5760405162461bcd60e51b815260040180806020018281038252602e81526020018061312e602e913960400191505060405180910390fd5b600054610100900460ff16158015611be6576000805460ff1961ff0019909116610100171660011790555b611bf3868686868661255c565b8015611a84576000805461ff0019169055505050505050565b611c5c33338585858080601f016020809104026020016040519081016040528093929190818152602001838380828437600092018290525060408051602081019091529081529250612736915050565b505050565b6001600160a01b038116331415611cb7576040805162461bcd60e51b81526020600482015260156024820152742837b7b62a37b5b2b717b932bb37b5b296b9b2b63360591b604482015290519081900360640190fd5b6001600160a01b03811660009081526036602052604090205460ff1615611d0b573360009081526038602090815260408083206001600160a01b03851684529091529020805460ff19166001179055611d37565b3360009081526037602090815260408083206001600160a01b03851684529091529020805460ff191690555b60405133906001600160a01b038316907f50546e66e5f44d728365dc3908c63bc5cfeeab470722c1677e3073a6ac294aa190600090a350565b6040805162461bcd60e51b8152602060048201526014602482015273141bdbdb151bdad95b8bdb9bcb5cdd5c1c1bdc9d60621b604482015290519081900360640190fd5b6001600160a01b038216611e05576040805162461bcd60e51b8152602060048201526013602482015272506f6f6c546f6b656e2f66726f6d2d7a65726f60681b604482015290519081900360640190fd5b6001600160a01b03808416600081815260396020908152604080832094871680845294825291829020859055815185815291517f8c5be1e5ebec7d5bd14f71427d1e84f3dd0314c0f7b2291e5b200ac8c7c3b9259281900390910190a3505050565b603a54600160a81b900460ff1615611ee8576001600160a01b0384161580611ea757506001600160a01b0384166000908152603b602052604090205460ff165b611ee8576040805162461bcd60e51b815260206004820152600d60248201526c141bdbdb0bdb9bdd0b5b1a5cdd609a1b604482015290519081900360640190fd5b611a84868686868686612969565b603a5460408051639e63a8c560e01b81526001600160a01b03888116600483015287811660248301526044820187905291519190921691639e63a8c59160648083019260209291908290030181600087803b158015611f5457600080fd5b505af1158015611f68573d6000803e3d6000fd5b505050506040513d6020811015611f7e57600080fd5b5050604080518481526060602082810182815286519284019290925285516001600160a01b03808a16958b821695918d16947f06b541ddaa720db2b10a4d0cdac39b8d360425fc073085fac19bc82614677987948b948b948b9490939290840191608085019187019080838360005b83811015612005578181015183820152602001611fed565b50505050905090810190601f1680156120325780820380516001836020036101000a031916815260200191505b50838103825284518152845160209182019186019080838360005b8381101561206557818101518382015260200161204d565b50505050905090810190601f1680156120925780820380516001836020036101000a031916815260200191505b509550505050505060405180910390a4836001600160a01b0316856001600160a01b031660008051602061315c833981519152856040518082815260200191505060405180910390a3505050505050565b600081848411156121725760405162461bcd60e51b81526004018080602001828103825283818151815260200191508051906020019080838360005b8381101561213757818101518382015260200161211f565b50505050905090810190601f1680156121645780820380516001836020036101000a031916815260200191505b509250505060405180910390fd5b505050900390565b6040805163555ddc6560e11b81526001600160a01b03871660048201527fb281fc8c12954d22544db45de3159a39272895b169a852b314f9cc762e44c53b60248201529051600091731820a4b7618bde71dce8cdc73aab6c95905fad249163aabbb8ca91604480820192602092909190829003018186803b1580156121fe57600080fd5b505afa158015612212573d6000803e3d6000fd5b505050506040513d602081101561222857600080fd5b505190506001600160a01b038116156123bc57806001600160a01b03166223de298989898989896040518763ffffffff1660e01b815260040180876001600160a01b03166001600160a01b03168152602001866001600160a01b03166001600160a01b03168152602001856001600160a01b03166001600160a01b031681526020018481526020018060200180602001838103835285818151815260200191508051906020019080838360005b838110156122ed5781810151838201526020016122d5565b50505050905090810190601f16801561231a5780820380516001836020036101000a031916815260200191505b50838103825284518152845160209182019186019080838360005b8381101561234d578181015183820152602001612335565b50505050905090810190601f16801561237a5780820380516001836020036101000a031916815260200191505b5098505050505050505050600060405180830381600087803b15801561239f57600080fd5b505af11580156123b3573d6000803e3d6000fd5b50505050612426565b8115612426576123d4866001600160a01b0316612c72565b15612426576040805162461bcd60e51b815260206004820152601860248201527f506f6f6c546f6b656e2f6e6f2d72656369702d696e7465720000000000000000604482015290519081900360640190fd5b5050505050505050565b600082820183811015611b27576040805162461bcd60e51b815260206004820152601b60248201527f536166654d6174683a206164646974696f6e206f766572666c6f770000000000604482015290519081900360640190fd5b6001600160a01b0385166124db576040805162461bcd60e51b8152602060048201526013602482015272506f6f6c546f6b656e2f66726f6d2d7a65726f60681b604482015290519081900360640190fd5b6001600160a01b03841661252a576040805162461bcd60e51b8152602060048201526011602482015270506f6f6c546f6b656e2f746f2d7a65726f60781b604482015290519081900360640190fd5b612538868686868686611e67565b612546868686868686611ef6565b611a84868686868686600061217a565b303b1590565b61256885858585612cae565b60008160ff16116125c0576040805162461bcd60e51b815260206004820152601760248201527f506f6f6c546f6b656e2f646563696d616c732d7a65726f000000000000000000604482015290519081900360640190fd5b603a805460ff909216600160a01b0260ff60a01b1990921691909117905550505050565b836001600160a01b0316856001600160a01b03167f2fe5be0146f74c5bce36c0b80911af6c7d86ff27e89d5cfa61fc681327954e5d858585604051808481526020018060200180602001838103835285818151815260200191508051906020019080838360005b8381101561266357818101518382015260200161264b565b50505050905090810190601f1680156126905780820380516001836020036101000a031916815260200191505b50838103825284518152845160209182019186019080838360005b838110156126c35781810151838201526020016126ab565b50505050905090810190601f1680156126f05780820380516001836020036101000a031916815260200191505b509550505050505060405180910390a36040805184815290516001600160a01b0386169160009160008051602061315c8339815191529181900360200190a35050505050565b6001600160a01b038416612787576040805162461bcd60e51b8152602060048201526013602482015272506f6f6c546f6b656e2f66726f6d2d7a65726f60681b604482015290519081900360640190fd5b61279685856000868686611e67565b603a546040805163a423cd2960e01b81526001600160a01b038781166004830152602482018790529151919092169163a423cd299160448083019260209291908290030181600087803b1580156127ec57600080fd5b505af1158015612800573d6000803e3d6000fd5b505050506040513d602081101561281657600080fd5b5050604080518481526060602082810182815286519284019290925285516001600160a01b03808a1695908b16947f1f58e3485c3f6fc2bddf52e2bd0d82ad5c19e1ac9ab403b1aa9f0a1794d2bfb6948a948a948a9484019160808501919087019080838360005b8381101561289657818101518382015260200161287e565b50505050905090810190601f1680156128c35780820380516001836020036101000a031916815260200191505b50838103825284518152845160209182019186019080838360005b838110156128f65781810151838201526020016128de565b50505050905090810190601f1680156129235780820380516001836020036101000a031916815260200191505b509550505050505060405180910390a36040805184815290516000916001600160a01b0387169160008051602061315c8339815191529181900360200190a35050505050565b603a60009054906101000a90046001600160a01b03166001600160a01b031663a4e2d6346040518163ffffffff1660e01b815260040160206040518083038186803b1580156129b757600080fd5b505afa1580156129cb573d6000803e3d6000fd5b505050506040513d60208110156129e157600080fd5b505115612a2b576040805162461bcd60e51b8152602060048201526013602482015272141bdbdb151bdad95b8bda5ccb5b1bd8dad959606a1b604482015290519081900360640190fd5b6040805163555ddc6560e11b81526001600160a01b03871660048201527f29ddb589b1fb5fc7cf394961c1adf5f8c6454761adf795e67fe149f658abe89560248201529051600091731820a4b7618bde71dce8cdc73aab6c95905fad249163aabbb8ca91604480820192602092909190829003018186803b158015612aaf57600080fd5b505afa158015612ac3573d6000803e3d6000fd5b505050506040513d6020811015612ad957600080fd5b505190506001600160a01b0381161561127957806001600160a01b03166375ab97828888888888886040518763ffffffff1660e01b815260040180876001600160a01b03166001600160a01b03168152602001866001600160a01b03166001600160a01b03168152602001856001600160a01b03166001600160a01b031681526020018481526020018060200180602001838103835285818151815260200191508051906020019080838360005b83811015612b9f578181015183820152602001612b87565b50505050905090810190601f168015612bcc5780820380516001836020036101000a031916815260200191505b50838103825284518152845160209182019186019080838360005b83811015612bff578181015183820152602001612be7565b50505050905090810190601f168015612c2c5780820380516001836020036101000a031916815260200191505b5098505050505050505050600060405180830381600087803b158015612c5157600080fd5b505af1158015612c65573d6000803e3d6000fd5b5050505050505050505050565b6000813f7fc5d2460186f7233c927e7db2dcc703c0e500b653ca82273b7bfad8045d85a4708115801590612ca65750808214155b949350505050565b600054610100900460ff1680612cc75750612cc7612556565b80612cd5575060005460ff16155b612d105760405162461bcd60e51b815260040180806020018281038252602e81526020018061312e602e913960400191505060405180910390fd5b600054610100900460ff16158015612d3b576000805460ff1961ff0019909116610100171660011790555b8451612d7f576040805162461bcd60e51b815260206004820152600e60248201526d506f6f6c546f6b656e2f6e616d6560901b604482015290519081900360640190fd5b8351612dc5576040805162461bcd60e51b815260206004820152601060248201526f141bdbdb151bdad95b8bdcde5b589bdb60821b604482015290519081900360640190fd5b6001600160a01b038216612e16576040805162461bcd60e51b8152602060048201526013602482015272506f6f6c546f6b656e2f706f6f6c2d7a65726f60681b604482015290519081900360640190fd5b8451612e29906033906020880190613010565b508351612e3d906034906020870190613010565b50603a80546001600160a01b0319166001600160a01b0384161790558251612e6c90603590602086019061308e565b5060005b603554811015612ec95760016036600060358481548110612e8d57fe5b6000918252602080832091909101546001600160a01b031683528201929092526040019020805460ff1916911515919091179055600101612e70565b50604080516329965a1d60e01b815230600482018190527fac7fbab5f54a3ca8194167523c6753bfeb96a445279294b6125b68cce2177054602483015260448201529051731820a4b7618bde71dce8cdc73aab6c95905fad24916329965a1d91606480830192600092919082900301818387803b158015612f4957600080fd5b505af1158015612f5d573d6000803e3d6000fd5b5050604080516329965a1d60e01b815230600482018190527faea199e31a596269b42cdafd93407f14436db6e4cad65417994c2eb37381e05a602483015260448201529051731820a4b7618bde71dce8cdc73aab6c95905fad2493506329965a1d9250606480830192600092919082900301818387803b158015612fe057600080fd5b505af1158015612ff4573d6000803e3d6000fd5b5050505080156113b2576000805461ff00191690555050505050565b828054600181600116156101000203166002900490600052602060002090601f016020900481019282601f1061305157805160ff191683800117855561307e565b8280016001018555821561307e579182015b8281111561307e578251825591602001919060010190613063565b5061308a9291506130ef565b5090565b8280548282559060005260206000209081019282156130e3579160200282015b828111156130e357825182546001600160a01b0319166001600160a01b039091161782556020909201916001909101906130ae565b5061308a929150613109565b610d3e91905b8082111561308a57600081556001016130f5565b610d3e91905b8082111561308a5780546001600160a01b031916815560010161310f56fe436f6e747261637420696e7374616e63652068617320616c7265616479206265656e20696e697469616c697a6564ddf252ad1be2c89b69c2b068fc378daa952ba7f163c4a11628f55a4df523b3efa265627a7a72315820c5dc2bb8146e692feb24ccab84e95f10843e5c44f7c3fe03dbd6bb1c2658415f64736f6c634300050c0032",
  "source": "/**\nCopyright 2020 PoolTogether Inc.\n\nThis file is part of PoolTogether.\n\nPoolTogether is free software: you can redistribute it and/or modify\nit under the terms of the GNU General Public License as published by\nthe Free Software Foundation under version 3 of the License.\n\nPoolTogether is distributed in the hope that it will be useful,\nbut WITHOUT ANY WARRANTY; without even the implied warranty of\nMERCHANTABILITY or FITNESS FOR A PARTICULAR PURPOSE.  See the\nGNU General Public License for more details.\n\nYou should have received a copy of the GNU General Public License\nalong with PoolTogether.  If not, see <https://www.gnu.org/licenses/>.\n*/\n\npragma solidity 0.5.12;\n\nimport \"./PoolTokenDecimals.sol\";\n\n/**\n * @title RecipientWhitelistPoolToken\n * @author Brendan Asselstine\n * @notice Allows the pool admins to only allow token transfers to particular addresses.\n */\ncontract RecipientWhitelistPoolTokenDecimals is PoolTokenDecimals {\n  /**\n   * @notice Whether the whitelist is enabled\n   */\n  bool internal _recipientWhitelistEnabled;\n\n  /**\n   * @notice Whether a recipient has been whitelisted\n   */\n  mapping(address => bool) internal _recipientWhitelist;\n\n  /**\n   * @notice Emitted when the whitelist is enabled or disabled\n   * @param admin The admin who affected the change.\n   * @param enabled Whether the whitelist was enabled.\n   */\n  event WhitelistEnabled(address indexed admin, bool enabled);\n\n  /**\n   * @notice Emitted when a recipient whitelist status changes.\n   * @param admin The admin who affected the change\n   * @param recipient The recipient whose whitelisting status was changed\n   * @param whitelisted Whether the recipient was whitelisted\n   */\n  event RecipientWhitelisted(address indexed admin, address indexed recipient, bool whitelisted);\n\n  /**\n   * @notice Returns whether the whitelist is enabled.  If enabled, recipients must be whitelisted in order to receive tokens.\n   * Otherwise if the whitelist is not enabled anyone is able to receive tokens.\n   * @return True if whitelist enabled, false otherwise.\n   */\n  function recipientWhitelistEnabled() public view returns (bool) {\n    return _recipientWhitelistEnabled;\n  }\n\n  /**\n   * @notice Checks whether a recipient has been whitelisted.  This is irrespective of whether whitelisting is enabled or not.\n   * @return True if the recipient has been whitelisted, false otherwise.\n   */\n  function recipientWhitelisted(address _recipient) public view returns (bool) {\n    return _recipientWhitelist[_recipient];\n  }\n\n  /**\n   * @notice Sets whether recipient whitelisting is enabled.  Only callable by the Pool admin.\n   * @param _enabled True if whitelisting should be enabled, false otherwise\n   */\n  function setRecipientWhitelistEnabled(bool _enabled) public onlyAdmin {\n    _recipientWhitelistEnabled = _enabled;\n\n    emit WhitelistEnabled(msg.sender, _enabled);\n  }\n\n  /**\n   * @notice Sets whether the recipient should be whitelisted.  Only callable by the Pool admin.\n   * @param _recipient The recipient to whitelist\n   * @param _whitelisted True if the recipient should be whitelisted, false otherwise\n   */\n  function setRecipientWhitelisted(address _recipient, bool _whitelisted) public onlyAdmin {\n    _recipientWhitelist[_recipient] = _whitelisted;\n\n    emit RecipientWhitelisted(msg.sender, _recipient, _whitelisted);\n  }\n\n  /**\n    * @dev Call from.tokensToSend() if the interface is registered\n    * @param operator address operator requesting the transfer\n    * @param from address token holder address\n    * @param to address recipient address.  Can only be whitelisted addresses, if any\n    * @param amount uint256 amount of tokens to transfer\n    * @param userData bytes extra information provided by the token holder (if any)\n    * @param operatorData bytes extra information provided by the operator (if any)\n    */\n  function _callTokensToSend(\n      address operator,\n      address from,\n      address to,\n      uint256 amount,\n      bytes memory userData,\n      bytes memory operatorData\n  )\n      internal\n  {\n      if (_recipientWhitelistEnabled) {\n        require(to == address(0) || _recipientWhitelist[to], \"Pool/not-list\");\n      }\n      super._callTokensToSend(operator, from, to, amount, userData, operatorData);\n  }\n\n  /**\n   * @notice Requires the caller to be the Pool admin\n   */\n  modifier onlyAdmin() {\n    require(pool().isAdmin(msg.sender), \"WhitelistToken/is-admin\");\n    _;\n  }\n}\n",
  "sourcePath": "/home/manjain/Documents/LetsPool/src/pooltogether-contracts/contracts/RecipientWhitelistPoolTokenDecimals.sol",
  "compiler": {
    "name": "solc",
    "version": "0.5.12+commit.7709ece9.Emscripten.clang"
  },
  "schemaVersion": "3.1.0",
  "updatedAt": "2020-05-21T20:34:55.082Z",
  "devdoc": {
    "author": "Brendan Asselstine",
    "methods": {
      "allowance(address,address)": {
        "details": "See {IERC20-allowance}.    * Note that operator and allowance concepts are orthogonal: operators may not have allowance, and accounts with allowance may not be operators themselves."
      },
      "approve(address,uint256)": {
        "details": "See {IERC20-approve}.    * Note that accounts cannot have allowance issued by their operators."
      },
      "authorizeOperator(address)": {
        "details": "See {IERC777-authorizeOperator}."
      },
      "balanceOf(address)": {
        "details": "See {IERC20-balanceOf}."
      },
      "burn(uint256,bytes)": {
        "details": "See {IERC777-burn}.  Not currently implemented.    * Also emits a {Transfer} event for ERC20 compatibility."
      },
      "decimals()": {
        "details": "See {ERC20Detailed-decimals}.    * Returns the number of decimal places this token should have.  This deviates from the ERC777 spec because deposits into the Pool may use alternative decimal places (such as USDC) [ERC777 EIP](https://eips.ethereum.org/EIPS/eip-777#backward-compatibility)."
      },
      "decreaseAllowance(address,uint256)": {
        "details": "Atomically decreases the allowance granted to `spender` by the caller.    * This is an alternative to {approve} that can be used as a mitigation for problems described in {IERC20-approve}.    * Emits an {Approval} event indicating the updated allowance.    * Requirements:    * - `spender` cannot be the zero address. - `spender` must have allowance for the caller of at least `subtractedValue`."
      },
      "defaultOperators()": {
        "details": "See {IERC777-defaultOperators}."
      },
      "granularity()": {
        "details": "See {IERC777-granularity}.    * This implementation always returns `1`."
      },
      "increaseAllowance(address,uint256)": {
        "details": "Atomically increases the allowance granted to `spender` by the caller.    * This is an alternative to {approve} that can be used as a mitigation for problems described in {IERC20-approve}.    * Emits an {Approval} event indicating the updated allowance.    * Requirements:    * - `spender` cannot be the zero address."
      },
      "init(string,string,address[],address)": {
        "params": {
          "defaultOperators": "The default operators who are allowed to move tokens",
          "name": "The name of the token",
          "pool": "The pool to bind to",
          "symbol": "The token symbol"
        }
      },
      "init(string,string,address[],address,uint8)": {
        "params": {
          "decimals": "The number of decimals the Pool's token uses.",
          "defaultOperators": "The default operators who are allowed to move tokens",
          "name": "The name of the token",
          "pool": "The pool to bind to",
          "symbol": "The token symbol"
        }
      },
      "isOperatorFor(address,address)": {
        "details": "See {IERC777-isOperatorFor}."
      },
      "name()": {
        "details": "See {IERC777-name}."
      },
      "operatorBurn(address,uint256,bytes,bytes)": {
        "details": "See {IERC777-operatorBurn}.    * Currently not supported"
      },
      "operatorRedeem(address,uint256,bytes,bytes)": {
        "details": "Allows an operator to redeem tokens for the underlying asset on behalf of a user.    * Emits {Redeemed} and {Transfer} events."
      },
      "operatorSend(address,address,uint256,bytes,bytes)": {
        "details": "See {IERC777-operatorSend}.    * Emits {Sent} and {Transfer} events."
      },
      "pool()": {
        "return": "The address of the pool contract"
      },
      "poolMint(uint256)": {
        "params": {
          "amount": "The amount that was minted"
        }
      },
      "poolRedeem(address,uint256)": {
        "params": {
          "amount": "The amount of tokens to redeem",
          "from": "The address from which to redeem tokens"
        }
      },
      "recipientWhitelistEnabled()": {
        "return": "True if whitelist enabled, false otherwise."
      },
      "recipientWhitelisted(address)": {
        "return": "True if the recipient has been whitelisted, false otherwise."
      },
      "redeem(uint256,bytes)": {
        "details": "Allows a user to withdraw their tokens as the underlying asset.    * Also emits a {Transfer} event for ERC20 compatibility."
      },
      "revokeOperator(address)": {
        "details": "See {IERC777-revokeOperator}."
      },
      "send(address,uint256,bytes)": {
        "details": "See {IERC777-send}.    * Also emits a {Transfer} event for ERC20 compatibility."
      },
      "setRecipientWhitelistEnabled(bool)": {
        "params": {
          "_enabled": "True if whitelisting should be enabled, false otherwise"
        }
      },
      "setRecipientWhitelisted(address,bool)": {
        "params": {
          "_recipient": "The recipient to whitelist",
          "_whitelisted": "True if the recipient should be whitelisted, false otherwise"
        }
      },
      "symbol()": {
        "details": "See {IERC777-symbol}."
      },
      "totalSupply()": {
        "details": "See {IERC777-totalSupply}."
      },
      "transfer(address,uint256)": {
        "details": "See {IERC20-transfer}.    * Unlike `send`, `recipient` is _not_ required to implement the {IERC777Recipient} interface if it is a contract.    * Also emits a {Sent} event."
      },
      "transferFrom(address,address,uint256)": {
        "details": "See {IERC20-transferFrom}.  * Note that operator and allowance concepts are orthogonal: operators cannot call `transferFrom` (unless they have allowance), and accounts with allowance cannot call `operatorSend` (unless they are operators).  * Emits {Sent}, {Transfer} and {Approval} events."
      }
    },
    "title": "RecipientWhitelistPoolToken"
  },
  "userdoc": {
    "methods": {
      "init(string,string,address[],address)": {
        "notice": "Initializes the PoolToken."
      },
      "init(string,string,address[],address,uint8)": {
        "notice": "Initializes the PoolToken."
      },
      "pool()": {
        "notice": "Returns the address of the Pool contract"
      },
      "poolMint(uint256)": {
        "notice": "Called by the associated Pool to emit `Mint` events."
      },
      "poolRedeem(address,uint256)": {
        "notice": "Calls the ERC777 transfer hook, and emits Redeemed and Transfer.  Can only be called by the Pool contract."
      },
      "recipientWhitelistEnabled()": {
        "notice": "Returns whether the whitelist is enabled.  If enabled, recipients must be whitelisted in order to receive tokens. Otherwise if the whitelist is not enabled anyone is able to receive tokens."
      },
      "recipientWhitelisted(address)": {
        "notice": "Checks whether a recipient has been whitelisted.  This is irrespective of whether whitelisting is enabled or not."
      },
      "setRecipientWhitelistEnabled(bool)": {
        "notice": "Sets whether recipient whitelisting is enabled.  Only callable by the Pool admin."
      },
      "setRecipientWhitelisted(address,bool)": {
        "notice": "Sets whether the recipient should be whitelisted.  Only callable by the Pool admin."
      }
    },
    "notice": "Allows the pool admins to only allow token transfers to particular addresses."
  }
}