{
  "contractName": "RecipientWhitelistPoolToken",
  "abi": [
    {
      "anonymous": false,
      "inputs": [
        {
          "indexed": true,
          "internalType": "address",
          "name": "owner",
          "type": "address"
        },
        {
          "indexed": true,
          "internalType": "address",
          "name": "spender",
          "type": "address"
        },
        {
          "indexed": false,
          "internalType": "uint256",
          "name": "value",
          "type": "uint256"
        }
      ],
      "name": "Approval",
      "type": "event"
    },
    {
      "anonymous": false,
      "inputs": [
        {
          "indexed": true,
          "internalType": "address",
          "name": "operator",
          "type": "address"
        },
        {
          "indexed": true,
          "internalType": "address",
          "name": "tokenHolder",
          "type": "address"
        }
      ],
      "name": "AuthorizedOperator",
      "type": "event"
    },
    {
      "anonymous": false,
      "inputs": [
        {
          "indexed": true,
          "internalType": "address",
          "name": "operator",
          "type": "address"
        },
        {
          "indexed": true,
          "internalType": "address",
          "name": "from",
          "type": "address"
        },
        {
          "indexed": false,
          "internalType": "uint256",
          "name": "amount",
          "type": "uint256"
        },
        {
          "indexed": false,
          "internalType": "bytes",
          "name": "data",
          "type": "bytes"
        },
        {
          "indexed": false,
          "internalType": "bytes",
          "name": "operatorData",
          "type": "bytes"
        }
      ],
      "name": "Burned",
      "type": "event"
    },
    {
      "anonymous": false,
      "inputs": [
        {
          "indexed": true,
          "internalType": "address",
          "name": "operator",
          "type": "address"
        },
        {
          "indexed": true,
          "internalType": "address",
          "name": "to",
          "type": "address"
        },
        {
          "indexed": false,
          "internalType": "uint256",
          "name": "amount",
          "type": "uint256"
        },
        {
          "indexed": false,
          "internalType": "bytes",
          "name": "data",
          "type": "bytes"
        },
        {
          "indexed": false,
          "internalType": "bytes",
          "name": "operatorData",
          "type": "bytes"
        }
      ],
      "name": "Minted",
      "type": "event"
    },
    {
      "anonymous": false,
      "inputs": [
        {
          "indexed": true,
          "internalType": "address",
          "name": "admin",
          "type": "address"
        },
        {
          "indexed": true,
          "internalType": "address",
          "name": "recipient",
          "type": "address"
        },
        {
          "indexed": false,
          "internalType": "bool",
          "name": "whitelisted",
          "type": "bool"
        }
      ],
      "name": "RecipientWhitelisted",
      "type": "event"
    },
    {
      "anonymous": false,
      "inputs": [
        {
          "indexed": true,
          "internalType": "address",
          "name": "operator",
          "type": "address"
        },
        {
          "indexed": true,
          "internalType": "address",
          "name": "from",
          "type": "address"
        },
        {
          "indexed": false,
          "internalType": "uint256",
          "name": "amount",
          "type": "uint256"
        },
        {
          "indexed": false,
          "internalType": "bytes",
          "name": "data",
          "type": "bytes"
        },
        {
          "indexed": false,
          "internalType": "bytes",
          "name": "operatorData",
          "type": "bytes"
        }
      ],
      "name": "Redeemed",
      "type": "event"
    },
    {
      "anonymous": false,
      "inputs": [
        {
          "indexed": true,
          "internalType": "address",
          "name": "operator",
          "type": "address"
        },
        {
          "indexed": true,
          "internalType": "address",
          "name": "tokenHolder",
          "type": "address"
        }
      ],
      "name": "RevokedOperator",
      "type": "event"
    },
    {
      "anonymous": false,
      "inputs": [
        {
          "indexed": true,
          "internalType": "address",
          "name": "operator",
          "type": "address"
        },
        {
          "indexed": true,
          "internalType": "address",
          "name": "from",
          "type": "address"
        },
        {
          "indexed": true,
          "internalType": "address",
          "name": "to",
          "type": "address"
        },
        {
          "indexed": false,
          "internalType": "uint256",
          "name": "amount",
          "type": "uint256"
        },
        {
          "indexed": false,
          "internalType": "bytes",
          "name": "data",
          "type": "bytes"
        },
        {
          "indexed": false,
          "internalType": "bytes",
          "name": "operatorData",
          "type": "bytes"
        }
      ],
      "name": "Sent",
      "type": "event"
    },
    {
      "anonymous": false,
      "inputs": [
        {
          "indexed": true,
          "internalType": "address",
          "name": "from",
          "type": "address"
        },
        {
          "indexed": true,
          "internalType": "address",
          "name": "to",
          "type": "address"
        },
        {
          "indexed": false,
          "internalType": "uint256",
          "name": "value",
          "type": "uint256"
        }
      ],
      "name": "Transfer",
      "type": "event"
    },
    {
      "anonymous": false,
      "inputs": [
        {
          "indexed": true,
          "internalType": "address",
          "name": "admin",
          "type": "address"
        },
        {
          "indexed": false,
          "internalType": "bool",
          "name": "enabled",
          "type": "bool"
        }
      ],
      "name": "WhitelistEnabled",
      "type": "event"
    },
    {
      "constant": true,
      "inputs": [
        {
          "internalType": "address",
          "name": "holder",
          "type": "address"
        },
        {
          "internalType": "address",
          "name": "spender",
          "type": "address"
        }
      ],
      "name": "allowance",
      "outputs": [
        {
          "internalType": "uint256",
          "name": "",
          "type": "uint256"
        }
      ],
      "payable": false,
      "stateMutability": "view",
      "type": "function"
    },
    {
      "constant": false,
      "inputs": [
        {
          "internalType": "address",
          "name": "spender",
          "type": "address"
        },
        {
          "internalType": "uint256",
          "name": "value",
          "type": "uint256"
        }
      ],
      "name": "approve",
      "outputs": [
        {
          "internalType": "bool",
          "name": "",
          "type": "bool"
        }
      ],
      "payable": false,
      "stateMutability": "nonpayable",
      "type": "function"
    },
    {
      "constant": false,
      "inputs": [
        {
          "internalType": "address",
          "name": "operator",
          "type": "address"
        }
      ],
      "name": "authorizeOperator",
      "outputs": [],
      "payable": false,
      "stateMutability": "nonpayable",
      "type": "function"
    },
    {
      "constant": true,
      "inputs": [
        {
          "internalType": "address",
          "name": "_addr",
          "type": "address"
        }
      ],
      "name": "balanceOf",
      "outputs": [
        {
          "internalType": "uint256",
          "name": "",
          "type": "uint256"
        }
      ],
      "payable": false,
      "stateMutability": "view",
      "type": "function"
    },
    {
      "constant": false,
      "inputs": [
        {
          "internalType": "uint256",
          "name": "",
          "type": "uint256"
        },
        {
          "internalType": "bytes",
          "name": "",
          "type": "bytes"
        }
      ],
      "name": "burn",
      "outputs": [],
      "payable": false,
      "stateMutability": "nonpayable",
      "type": "function"
    },
    {
      "constant": true,
      "inputs": [],
      "name": "decimals",
      "outputs": [
        {
          "internalType": "uint8",
          "name": "",
          "type": "uint8"
        }
      ],
      "payable": false,
      "stateMutability": "view",
      "type": "function"
    },
    {
      "constant": false,
      "inputs": [
        {
          "internalType": "address",
          "name": "spender",
          "type": "address"
        },
        {
          "internalType": "uint256",
          "name": "subtractedValue",
          "type": "uint256"
        }
      ],
      "name": "decreaseAllowance",
      "outputs": [
        {
          "internalType": "bool",
          "name": "",
          "type": "bool"
        }
      ],
      "payable": false,
      "stateMutability": "nonpayable",
      "type": "function"
    },
    {
      "constant": true,
      "inputs": [],
      "name": "defaultOperators",
      "outputs": [
        {
          "internalType": "address[]",
          "name": "",
          "type": "address[]"
        }
      ],
      "payable": false,
      "stateMutability": "view",
      "type": "function"
    },
    {
      "constant": true,
      "inputs": [],
      "name": "granularity",
      "outputs": [
        {
          "internalType": "uint256",
          "name": "",
          "type": "uint256"
        }
      ],
      "payable": false,
      "stateMutability": "view",
      "type": "function"
    },
    {
      "constant": false,
      "inputs": [
        {
          "internalType": "address",
          "name": "spender",
          "type": "address"
        },
        {
          "internalType": "uint256",
          "name": "addedValue",
          "type": "uint256"
        }
      ],
      "name": "increaseAllowance",
      "outputs": [
        {
          "internalType": "bool",
          "name": "",
          "type": "bool"
        }
      ],
      "payable": false,
      "stateMutability": "nonpayable",
      "type": "function"
    },
    {
      "constant": false,
      "inputs": [
        {
          "internalType": "string",
          "name": "name",
          "type": "string"
        },
        {
          "internalType": "string",
          "name": "symbol",
          "type": "string"
        },
        {
          "internalType": "address[]",
          "name": "defaultOperators",
          "type": "address[]"
        },
        {
          "internalType": "contract BasePool",
          "name": "pool",
          "type": "address"
        }
      ],
      "name": "init",
      "outputs": [],
      "payable": false,
      "stateMutability": "nonpayable",
      "type": "function"
    },
    {
      "constant": true,
      "inputs": [
        {
          "internalType": "address",
          "name": "operator",
          "type": "address"
        },
        {
          "internalType": "address",
          "name": "tokenHolder",
          "type": "address"
        }
      ],
      "name": "isOperatorFor",
      "outputs": [
        {
          "internalType": "bool",
          "name": "",
          "type": "bool"
        }
      ],
      "payable": false,
      "stateMutability": "view",
      "type": "function"
    },
    {
      "constant": true,
      "inputs": [],
      "name": "name",
      "outputs": [
        {
          "internalType": "string",
          "name": "",
          "type": "string"
        }
      ],
      "payable": false,
      "stateMutability": "view",
      "type": "function"
    },
    {
      "constant": false,
      "inputs": [
        {
          "internalType": "address",
          "name": "",
          "type": "address"
        },
        {
          "internalType": "uint256",
          "name": "",
          "type": "uint256"
        },
        {
          "internalType": "bytes",
          "name": "",
          "type": "bytes"
        },
        {
          "internalType": "bytes",
          "name": "",
          "type": "bytes"
        }
      ],
      "name": "operatorBurn",
      "outputs": [],
      "payable": false,
      "stateMutability": "nonpayable",
      "type": "function"
    },
    {
      "constant": false,
      "inputs": [
        {
          "internalType": "address",
          "name": "account",
          "type": "address"
        },
        {
          "internalType": "uint256",
          "name": "amount",
          "type": "uint256"
        },
        {
          "internalType": "bytes",
          "name": "data",
          "type": "bytes"
        },
        {
          "internalType": "bytes",
          "name": "operatorData",
          "type": "bytes"
        }
      ],
      "name": "operatorRedeem",
      "outputs": [],
      "payable": false,
      "stateMutability": "nonpayable",
      "type": "function"
    },
    {
      "constant": false,
      "inputs": [
        {
          "internalType": "address",
          "name": "sender",
          "type": "address"
        },
        {
          "internalType": "address",
          "name": "recipient",
          "type": "address"
        },
        {
          "internalType": "uint256",
          "name": "amount",
          "type": "uint256"
        },
        {
          "internalType": "bytes",
          "name": "data",
          "type": "bytes"
        },
        {
          "internalType": "bytes",
          "name": "operatorData",
          "type": "bytes"
        }
      ],
      "name": "operatorSend",
      "outputs": [],
      "payable": false,
      "stateMutability": "nonpayable",
      "type": "function"
    },
    {
      "constant": true,
      "inputs": [],
      "name": "pool",
      "outputs": [
        {
          "internalType": "contract BasePool",
          "name": "",
          "type": "address"
        }
      ],
      "payable": false,
      "stateMutability": "view",
      "type": "function"
    },
    {
      "constant": false,
      "inputs": [
        {
          "internalType": "uint256",
          "name": "amount",
          "type": "uint256"
        }
      ],
      "name": "poolMint",
      "outputs": [],
      "payable": false,
      "stateMutability": "nonpayable",
      "type": "function"
    },
    {
      "constant": false,
      "inputs": [
        {
          "internalType": "address",
          "name": "from",
          "type": "address"
        },
        {
          "internalType": "uint256",
          "name": "amount",
          "type": "uint256"
        }
      ],
      "name": "poolRedeem",
      "outputs": [],
      "payable": false,
      "stateMutability": "nonpayable",
      "type": "function"
    },
    {
      "constant": false,
      "inputs": [
        {
          "internalType": "uint256",
          "name": "amount",
          "type": "uint256"
        },
        {
          "internalType": "bytes",
          "name": "data",
          "type": "bytes"
        }
      ],
      "name": "redeem",
      "outputs": [],
      "payable": false,
      "stateMutability": "nonpayable",
      "type": "function"
    },
    {
      "constant": false,
      "inputs": [
        {
          "internalType": "address",
          "name": "operator",
          "type": "address"
        }
      ],
      "name": "revokeOperator",
      "outputs": [],
      "payable": false,
      "stateMutability": "nonpayable",
      "type": "function"
    },
    {
      "constant": false,
      "inputs": [
        {
          "internalType": "address",
          "name": "recipient",
          "type": "address"
        },
        {
          "internalType": "uint256",
          "name": "amount",
          "type": "uint256"
        },
        {
          "internalType": "bytes",
          "name": "data",
          "type": "bytes"
        }
      ],
      "name": "send",
      "outputs": [],
      "payable": false,
      "stateMutability": "nonpayable",
      "type": "function"
    },
    {
      "constant": true,
      "inputs": [],
      "name": "symbol",
      "outputs": [
        {
          "internalType": "string",
          "name": "",
          "type": "string"
        }
      ],
      "payable": false,
      "stateMutability": "view",
      "type": "function"
    },
    {
      "constant": true,
      "inputs": [],
      "name": "totalSupply",
      "outputs": [
        {
          "internalType": "uint256",
          "name": "",
          "type": "uint256"
        }
      ],
      "payable": false,
      "stateMutability": "view",
      "type": "function"
    },
    {
      "constant": false,
      "inputs": [
        {
          "internalType": "address",
          "name": "recipient",
          "type": "address"
        },
        {
          "internalType": "uint256",
          "name": "amount",
          "type": "uint256"
        }
      ],
      "name": "transfer",
      "outputs": [
        {
          "internalType": "bool",
          "name": "",
          "type": "bool"
        }
      ],
      "payable": false,
      "stateMutability": "nonpayable",
      "type": "function"
    },
    {
      "constant": false,
      "inputs": [
        {
          "internalType": "address",
          "name": "holder",
          "type": "address"
        },
        {
          "internalType": "address",
          "name": "recipient",
          "type": "address"
        },
        {
          "internalType": "uint256",
          "name": "amount",
          "type": "uint256"
        }
      ],
      "name": "transferFrom",
      "outputs": [
        {
          "internalType": "bool",
          "name": "",
          "type": "bool"
        }
      ],
      "payable": false,
      "stateMutability": "nonpayable",
      "type": "function"
    },
    {
      "constant": true,
      "inputs": [],
      "name": "recipientWhitelistEnabled",
      "outputs": [
        {
          "internalType": "bool",
          "name": "",
          "type": "bool"
        }
      ],
      "payable": false,
      "stateMutability": "view",
      "type": "function"
    },
    {
      "constant": true,
      "inputs": [
        {
          "internalType": "address",
          "name": "_recipient",
          "type": "address"
        }
      ],
      "name": "recipientWhitelisted",
      "outputs": [
        {
          "internalType": "bool",
          "name": "",
          "type": "bool"
        }
      ],
      "payable": false,
      "stateMutability": "view",
      "type": "function"
    },
    {
      "constant": false,
      "inputs": [
        {
          "internalType": "bool",
          "name": "_enabled",
          "type": "bool"
        }
      ],
      "name": "setRecipientWhitelistEnabled",
      "outputs": [],
      "payable": false,
      "stateMutability": "nonpayable",
      "type": "function"
    },
    {
      "constant": false,
      "inputs": [
        {
          "internalType": "address",
          "name": "_recipient",
          "type": "address"
        },
        {
          "internalType": "bool",
          "name": "_whitelisted",
          "type": "bool"
        }
      ],
      "name": "setRecipientWhitelisted",
      "outputs": [],
      "payable": false,
      "stateMutability": "nonpayable",
      "type": "function"
    }
  ],
  "bytecode": "0x608060405234801561001057600080fd5b50612df0806100206000396000f3fe608060405234801561001057600080fd5b50600436106101da5760003560e01c8063959b8c3f11610104578063c8cb23f8116100a2578063e77c646d11610071578063e77c646d14610972578063fad8b32a146109e7578063fc673c4f14610a0d578063fe9d930314610ae0576101da565b8063c8cb23f814610815578063d7d5b92814610843578063d95b637114610916578063dd62ed3e14610944576101da565b8063a3594709116100de578063a359470914610781578063a457c2d71461079e578063a884b930146107ca578063a9059cbb146107e9576101da565b8063959b8c3f146106d057806395d89b41146106f65780639bd9bbc6146106fe576101da565b8063313ce5671161017c578063625cbfae1161014b578063625cbfae1461040e57806362ad1b831461041657806370a08231146104f457806388a8a9191461051a576101da565b8063313ce5671461039657806339509351146103b45780634bf67fa6146103e0578063556f0dc714610406576101da565b806314274ad9116101b857806314274ad9146102f457806316f0115b1461032257806318160ddd1461034657806323b872dd14610360576101da565b806306e48538146101df57806306fdde0314610237578063095ea7b3146102b4575b600080fd5b6101e7610b17565b60408051602080825283518183015283519192839290830191858101910280838360005b8381101561022357818101518382015260200161020b565b505050509050019250505060405180910390f35b61023f610b7a565b6040805160208082528351818301528351919283929083019185019080838360005b83811015610279578181015183820152602001610261565b50505050905090810190601f1680156102a65780820380516001836020036101000a031916815260200191505b509250505060405180910390f35b6102e0600480360360408110156102ca57600080fd5b506001600160a01b038135169060200135610c07565b604080519115158252519081900360200190f35b6103206004803603604081101561030a57600080fd5b506001600160a01b038135169060200135610c1f565b005b61032a610d30565b604080516001600160a01b039092168252519081900360200190f35b61034e610d3f565b60408051918252519081900360200190f35b6102e06004803603606081101561037657600080fd5b506001600160a01b03813581169160208101359091169060400135610db5565b61039e610f5f565b6040805160ff9092168252519081900360200190f35b6102e0600480360360408110156103ca57600080fd5b506001600160a01b038135169060200135610f64565b6102e0600480360360208110156103f657600080fd5b50356001600160a01b0316610fa9565b61034e610fc7565b6102e0610fcc565b610320600480360360a081101561042c57600080fd5b6001600160a01b03823581169260208101359091169160408201359190810190608081016060820135600160201b81111561046657600080fd5b82018360208201111561047857600080fd5b803590602001918460018302840111600160201b8311171561049957600080fd5b919390929091602081019035600160201b8111156104b657600080fd5b8201836020820111156104c857600080fd5b803590602001918460018302840111600160201b831117156104e957600080fd5b509092509050610fdc565b61034e6004803603602081101561050a57600080fd5b50356001600160a01b03166110b0565b6103206004803603608081101561053057600080fd5b810190602081018135600160201b81111561054a57600080fd5b82018360208201111561055c57600080fd5b803590602001918460018302840111600160201b8311171561057d57600080fd5b91908080601f0160208091040260200160405190810160405280939291908181526020018383808284376000920191909152509295949360208101935035915050600160201b8111156105cf57600080fd5b8201836020820111156105e157600080fd5b803590602001918460018302840111600160201b8311171561060257600080fd5b91908080601f0160208091040260200160405190810160405280939291908181526020018383808284376000920191909152509295949360208101935035915050600160201b81111561065457600080fd5b82018360208201111561066657600080fd5b803590602001918460208302840111600160201b8311171561068757600080fd5b919080806020026020016040519081016040528093929190818152602001838360200280828437600092019190915250929550505090356001600160a01b031691506111339050565b610320600480360360208110156106e657600080fd5b50356001600160a01b0316611496565b61023f6115a3565b6103206004803603606081101561071457600080fd5b6001600160a01b0382351691602081013591810190606081016040820135600160201b81111561074357600080fd5b82018360208201111561075557600080fd5b803590602001918460018302840111600160201b8311171561077657600080fd5b509092509050611604565b6103206004803603602081101561079757600080fd5b503561165b565b6102e0600480360360408110156107b457600080fd5b506001600160a01b0381351690602001356116e8565b610320600480360360208110156107e057600080fd5b50351515611750565b6102e0600480360360408110156107ff57600080fd5b506001600160a01b03813516906020013561187a565b6103206004803603604081101561082b57600080fd5b506001600160a01b0381351690602001351515611962565b6103206004803603608081101561085957600080fd5b6001600160a01b0382351691602081013591810190606081016040820135600160201b81111561088857600080fd5b82018360208201111561089a57600080fd5b803590602001918460018302840111600160201b831117156108bb57600080fd5b919390929091602081019035600160201b8111156108d857600080fd5b8201836020820111156108ea57600080fd5b803590602001918460018302840111600160201b8311171561090b57600080fd5b509092509050611a97565b6102e06004803603604081101561092c57600080fd5b506001600160a01b0381358116916020013516611b69565b61034e6004803603604081101561095a57600080fd5b506001600160a01b0381358116916020013516611c0b565b6103206004803603604081101561098857600080fd5b81359190810190604081016020820135600160201b8111156109a957600080fd5b8201836020820111156109bb57600080fd5b803590602001918460018302840111600160201b831117156109dc57600080fd5b509092509050611c36565b610320600480360360208110156109fd57600080fd5b50356001600160a01b0316611c8b565b61032060048036036080811015610a2357600080fd5b6001600160a01b0382351691602081013591810190606081016040820135600160201b811115610a5257600080fd5b820183602082011115610a6457600080fd5b803590602001918460018302840111600160201b83111715610a8557600080fd5b919390929091602081019035600160201b811115610aa257600080fd5b820183602082011115610ab457600080fd5b803590602001918460018302840111600160201b83111715610ad557600080fd5b509092509050611d9a565b61032060048036036040811015610af657600080fd5b81359190810190604081016020820135600160201b811115610aa257600080fd5b60606035805480602002602001604051908101604052809291908181526020018280548015610b6f57602002820191906000526020600020905b81546001600160a01b03168152600190910190602001808311610b51575b505050505090505b90565b60338054604080516020601f6002600019610100600188161502019095169490940493840181900481028201810190925282815260609390929091830182828015610b6f5780601f10610bdb57610100808354040283529160200191610b6f565b820191906000526020600020905b815481529060010190602001808311610be957509395945050505050565b600033610c15818585611dde565b5060019392505050565b603a546001600160a01b03163314610c74576040805162461bcd60e51b8152602060048201526013602482015272141bdbdb151bdad95b8bdbdb9b1e4b5c1bdbdb606a1b604482015290519081900360640190fd5b610ca182836000846040518060200160405280600081525060405180602001604052806000815250611e91565b60408051828152606060208201819052600090820181905260a082840181905282015290516001600160a01b0384169182917f1f58e3485c3f6fc2bddf52e2bd0d82ad5c19e1ac9ab403b1aa9f0a1794d2bfb69181900360e00190a36040805182815290516000916001600160a01b03851691600080516020612d9c8339815191529181900360200190a35050565b603a546001600160a01b031690565b603a5460408051633a3c267d60e21b815290516000926001600160a01b03169163e8f099f4916004808301926020929190829003018186803b158015610d8457600080fd5b505afa158015610d98573d6000803e3d6000fd5b505050506040513d6020811015610dae57600080fd5b5051905090565b60006001600160a01b038316610e06576040805162461bcd60e51b8152602060048201526011602482015270506f6f6c546f6b656e2f746f2d7a65726f60781b604482015290519081900360640190fd5b6001600160a01b038416610e57576040805162461bcd60e51b8152602060048201526013602482015272506f6f6c546f6b656e2f66726f6d2d7a65726f60681b604482015290519081900360640190fd5b6000339050610e88818686866040518060200160405280600081525060405180602001604052806000815250611e91565b610eb4818686866040518060200160405280600081525060405180602001604052806000815250611f20565b6040805180820182526016815275506f6f6c546f6b656e2f6578636565642d616c6c6f7760501b6020808301919091526001600160a01b03808916600090815260398352848120918616815291529190912054610f269187918491610f219190889063ffffffff61210d16565b611dde565b610f5481868686604051806020016040528060008152506040518060200160405280600081525060006121a4565b506001949350505050565b601290565b3360008181526039602090815260408083206001600160a01b03871684529091528120549091610fa0918590610f21908663ffffffff61245a16565b50600192915050565b6001600160a01b03166000908152603b602052604090205460ff1690565b600190565b603a54600160a01b900460ff1690565b610fe63388611b69565b611030576040805162461bcd60e51b81526020600482015260166024820152752837b7b62a37b5b2b717b737ba16b7b832b930ba37b960511b604482015290519081900360640190fd5b6110a73388888888888080601f01602080910402602001604051908101604052809392919081815260200183838082843760009201919091525050604080516020601f8c018190048102820181019092528a815292508a91508990819084018382808284376000920191909152506124b492505050565b50505050505050565b603a54604080516379f0877160e01b81526001600160a01b038481166004830152915160009392909216916379f0877191602480820192602092909190829003018186803b15801561110157600080fd5b505afa158015611115573d6000803e3d6000fd5b505050506040513d602081101561112b57600080fd5b505192915050565b600054610100900460ff168061114c575061114c612580565b8061115a575060005460ff16155b6111955760405162461bcd60e51b815260040180806020018281038252602e815260200180612d6e602e913960400191505060405180910390fd5b600054610100900460ff161580156111c0576000805460ff1961ff0019909116610100171660011790555b8451611204576040805162461bcd60e51b815260206004820152600e60248201526d506f6f6c546f6b656e2f6e616d6560901b604482015290519081900360640190fd5b835161124a576040805162461bcd60e51b815260206004820152601060248201526f141bdbdb151bdad95b8bdcde5b589bdb60821b604482015290519081900360640190fd5b6001600160a01b03821661129b576040805162461bcd60e51b8152602060048201526013602482015272506f6f6c546f6b656e2f706f6f6c2d7a65726f60681b604482015290519081900360640190fd5b84516112ae906033906020880190612c50565b5083516112c2906034906020870190612c50565b50603a80546001600160a01b0319166001600160a01b03841617905582516112f1906035906020860190612cce565b5060005b60355481101561134e576001603660006035848154811061131257fe5b6000918252602080832091909101546001600160a01b031683528201929092526040019020805460ff19169115159190911790556001016112f5565b50604080516329965a1d60e01b815230600482018190527fac7fbab5f54a3ca8194167523c6753bfeb96a445279294b6125b68cce2177054602483015260448201529051731820a4b7618bde71dce8cdc73aab6c95905fad24916329965a1d91606480830192600092919082900301818387803b1580156113ce57600080fd5b505af11580156113e2573d6000803e3d6000fd5b5050604080516329965a1d60e01b815230600482018190527faea199e31a596269b42cdafd93407f14436db6e4cad65417994c2eb37381e05a602483015260448201529051731820a4b7618bde71dce8cdc73aab6c95905fad2493506329965a1d9250606480830192600092919082900301818387803b15801561146557600080fd5b505af1158015611479573d6000803e3d6000fd5b50505050801561148f576000805461ff00191690555b5050505050565b336001600160a01b03821614156114ea576040805162461bcd60e51b81526020600482015260136024820152722837b7b62a37b5b2b717b0baba3416b9b2b63360691b604482015290519081900360640190fd5b6001600160a01b03811660009081526036602052604090205460ff161561153b573360009081526038602090815260408083206001600160a01b03851684529091529020805460ff1916905561156a565b3360009081526037602090815260408083206001600160a01b03851684529091529020805460ff191660011790555b60405133906001600160a01b038316907ff4caeb2d6ca8932a215a353d0703c326ec2d81fc68170f320eb2ab49e9df61f990600090a350565b60348054604080516020601f6002600019610100600188161502019095169490940493840181900481028201810190925282815260609390929091830182828015610b6f5780601f10610bdb57610100808354040283529160200191610b6f565b6116553333868686868080601f0160208091040260200160405190810160405280939291908181526020018383808284376000920182905250604080516020810190915290815292506124b4915050565b50505050565b603a546001600160a01b031633146116b0576040805162461bcd60e51b8152602060048201526013602482015272141bdbdb151bdad95b8bdbdb9b1e4b5c1bdbdb606a1b604482015290519081900360640190fd5b603a546040805160208082018352600080835283519182019093529182526116e5926001600160a01b03169182918591612586565b50565b6040805180820182526012815271506f6f6c546f6b656e2f6e6567617469766560701b602080830191909152336000818152603983528481206001600160a01b0388168252909252928120549092610fa09290918691610f219190879063ffffffff61210d16565b611758610d30565b6001600160a01b03166324d7806c336040518263ffffffff1660e01b815260040180826001600160a01b03166001600160a01b0316815260200191505060206040518083038186803b1580156117ad57600080fd5b505afa1580156117c1573d6000803e3d6000fd5b505050506040513d60208110156117d757600080fd5b5051611824576040805162461bcd60e51b81526020600482015260176024820152762bb434ba32b634b9ba2a37b5b2b717b4b996b0b236b4b760491b604482015290519081900360640190fd5b603a8054821515600160a01b810260ff60a01b1990921691909117909155604080519182525133917f643561a6454325dc43853b954eb9350a955ea80047c134c779c055bcbf459137919081900360200190a250565b60006001600160a01b0383166118d7576040805162461bcd60e51b815260206004820152601760248201527f506f6f6c546f6b656e2f7472616e736665722d7a65726f000000000000000000604482015290519081900360640190fd5b6000339050611908818286866040518060200160405280600081525060405180602001604052806000815250611e91565b611934818286866040518060200160405280600081525060405180602001604052806000815250611f20565b610c1581828686604051806020016040528060008152506040518060200160405280600081525060006121a4565b61196a610d30565b6001600160a01b03166324d7806c336040518263ffffffff1660e01b815260040180826001600160a01b03166001600160a01b0316815260200191505060206040518083038186803b1580156119bf57600080fd5b505afa1580156119d3573d6000803e3d6000fd5b505050506040513d60208110156119e957600080fd5b5051611a36576040805162461bcd60e51b81526020600482015260176024820152762bb434ba32b634b9ba2a37b5b2b717b4b996b0b236b4b760491b604482015290519081900360640190fd5b6001600160a01b0382166000818152603b6020908152604091829020805460ff19168515159081179091558251908152915133927f0a40230cc5a9cbd3edc99d49ffd13beb7dc906030a2dde3b53a53b62fc8979cd92908290030190a35050565b611aa13387611b69565b611aeb576040805162461bcd60e51b81526020600482015260166024820152752837b7b62a37b5b2b717b737ba16b7b832b930ba37b960511b604482015290519081900360640190fd5b611b6133878787878080601f01602080910402602001604051908101604052809392919081815260200183838082843760009201919091525050604080516020601f8b0181900481028201810190925289815292508991508890819084018382808284376000920191909152506126d892505050565b505050505050565b6000816001600160a01b0316836001600160a01b03161480611bd457506001600160a01b03831660009081526036602052604090205460ff168015611bd457506001600160a01b0380831660009081526038602090815260408083209387168352929052205460ff16155b80611c0457506001600160a01b0380831660009081526037602090815260408083209387168352929052205460ff165b9392505050565b6001600160a01b03918216600090815260396020908152604080832093909416825291909152205490565b611c8633338585858080601f0160208091040260200160405190810160405280939291908181526020018383808284376000920182905250604080516020810190915290815292506126d8915050565b505050565b6001600160a01b038116331415611ce1576040805162461bcd60e51b81526020600482015260156024820152742837b7b62a37b5b2b717b932bb37b5b296b9b2b63360591b604482015290519081900360640190fd5b6001600160a01b03811660009081526036602052604090205460ff1615611d35573360009081526038602090815260408083206001600160a01b03851684529091529020805460ff19166001179055611d61565b3360009081526037602090815260408083206001600160a01b03851684529091529020805460ff191690555b60405133906001600160a01b038316907f50546e66e5f44d728365dc3908c63bc5cfeeab470722c1677e3073a6ac294aa190600090a350565b6040805162461bcd60e51b8152602060048201526014602482015273141bdbdb151bdad95b8bdb9bcb5cdd5c1c1bdc9d60621b604482015290519081900360640190fd5b6001600160a01b038216611e2f576040805162461bcd60e51b8152602060048201526013602482015272506f6f6c546f6b656e2f66726f6d2d7a65726f60681b604482015290519081900360640190fd5b6001600160a01b03808416600081815260396020908152604080832094871680845294825291829020859055815185815291517f8c5be1e5ebec7d5bd14f71427d1e84f3dd0314c0f7b2291e5b200ac8c7c3b9259281900390910190a3505050565b603a54600160a01b900460ff1615611f12576001600160a01b0384161580611ed157506001600160a01b0384166000908152603b602052604090205460ff165b611f12576040805162461bcd60e51b815260206004820152600d60248201526c141bdbdb0bdb9bdd0b5b1a5cdd609a1b604482015290519081900360640190fd5b611b6186868686868661290b565b603a5460408051639e63a8c560e01b81526001600160a01b03888116600483015287811660248301526044820187905291519190921691639e63a8c59160648083019260209291908290030181600087803b158015611f7e57600080fd5b505af1158015611f92573d6000803e3d6000fd5b505050506040513d6020811015611fa857600080fd5b5050604080518481526060602082810182815286519284019290925285516001600160a01b03808a16958b821695918d16947f06b541ddaa720db2b10a4d0cdac39b8d360425fc073085fac19bc82614677987948b948b948b9490939290840191608085019187019080838360005b8381101561202f578181015183820152602001612017565b50505050905090810190601f16801561205c5780820380516001836020036101000a031916815260200191505b50838103825284518152845160209182019186019080838360005b8381101561208f578181015183820152602001612077565b50505050905090810190601f1680156120bc5780820380516001836020036101000a031916815260200191505b509550505050505060405180910390a4836001600160a01b0316856001600160a01b0316600080516020612d9c833981519152856040518082815260200191505060405180910390a3505050505050565b6000818484111561219c5760405162461bcd60e51b81526004018080602001828103825283818151815260200191508051906020019080838360005b83811015612161578181015183820152602001612149565b50505050905090810190601f16801561218e5780820380516001836020036101000a031916815260200191505b509250505060405180910390fd5b505050900390565b6040805163555ddc6560e11b81526001600160a01b03871660048201527fb281fc8c12954d22544db45de3159a39272895b169a852b314f9cc762e44c53b60248201529051600091731820a4b7618bde71dce8cdc73aab6c95905fad249163aabbb8ca91604480820192602092909190829003018186803b15801561222857600080fd5b505afa15801561223c573d6000803e3d6000fd5b505050506040513d602081101561225257600080fd5b505190506001600160a01b038116156123e657806001600160a01b03166223de298989898989896040518763ffffffff1660e01b815260040180876001600160a01b03166001600160a01b03168152602001866001600160a01b03166001600160a01b03168152602001856001600160a01b03166001600160a01b031681526020018481526020018060200180602001838103835285818151815260200191508051906020019080838360005b838110156123175781810151838201526020016122ff565b50505050905090810190601f1680156123445780820380516001836020036101000a031916815260200191505b50838103825284518152845160209182019186019080838360005b8381101561237757818101518382015260200161235f565b50505050905090810190601f1680156123a45780820380516001836020036101000a031916815260200191505b5098505050505050505050600060405180830381600087803b1580156123c957600080fd5b505af11580156123dd573d6000803e3d6000fd5b50505050612450565b8115612450576123fe866001600160a01b0316612c14565b15612450576040805162461bcd60e51b815260206004820152601860248201527f506f6f6c546f6b656e2f6e6f2d72656369702d696e7465720000000000000000604482015290519081900360640190fd5b5050505050505050565b600082820183811015611c04576040805162461bcd60e51b815260206004820152601b60248201527f536166654d6174683a206164646974696f6e206f766572666c6f770000000000604482015290519081900360640190fd5b6001600160a01b038516612505576040805162461bcd60e51b8152602060048201526013602482015272506f6f6c546f6b656e2f66726f6d2d7a65726f60681b604482015290519081900360640190fd5b6001600160a01b038416612554576040805162461bcd60e51b8152602060048201526011602482015270506f6f6c546f6b656e2f746f2d7a65726f60781b604482015290519081900360640190fd5b612562868686868686611e91565b612570868686868686611f20565b611b6186868686868660006121a4565b303b1590565b836001600160a01b0316856001600160a01b03167f2fe5be0146f74c5bce36c0b80911af6c7d86ff27e89d5cfa61fc681327954e5d858585604051808481526020018060200180602001838103835285818151815260200191508051906020019080838360005b838110156126055781810151838201526020016125ed565b50505050905090810190601f1680156126325780820380516001836020036101000a031916815260200191505b50838103825284518152845160209182019186019080838360005b8381101561266557818101518382015260200161264d565b50505050905090810190601f1680156126925780820380516001836020036101000a031916815260200191505b509550505050505060405180910390a36040805184815290516001600160a01b03861691600091600080516020612d9c8339815191529181900360200190a35050505050565b6001600160a01b038416612729576040805162461bcd60e51b8152602060048201526013602482015272506f6f6c546f6b656e2f66726f6d2d7a65726f60681b604482015290519081900360640190fd5b61273885856000868686611e91565b603a546040805163a423cd2960e01b81526001600160a01b038781166004830152602482018790529151919092169163a423cd299160448083019260209291908290030181600087803b15801561278e57600080fd5b505af11580156127a2573d6000803e3d6000fd5b505050506040513d60208110156127b857600080fd5b5050604080518481526060602082810182815286519284019290925285516001600160a01b03808a1695908b16947f1f58e3485c3f6fc2bddf52e2bd0d82ad5c19e1ac9ab403b1aa9f0a1794d2bfb6948a948a948a9484019160808501919087019080838360005b83811015612838578181015183820152602001612820565b50505050905090810190601f1680156128655780820380516001836020036101000a031916815260200191505b50838103825284518152845160209182019186019080838360005b83811015612898578181015183820152602001612880565b50505050905090810190601f1680156128c55780820380516001836020036101000a031916815260200191505b509550505050505060405180910390a36040805184815290516000916001600160a01b03871691600080516020612d9c8339815191529181900360200190a35050505050565b603a60009054906101000a90046001600160a01b03166001600160a01b031663a4e2d6346040518163ffffffff1660e01b815260040160206040518083038186803b15801561295957600080fd5b505afa15801561296d573d6000803e3d6000fd5b505050506040513d602081101561298357600080fd5b5051156129cd576040805162461bcd60e51b8152602060048201526013602482015272141bdbdb151bdad95b8bda5ccb5b1bd8dad959606a1b604482015290519081900360640190fd5b6040805163555ddc6560e11b81526001600160a01b03871660048201527f29ddb589b1fb5fc7cf394961c1adf5f8c6454761adf795e67fe149f658abe89560248201529051600091731820a4b7618bde71dce8cdc73aab6c95905fad249163aabbb8ca91604480820192602092909190829003018186803b158015612a5157600080fd5b505afa158015612a65573d6000803e3d6000fd5b505050506040513d6020811015612a7b57600080fd5b505190506001600160a01b038116156110a757806001600160a01b03166375ab97828888888888886040518763ffffffff1660e01b815260040180876001600160a01b03166001600160a01b03168152602001866001600160a01b03166001600160a01b03168152602001856001600160a01b03166001600160a01b031681526020018481526020018060200180602001838103835285818151815260200191508051906020019080838360005b83811015612b41578181015183820152602001612b29565b50505050905090810190601f168015612b6e5780820380516001836020036101000a031916815260200191505b50838103825284518152845160209182019186019080838360005b83811015612ba1578181015183820152602001612b89565b50505050905090810190601f168015612bce5780820380516001836020036101000a031916815260200191505b5098505050505050505050600060405180830381600087803b158015612bf357600080fd5b505af1158015612c07573d6000803e3d6000fd5b5050505050505050505050565b6000813f7fc5d2460186f7233c927e7db2dcc703c0e500b653ca82273b7bfad8045d85a4708115801590612c485750808214155b949350505050565b828054600181600116156101000203166002900490600052602060002090601f016020900481019282601f10612c9157805160ff1916838001178555612cbe565b82800160010185558215612cbe579182015b82811115612cbe578251825591602001919060010190612ca3565b50612cca929150612d2f565b5090565b828054828255906000526020600020908101928215612d23579160200282015b82811115612d2357825182546001600160a01b0319166001600160a01b03909116178255602090920191600190910190612cee565b50612cca929150612d49565b610b7791905b80821115612cca5760008155600101612d35565b610b7791905b80821115612cca5780546001600160a01b0319168155600101612d4f56fe436f6e747261637420696e7374616e63652068617320616c7265616479206265656e20696e697469616c697a6564ddf252ad1be2c89b69c2b068fc378daa952ba7f163c4a11628f55a4df523b3efa265627a7a72315820a70f321f2635007353f8857659d0277ec5a9194e6264f62d98cd5f52af316a5464736f6c634300050c0032",
  "source": "/**\nCopyright 2020 PoolTogether Inc.\n\nThis file is part of PoolTogether.\n\nPoolTogether is free software: you can redistribute it and/or modify\nit under the terms of the GNU General Public License as published by\nthe Free Software Foundation under version 3 of the License.\n\nPoolTogether is distributed in the hope that it will be useful,\nbut WITHOUT ANY WARRANTY; without even the implied warranty of\nMERCHANTABILITY or FITNESS FOR A PARTICULAR PURPOSE.  See the\nGNU General Public License for more details.\n\nYou should have received a copy of the GNU General Public License\nalong with PoolTogether.  If not, see <https://www.gnu.org/licenses/>.\n*/\n\npragma solidity 0.5.12;\n\nimport \"./PoolToken.sol\";\n\n/**\n * @title RecipientWhitelistPoolToken\n * @author Brendan Asselstine\n * @notice Allows the pool admins to only allow token transfers to particular addresses.\n */\ncontract RecipientWhitelistPoolToken is PoolToken {\n  /**\n   * @notice Whether the whitelist is enabled\n   */\n  bool internal _recipientWhitelistEnabled;\n\n  /**\n   * @notice Whether a recipient has been whitelisted\n   */\n  mapping(address => bool) internal _recipientWhitelist;\n\n  /**\n   * @notice Emitted when the whitelist is enabled or disabled\n   * @param admin The admin who affected the change.\n   * @param enabled Whether the whitelist was enabled.\n   */\n  event WhitelistEnabled(address indexed admin, bool enabled);\n\n  /**\n   * @notice Emitted when a recipient whitelist status changes.\n   * @param admin The admin who affected the change\n   * @param recipient The recipient whose whitelisting status was changed\n   * @param whitelisted Whether the recipient was whitelisted\n   */\n  event RecipientWhitelisted(address indexed admin, address indexed recipient, bool whitelisted);\n\n  /**\n   * @notice Returns whether the whitelist is enabled.  If enabled, recipients must be whitelisted in order to receive tokens.\n   * Otherwise if the whitelist is not enabled anyone is able to receive tokens.\n   * @return True if whitelist enabled, false otherwise.\n   */\n  function recipientWhitelistEnabled() public view returns (bool) {\n    return _recipientWhitelistEnabled;\n  }\n\n  /**\n   * @notice Checks whether a recipient has been whitelisted.  This is irrespective of whether whitelisting is enabled or not.\n   * @return True if the recipient has been whitelisted, false otherwise.\n   */\n  function recipientWhitelisted(address _recipient) public view returns (bool) {\n    return _recipientWhitelist[_recipient];\n  }\n\n  /**\n   * @notice Sets whether recipient whitelisting is enabled.  Only callable by the Pool admin.\n   * @param _enabled True if whitelisting should be enabled, false otherwise\n   */\n  function setRecipientWhitelistEnabled(bool _enabled) public onlyAdmin {\n    _recipientWhitelistEnabled = _enabled;\n\n    emit WhitelistEnabled(msg.sender, _enabled);\n  }\n\n  /**\n   * @notice Sets whether the recipient should be whitelisted.  Only callable by the Pool admin.\n   * @param _recipient The recipient to whitelist\n   * @param _whitelisted True if the recipient should be whitelisted, false otherwise\n   */\n  function setRecipientWhitelisted(address _recipient, bool _whitelisted) public onlyAdmin {\n    _recipientWhitelist[_recipient] = _whitelisted;\n\n    emit RecipientWhitelisted(msg.sender, _recipient, _whitelisted);\n  }\n\n  /**\n    * @dev Call from.tokensToSend() if the interface is registered\n    * @param operator address operator requesting the transfer\n    * @param from address token holder address\n    * @param to address recipient address.  Can only be whitelisted addresses, if any\n    * @param amount uint256 amount of tokens to transfer\n    * @param userData bytes extra information provided by the token holder (if any)\n    * @param operatorData bytes extra information provided by the operator (if any)\n    */\n  function _callTokensToSend(\n      address operator,\n      address from,\n      address to,\n      uint256 amount,\n      bytes memory userData,\n      bytes memory operatorData\n  )\n      internal\n  {\n      if (_recipientWhitelistEnabled) {\n        require(to == address(0) || _recipientWhitelist[to], \"Pool/not-list\");\n      }\n      super._callTokensToSend(operator, from, to, amount, userData, operatorData);\n  }\n\n  /**\n   * @notice Requires the caller to be the Pool admin\n   */\n  modifier onlyAdmin() {\n    require(pool().isAdmin(msg.sender), \"WhitelistToken/is-admin\");\n    _;\n  }\n}\n",
  "sourcePath": "/home/manjain/Documents/LetsPool/src/pooltogether-contracts/contracts/RecipientWhitelistPoolToken.sol",
  "compiler": {
    "name": "solc",
    "version": "0.5.12+commit.7709ece9.Emscripten.clang"
  },
  "schemaVersion": "3.1.0",
  "updatedAt": "2020-05-21T20:34:55.080Z",
  "devdoc": {
    "author": "Brendan Asselstine",
    "methods": {
      "allowance(address,address)": {
        "details": "See {IERC20-allowance}.    * Note that operator and allowance concepts are orthogonal: operators may not have allowance, and accounts with allowance may not be operators themselves."
      },
      "approve(address,uint256)": {
        "details": "See {IERC20-approve}.    * Note that accounts cannot have allowance issued by their operators."
      },
      "authorizeOperator(address)": {
        "details": "See {IERC777-authorizeOperator}."
      },
      "balanceOf(address)": {
        "details": "See {IERC20-balanceOf}."
      },
      "burn(uint256,bytes)": {
        "details": "See {IERC777-burn}.  Not currently implemented.    * Also emits a {Transfer} event for ERC20 compatibility."
      },
      "decimals()": {
        "details": "See {ERC20Detailed-decimals}.    * Always returns 18, as per the [ERC777 EIP](https://eips.ethereum.org/EIPS/eip-777#backward-compatibility)."
      },
      "decreaseAllowance(address,uint256)": {
        "details": "Atomically decreases the allowance granted to `spender` by the caller.    * This is an alternative to {approve} that can be used as a mitigation for problems described in {IERC20-approve}.    * Emits an {Approval} event indicating the updated allowance.    * Requirements:    * - `spender` cannot be the zero address. - `spender` must have allowance for the caller of at least `subtractedValue`."
      },
      "defaultOperators()": {
        "details": "See {IERC777-defaultOperators}."
      },
      "granularity()": {
        "details": "See {IERC777-granularity}.    * This implementation always returns `1`."
      },
      "increaseAllowance(address,uint256)": {
        "details": "Atomically increases the allowance granted to `spender` by the caller.    * This is an alternative to {approve} that can be used as a mitigation for problems described in {IERC20-approve}.    * Emits an {Approval} event indicating the updated allowance.    * Requirements:    * - `spender` cannot be the zero address."
      },
      "init(string,string,address[],address)": {
        "params": {
          "defaultOperators": "The default operators who are allowed to move tokens",
          "name": "The name of the token",
          "symbol": "The token symbol"
        }
      },
      "isOperatorFor(address,address)": {
        "details": "See {IERC777-isOperatorFor}."
      },
      "name()": {
        "details": "See {IERC777-name}."
      },
      "operatorBurn(address,uint256,bytes,bytes)": {
        "details": "See {IERC777-operatorBurn}.    * Currently not supported"
      },
      "operatorRedeem(address,uint256,bytes,bytes)": {
        "details": "Allows an operator to redeem tokens for the underlying asset on behalf of a user.    * Emits {Redeemed} and {Transfer} events."
      },
      "operatorSend(address,address,uint256,bytes,bytes)": {
        "details": "See {IERC777-operatorSend}.    * Emits {Sent} and {Transfer} events."
      },
      "pool()": {
        "return": "The address of the pool contract"
      },
      "poolMint(uint256)": {
        "params": {
          "amount": "The amount that was minted"
        }
      },
      "poolRedeem(address,uint256)": {
        "params": {
          "amount": "The amount of tokens to redeem",
          "from": "The address from which to redeem tokens"
        }
      },
      "recipientWhitelistEnabled()": {
        "return": "True if whitelist enabled, false otherwise."
      },
      "recipientWhitelisted(address)": {
        "return": "True if the recipient has been whitelisted, false otherwise."
      },
      "redeem(uint256,bytes)": {
        "details": "Allows a user to withdraw their tokens as the underlying asset.    * Also emits a {Transfer} event for ERC20 compatibility."
      },
      "revokeOperator(address)": {
        "details": "See {IERC777-revokeOperator}."
      },
      "send(address,uint256,bytes)": {
        "details": "See {IERC777-send}.    * Also emits a {Transfer} event for ERC20 compatibility."
      },
      "setRecipientWhitelistEnabled(bool)": {
        "params": {
          "_enabled": "True if whitelisting should be enabled, false otherwise"
        }
      },
      "setRecipientWhitelisted(address,bool)": {
        "params": {
          "_recipient": "The recipient to whitelist",
          "_whitelisted": "True if the recipient should be whitelisted, false otherwise"
        }
      },
      "symbol()": {
        "details": "See {IERC777-symbol}."
      },
      "totalSupply()": {
        "details": "See {IERC777-totalSupply}."
      },
      "transfer(address,uint256)": {
        "details": "See {IERC20-transfer}.    * Unlike `send`, `recipient` is _not_ required to implement the {IERC777Recipient} interface if it is a contract.    * Also emits a {Sent} event."
      },
      "transferFrom(address,address,uint256)": {
        "details": "See {IERC20-transferFrom}.  * Note that operator and allowance concepts are orthogonal: operators cannot call `transferFrom` (unless they have allowance), and accounts with allowance cannot call `operatorSend` (unless they are operators).  * Emits {Sent}, {Transfer} and {Approval} events."
      }
    },
    "title": "RecipientWhitelistPoolToken"
  },
  "userdoc": {
    "methods": {
      "init(string,string,address[],address)": {
        "notice": "Initializes the PoolToken."
      },
      "pool()": {
        "notice": "Returns the address of the Pool contract"
      },
      "poolMint(uint256)": {
        "notice": "Called by the associated Pool to emit `Mint` events."
      },
      "poolRedeem(address,uint256)": {
        "notice": "Calls the ERC777 transfer hook, and emits Redeemed and Transfer.  Can only be called by the Pool contract."
      },
      "recipientWhitelistEnabled()": {
        "notice": "Returns whether the whitelist is enabled.  If enabled, recipients must be whitelisted in order to receive tokens. Otherwise if the whitelist is not enabled anyone is able to receive tokens."
      },
      "recipientWhitelisted(address)": {
        "notice": "Checks whether a recipient has been whitelisted.  This is irrespective of whether whitelisting is enabled or not."
      },
      "setRecipientWhitelistEnabled(bool)": {
        "notice": "Sets whether recipient whitelisting is enabled.  Only callable by the Pool admin."
      },
      "setRecipientWhitelisted(address,bool)": {
        "notice": "Sets whether the recipient should be whitelisted.  Only callable by the Pool admin."
      }
    },
    "notice": "Allows the pool admins to only allow token transfers to particular addresses."
  }
}