{
  "contractName": "ReentrancyGuard",
  "abi": [
    {
      "constant": false,
      "inputs": [],
      "name": "initialize",
      "outputs": [],
      "payable": false,
      "stateMutability": "nonpayable",
      "type": "function"
    }
  ],
  "bytecode": "0x608060405234801561001057600080fd5b5061014a806100206000396000f3fe608060405234801561001057600080fd5b506004361061002b5760003560e01c80638129fc1c14610030575b600080fd5b61003861003a565b005b600054610100900460ff168061005357506100536100e1565b80610061575060005460ff16155b61009c5760405162461bcd60e51b815260040180806020018281038252602e8152602001806100e8602e913960400191505060405180910390fd5b600054610100900460ff161580156100c7576000805460ff1961ff0019909116610100171660011790555b600160335580156100de576000805461ff00191690555b50565b303b159056fe436f6e747261637420696e7374616e63652068617320616c7265616479206265656e20696e697469616c697a6564a265627a7a72315820ddfaecfc3e17f1b1b5a80c14328492954fbd179299a414677b54e1fd94040e2064736f6c634300050c0032",
  "source": "pragma solidity ^0.5.0;\n\nimport \"@openzeppelin/upgrades/contracts/Initializable.sol\";\n\n/**\n * @dev Contract module that helps prevent reentrant calls to a function.\n *\n * Inheriting from `ReentrancyGuard` will make the {nonReentrant} modifier\n * available, which can be applied to functions to make sure there are no nested\n * (reentrant) calls to them.\n *\n * Note that because there is a single `nonReentrant` guard, functions marked as\n * `nonReentrant` may not call one another. This can be worked around by making\n * those functions `private`, and then adding `external` `nonReentrant` entry\n * points to them.\n */\ncontract ReentrancyGuard is Initializable {\n    // counter to allow mutex lock with only one SSTORE operation\n    uint256 private _guardCounter;\n\n    function initialize() public initializer {\n        // The counter starts at one to prevent changing it from zero to a non-zero\n        // value, which is a more expensive operation.\n        _guardCounter = 1;\n    }\n\n    /**\n     * @dev Prevents a contract from calling itself, directly or indirectly.\n     * Calling a `nonReentrant` function from another `nonReentrant`\n     * function is not supported. It is possible to prevent this from happening\n     * by making the `nonReentrant` function external, and make it call a\n     * `private` function that does the actual work.\n     */\n    modifier nonReentrant() {\n        _guardCounter += 1;\n        uint256 localCounter = _guardCounter;\n        _;\n        require(localCounter == _guardCounter, \"ReentrancyGuard: reentrant call\");\n    }\n\n    uint256[50] private ______gap;\n}\n",
  "sourcePath": "@openzeppelin/contracts-ethereum-package/contracts/utils/ReentrancyGuard.sol",
  "compiler": {
    "name": "solc",
    "version": "0.5.12+commit.7709ece9.Emscripten.clang"
  },
  "schemaVersion": "3.1.0",
  "updatedAt": "2020-05-21T20:34:55.116Z",
  "devdoc": {
    "details": "Contract module that helps prevent reentrant calls to a function. * Inheriting from `ReentrancyGuard` will make the {nonReentrant} modifier available, which can be applied to functions to make sure there are no nested (reentrant) calls to them. * Note that because there is a single `nonReentrant` guard, functions marked as `nonReentrant` may not call one another. This can be worked around by making those functions `private`, and then adding `external` `nonReentrant` entry points to them.",
    "methods": {}
  },
  "userdoc": {
    "methods": {}
  }
}