{
  "contractName": "ScdMcdMigration",
  "abi": [
    {
      "inputs": [
        {
          "internalType": "address",
          "name": "tub_",
          "type": "address"
        },
        {
          "internalType": "address",
          "name": "cdpManager_",
          "type": "address"
        },
        {
          "internalType": "address",
          "name": "saiJoin_",
          "type": "address"
        },
        {
          "internalType": "address",
          "name": "wethJoin_",
          "type": "address"
        },
        {
          "internalType": "address",
          "name": "daiJoin_",
          "type": "address"
        }
      ],
      "payable": false,
      "stateMutability": "nonpayable",
      "type": "constructor"
    },
    {
      "constant": true,
      "inputs": [],
      "name": "cdpManager",
      "outputs": [
        {
          "internalType": "contract ManagerLike",
          "name": "",
          "type": "address"
        }
      ],
      "payable": false,
      "stateMutability": "view",
      "type": "function"
    },
    {
      "constant": true,
      "inputs": [],
      "name": "daiJoin",
      "outputs": [
        {
          "internalType": "contract JoinLike",
          "name": "",
          "type": "address"
        }
      ],
      "payable": false,
      "stateMutability": "view",
      "type": "function"
    },
    {
      "constant": true,
      "inputs": [],
      "name": "saiJoin",
      "outputs": [
        {
          "internalType": "contract JoinLike",
          "name": "",
          "type": "address"
        }
      ],
      "payable": false,
      "stateMutability": "view",
      "type": "function"
    },
    {
      "constant": true,
      "inputs": [],
      "name": "tub",
      "outputs": [
        {
          "internalType": "contract SaiTubLike",
          "name": "",
          "type": "address"
        }
      ],
      "payable": false,
      "stateMutability": "view",
      "type": "function"
    },
    {
      "constant": true,
      "inputs": [],
      "name": "vat",
      "outputs": [
        {
          "internalType": "contract VatLike",
          "name": "",
          "type": "address"
        }
      ],
      "payable": false,
      "stateMutability": "view",
      "type": "function"
    },
    {
      "constant": true,
      "inputs": [],
      "name": "wethJoin",
      "outputs": [
        {
          "internalType": "contract JoinLike",
          "name": "",
          "type": "address"
        }
      ],
      "payable": false,
      "stateMutability": "view",
      "type": "function"
    },
    {
      "constant": false,
      "inputs": [
        {
          "internalType": "uint256",
          "name": "wad",
          "type": "uint256"
        }
      ],
      "name": "swapSaiToDai",
      "outputs": [],
      "payable": false,
      "stateMutability": "nonpayable",
      "type": "function"
    },
    {
      "constant": false,
      "inputs": [
        {
          "internalType": "uint256",
          "name": "wad",
          "type": "uint256"
        }
      ],
      "name": "swapDaiToSai",
      "outputs": [],
      "payable": false,
      "stateMutability": "nonpayable",
      "type": "function"
    },
    {
      "constant": false,
      "inputs": [
        {
          "internalType": "bytes32",
          "name": "cup",
          "type": "bytes32"
        }
      ],
      "name": "migrate",
      "outputs": [
        {
          "internalType": "uint256",
          "name": "cdp",
          "type": "uint256"
        }
      ],
      "payable": false,
      "stateMutability": "nonpayable",
      "type": "function"
    }
  ],
  "bytecode": "0x60806040523480156200001157600080fd5b5060405162001cd138038062001cd1833981810160405260a08110156200003757600080fd5b5080516020808301516040808501516060860151608090960151600080546001600160a01b038089166001600160a01b031992831617909255600280548388169216919091179081905584517f36569e77000000000000000000000000000000000000000000000000000000008152945197989597939692949116926336569e7792600480840193919291829003018186803b158015620000d757600080fd5b505afa158015620000ec573d6000803e3d6000fd5b505050506040513d60208110156200010357600080fd5b5051600180546001600160a01b03199081166001600160a01b03938416179091556003805482168684161790556004805482168584161781556005805490921684841617909155600054604080517f7bd2bea700000000000000000000000000000000000000000000000000000000815290519190931692637bd2bea79281810192602092909190829003018186803b158015620001a057600080fd5b505afa158015620001b5573d6000803e3d6000fd5b505050506040513d6020811015620001cc57600080fd5b505160048054604080517f7bd2bea700000000000000000000000000000000000000000000000000000000815290516001600160a01b039485169490921692637bd2bea79282820192602092908290030181600087803b1580156200023057600080fd5b505af115801562000245573d6000803e3d6000fd5b505050506040513d60208110156200025c57600080fd5b50516001600160a01b031614620002d457604080517f08c379a000000000000000000000000000000000000000000000000000000000815260206004820152601160248201527f6e6f6e2d6d61746368696e672d77657468000000000000000000000000000000604482015290519081900360640190fd5b6000809054906101000a90046001600160a01b03166001600160a01b0316639166cba46040518163ffffffff1660e01b815260040160206040518083038186803b1580156200032257600080fd5b505afa15801562000337573d6000803e3d6000fd5b505050506040513d60208110156200034e57600080fd5b5051600354604080517f7bd2bea700000000000000000000000000000000000000000000000000000000815290516001600160a01b039384169390921691637bd2bea7916004808201926020929091908290030181600087803b158015620003b557600080fd5b505af1158015620003ca573d6000803e3d6000fd5b505050506040513d6020811015620003e157600080fd5b50516001600160a01b0316146200045957604080517f08c379a000000000000000000000000000000000000000000000000000000000815260206004820152601060248201527f6e6f6e2d6d61746368696e672d73616900000000000000000000000000000000604482015290519081900360640190fd5b6000809054906101000a90046001600160a01b03166001600160a01b03166312d43a516040518163ffffffff1660e01b815260040160206040518083038186803b158015620004a757600080fd5b505afa158015620004bc573d6000803e3d6000fd5b505050506040513d6020811015620004d357600080fd5b505160008054604080517f095ea7b30000000000000000000000000000000000000000000000000000000081526001600160a01b03928316600482015260001960248201529051919093169263095ea7b392604480830193919282900301818387803b1580156200054357600080fd5b505af115801562000558573d6000803e3d6000fd5b505050506000809054906101000a90046001600160a01b03166001600160a01b0316630f8a771e6040518163ffffffff1660e01b815260040160206040518083038186803b158015620005aa57600080fd5b505afa158015620005bf573d6000803e3d6000fd5b505050506040513d6020811015620005d657600080fd5b505160008054604080517f095ea7b30000000000000000000000000000000000000000000000000000000081526001600160a01b03928316600482015260001960248201529051919093169263095ea7b392604480830193919282900301818387803b1580156200064657600080fd5b505af11580156200065b573d6000803e3d6000fd5b505050506000809054906101000a90046001600160a01b03166001600160a01b0316639166cba46040518163ffffffff1660e01b815260040160206040518083038186803b158015620006ad57600080fd5b505afa158015620006c2573d6000803e3d6000fd5b505050506040513d6020811015620006d957600080fd5b505160008054604080517f095ea7b30000000000000000000000000000000000000000000000000000000081526001600160a01b03928316600482015260001960248201529051919093169263095ea7b392604480830193919282900301818387803b1580156200074957600080fd5b505af11580156200075e573d6000803e3d6000fd5b505050506000809054906101000a90046001600160a01b03166001600160a01b0316639166cba46040518163ffffffff1660e01b815260040160206040518083038186803b158015620007b057600080fd5b505afa158015620007c5573d6000803e3d6000fd5b505050506040513d6020811015620007dc57600080fd5b5051600354604080517f095ea7b30000000000000000000000000000000000000000000000000000000081526001600160a01b03928316600482015260001960248201529051919092169163095ea7b391604480830192600092919082900301818387803b1580156200084e57600080fd5b505af115801562000863573d6000803e3d6000fd5b505060048054604080517f7bd2bea700000000000000000000000000000000000000000000000000000000815290516001600160a01b039092169450637bd2bea7935080830192602092918290030181600087803b158015620008c557600080fd5b505af1158015620008da573d6000803e3d6000fd5b505050506040513d6020811015620008f157600080fd5b505160048054604080517f095ea7b30000000000000000000000000000000000000000000000000000000081526001600160a01b039283169381019390935260001960248401525192169163095ea7b39160448082019260009290919082900301818387803b1580156200096457600080fd5b505af115801562000979573d6000803e3d6000fd5b50505050600560009054906101000a90046001600160a01b03166001600160a01b031663f4b9fa756040518163ffffffff1660e01b8152600401602060405180830381600087803b158015620009ce57600080fd5b505af1158015620009e3573d6000803e3d6000fd5b505050506040513d6020811015620009fa57600080fd5b5051600554604080517f095ea7b30000000000000000000000000000000000000000000000000000000081526001600160a01b03928316600482015260001960248201529051919092169163095ea7b391604480830192600092919082900301818387803b15801562000a6c57600080fd5b505af115801562000a81573d6000803e3d6000fd5b5050600154600554604080517fa3b22fc40000000000000000000000000000000000000000000000000000000081526001600160a01b039283166004820152905191909216935063a3b22fc49250602480830192600092919082900301818387803b15801562000af057600080fd5b505af115801562000b05573d6000803e3d6000fd5b5050505050505050506111b38062000b1e6000396000f3fe608060405234801561001057600080fd5b50600436106100935760003560e01c8063bb038e1511610066578063bb038e15146100d4578063c11645bc146100dc578063c41780ba146100e4578063e19b8ee314610103578063fbabdebd1461013257610093565b80630b14408f146100985780632dbacef3146100bc57806334e70cc2146100c457806336569e77146100cc575b600080fd5b6100a061014f565b604080516001600160a01b039092168252519081900360200190f35b6100a061015e565b6100a061016d565b6100a061017c565b6100a061018b565b6100a061019a565b610101600480360360208110156100fa57600080fd5b50356101a9565b005b6101206004803603602081101561011957600080fd5b503561049d565b60408051918252519081900360200190f35b6101016004803603602081101561014857600080fd5b5035610dd9565b6003546001600160a01b031681565b6004546001600160a01b031681565b6000546001600160a01b031681565b6001546001600160a01b031681565b6002546001600160a01b031681565b6005546001600160a01b031681565b600560009054906101000a90046001600160a01b03166001600160a01b031663f4b9fa756040518163ffffffff1660e01b8152600401602060405180830381600087803b1580156101f957600080fd5b505af115801561020d573d6000803e3d6000fd5b505050506040513d602081101561022357600080fd5b5051604080516323b872dd60e01b81523360048201523060248201526044810184905290516001600160a01b03909216916323b872dd916064808201926020929091908290030181600087803b15801561027c57600080fd5b505af1158015610290573d6000803e3d6000fd5b505050506040513d60208110156102a657600080fd5b505060055460408051633b4da69f60e01b81523060048201526024810184905290516001600160a01b0390921691633b4da69f9160448082019260009290919082900301818387803b1580156102fb57600080fd5b505af115801561030f573d6000803e3d6000fd5b5050600154600354604080516362e7140f60e11b815290516001600160a01b03938416955063760887039450919092169163c5ce281e9160048083019260209291908290030181600087803b15801561036757600080fd5b505af115801561037b573d6000803e3d6000fd5b505050506040513d602081101561039157600080fd5b505130808061039f876110d2565b6000036103ab886110d2565b604080516001600160e01b031960e08a901b16815260048101979097526001600160a01b03958616602488015293851660448701529190931660648501526084840192909252600091820360a48401525160c48084019382900301818387803b15801561041757600080fd5b505af115801561042b573d6000803e3d6000fd5b50506003546040805163ef693bed60e01b81523360048201526024810186905290516001600160a01b03909216935063ef693bed925060448082019260009290919082900301818387803b15801561048257600080fd5b505af1158015610496573d6000803e3d6000fd5b5050505050565b6000805460408051633df2358d60e21b815260048101859052905183926001600160a01b03169163f7c8d63491602480830192602092919082900301818787803b1580156104ea57600080fd5b505af11580156104fe573d6000803e3d6000fd5b505050506040513d602081101561051457600080fd5b50516000805460408051631f3634ed60e01b815260048101889052905193945091926001600160a01b0390911691631f3634ed916024808301926020929190829003018186803b15801561056757600080fd5b505afa15801561057b573d6000803e3d6000fd5b505050506040513d602081101561059157600080fd5b5051600080546040805163454a2ab360e01b815260048101859052905193945091926001600160a01b039091169163454a2ab3916024808301926020929190829003018186803b1580156105e457600080fd5b505afa1580156105f8573d6000803e3d6000fd5b505050506040513d602081101561060e57600080fd5b5051600154600354604080516362e7140f60e11b815290519394506001600160a01b03928316936376088703939092169163c5ce281e916004808201926020929091908290030181600087803b15801561066757600080fd5b505af115801561067b573d6000803e3d6000fd5b505050506040513d602081101561069157600080fd5b505130808061069f896110d2565b604080516001600160e01b031960e089901b16815260048101969096526001600160a01b0394851660248701529284166044860152921660648401526000918203608484015260a483018290525160c48084019382900301818387803b15801561070857600080fd5b505af115801561071c573d6000803e3d6000fd5b50506003546040805163ef693bed60e01b81523060048201526024810188905290516001600160a01b03909216935063ef693bed925060448082019260009290919082900301818387803b15801561077357600080fd5b505af1158015610787573d6000803e3d6000fd5b50506000805460408051635c26908360e11b8152600481018b905290516001600160a01b03909216945063b84d21069350602480820193929182900301818387803b1580156107d557600080fd5b505af11580156107e9573d6000803e3d6000fd5b50506000805460408051637f8661a160e01b81526004810188905290516001600160a01b039092169450637f8661a19350602480820193929182900301818387803b15801561083757600080fd5b505af115801561084b573d6000803e3d6000fd5b505060025460048054604080516362e7140f60e11b815290516001600160a01b039485169650636090dec59550939091169263c5ce281e928281019260209291908290030181600087803b1580156108a257600080fd5b505af11580156108b6573d6000803e3d6000fd5b505050506040513d60208110156108cc57600080fd5b5051604080516001600160e01b031960e085901b16815260048101929092523060248301525160448083019260209291908290030181600087803b15801561091357600080fd5b505af1158015610927573d6000803e3d6000fd5b505050506040513d602081101561093d57600080fd5b50516004805460025460408051632726b07360e01b8152938401859052519397506001600160a01b0391821693633b4da69f939290911691632726b073916024808301926020929190829003018186803b15801561099a57600080fd5b505afa1580156109ae573d6000803e3d6000fd5b505050506040513d60208110156109c457600080fd5b5051604080516001600160e01b031960e085901b1681526001600160a01b0390921660048301526024820185905251604480830192600092919082900301818387803b158015610a1357600080fd5b505af1158015610a27573d6000803e3d6000fd5b505060015460048054604080516362e7140f60e11b81529051600096506001600160a01b03948516955063d9638d36949092169263c5ce281e92828201926020929082900301818987803b158015610a7e57600080fd5b505af1158015610a92573d6000803e3d6000fd5b505050506040513d6020811015610aa857600080fd5b5051604080516001600160e01b031960e085901b16815260048101929092525160248083019260a0929190829003018186803b158015610ae757600080fd5b505afa158015610afb573d6000803e3d6000fd5b505050506040513d60a0811015610b1157600080fd5b50602001516002549091506001600160a01b03166345e6bdcd86610b34856110d2565b610b5e85610b4e8a6b033b2e3c9fd0803ce800000061111d565b81610b5557fe5b046001016110d2565b6040518463ffffffff1660e01b8152600401808481526020018381526020018281526020019350505050600060405180830381600087803b158015610ba257600080fd5b505af1158015610bb6573d6000803e3d6000fd5b50506002546001600160a01b0316915063f9f30db690508630610be5886b033b2e3c9fd0803ce800000061111d565b6040518463ffffffff1660e01b815260040180848152602001836001600160a01b03166001600160a01b031681526020018281526020019350505050600060405180830381600087803b158015610c3b57600080fd5b505af1158015610c4f573d6000803e3d6000fd5b5050600154600354604080516362e7140f60e11b815290516001600160a01b03938416955063760887039450919092169163c5ce281e9160048083019260209291908290030181600087803b158015610ca757600080fd5b505af1158015610cbb573d6000803e3d6000fd5b505050506040513d6020811015610cd157600080fd5b50513080806000610ce18b6110d2565b604080516001600160e01b031960e08a901b16815260048101979097526001600160a01b03958616602488015293851660448701529190931660648501526084840192909252600091820360a48401525160c48084019382900301818387803b158015610d4d57600080fd5b505af1158015610d61573d6000803e3d6000fd5b505060025460408051631f95f98d60e31b8152600481018a905233602482015290516001600160a01b03909216935063fcafcc68925060448082019260009290919082900301818387803b158015610db857600080fd5b505af1158015610dcc573d6000803e3d6000fd5b5050505050505050919050565b600360009054906101000a90046001600160a01b03166001600160a01b0316637bd2bea76040518163ffffffff1660e01b8152600401602060405180830381600087803b158015610e2957600080fd5b505af1158015610e3d573d6000803e3d6000fd5b505050506040513d6020811015610e5357600080fd5b5051604080516323b872dd60e01b81523360048201523060248201526044810184905290516001600160a01b03909216916323b872dd916064808201926020929091908290030181600087803b158015610eac57600080fd5b505af1158015610ec0573d6000803e3d6000fd5b505050506040513d6020811015610ed657600080fd5b505060035460408051633b4da69f60e01b81523060048201526024810184905290516001600160a01b0390921691633b4da69f9160448082019260009290919082900301818387803b158015610f2b57600080fd5b505af1158015610f3f573d6000803e3d6000fd5b5050600154600354604080516362e7140f60e11b815290516001600160a01b03938416955063760887039450919092169163c5ce281e9160048083019260209291908290030181600087803b158015610f9757600080fd5b505af1158015610fab573d6000803e3d6000fd5b505050506040513d6020811015610fc157600080fd5b5051308080610fcf876110d2565b610fd8886110d2565b6040518763ffffffff1660e01b815260040180878152602001866001600160a01b03166001600160a01b03168152602001856001600160a01b03166001600160a01b03168152602001846001600160a01b03166001600160a01b031681526020018381526020018281526020019650505050505050600060405180830381600087803b15801561106757600080fd5b505af115801561107b573d6000803e3d6000fd5b50506005546040805163ef693bed60e01b81523360048201526024810186905290516001600160a01b03909216935063ef693bed925060448082019260009290919082900301818387803b15801561048257600080fd5b806000811215611118576040805162461bcd60e51b815260206004820152600c60248201526b696e742d6f766572666c6f7760a01b604482015290519081900360640190fd5b919050565b60008115806111385750508082028282828161113557fe5b04145b611178576040805162461bcd60e51b815260206004820152600c60248201526b6d756c2d6f766572666c6f7760a01b604482015290519081900360640190fd5b9291505056fea265627a7a723158209c698700cd2ca61d7350e30798e4f4b0f432e8eb0196b0a4138b552613f8179d64736f6c634300050c0032",
  "source": "pragma solidity 0.5.12;\n\nimport { JoinLike, ManagerLike, SaiTubLike, VatLike } from \"./Interfaces.sol\";\n\ncontract ScdMcdMigration {\n    SaiTubLike                  public tub;\n    VatLike                     public vat;\n    ManagerLike                 public cdpManager;\n    JoinLike                    public saiJoin;\n    JoinLike                    public wethJoin;\n    JoinLike                    public daiJoin;\n\n    constructor(\n        address tub_,           // SCD tub contract address\n        address cdpManager_,    // MCD manager contract address\n        address saiJoin_,       // MCD SAI collateral adapter contract address\n        address wethJoin_,      // MCD ETH collateral adapter contract address\n        address daiJoin_        // MCD DAI adapter contract address\n    ) public {\n        tub = SaiTubLike(tub_);\n        cdpManager = ManagerLike(cdpManager_);\n        vat = VatLike(cdpManager.vat());\n        saiJoin = JoinLike(saiJoin_);\n        wethJoin = JoinLike(wethJoin_);\n        daiJoin = JoinLike(daiJoin_);\n\n        require(wethJoin.gem() == tub.gem(), \"non-matching-weth\");\n        require(saiJoin.gem() == tub.sai(), \"non-matching-sai\");\n\n        tub.gov().approve(address(tub), uint(-1));\n        tub.skr().approve(address(tub), uint(-1));\n        tub.sai().approve(address(tub), uint(-1));\n        tub.sai().approve(address(saiJoin), uint(-1));\n        wethJoin.gem().approve(address(wethJoin), uint(-1));\n        daiJoin.dai().approve(address(daiJoin), uint(-1));\n        vat.hope(address(daiJoin));\n    }\n\n    function add(uint x, uint y) internal pure returns (uint z) {\n        require((z = x + y) >= x, \"add-overflow\");\n    }\n\n    function sub(uint x, uint y) internal pure returns (uint z) {\n        require((z = x - y) <= x, \"sub-underflow\");\n    }\n\n    function mul(uint x, uint y) internal pure returns (uint z) {\n        require(y == 0 || (z = x * y) / y == x, \"mul-overflow\");\n    }\n\n    function toInt(uint x) internal pure returns (int y) {\n        y = int(x);\n        require(y >= 0, \"int-overflow\");\n    }\n\n    // Function to swap SAI to DAI\n    // This function is to be used by users that want to get new DAI in exchange of old one (aka SAI)\n    // wad amount has to be <= the value pending to reach the debt ceiling (the minimum between general and ilk one)\n    function swapSaiToDai(\n        uint wad\n    ) external {\n        // Get wad amount of SAI from user's wallet:\n        saiJoin.gem().transferFrom(msg.sender, address(this), wad);\n        // Join the SAI wad amount to the `vat`:\n        saiJoin.join(address(this), wad);\n        // Lock the SAI wad amount to the CDP and generate the same wad amount of DAI\n        vat.frob(saiJoin.ilk(), address(this), address(this), address(this), toInt(wad), toInt(wad));\n        // Send DAI wad amount as a ERC20 token to the user's wallet\n        daiJoin.exit(msg.sender, wad);\n    }\n\n    // Function to swap DAI to SAI\n    // This function is to be used by users that want to get SAI in exchange of DAI\n    // wad amount has to be <= the amount of SAI locked (and DAI generated) in the migration contract SAI CDP\n    function swapDaiToSai(\n        uint wad\n    ) external {\n        // Get wad amount of DAI from user's wallet:\n        daiJoin.dai().transferFrom(msg.sender, address(this), wad);\n        // Join the DAI wad amount to the vat:\n        daiJoin.join(address(this), wad);\n        // Payback the DAI wad amount and unlocks the same value of SAI collateral\n        vat.frob(saiJoin.ilk(), address(this), address(this), address(this), -toInt(wad), -toInt(wad));\n        // Send SAI wad amount as a ERC20 token to the user's wallet\n        saiJoin.exit(msg.sender, wad);\n    }\n\n    // Function to migrate a SCD CDP to MCD one (needs to be used via a proxy so the code can be kept simpler). Check MigrationProxyActions.sol code for usage.\n    // In order to use migrate function, SCD CDP debtAmt needs to be <= SAI previously deposited in the SAI CDP * (100% - Collateralization Ratio)\n    function migrate(\n        bytes32 cup\n    ) external returns (uint cdp) {\n        // Get values\n        uint debtAmt = tub.tab(cup);    // CDP SAI debt\n        uint pethAmt = tub.ink(cup);    // CDP locked collateral\n        uint ethAmt = tub.bid(pethAmt); // CDP locked collateral equiv in ETH\n\n        // Take SAI out from MCD SAI CDP. For this operation is necessary to have a very low collateralization ratio\n        // This is not actually a problem as this ilk will only be accessed by this migration contract,\n        // which will make sure to have the amounts balanced out at the end of the execution.\n        vat.frob(\n            bytes32(saiJoin.ilk()),\n            address(this),\n            address(this),\n            address(this),\n            -toInt(debtAmt),\n            0\n        );\n        saiJoin.exit(address(this), debtAmt); // SAI is exited as a token\n\n        // Shut SAI CDP and gets WETH back\n        tub.shut(cup);      // CDP is closed using the SAI just exited and the MKR previously sent by the user (via the proxy call)\n        tub.exit(pethAmt);  // Converts PETH to WETH\n\n        // Open future user's CDP in MCD\n        cdp = cdpManager.open(wethJoin.ilk(), address(this));\n\n        // Join WETH to Adapter\n        wethJoin.join(cdpManager.urns(cdp), ethAmt);\n\n        // Lock WETH in future user's CDP and generate debt to compensate the SAI used to paid the SCD CDP\n        (, uint rate,,,) = vat.ilks(wethJoin.ilk());\n        cdpManager.frob(\n            cdp,\n            toInt(ethAmt),\n            toInt(mul(debtAmt, 10 ** 27) / rate + 1) // To avoid rounding issues we add an extra wei of debt\n        );\n        // Move DAI generated to migration contract (to recover the used funds)\n        cdpManager.move(cdp, address(this), mul(debtAmt, 10 ** 27));\n        // Re-balance MCD SAI migration contract's CDP\n        vat.frob(\n            bytes32(saiJoin.ilk()),\n            address(this),\n            address(this),\n            address(this),\n            0,\n            -toInt(debtAmt)\n        );\n\n        // Set ownership of CDP to the user\n        cdpManager.give(cdp, msg.sender);\n    }\n}\n",
  "sourcePath": "scd-mcd-migration/src/ScdMcdMigration.sol",
  "compiler": {
    "name": "solc",
    "version": "0.5.12+commit.7709ece9.Emscripten.clang"
  },
  "schemaVersion": "3.1.0",
  "updatedAt": "2020-05-21T20:34:55.130Z",
  "devdoc": {
    "methods": {}
  },
  "userdoc": {
    "methods": {}
  }
}