{
  "contractName": "Token",
  "abi": [
    {
      "anonymous": false,
      "inputs": [
        {
          "indexed": true,
          "internalType": "address",
          "name": "owner",
          "type": "address"
        },
        {
          "indexed": true,
          "internalType": "address",
          "name": "spender",
          "type": "address"
        },
        {
          "indexed": false,
          "internalType": "uint256",
          "name": "value",
          "type": "uint256"
        }
      ],
      "name": "Approval",
      "type": "event"
    },
    {
      "anonymous": false,
      "inputs": [
        {
          "indexed": true,
          "internalType": "address",
          "name": "account",
          "type": "address"
        }
      ],
      "name": "MinterAdded",
      "type": "event"
    },
    {
      "anonymous": false,
      "inputs": [
        {
          "indexed": true,
          "internalType": "address",
          "name": "account",
          "type": "address"
        }
      ],
      "name": "MinterRemoved",
      "type": "event"
    },
    {
      "anonymous": false,
      "inputs": [
        {
          "indexed": true,
          "internalType": "address",
          "name": "from",
          "type": "address"
        },
        {
          "indexed": true,
          "internalType": "address",
          "name": "to",
          "type": "address"
        },
        {
          "indexed": false,
          "internalType": "uint256",
          "name": "value",
          "type": "uint256"
        }
      ],
      "name": "Transfer",
      "type": "event"
    },
    {
      "constant": false,
      "inputs": [
        {
          "internalType": "address",
          "name": "account",
          "type": "address"
        }
      ],
      "name": "addMinter",
      "outputs": [],
      "payable": false,
      "stateMutability": "nonpayable",
      "type": "function"
    },
    {
      "constant": true,
      "inputs": [
        {
          "internalType": "address",
          "name": "owner",
          "type": "address"
        },
        {
          "internalType": "address",
          "name": "spender",
          "type": "address"
        }
      ],
      "name": "allowance",
      "outputs": [
        {
          "internalType": "uint256",
          "name": "",
          "type": "uint256"
        }
      ],
      "payable": false,
      "stateMutability": "view",
      "type": "function"
    },
    {
      "constant": false,
      "inputs": [
        {
          "internalType": "address",
          "name": "spender",
          "type": "address"
        },
        {
          "internalType": "uint256",
          "name": "amount",
          "type": "uint256"
        }
      ],
      "name": "approve",
      "outputs": [
        {
          "internalType": "bool",
          "name": "",
          "type": "bool"
        }
      ],
      "payable": false,
      "stateMutability": "nonpayable",
      "type": "function"
    },
    {
      "constant": true,
      "inputs": [
        {
          "internalType": "address",
          "name": "account",
          "type": "address"
        }
      ],
      "name": "balanceOf",
      "outputs": [
        {
          "internalType": "uint256",
          "name": "",
          "type": "uint256"
        }
      ],
      "payable": false,
      "stateMutability": "view",
      "type": "function"
    },
    {
      "constant": true,
      "inputs": [],
      "name": "decimals",
      "outputs": [
        {
          "internalType": "uint256",
          "name": "",
          "type": "uint256"
        }
      ],
      "payable": false,
      "stateMutability": "view",
      "type": "function"
    },
    {
      "constant": false,
      "inputs": [
        {
          "internalType": "address",
          "name": "spender",
          "type": "address"
        },
        {
          "internalType": "uint256",
          "name": "subtractedValue",
          "type": "uint256"
        }
      ],
      "name": "decreaseAllowance",
      "outputs": [
        {
          "internalType": "bool",
          "name": "",
          "type": "bool"
        }
      ],
      "payable": false,
      "stateMutability": "nonpayable",
      "type": "function"
    },
    {
      "constant": false,
      "inputs": [
        {
          "internalType": "address",
          "name": "spender",
          "type": "address"
        },
        {
          "internalType": "uint256",
          "name": "addedValue",
          "type": "uint256"
        }
      ],
      "name": "increaseAllowance",
      "outputs": [
        {
          "internalType": "bool",
          "name": "",
          "type": "bool"
        }
      ],
      "payable": false,
      "stateMutability": "nonpayable",
      "type": "function"
    },
    {
      "constant": true,
      "inputs": [
        {
          "internalType": "address",
          "name": "account",
          "type": "address"
        }
      ],
      "name": "isMinter",
      "outputs": [
        {
          "internalType": "bool",
          "name": "",
          "type": "bool"
        }
      ],
      "payable": false,
      "stateMutability": "view",
      "type": "function"
    },
    {
      "constant": true,
      "inputs": [],
      "name": "name",
      "outputs": [
        {
          "internalType": "string",
          "name": "",
          "type": "string"
        }
      ],
      "payable": false,
      "stateMutability": "view",
      "type": "function"
    },
    {
      "constant": false,
      "inputs": [],
      "name": "renounceMinter",
      "outputs": [],
      "payable": false,
      "stateMutability": "nonpayable",
      "type": "function"
    },
    {
      "constant": true,
      "inputs": [],
      "name": "symbol",
      "outputs": [
        {
          "internalType": "string",
          "name": "",
          "type": "string"
        }
      ],
      "payable": false,
      "stateMutability": "view",
      "type": "function"
    },
    {
      "constant": true,
      "inputs": [],
      "name": "totalSupply",
      "outputs": [
        {
          "internalType": "uint256",
          "name": "",
          "type": "uint256"
        }
      ],
      "payable": false,
      "stateMutability": "view",
      "type": "function"
    },
    {
      "constant": false,
      "inputs": [
        {
          "internalType": "address",
          "name": "recipient",
          "type": "address"
        },
        {
          "internalType": "uint256",
          "name": "amount",
          "type": "uint256"
        }
      ],
      "name": "transfer",
      "outputs": [
        {
          "internalType": "bool",
          "name": "",
          "type": "bool"
        }
      ],
      "payable": false,
      "stateMutability": "nonpayable",
      "type": "function"
    },
    {
      "constant": false,
      "inputs": [
        {
          "internalType": "address",
          "name": "sender",
          "type": "address"
        },
        {
          "internalType": "address",
          "name": "recipient",
          "type": "address"
        },
        {
          "internalType": "uint256",
          "name": "amount",
          "type": "uint256"
        }
      ],
      "name": "transferFrom",
      "outputs": [
        {
          "internalType": "bool",
          "name": "",
          "type": "bool"
        }
      ],
      "payable": false,
      "stateMutability": "nonpayable",
      "type": "function"
    },
    {
      "constant": false,
      "inputs": [
        {
          "internalType": "address",
          "name": "sender",
          "type": "address"
        },
        {
          "internalType": "string",
          "name": "_name",
          "type": "string"
        },
        {
          "internalType": "string",
          "name": "_symbol",
          "type": "string"
        },
        {
          "internalType": "uint256",
          "name": "_decimals",
          "type": "uint256"
        }
      ],
      "name": "initialize",
      "outputs": [],
      "payable": false,
      "stateMutability": "nonpayable",
      "type": "function"
    },
    {
      "constant": false,
      "inputs": [
        {
          "internalType": "address",
          "name": "sender",
          "type": "address"
        }
      ],
      "name": "initialize",
      "outputs": [],
      "payable": false,
      "stateMutability": "nonpayable",
      "type": "function"
    },
    {
      "constant": false,
      "inputs": [
        {
          "internalType": "address",
          "name": "account",
          "type": "address"
        },
        {
          "internalType": "uint256",
          "name": "amount",
          "type": "uint256"
        }
      ],
      "name": "mint",
      "outputs": [
        {
          "internalType": "bool",
          "name": "",
          "type": "bool"
        }
      ],
      "payable": false,
      "stateMutability": "nonpayable",
      "type": "function"
    }
  ],
  "bytecode": "0x60806040526112ea806100136000396000f3fe608060405234801561001057600080fd5b506004361061010b5760003560e01c806370a08231116100a2578063a457c2d711610071578063a457c2d71461041a578063a9059cbb14610446578063aa271e1a14610472578063c4d66de814610498578063dd62ed3e146104be5761010b565b806370a08231146103be57806395d89b41146103e4578063983b2d56146103ec57806398650275146104125761010b565b8063313ce567116100de578063313ce5671461021d578063395093511461022557806340c10f19146102515780634d12d4b61461027d5761010b565b806306fdde0314610110578063095ea7b31461018d57806318160ddd146101cd57806323b872dd146101e7575b600080fd5b6101186104ec565b6040805160208082528351818301528351919283929083019185019080838360005b8381101561015257818101518382015260200161013a565b50505050905090810190601f16801561017f5780820380516001836020036101000a031916815260200191505b509250505060405180910390f35b6101b9600480360360408110156101a357600080fd5b506001600160a01b03813516906020013561057a565b604080519115158252519081900360200190f35b6101d5610597565b60408051918252519081900360200190f35b6101b9600480360360608110156101fd57600080fd5b506001600160a01b0381358116916020810135909116906040013561059e565b6101d561062b565b6101b96004803603604081101561023b57600080fd5b506001600160a01b038135169060200135610631565b6101b96004803603604081101561026757600080fd5b506001600160a01b038135169060200135610685565b6103bc6004803603608081101561029357600080fd5b6001600160a01b0382351691908101906040810160208201356401000000008111156102be57600080fd5b8201836020820111156102d057600080fd5b803590602001918460018302840111640100000000831117156102f257600080fd5b91908080601f016020809104026020016040519081016040528093929190818152602001838380828437600092019190915250929594936020810193503591505064010000000081111561034557600080fd5b82018360208201111561035757600080fd5b8035906020019184600183028401116401000000008311171561037957600080fd5b91908080601f01602080910402602001604051908101604052809392919081815260200183838082843760009201919091525092955050913592506106dc915050565b005b6101d5600480360360208110156103d457600080fd5b50356001600160a01b0316610805565b610118610820565b6103bc6004803603602081101561040257600080fd5b50356001600160a01b031661087b565b6103bc6108cd565b6101b96004803603604081101561043057600080fd5b506001600160a01b0381351690602001356108df565b6101b96004803603604081101561045c57600080fd5b506001600160a01b03813516906020013561094d565b6101b96004803603602081101561048857600080fd5b50356001600160a01b0316610961565b6103bc600480360360208110156104ae57600080fd5b50356001600160a01b031661097a565b6101d5600480360360408110156104d457600080fd5b506001600160a01b0381358116916020013516610a33565b609b805460408051602060026001851615610100026000190190941693909304601f810184900484028201840190925281815292918301828280156105725780601f1061054757610100808354040283529160200191610572565b820191906000526020600020905b81548152906001019060200180831161055557829003601f168201915b505050505081565b600061058e610587610a5e565b8484610a62565b50600192915050565b6035545b90565b60006105ab848484610b4e565b610621846105b7610a5e565b61061c856040518060600160405280602881526020016111d0602891396001600160a01b038a166000908152603460205260408120906105f5610a5e565b6001600160a01b03168152602081019190915260400160002054919063ffffffff610cac16565b610a62565b5060019392505050565b609d5481565b600061058e61063e610a5e565b8461061c856034600061064f610a5e565b6001600160a01b03908116825260208083019390935260409182016000908120918c16815292529020549063ffffffff610d4316565b6000610697610692610a5e565b610961565b6106d25760405162461bcd60e51b815260040180806020018281038252603081526020018061117f6030913960400191505060405180910390fd5b61058e8383610da4565b600054610100900460ff16806106f557506106f5610e96565b80610703575060005460ff16155b61073e5760405162461bcd60e51b815260040180806020018281038252602e81526020018061121a602e913960400191505060405180910390fd5b600054610100900460ff16158015610769576000805460ff1961ff0019909116610100171660011790555b6001600160a01b0385166107b6576040805162461bcd60e51b815260206004820152600f60248201526e506f6f6c2f6f776e65722d7a65726f60881b604482015290519081900360640190fd5b6107bf8561097a565b83516107d290609b90602087019061107b565b5082516107e690609c90602086019061107b565b50609d82905580156107fe576000805461ff00191690555b5050505050565b6001600160a01b031660009081526033602052604090205490565b609c805460408051602060026001851615610100026000190190941693909304601f810184900484028201840190925281815292918301828280156105725780601f1061054757610100808354040283529160200191610572565b610886610692610a5e565b6108c15760405162461bcd60e51b815260040180806020018281038252603081526020018061117f6030913960400191505060405180910390fd5b6108ca81610e9c565b50565b6108dd6108d8610a5e565b610ee4565b565b600061058e6108ec610a5e565b8461061c856040518060600160405280602581526020016112916025913960346000610916610a5e565b6001600160a01b03908116825260208083019390935260409182016000908120918d1681529252902054919063ffffffff610cac16565b600061058e61095a610a5e565b8484610b4e565b600061097460688363ffffffff610f2c16565b92915050565b600054610100900460ff16806109935750610993610e96565b806109a1575060005460ff16155b6109dc5760405162461bcd60e51b815260040180806020018281038252602e81526020018061121a602e913960400191505060405180910390fd5b600054610100900460ff16158015610a07576000805460ff1961ff0019909116610100171660011790555b610a1082610961565b610a1d57610a1d82610e9c565b8015610a2f576000805461ff00191690555b5050565b6001600160a01b03918216600090815260346020908152604080832093909416825291909152205490565b3390565b6001600160a01b038316610aa75760405162461bcd60e51b815260040180806020018281038252602481526020018061126d6024913960400191505060405180910390fd5b6001600160a01b038216610aec5760405162461bcd60e51b81526004018080602001828103825260228152602001806111376022913960400191505060405180910390fd5b6001600160a01b03808416600081815260346020908152604080832094871680845294825291829020859055815185815291517f8c5be1e5ebec7d5bd14f71427d1e84f3dd0314c0f7b2291e5b200ac8c7c3b9259281900390910190a3505050565b6001600160a01b038316610b935760405162461bcd60e51b81526004018080602001828103825260258152602001806112486025913960400191505060405180910390fd5b6001600160a01b038216610bd85760405162461bcd60e51b81526004018080602001828103825260238152602001806111146023913960400191505060405180910390fd5b610c1b81604051806060016040528060268152602001611159602691396001600160a01b038616600090815260336020526040902054919063ffffffff610cac16565b6001600160a01b038085166000908152603360205260408082209390935590841681522054610c50908263ffffffff610d4316565b6001600160a01b0380841660008181526033602090815260409182902094909455805185815290519193928716927fddf252ad1be2c89b69c2b068fc378daa952ba7f163c4a11628f55a4df523b3ef92918290030190a3505050565b60008184841115610d3b5760405162461bcd60e51b81526004018080602001828103825283818151815260200191508051906020019080838360005b83811015610d00578181015183820152602001610ce8565b50505050905090810190601f168015610d2d5780820380516001836020036101000a031916815260200191505b509250505060405180910390fd5b505050900390565b600082820183811015610d9d576040805162461bcd60e51b815260206004820152601b60248201527f536166654d6174683a206164646974696f6e206f766572666c6f770000000000604482015290519081900360640190fd5b9392505050565b6001600160a01b038216610dff576040805162461bcd60e51b815260206004820152601f60248201527f45524332303a206d696e7420746f20746865207a65726f206164647265737300604482015290519081900360640190fd5b603554610e12908263ffffffff610d4316565b6035556001600160a01b038216600090815260336020526040902054610e3e908263ffffffff610d4316565b6001600160a01b03831660008181526033602090815260408083209490945583518581529351929391927fddf252ad1be2c89b69c2b068fc378daa952ba7f163c4a11628f55a4df523b3ef9281900390910190a35050565b303b1590565b610ead60688263ffffffff610f9316565b6040516001600160a01b038216907f6ae172837ea30b801fbfcdd4108aa1d5bf8ff775444fd70256b44e6bf3dfc3f690600090a250565b610ef560688263ffffffff61101416565b6040516001600160a01b038216907fe94479a9f7e1952cc78f2d6baab678adc1b772d936c6583def489e524cb6669290600090a250565b60006001600160a01b038216610f735760405162461bcd60e51b81526004018080602001828103825260228152602001806111f86022913960400191505060405180910390fd5b506001600160a01b03166000908152602091909152604090205460ff1690565b610f9d8282610f2c565b15610fef576040805162461bcd60e51b815260206004820152601f60248201527f526f6c65733a206163636f756e7420616c72656164792068617320726f6c6500604482015290519081900360640190fd5b6001600160a01b0316600090815260209190915260409020805460ff19166001179055565b61101e8282610f2c565b6110595760405162461bcd60e51b81526004018080602001828103825260218152602001806111af6021913960400191505060405180910390fd5b6001600160a01b0316600090815260209190915260409020805460ff19169055565b828054600181600116156101000203166002900490600052602060002090601f016020900481019282601f106110bc57805160ff19168380011785556110e9565b828001600101855582156110e9579182015b828111156110e95782518255916020019190600101906110ce565b506110f59291506110f9565b5090565b61059b91905b808211156110f557600081556001016110ff56fe45524332303a207472616e7366657220746f20746865207a65726f206164647265737345524332303a20617070726f766520746f20746865207a65726f206164647265737345524332303a207472616e7366657220616d6f756e7420657863656564732062616c616e63654d696e746572526f6c653a2063616c6c657220646f6573206e6f74206861766520746865204d696e74657220726f6c65526f6c65733a206163636f756e7420646f6573206e6f74206861766520726f6c6545524332303a207472616e7366657220616d6f756e74206578636565647320616c6c6f77616e6365526f6c65733a206163636f756e7420697320746865207a65726f2061646472657373436f6e747261637420696e7374616e63652068617320616c7265616479206265656e20696e697469616c697a656445524332303a207472616e736665722066726f6d20746865207a65726f206164647265737345524332303a20617070726f76652066726f6d20746865207a65726f206164647265737345524332303a2064656372656173656420616c6c6f77616e63652062656c6f77207a65726fa265627a7a72315820ac531f0519a695286dd6ba9d8d98169c8e8ab6dece3f91f8bc8df83627105fcf64736f6c634300050c0032",
  "source": "pragma solidity ^0.5.0;\n\nimport \"@openzeppelin/upgrades/contracts/Initializable.sol\";\nimport \"@openzeppelin/contracts-ethereum-package/contracts/token/ERC20/ERC20.sol\";\nimport \"@openzeppelin/contracts-ethereum-package/contracts/access/roles/MinterRole.sol\";\n\n/**\n * @dev Extension of {ERC20} that adds a set of accounts with the {MinterRole},\n * which have permission to mint (create) new tokens as they see fit.\n *\n * At construction, the deployer of the contract is the only minter.\n */\ncontract Token is Initializable, ERC20, MinterRole {\n  string public name;\n  string public symbol;\n  uint256 public decimals;\n\n  function initialize(address sender, string memory _name, string memory _symbol, uint256 _decimals) public initializer {\n      require(sender != address(0), \"Pool/owner-zero\");\n      MinterRole.initialize(sender);\n\n      name = _name;\n      symbol = _symbol;\n      decimals = _decimals;\n  }\n\n  /**\n    * @dev See {ERC20-_mint}.\n    *\n    * Requirements:\n    *\n    * - the caller must have the {MinterRole}.\n    */\n  function mint(address account, uint256 amount) public onlyMinter returns (bool) {\n      _mint(account, amount);\n      return true;\n  }\n\n  uint256[50] private ______gap;\n}\n",
  "sourcePath": "/home/manjain/Documents/LetsPool/src/pooltogether-contracts/contracts/test/Token.sol",
  "compiler": {
    "name": "solc",
    "version": "0.5.12+commit.7709ece9.Emscripten.clang"
  },
  "schemaVersion": "3.1.0",
  "updatedAt": "2020-05-21T20:34:55.095Z",
  "devdoc": {
    "details": "Extension of {ERC20} that adds a set of accounts with the {MinterRole}, which have permission to mint (create) new tokens as they see fit. * At construction, the deployer of the contract is the only minter.",
    "methods": {
      "allowance(address,address)": {
        "details": "See {IERC20-allowance}."
      },
      "approve(address,uint256)": {
        "details": "See {IERC20-approve}.     * Requirements:     * - `spender` cannot be the zero address."
      },
      "balanceOf(address)": {
        "details": "See {IERC20-balanceOf}."
      },
      "decreaseAllowance(address,uint256)": {
        "details": "Atomically decreases the allowance granted to `spender` by the caller.     * This is an alternative to {approve} that can be used as a mitigation for problems described in {IERC20-approve}.     * Emits an {Approval} event indicating the updated allowance.     * Requirements:     * - `spender` cannot be the zero address. - `spender` must have allowance for the caller of at least `subtractedValue`."
      },
      "increaseAllowance(address,uint256)": {
        "details": "Atomically increases the allowance granted to `spender` by the caller.     * This is an alternative to {approve} that can be used as a mitigation for problems described in {IERC20-approve}.     * Emits an {Approval} event indicating the updated allowance.     * Requirements:     * - `spender` cannot be the zero address."
      },
      "mint(address,uint256)": {
        "details": "See {ERC20-_mint}.    * Requirements:    * - the caller must have the {MinterRole}."
      },
      "totalSupply()": {
        "details": "See {IERC20-totalSupply}."
      },
      "transfer(address,uint256)": {
        "details": "See {IERC20-transfer}.     * Requirements:     * - `recipient` cannot be the zero address. - the caller must have a balance of at least `amount`."
      },
      "transferFrom(address,address,uint256)": {
        "details": "See {IERC20-transferFrom}.     * Emits an {Approval} event indicating the updated allowance. This is not required by the EIP. See the note at the beginning of {ERC20};     * Requirements: - `sender` and `recipient` cannot be the zero address. - `sender` must have a balance of at least `amount`. - the caller must have allowance for `sender`'s tokens of at least `amount`."
      }
    }
  },
  "userdoc": {
    "methods": {}
  }
}