{
  "contractName": "ExposedScheduledBalance",
  "abi": [
    {
      "constant": false,
      "inputs": [
        {
          "internalType": "uint256",
          "name": "amount",
          "type": "uint256"
        },
        {
          "internalType": "uint256",
          "name": "currentTimestamp",
          "type": "uint256"
        }
      ],
      "name": "deposit",
      "outputs": [],
      "payable": false,
      "stateMutability": "nonpayable",
      "type": "function"
    },
    {
      "constant": false,
      "inputs": [
        {
          "internalType": "uint256",
          "name": "amount",
          "type": "uint256"
        }
      ],
      "name": "withdraw",
      "outputs": [],
      "payable": false,
      "stateMutability": "nonpayable",
      "type": "function"
    },
    {
      "constant": true,
      "inputs": [
        {
          "internalType": "uint256",
          "name": "currentTimestamp",
          "type": "uint256"
        }
      ],
      "name": "balanceAt",
      "outputs": [
        {
          "internalType": "uint256",
          "name": "",
          "type": "uint256"
        }
      ],
      "payable": false,
      "stateMutability": "view",
      "type": "function"
    },
    {
      "constant": false,
      "inputs": [],
      "name": "withdrawAll",
      "outputs": [
        {
          "internalType": "uint256",
          "name": "",
          "type": "uint256"
        }
      ],
      "payable": false,
      "stateMutability": "nonpayable",
      "type": "function"
    }
  ],
  "bytecode": "0x608060405234801561001057600080fd5b506103c8806100206000396000f3fe608060405234801561001057600080fd5b506004361061004c5760003560e01c80632e1a7d4d146100515780637a0b450b14610070578063853828b61461009f578063e2bbb158146100a7575b600080fd5b61006e6004803603602081101561006757600080fd5b50356100ca565b005b61008d6004803603602081101561008657600080fd5b50356100de565b60408051918252519081900360200190f35b61008d6100f6565b61006e600480360360408110156100bd57600080fd5b5080359060200135610105565b6100db60008263ffffffff61011b16565b50565b60006100f0818363ffffffff61018916565b92915050565b6000610102600061019f565b90565b6101176000838363ffffffff6101ac16565b5050565b8154811115610171576040805162461bcd60e51b815260206004820152601760248201527f5363686564756c656442616c616e63652f696e73756666000000000000000000604482015290519081900360640190fd5b8154610183908263ffffffff61023a16565b90915550565b6000806101968484610283565b50949350505050565b6000600182018190559055565b8260010154811015610205576040805162461bcd60e51b815260206004820152601a60248201527f5363686564756c656442616c616e63652f6261636b7761726473000000000000604482015290519081900360640190fd5b808360010154141561022a578254610223908363ffffffff6102a216565b8355610235565b818355600183018190555b505050565b600061027c83836040518060400160405280601e81526020017f536166654d6174683a207375627472616374696f6e206f766572666c6f7700008152506102fc565b9392505050565b6000808284600101541161029b575050815460018301545b9250929050565b60008282018381101561027c576040805162461bcd60e51b815260206004820152601b60248201527f536166654d6174683a206164646974696f6e206f766572666c6f770000000000604482015290519081900360640190fd5b6000818484111561038b5760405162461bcd60e51b81526004018080602001828103825283818151815260200191508051906020019080838360005b83811015610350578181015183820152602001610338565b50505050905090810190601f16801561037d5780820380516001836020036101000a031916815260200191505b509250505060405180910390fd5b50505090039056fea265627a7a723158209267287b3670195621930b729dab1861a3046a7cc13d452133b0ed17e4d157f864736f6c634300050c0032",
  "source": "/**\nCopyright 2020 PoolTogether Inc.\n\nThis file is part of PoolTogether.\n\nPoolTogether is free software: you can redistribute it and/or modify\nit under the terms of the GNU General Public License as published by\nthe Free Software Foundation under version 3 of the License.\n\nPoolTogether is distributed in the hope that it will be useful,\nbut WITHOUT ANY WARRANTY; without even the implied warranty of\nMERCHANTABILITY or FITNESS FOR A PARTICULAR PURPOSE.  See the\nGNU General Public License for more details.\n\nYou should have received a copy of the GNU General Public License\nalong with PoolTogether.  If not, see <https://www.gnu.org/licenses/>.\n*/\n\npragma solidity 0.5.12;\n\nimport \"../ScheduledBalance.sol\";\n\ncontract ExposedScheduledBalance {\n  using ScheduledBalance for ScheduledBalance.State;\n\n  ScheduledBalance.State scheduledBalance;\n\n  function deposit(uint256 amount, uint256 currentTimestamp) external {\n    scheduledBalance.deposit(amount, currentTimestamp);\n  }\n\n  function withdraw(uint256 amount) external {\n    scheduledBalance.withdraw(amount);\n  }\n\n  function balanceAt(uint256 currentTimestamp) external view returns (uint256) {\n    return scheduledBalance.balanceAt(currentTimestamp);\n  }\n\n  function withdrawAll() external returns (uint256) {\n    scheduledBalance.withdrawAll();\n  }\n}",
  "sourcePath": "/home/manjain/Documents/pooltogether-mypods/src/pods/contracts/test/ExposedScheduledBalance.sol",
  "compiler": {
    "name": "solc",
    "version": "0.5.12+commit.7709ece9.Emscripten.clang"
  },
  "schemaVersion": "3.1.0",
  "updatedAt": "2020-05-19T21:28:44.952Z",
  "devdoc": {
    "methods": {}
  },
  "userdoc": {
    "methods": {}
  }
}