{
  "contractName": "ExposedExchangeRateTracker",
  "abi": [
    {
      "constant": true,
      "inputs": [],
      "name": "length",
      "outputs": [
        {
          "internalType": "uint256",
          "name": "",
          "type": "uint256"
        }
      ],
      "payable": false,
      "stateMutability": "view",
      "type": "function"
    },
    {
      "constant": true,
      "inputs": [
        {
          "internalType": "uint256",
          "name": "index",
          "type": "uint256"
        }
      ],
      "name": "get",
      "outputs": [
        {
          "internalType": "uint256",
          "name": "",
          "type": "uint256"
        }
      ],
      "payable": false,
      "stateMutability": "view",
      "type": "function"
    },
    {
      "constant": false,
      "inputs": [
        {
          "internalType": "uint256",
          "name": "baseExchangeRateMantissa",
          "type": "uint256"
        }
      ],
      "name": "initialize",
      "outputs": [],
      "payable": false,
      "stateMutability": "nonpayable",
      "type": "function"
    },
    {
      "constant": false,
      "inputs": [
        {
          "internalType": "uint256",
          "name": "tokens",
          "type": "uint256"
        },
        {
          "internalType": "uint256",
          "name": "collateral",
          "type": "uint256"
        },
        {
          "internalType": "uint256",
          "name": "timestamp",
          "type": "uint256"
        }
      ],
      "name": "collateralizationChanged",
      "outputs": [
        {
          "internalType": "uint256",
          "name": "",
          "type": "uint256"
        }
      ],
      "payable": false,
      "stateMutability": "nonpayable",
      "type": "function"
    },
    {
      "constant": true,
      "inputs": [
        {
          "internalType": "uint256",
          "name": "tokens",
          "type": "uint256"
        }
      ],
      "name": "tokenToCollateralValue",
      "outputs": [
        {
          "internalType": "uint256",
          "name": "",
          "type": "uint256"
        }
      ],
      "payable": false,
      "stateMutability": "view",
      "type": "function"
    },
    {
      "constant": true,
      "inputs": [
        {
          "internalType": "uint256",
          "name": "collateral",
          "type": "uint256"
        }
      ],
      "name": "collateralToTokenValue",
      "outputs": [
        {
          "internalType": "uint256",
          "name": "",
          "type": "uint256"
        }
      ],
      "payable": false,
      "stateMutability": "view",
      "type": "function"
    },
    {
      "constant": true,
      "inputs": [
        {
          "internalType": "uint256",
          "name": "tokens",
          "type": "uint256"
        },
        {
          "internalType": "uint256",
          "name": "timestamp",
          "type": "uint256"
        }
      ],
      "name": "tokenToCollateralValueAt",
      "outputs": [
        {
          "internalType": "uint256",
          "name": "",
          "type": "uint256"
        }
      ],
      "payable": false,
      "stateMutability": "view",
      "type": "function"
    },
    {
      "constant": true,
      "inputs": [
        {
          "internalType": "uint256",
          "name": "collateral",
          "type": "uint256"
        },
        {
          "internalType": "uint256",
          "name": "timestamp",
          "type": "uint256"
        }
      ],
      "name": "collateralToTokenValueAt",
      "outputs": [
        {
          "internalType": "uint256",
          "name": "",
          "type": "uint256"
        }
      ],
      "payable": false,
      "stateMutability": "view",
      "type": "function"
    },
    {
      "constant": true,
      "inputs": [
        {
          "internalType": "uint256",
          "name": "drawId",
          "type": "uint256"
        }
      ],
      "name": "search",
      "outputs": [
        {
          "internalType": "uint256",
          "name": "",
          "type": "uint256"
        }
      ],
      "payable": false,
      "stateMutability": "view",
      "type": "function"
    }
  ],
  "bytecode": "0x608060405234801561001057600080fd5b50610838806100206000396000f3fe608060405234801561001057600080fd5b50600436106100935760003560e01c8063d67d7a7d11610066578063d67d7a7d1461010f578063e49c2f151461012c578063fb1808a014610155578063fc156fe014610178578063fe4b84df1461019557610093565b80631f7b6d3214610098578063242d39b5146100b25780638adce39d146100d55780639507d39a146100f2575b600080fd5b6100a06101b4565b60408051918252519081900360200190f35b6100a0600480360360408110156100c857600080fd5b50803590602001356101ba565b6100a0600480360360208110156100eb57600080fd5b50356101d4565b6100a06004803603602081101561010857600080fd5b50356101ec565b6100a06004803603602081101561012557600080fd5b5035610216565b6100a06004803603606081101561014257600080fd5b5080359060208101359060400135610228565b6100a06004803603604081101561016b57600080fd5b5080359060200135610244565b6100a06004803603602081101561018e57600080fd5b5035610257565b6101b2600480360360208110156101ab57600080fd5b5035610269565b005b60005490565b60006101cd81848463ffffffff61027d16565b9392505050565b60006101e6818363ffffffff61033716565b92915050565b60008060000182815481106101fd57fe5b9060005260206000209060020201600001549050919050565b60006101e6818363ffffffff6103cb16565b600061023c8185858563ffffffff61042c16565b509392505050565b60006101cd81848463ffffffff61058d16565b60006101e6818363ffffffff61061216565b61027a60008263ffffffff61067c16565b50565b60008061028a8584610612565b905073__FixedPoint____________________________6364fb38b7858760000184815481106102b657fe5b90600052602060002090600202016001016040518363ffffffff1660e01b8152600401808381526020018281526020019250505060206040518083038186803b15801561030257600080fd5b505af4158015610316573d6000803e3d6000fd5b505050506040513d602081101561032c57600080fd5b505195945050505050565b600073__FixedPoint____________________________6373710cd861035c85610768565b846040518363ffffffff1660e01b8152600401808381526020018281526020019250505060206040518083038186803b15801561039857600080fd5b505af41580156103ac573d6000803e3d6000fd5b505050506040513d60208110156103c257600080fd5b50519392505050565b600073__FixedPoint____________________________6364fb38b7836103f186610768565b6040518363ffffffff1660e01b8152600401808381526020018281526020019250505060206040518083038186803b15801561039857600080fd5b60006104378561079d565b845482908690600019810190811061044b57fe5b90600052602060002090600202016000015411156104b0576040805162461bcd60e51b815260206004820152601d60248201527f45786368616e676552617465547261636b65722f746f6f2d6561726c79000000604482015290519081900360640190fd5b6104b86107f0565b604051806020016040528073__FixedPoint____________________________63a94b733488886040518363ffffffff1660e01b8152600401808381526020018281526020019250505060206040518083038186803b15801561051a57600080fd5b505af415801561052e573d6000803e3d6000fd5b505050506040513d602081101561054457600080fd5b50519052604080518082019091528481526020818101838152895460018181018c5560008c81529390932093516002909102909301928355515191015551915050949350505050565b60008061059a8584610612565b905073__FixedPoint____________________________6373710cd88660000183815481106105c557fe5b9060005260206000209060020201600101866040518363ffffffff1660e01b8152600401808381526020018281526020019250505060206040518083038186803b15801561030257600080fd5b600061061d8361079d565b82546000905b6001810382101561067057845460028383030483019086908290811061064557fe5b9060005260206000209060020201600001548510156106665780915061066a565b8092505b50610623565b60001901949350505050565b600081116106d1576040805162461bcd60e51b815260206004820152601c60248201527f45786368616e676552617465547261636b65722f6e6f6e2d7a65726f00000000604482015290519081900360640190fd5b815415610725576040805162461bcd60e51b815260206004820152601d60248201527f45786368616e676552617465547261636b65722f696e69742d70726576000000604482015290519081900360640190fd5b6040805180820182526000808252825160208181019094529384528282019384528454600181810187559582529290209051600290920201908155905151910155565b60006107738261079d565b81548290600019810190811061078557fe5b90600052602060002090600202016001019050919050565b805461027a576040805162461bcd60e51b815260206004820152601c60248201527f45786368616e676552617465547261636b65722f6e6f742d696e697400000000604482015290519081900360640190fd5b604051806020016040528060008152509056fea265627a7a723158204f5c8960a0fd1e12c53dd4a7f581307646a6e7072fc21a85d3ebd1f9e1997faf64736f6c634300050c0032",
  "source": "/**\nCopyright 2020 PoolTogether Inc.\n\nThis file is part of PoolTogether.\n\nPoolTogether is free software: you can redistribute it and/or modify\nit under the terms of the GNU General Public License as published by\nthe Free Software Foundation under version 3 of the License.\n\nPoolTogether is distributed in the hope that it will be useful,\nbut WITHOUT ANY WARRANTY; without even the implied warranty of\nMERCHANTABILITY or FITNESS FOR A PARTICULAR PURPOSE.  See the\nGNU General Public License for more details.\n\nYou should have received a copy of the GNU General Public License\nalong with PoolTogether.  If not, see <https://www.gnu.org/licenses/>.\n*/\n\npragma solidity 0.5.12;\n\nimport \"../ExchangeRateTracker.sol\";\nimport \"../FixedPoint.sol\";\n\ncontract ExposedExchangeRateTracker {\n  using ExchangeRateTracker for ExchangeRateTracker.State;\n\n  ExchangeRateTracker.State state;\n\n  function length() external view returns (uint256) {\n    return state.exchangeRates.length;\n  }\n\n  function get(uint256 index) external view returns (uint256) {\n    return state.exchangeRates[index].timestamp;\n  }\n\n  function initialize(uint256 baseExchangeRateMantissa) external {\n    state.initialize(baseExchangeRateMantissa);\n  }\n\n  function collateralizationChanged(uint256 tokens, uint256 collateral, uint256 timestamp) external returns (uint256) {\n    state.collateralizationChanged(tokens, collateral, timestamp);\n  }\n\n  function tokenToCollateralValue(uint256 tokens) external view returns (uint256) {\n    return state.tokenToCollateralValue(tokens);\n  }\n\n  function collateralToTokenValue(uint256 collateral) external view returns (uint256) {\n    return state.collateralToTokenValue(collateral);\n  }\n\n  function tokenToCollateralValueAt(uint256 tokens, uint256 timestamp) external view returns (uint256) {\n    return state.tokenToCollateralValueAt(tokens, timestamp);\n  }\n\n  function collateralToTokenValueAt(uint256 collateral, uint256 timestamp) external view returns (uint256) {\n    return state.collateralToTokenValueAt(collateral, timestamp);\n  }\n\n  function search(uint256 drawId) external view returns (uint256) {\n    return state.search(drawId);\n  }\n}",
  "sourcePath": "/home/manjain/Documents/pooltogether-mypods/src/pods/contracts/test/ExposedExchangeRateTracker.sol",
  "compiler": {
    "name": "solc",
    "version": "0.5.12+commit.7709ece9.Emscripten.clang"
  },
  "schemaVersion": "3.1.0",
  "updatedAt": "2020-05-19T21:28:44.951Z",
  "devdoc": {
    "methods": {}
  },
  "userdoc": {
    "methods": {}
  }
}