{
  "contractName": "FixedPoint",
  "abi": [
    {
      "constant": true,
      "inputs": [],
      "name": "SCALE",
      "outputs": [
        {
          "internalType": "uint256",
          "name": "",
          "type": "uint256"
        }
      ],
      "payable": false,
      "stateMutability": "view",
      "type": "function"
    },
    {
      "constant": true,
      "inputs": [
        {
          "internalType": "uint256",
          "name": "numerator",
          "type": "uint256"
        },
        {
          "internalType": "uint256",
          "name": "denominator",
          "type": "uint256"
        }
      ],
      "name": "calculateMantissa",
      "outputs": [
        {
          "internalType": "uint256",
          "name": "",
          "type": "uint256"
        }
      ],
      "payable": false,
      "stateMutability": "pure",
      "type": "function"
    },
    {
      "constant": true,
      "inputs": [
        {
          "internalType": "uint256",
          "name": "dividend",
          "type": "uint256"
        },
        {
          "internalType": "uint256",
          "name": "mantissa",
          "type": "uint256"
        }
      ],
      "name": "divideUintByMantissa",
      "outputs": [
        {
          "internalType": "uint256",
          "name": "",
          "type": "uint256"
        }
      ],
      "payable": false,
      "stateMutability": "pure",
      "type": "function"
    }
  ],
  "bytecode": "0x610340610026600b82828239805160001a60731461001957fe5b30600052607381538281f3fe73000000000000000000000000000000000000000030146080604052600436106100615760003560e01c806364fb38b71461006657806373710cd81461009b5780639cde9405146100be578063a94b7334146100e1578063eced552614610104575b600080fd5b6100896004803603604081101561007c57600080fd5b508035906020013561010c565b60408051918252519081900360200190f35b610089600480360360408110156100b157600080fd5b5080359060200135610125565b610089600480360360408110156100d457600080fd5b508035906020013561015e565b610089600480360360408110156100f757600080fd5b508035906020013561018b565b6100896101a6565b600061011c83836000015461015e565b90505b92915050565b8154600090819061013c908463ffffffff6101b216565b905061015681670de0b6b3a764000063ffffffff61020b16565b949350505050565b600080610179670de0b6b3a76400008563ffffffff6101b216565b9050610156818463ffffffff61020b16565b60008061017984670de0b6b3a764000063ffffffff6101b216565b670de0b6b3a764000081565b6000826101c15750600061011f565b828202828482816101ce57fe5b041461011c5760405162461bcd60e51b81526004018080602001828103825260218152602001806102eb6021913960400191505060405180910390fd5b600061011c83836040518060400160405280601a81526020017f536166654d6174683a206469766973696f6e206279207a65726f000000000000815250600081836102d45760405162461bcd60e51b81526004018080602001828103825283818151815260200191508051906020019080838360005b83811015610299578181015183820152602001610281565b50505050905090810190601f1680156102c65780820380516001836020036101000a031916815260200191505b509250505060405180910390fd5b5060008385816102e057fe5b049594505050505056fe536166654d6174683a206d756c7469706c69636174696f6e206f766572666c6f77a265627a7a72315820e05026cb925d24dad607cd941f719784aa2707c3dca563bfb4fc02856b28555764736f6c634300050c0032",
  "source": "/**\nCopyright 2020 PoolTogether Inc.\n\nThis file is part of PoolTogether.\n\nPoolTogether is free software: you can redistribute it and/or modify\nit under the terms of the GNU General Public License as published by\nthe Free Software Foundation under version 3 of the License.\n\nPoolTogether is distributed in the hope that it will be useful,\nbut WITHOUT ANY WARRANTY; without even the implied warranty of\nMERCHANTABILITY or FITNESS FOR A PARTICULAR PURPOSE.  See the\nGNU General Public License for more details.\n\nYou should have received a copy of the GNU General Public License\nalong with PoolTogether.  If not, see <https://www.gnu.org/licenses/>.\n*/\n\npragma solidity 0.5.12;\n\nimport \"@openzeppelin/contracts-ethereum-package/contracts/math/SafeMath.sol\";\n\n/**\n * @author Brendan Asselstine\n * @notice Provides basic fixed point math calculations.\n *\n * This library calculates integer fractions by scaling values by 1e18 then performing standard integer math.\n */\nlibrary FixedPoint {\n  using SafeMath for uint256;\n\n  // The scale to use for fixed point numbers.  Same as Ether for simplicity.\n  uint256 public constant SCALE = 1e18;\n\n  /**\n   * A struct representing a fixed point 18 mantissa (ie Ether).\n   */\n  struct Fixed18 {\n    uint256 mantissa;\n  }\n\n  /**\n   * Calculates a Fixed18 mantissa given the numerator and denominator\n   *\n   * The mantissa = (numerator * 1e18) / denominator\n   *\n   * @param numerator The mantissa numerator\n   * @param denominator The mantissa denominator\n   * @return The mantissa of the fraction\n   */\n  function calculateMantissa(uint256 numerator, uint256 denominator) public pure returns (uint256) {\n    uint256 mantissa = numerator.mul(SCALE);\n    mantissa = mantissa.div(denominator);\n    return mantissa;\n  }\n\n  /**\n   * Multiplies a Fixed18 number by an integer.\n   *\n   * @param f The Fixed18 number\n   * @param b The whole integer to multiply\n   * @return An integer that is the result of multiplying the params.\n   */\n  function multiplyUint(Fixed18 storage f, uint256 b) public view returns (uint256) {\n    uint256 result = f.mantissa.mul(b);\n    result = result.div(SCALE);\n    return result;\n  }\n\n  /**\n   * Divides an integer by a Fixed18 number.\n   *\n   * @param dividend The integer to divide\n   * @param divisor The Fixed18 number to act as the divisor\n   * @return An integer that is the result of dividing an integer by a Fixed18 number\n   */\n  function divideUintByFixed(uint256 dividend, Fixed18 storage divisor) public view returns (uint256) {\n    return divideUintByMantissa(dividend, divisor.mantissa);\n  }\n\n  /**\n   * Divides an integer by a fixed point 18 mantissa\n   *\n   * @param dividend The integer to divide\n   * @param mantissa The fixed point 18 number to serve as the divisor\n   * @return An integer that is the result of dividing an integer by a fixed point 18 mantissa\n   */\n  function divideUintByMantissa(uint256 dividend, uint256 mantissa) public pure returns (uint256) {\n    uint256 result = SCALE.mul(dividend);\n    result = result.div(mantissa);\n    return result;\n  }\n}\n",
  "sourcePath": "/home/manjain/Documents/pooltogether-mypods/src/pods/contracts/FixedPoint.sol",
  "compiler": {
    "name": "solc",
    "version": "0.5.12+commit.7709ece9.Emscripten.clang"
  },
  "schemaVersion": "3.1.0",
  "updatedAt": "2020-05-19T21:28:44.933Z",
  "devdoc": {
    "author": "Brendan Asselstine",
    "methods": {
      "calculateMantissa(uint256,uint256)": {
        "params": {
          "denominator": "The mantissa denominator",
          "numerator": "The mantissa numerator"
        },
        "return": "The mantissa of the fraction"
      },
      "divideUintByFixed(uint256,FixedPoint.Fixed18 storage)": {
        "params": {
          "dividend": "The integer to divide",
          "divisor": "The Fixed18 number to act as the divisor"
        },
        "return": "An integer that is the result of dividing an integer by a Fixed18 number"
      },
      "divideUintByMantissa(uint256,uint256)": {
        "params": {
          "dividend": "The integer to divide",
          "mantissa": "The fixed point 18 number to serve as the divisor"
        },
        "return": "An integer that is the result of dividing an integer by a fixed point 18 mantissa"
      },
      "multiplyUint(FixedPoint.Fixed18 storage,uint256)": {
        "params": {
          "b": "The whole integer to multiply",
          "f": "The Fixed18 number"
        },
        "return": "An integer that is the result of multiplying the params."
      }
    }
  },
  "userdoc": {
    "methods": {
      "calculateMantissa(uint256,uint256)": {
        "notice": "Calculates a Fixed18 mantissa given the numerator and denominator   * The mantissa = (numerator * 1e18) / denominator"
      },
      "divideUintByFixed(uint256,FixedPoint.Fixed18 storage)": {
        "notice": "Divides an integer by a Fixed18 number."
      },
      "divideUintByMantissa(uint256,uint256)": {
        "notice": "Divides an integer by a fixed point 18 mantissa"
      },
      "multiplyUint(FixedPoint.Fixed18 storage,uint256)": {
        "notice": "Multiplies a Fixed18 number by an integer."
      }
    },
    "notice": "Provides basic fixed point math calculations. * This library calculates integer fractions by scaling values by 1e18 then performing standard integer math."
  }
}