{
  "contractName": "Import777",
  "abi": [
    {
      "anonymous": false,
      "inputs": [
        {
          "indexed": true,
          "internalType": "address",
          "name": "owner",
          "type": "address"
        },
        {
          "indexed": true,
          "internalType": "address",
          "name": "spender",
          "type": "address"
        },
        {
          "indexed": false,
          "internalType": "uint256",
          "name": "value",
          "type": "uint256"
        }
      ],
      "name": "Approval",
      "type": "event"
    },
    {
      "anonymous": false,
      "inputs": [
        {
          "indexed": true,
          "internalType": "address",
          "name": "operator",
          "type": "address"
        },
        {
          "indexed": true,
          "internalType": "address",
          "name": "tokenHolder",
          "type": "address"
        }
      ],
      "name": "AuthorizedOperator",
      "type": "event"
    },
    {
      "anonymous": false,
      "inputs": [
        {
          "indexed": true,
          "internalType": "address",
          "name": "operator",
          "type": "address"
        },
        {
          "indexed": true,
          "internalType": "address",
          "name": "from",
          "type": "address"
        },
        {
          "indexed": false,
          "internalType": "uint256",
          "name": "amount",
          "type": "uint256"
        },
        {
          "indexed": false,
          "internalType": "bytes",
          "name": "data",
          "type": "bytes"
        },
        {
          "indexed": false,
          "internalType": "bytes",
          "name": "operatorData",
          "type": "bytes"
        }
      ],
      "name": "Burned",
      "type": "event"
    },
    {
      "anonymous": false,
      "inputs": [
        {
          "indexed": true,
          "internalType": "address",
          "name": "operator",
          "type": "address"
        },
        {
          "indexed": true,
          "internalType": "address",
          "name": "to",
          "type": "address"
        },
        {
          "indexed": false,
          "internalType": "uint256",
          "name": "amount",
          "type": "uint256"
        },
        {
          "indexed": false,
          "internalType": "bytes",
          "name": "data",
          "type": "bytes"
        },
        {
          "indexed": false,
          "internalType": "bytes",
          "name": "operatorData",
          "type": "bytes"
        }
      ],
      "name": "Minted",
      "type": "event"
    },
    {
      "anonymous": false,
      "inputs": [
        {
          "indexed": true,
          "internalType": "address",
          "name": "operator",
          "type": "address"
        },
        {
          "indexed": true,
          "internalType": "address",
          "name": "tokenHolder",
          "type": "address"
        }
      ],
      "name": "RevokedOperator",
      "type": "event"
    },
    {
      "anonymous": false,
      "inputs": [
        {
          "indexed": true,
          "internalType": "address",
          "name": "operator",
          "type": "address"
        },
        {
          "indexed": true,
          "internalType": "address",
          "name": "from",
          "type": "address"
        },
        {
          "indexed": true,
          "internalType": "address",
          "name": "to",
          "type": "address"
        },
        {
          "indexed": false,
          "internalType": "uint256",
          "name": "amount",
          "type": "uint256"
        },
        {
          "indexed": false,
          "internalType": "bytes",
          "name": "data",
          "type": "bytes"
        },
        {
          "indexed": false,
          "internalType": "bytes",
          "name": "operatorData",
          "type": "bytes"
        }
      ],
      "name": "Sent",
      "type": "event"
    },
    {
      "anonymous": false,
      "inputs": [
        {
          "indexed": true,
          "internalType": "address",
          "name": "from",
          "type": "address"
        },
        {
          "indexed": true,
          "internalType": "address",
          "name": "to",
          "type": "address"
        },
        {
          "indexed": false,
          "internalType": "uint256",
          "name": "value",
          "type": "uint256"
        }
      ],
      "name": "Transfer",
      "type": "event"
    },
    {
      "constant": true,
      "inputs": [
        {
          "internalType": "address",
          "name": "holder",
          "type": "address"
        },
        {
          "internalType": "address",
          "name": "spender",
          "type": "address"
        }
      ],
      "name": "allowance",
      "outputs": [
        {
          "internalType": "uint256",
          "name": "",
          "type": "uint256"
        }
      ],
      "payable": false,
      "stateMutability": "view",
      "type": "function"
    },
    {
      "constant": false,
      "inputs": [
        {
          "internalType": "address",
          "name": "spender",
          "type": "address"
        },
        {
          "internalType": "uint256",
          "name": "value",
          "type": "uint256"
        }
      ],
      "name": "approve",
      "outputs": [
        {
          "internalType": "bool",
          "name": "",
          "type": "bool"
        }
      ],
      "payable": false,
      "stateMutability": "nonpayable",
      "type": "function"
    },
    {
      "constant": false,
      "inputs": [
        {
          "internalType": "address",
          "name": "operator",
          "type": "address"
        }
      ],
      "name": "authorizeOperator",
      "outputs": [],
      "payable": false,
      "stateMutability": "nonpayable",
      "type": "function"
    },
    {
      "constant": true,
      "inputs": [
        {
          "internalType": "address",
          "name": "tokenHolder",
          "type": "address"
        }
      ],
      "name": "balanceOf",
      "outputs": [
        {
          "internalType": "uint256",
          "name": "",
          "type": "uint256"
        }
      ],
      "payable": false,
      "stateMutability": "view",
      "type": "function"
    },
    {
      "constant": false,
      "inputs": [
        {
          "internalType": "uint256",
          "name": "amount",
          "type": "uint256"
        },
        {
          "internalType": "bytes",
          "name": "data",
          "type": "bytes"
        }
      ],
      "name": "burn",
      "outputs": [],
      "payable": false,
      "stateMutability": "nonpayable",
      "type": "function"
    },
    {
      "constant": true,
      "inputs": [],
      "name": "decimals",
      "outputs": [
        {
          "internalType": "uint8",
          "name": "",
          "type": "uint8"
        }
      ],
      "payable": false,
      "stateMutability": "pure",
      "type": "function"
    },
    {
      "constant": true,
      "inputs": [],
      "name": "defaultOperators",
      "outputs": [
        {
          "internalType": "address[]",
          "name": "",
          "type": "address[]"
        }
      ],
      "payable": false,
      "stateMutability": "view",
      "type": "function"
    },
    {
      "constant": true,
      "inputs": [],
      "name": "granularity",
      "outputs": [
        {
          "internalType": "uint256",
          "name": "",
          "type": "uint256"
        }
      ],
      "payable": false,
      "stateMutability": "view",
      "type": "function"
    },
    {
      "constant": false,
      "inputs": [
        {
          "internalType": "string",
          "name": "name",
          "type": "string"
        },
        {
          "internalType": "string",
          "name": "symbol",
          "type": "string"
        },
        {
          "internalType": "address[]",
          "name": "defaultOperators",
          "type": "address[]"
        }
      ],
      "name": "initialize",
      "outputs": [],
      "payable": false,
      "stateMutability": "nonpayable",
      "type": "function"
    },
    {
      "constant": true,
      "inputs": [
        {
          "internalType": "address",
          "name": "operator",
          "type": "address"
        },
        {
          "internalType": "address",
          "name": "tokenHolder",
          "type": "address"
        }
      ],
      "name": "isOperatorFor",
      "outputs": [
        {
          "internalType": "bool",
          "name": "",
          "type": "bool"
        }
      ],
      "payable": false,
      "stateMutability": "view",
      "type": "function"
    },
    {
      "constant": false,
      "inputs": [
        {
          "internalType": "address",
          "name": "account",
          "type": "address"
        },
        {
          "internalType": "uint256",
          "name": "amount",
          "type": "uint256"
        },
        {
          "internalType": "bytes",
          "name": "userData",
          "type": "bytes"
        }
      ],
      "name": "mint",
      "outputs": [
        {
          "internalType": "bool",
          "name": "",
          "type": "bool"
        }
      ],
      "payable": false,
      "stateMutability": "nonpayable",
      "type": "function"
    },
    {
      "constant": true,
      "inputs": [],
      "name": "name",
      "outputs": [
        {
          "internalType": "string",
          "name": "",
          "type": "string"
        }
      ],
      "payable": false,
      "stateMutability": "view",
      "type": "function"
    },
    {
      "constant": false,
      "inputs": [
        {
          "internalType": "address",
          "name": "account",
          "type": "address"
        },
        {
          "internalType": "uint256",
          "name": "amount",
          "type": "uint256"
        },
        {
          "internalType": "bytes",
          "name": "data",
          "type": "bytes"
        },
        {
          "internalType": "bytes",
          "name": "operatorData",
          "type": "bytes"
        }
      ],
      "name": "operatorBurn",
      "outputs": [],
      "payable": false,
      "stateMutability": "nonpayable",
      "type": "function"
    },
    {
      "constant": false,
      "inputs": [
        {
          "internalType": "address",
          "name": "sender",
          "type": "address"
        },
        {
          "internalType": "address",
          "name": "recipient",
          "type": "address"
        },
        {
          "internalType": "uint256",
          "name": "amount",
          "type": "uint256"
        },
        {
          "internalType": "bytes",
          "name": "data",
          "type": "bytes"
        },
        {
          "internalType": "bytes",
          "name": "operatorData",
          "type": "bytes"
        }
      ],
      "name": "operatorSend",
      "outputs": [],
      "payable": false,
      "stateMutability": "nonpayable",
      "type": "function"
    },
    {
      "constant": false,
      "inputs": [
        {
          "internalType": "address",
          "name": "operator",
          "type": "address"
        }
      ],
      "name": "revokeOperator",
      "outputs": [],
      "payable": false,
      "stateMutability": "nonpayable",
      "type": "function"
    },
    {
      "constant": false,
      "inputs": [
        {
          "internalType": "address",
          "name": "recipient",
          "type": "address"
        },
        {
          "internalType": "uint256",
          "name": "amount",
          "type": "uint256"
        },
        {
          "internalType": "bytes",
          "name": "data",
          "type": "bytes"
        }
      ],
      "name": "send",
      "outputs": [],
      "payable": false,
      "stateMutability": "nonpayable",
      "type": "function"
    },
    {
      "constant": true,
      "inputs": [],
      "name": "symbol",
      "outputs": [
        {
          "internalType": "string",
          "name": "",
          "type": "string"
        }
      ],
      "payable": false,
      "stateMutability": "view",
      "type": "function"
    },
    {
      "constant": true,
      "inputs": [],
      "name": "totalSupply",
      "outputs": [
        {
          "internalType": "uint256",
          "name": "",
          "type": "uint256"
        }
      ],
      "payable": false,
      "stateMutability": "view",
      "type": "function"
    },
    {
      "constant": false,
      "inputs": [
        {
          "internalType": "address",
          "name": "recipient",
          "type": "address"
        },
        {
          "internalType": "uint256",
          "name": "amount",
          "type": "uint256"
        }
      ],
      "name": "transfer",
      "outputs": [
        {
          "internalType": "bool",
          "name": "",
          "type": "bool"
        }
      ],
      "payable": false,
      "stateMutability": "nonpayable",
      "type": "function"
    },
    {
      "constant": false,
      "inputs": [
        {
          "internalType": "address",
          "name": "holder",
          "type": "address"
        },
        {
          "internalType": "address",
          "name": "recipient",
          "type": "address"
        },
        {
          "internalType": "uint256",
          "name": "amount",
          "type": "uint256"
        }
      ],
      "name": "transferFrom",
      "outputs": [
        {
          "internalType": "bool",
          "name": "",
          "type": "bool"
        }
      ],
      "payable": false,
      "stateMutability": "nonpayable",
      "type": "function"
    }
  ],
  "bytecode": "0x60806040526126c4806100136000396000f3fe608060405234801561001057600080fd5b506004361061012c5760003560e01c8063959b8c3f116100ad578063d95b637111610071578063d95b6371146107a4578063dd62ed3e146107d2578063fad8b32a14610800578063fc673c4f14610826578063fe9d9303146109645761012c565b8063959b8c3f146104e657806395d89b411461050c5780639bd9bbc614610514578063a9059cbb146105cd578063ca275931146105f95761012c565b8063313ce567116100f4578063313ce56714610296578063556f0dc7146102b457806362ad1b83146102bc57806370a082311461040757806394d008ef1461042d5761012c565b806306e485381461013157806306fdde0314610189578063095ea7b31461020657806318160ddd1461024657806323b872dd14610260575b600080fd5b610139610a0f565b60408051602080825283518183015283519192839290830191858101910280838360005b8381101561017557818101518382015260200161015d565b505050509050019250505060405180910390f35b610191610a72565b6040805160208082528351818301528351919283929083019185019080838360005b838110156101cb5781810151838201526020016101b3565b50505050905090810190601f1680156101f85780820380516001836020036101000a031916815260200191505b509250505060405180910390f35b6102326004803603604081101561021c57600080fd5b506001600160a01b038135169060200135610aff565b604080519115158252519081900360200190f35b61024e610b21565b60408051918252519081900360200190f35b6102326004803603606081101561027657600080fd5b506001600160a01b03813581169160208101359091169060400135610b27565b61029e610caa565b6040805160ff9092168252519081900360200190f35b61024e610caf565b610405600480360360a08110156102d257600080fd5b6001600160a01b03823581169260208101359091169160408201359190810190608081016060820135600160201b81111561030c57600080fd5b82018360208201111561031e57600080fd5b803590602001918460018302840111600160201b8311171561033f57600080fd5b91908080601f0160208091040260200160405190810160405280939291908181526020018383808284376000920191909152509295949360208101935035915050600160201b81111561039157600080fd5b8201836020820111156103a357600080fd5b803590602001918460018302840111600160201b831117156103c457600080fd5b91908080601f016020809104026020016040519081016040528093929190818152602001838380828437600092019190915250929550610cb4945050505050565b005b61024e6004803603602081101561041d57600080fd5b50356001600160a01b0316610d1e565b6102326004803603606081101561044357600080fd5b6001600160a01b0382351691602081013591810190606081016040820135600160201b81111561047257600080fd5b82018360208201111561048457600080fd5b803590602001918460018302840111600160201b831117156104a557600080fd5b91908080601f016020809104026020016040519081016040528093929190818152602001838380828437600092019190915250929550610d39945050505050565b610405600480360360208110156104fc57600080fd5b50356001600160a01b0316610d57565b610191610ea3565b6104056004803603606081101561052a57600080fd5b6001600160a01b0382351691602081013591810190606081016040820135600160201b81111561055957600080fd5b82018360208201111561056b57600080fd5b803590602001918460018302840111600160201b8311171561058c57600080fd5b91908080601f016020809104026020016040519081016040528093929190818152602001838380828437600092019190915250929550610f04945050505050565b610232600480360360408110156105e357600080fd5b506001600160a01b038135169060200135610f36565b6104056004803603606081101561060f57600080fd5b810190602081018135600160201b81111561062957600080fd5b82018360208201111561063b57600080fd5b803590602001918460018302840111600160201b8311171561065c57600080fd5b91908080601f0160208091040260200160405190810160405280939291908181526020018383808284376000920191909152509295949360208101935035915050600160201b8111156106ae57600080fd5b8201836020820111156106c057600080fd5b803590602001918460018302840111600160201b831117156106e157600080fd5b91908080601f0160208091040260200160405190810160405280939291908181526020018383808284376000920191909152509295949360208101935035915050600160201b81111561073357600080fd5b82018360208201111561074557600080fd5b803590602001918460208302840111600160201b8311171561076657600080fd5b91908080602002602001604051908101604052809392919081815260200183836020028082843760009201919091525092955061100f945050505050565b610232600480360360408110156107ba57600080fd5b506001600160a01b0381358116916020013516611276565b61024e600480360360408110156107e857600080fd5b506001600160a01b0381358116916020013516611318565b6104056004803603602081101561081657600080fd5b50356001600160a01b0316611343565b6104056004803603608081101561083c57600080fd5b6001600160a01b0382351691602081013591810190606081016040820135600160201b81111561086b57600080fd5b82018360208201111561087d57600080fd5b803590602001918460018302840111600160201b8311171561089e57600080fd5b91908080601f0160208091040260200160405190810160405280939291908181526020018383808284376000920191909152509295949360208101935035915050600160201b8111156108f057600080fd5b82018360208201111561090257600080fd5b803590602001918460018302840111600160201b8311171561092357600080fd5b91908080601f01602080910402602001604051908101604052809392919081815260200183838082843760009201919091525092955061148f945050505050565b6104056004803603604081101561097a57600080fd5b81359190810190604081016020820135600160201b81111561099b57600080fd5b8201836020820111156109ad57600080fd5b803590602001918460018302840111600160201b831117156109ce57600080fd5b91908080601f0160208091040260200160405190810160405280939291908181526020018383808284376000920191909152509295506114ef945050505050565b60606037805480602002602001604051908101604052809291908181526020018280548015610a6757602002820191906000526020600020905b81546001600160a01b03168152600190910190602001808311610a49575b505050505090505b90565b60358054604080516020601f6002600019610100600188161502019095169490940493840181900481028201810190925282815260609390929091830182828015610a675780601f10610ad357610100808354040283529160200191610a67565b820191906000526020600020905b815481529060010190602001808311610ae157509395945050505050565b600080610b0a61151d565b9050610b17818585611521565b5060019392505050565b60345490565b60006001600160a01b038316610b6e5760405162461bcd60e51b81526004018080602001828103825260248152602001806125ab6024913960400191505060405180910390fd5b6001600160a01b038416610bb35760405162461bcd60e51b81526004018080602001828103825260268152602001806126246026913960400191505060405180910390fd5b6000610bbd61151d565b9050610beb8186868660405180602001604052806000815250604051806020016040528060008152506115c8565b610c17818686866040518060200160405280600081525060405180602001604052806000815250611810565b610c718582610c6c866040518060600160405280602981526020016125fb602991396001600160a01b03808c166000908152603b60209081526040808320938b1683529290522054919063ffffffff611a2a16565b611521565b610c9f8186868660405180602001604052806000815250604051806020016040528060008152506000611ac1565b506001949350505050565b601290565b600190565b610cc5610cbf61151d565b86611276565b610d005760405162461bcd60e51b815260040180806020018281038252602c8152602001806125cf602c913960400191505060405180910390fd5b610d17610d0b61151d565b86868686866001611d61565b5050505050565b6001600160a01b031660009081526033602052604090205490565b6000610b173385858560405180602001604052806000815250611e2c565b806001600160a01b0316610d6961151d565b6001600160a01b03161415610daf5760405162461bcd60e51b81526004018080602001828103825260248152602001806124eb6024913960400191505060405180910390fd5b6001600160a01b03811660009081526038602052604090205460ff1615610e1257603a6000610ddc61151d565b6001600160a01b03908116825260208083019390935260409182016000908120918516815292529020805460ff19169055610e59565b600160396000610e2061151d565b6001600160a01b03908116825260208083019390935260409182016000908120918616815292529020805460ff19169115159190911790555b610e6161151d565b6001600160a01b0316816001600160a01b03167ff4caeb2d6ca8932a215a353d0703c326ec2d81fc68170f320eb2ab49e9df61f960405160405180910390a350565b60368054604080516020601f6002600019610100600188161502019095169490940493840181900481028201810190925282815260609390929091830182828015610a675780601f10610ad357610100808354040283529160200191610a67565b610f31610f0f61151d565b610f1761151d565b858585604051806020016040528060008152506001611d61565b505050565b60006001600160a01b038316610f7d5760405162461bcd60e51b81526004018080602001828103825260248152602001806125ab6024913960400191505060405180910390fd5b6000610f8761151d565b9050610fb58182868660405180602001604052806000815250604051806020016040528060008152506115c8565b610fe1818286866040518060200160405280600081525060405180602001604052806000815250611810565b610b178182868660405180602001604052806000815250604051806020016040528060008152506000611ac1565b600054610100900460ff16806110285750611028612057565b80611036575060005460ff16155b6110715760405162461bcd60e51b815260040180806020018281038252602e81526020018061257d602e913960400191505060405180910390fd5b600054610100900460ff1615801561109c576000805460ff1961ff0019909116610100171660011790555b83516110af906035906020870190612362565b5082516110c3906036906020860190612362565b5081516110d79060379060208501906123e0565b5060005b60375481101561113457600160386000603784815481106110f857fe5b6000918252602080832091909101546001600160a01b031683528201929092526040019020805460ff19169115159190911790556001016110db565b50604080516a22a9219b9b9baa37b5b2b760a91b8152815190819003600b0181206329965a1d60e01b82523060048301819052602483019190915260448201529051731820a4b7618bde71dce8cdc73aab6c95905fad24916329965a1d91606480830192600092919082900301818387803b1580156111b257600080fd5b505af11580156111c6573d6000803e3d6000fd5b5050604080516922a92199182a37b5b2b760b11b8152815190819003600a0181206329965a1d60e01b82523060048301819052602483019190915260448201529051731820a4b7618bde71dce8cdc73aab6c95905fad2493506329965a1d9250606480830192600092919082900301818387803b15801561124657600080fd5b505af115801561125a573d6000803e3d6000fd5b505050508015611270576000805461ff00191690555b50505050565b6000816001600160a01b0316836001600160a01b031614806112e157506001600160a01b03831660009081526038602052604090205460ff1680156112e157506001600160a01b038083166000908152603a602090815260408083209387168352929052205460ff16155b8061131157506001600160a01b0380831660009081526039602090815260408083209387168352929052205460ff165b9392505050565b6001600160a01b039182166000908152603b6020908152604080832093909416825291909152205490565b61134b61151d565b6001600160a01b0316816001600160a01b0316141561139b5760405162461bcd60e51b815260040180806020018281038252602181526020018061250f6021913960400191505060405180910390fd5b6001600160a01b03811660009081526038602052604090205460ff1615611407576001603a60006113ca61151d565b6001600160a01b03908116825260208083019390935260409182016000908120918616815292529020805460ff1916911515919091179055611445565b6039600061141361151d565b6001600160a01b03908116825260208083019390935260409182016000908120918516815292529020805460ff191690555b61144d61151d565b6001600160a01b0316816001600160a01b03167f50546e66e5f44d728365dc3908c63bc5cfeeab470722c1677e3073a6ac294aa160405160405180910390a350565b6114a061149a61151d565b85611276565b6114db5760405162461bcd60e51b815260040180806020018281038252602c8152602001806125cf602c913960400191505060405180910390fd5b6112706114e661151d565b8585858561205d565b6115196114fa61151d565b61150261151d565b84846040518060200160405280600081525061205d565b5050565b3390565b6001600160a01b0382166115665760405162461bcd60e51b815260040180806020018281038252602381526020018061266d6023913960400191505060405180910390fd5b6001600160a01b038084166000818152603b6020908152604080832094871680845294825291829020859055815185815291517f8c5be1e5ebec7d5bd14f71427d1e84f3dd0314c0f7b2291e5b200ac8c7c3b9259281900390910190a3505050565b6040805163555ddc6560e11b81526001600160a01b03871660048201527f29ddb589b1fb5fc7cf394961c1adf5f8c6454761adf795e67fe149f658abe89560248201529051600091731820a4b7618bde71dce8cdc73aab6c95905fad249163aabbb8ca91604480820192602092909190829003018186803b15801561164c57600080fd5b505afa158015611660573d6000803e3d6000fd5b505050506040513d602081101561167657600080fd5b505190506001600160a01b0381161561180757806001600160a01b03166375ab97828888888888886040518763ffffffff1660e01b815260040180876001600160a01b03166001600160a01b03168152602001866001600160a01b03166001600160a01b03168152602001856001600160a01b03166001600160a01b031681526020018481526020018060200180602001838103835285818151815260200191508051906020019080838360005b8381101561173c578181015183820152602001611724565b50505050905090810190601f1680156117695780820380516001836020036101000a031916815260200191505b50838103825284518152845160209182019186019080838360005b8381101561179c578181015183820152602001611784565b50505050905090810190601f1680156117c95780820380516001836020036101000a031916815260200191505b5098505050505050505050600060405180830381600087803b1580156117ee57600080fd5b505af1158015611802573d6000803e3d6000fd5b505050505b50505050505050565b611853836040518060600160405280602781526020016124a2602791396001600160a01b038816600090815260336020526040902054919063ffffffff611a2a16565b6001600160a01b038087166000908152603360205260408082209390935590861681522054611888908463ffffffff61228a16565b60336000866001600160a01b03166001600160a01b0316815260200190815260200160002081905550836001600160a01b0316856001600160a01b0316876001600160a01b03167f06b541ddaa720db2b10a4d0cdac39b8d360425fc073085fac19bc82614677987868686604051808481526020018060200180602001838103835285818151815260200191508051906020019080838360005b8381101561193a578181015183820152602001611922565b50505050905090810190601f1680156119675780820380516001836020036101000a031916815260200191505b50838103825284518152845160209182019186019080838360005b8381101561199a578181015183820152602001611982565b50505050905090810190601f1680156119c75780820380516001836020036101000a031916815260200191505b509550505050505060405180910390a4836001600160a01b0316856001600160a01b03167fddf252ad1be2c89b69c2b068fc378daa952ba7f163c4a11628f55a4df523b3ef856040518082815260200191505060405180910390a3505050505050565b60008184841115611ab95760405162461bcd60e51b81526004018080602001828103825283818151815260200191508051906020019080838360005b83811015611a7e578181015183820152602001611a66565b50505050905090810190601f168015611aab5780820380516001836020036101000a031916815260200191505b509250505060405180910390fd5b505050900390565b6040805163555ddc6560e11b81526001600160a01b03871660048201527fb281fc8c12954d22544db45de3159a39272895b169a852b314f9cc762e44c53b60248201529051600091731820a4b7618bde71dce8cdc73aab6c95905fad249163aabbb8ca91604480820192602092909190829003018186803b158015611b4557600080fd5b505afa158015611b59573d6000803e3d6000fd5b505050506040513d6020811015611b6f57600080fd5b505190506001600160a01b03811615611d0357806001600160a01b03166223de298989898989896040518763ffffffff1660e01b815260040180876001600160a01b03166001600160a01b03168152602001866001600160a01b03166001600160a01b03168152602001856001600160a01b03166001600160a01b031681526020018481526020018060200180602001838103835285818151815260200191508051906020019080838360005b83811015611c34578181015183820152602001611c1c565b50505050905090810190601f168015611c615780820380516001836020036101000a031916815260200191505b50838103825284518152845160209182019186019080838360005b83811015611c94578181015183820152602001611c7c565b50505050905090810190601f168015611cc15780820380516001836020036101000a031916815260200191505b5098505050505050505050600060405180830381600087803b158015611ce657600080fd5b505af1158015611cfa573d6000803e3d6000fd5b50505050611d57565b8115611d5757611d1b866001600160a01b03166122e4565b15611d575760405162461bcd60e51b815260040180806020018281038252604d815260200180612530604d913960600191505060405180910390fd5b5050505050505050565b6001600160a01b038616611da65760405162461bcd60e51b81526004018080602001828103825260228152602001806124806022913960400191505060405180910390fd5b6001600160a01b038516611e01576040805162461bcd60e51b815260206004820181905260248201527f4552433737373a2073656e6420746f20746865207a65726f2061646472657373604482015290519081900360640190fd5b611e0f8787878787876115c8565b611e1d878787878787611810565b61180787878787878787611ac1565b6001600160a01b038416611e87576040805162461bcd60e51b815260206004820181905260248201527f4552433737373a206d696e7420746f20746865207a65726f2061646472657373604482015290519081900360640190fd5b603454611e9a908463ffffffff61228a16565b6034556001600160a01b038416600090815260336020526040902054611ec6908463ffffffff61228a16565b6001600160a01b038516600090815260336020526040812091909155611ef3908690868686866001611ac1565b836001600160a01b0316856001600160a01b03167f2fe5be0146f74c5bce36c0b80911af6c7d86ff27e89d5cfa61fc681327954e5d858585604051808481526020018060200180602001838103835285818151815260200191508051906020019080838360005b83811015611f72578181015183820152602001611f5a565b50505050905090810190601f168015611f9f5780820380516001836020036101000a031916815260200191505b50838103825284518152845160209182019186019080838360005b83811015611fd2578181015183820152602001611fba565b50505050905090810190601f168015611fff5780820380516001836020036101000a031916815260200191505b509550505050505060405180910390a36040805184815290516001600160a01b038616916000917fddf252ad1be2c89b69c2b068fc378daa952ba7f163c4a11628f55a4df523b3ef9181900360200190a35050505050565b303b1590565b6001600160a01b0384166120a25760405162461bcd60e51b81526004018080602001828103825260228152602001806124c96022913960400191505060405180910390fd5b6120b1858560008686866115c8565b6120f48360405180606001604052806023815260200161264a602391396001600160a01b038716600090815260336020526040902054919063ffffffff611a2a16565b6001600160a01b038516600090815260336020526040902055603454612120908463ffffffff61232016565b603481905550836001600160a01b0316856001600160a01b03167fa78a9be3a7b862d26933ad85fb11d80ef66b8f972d7cbba06621d583943a4098858585604051808481526020018060200180602001838103835285818151815260200191508051906020019080838360005b838110156121a557818101518382015260200161218d565b50505050905090810190601f1680156121d25780820380516001836020036101000a031916815260200191505b50838103825284518152845160209182019186019080838360005b838110156122055781810151838201526020016121ed565b50505050905090810190601f1680156122325780820380516001836020036101000a031916815260200191505b509550505050505060405180910390a36040805184815290516000916001600160a01b038716917fddf252ad1be2c89b69c2b068fc378daa952ba7f163c4a11628f55a4df523b3ef9181900360200190a35050505050565b600082820183811015611311576040805162461bcd60e51b815260206004820152601b60248201527f536166654d6174683a206164646974696f6e206f766572666c6f770000000000604482015290519081900360640190fd5b6000813f7fc5d2460186f7233c927e7db2dcc703c0e500b653ca82273b7bfad8045d85a47081811480159061231857508115155b949350505050565b600061131183836040518060400160405280601e81526020017f536166654d6174683a207375627472616374696f6e206f766572666c6f770000815250611a2a565b828054600181600116156101000203166002900490600052602060002090601f016020900481019282601f106123a357805160ff19168380011785556123d0565b828001600101855582156123d0579182015b828111156123d05782518255916020019190600101906123b5565b506123dc929150612441565b5090565b828054828255906000526020600020908101928215612435579160200282015b8281111561243557825182546001600160a01b0319166001600160a01b03909116178255602090920191600190910190612400565b506123dc92915061245b565b610a6f91905b808211156123dc5760008155600101612447565b610a6f91905b808211156123dc5780546001600160a01b031916815560010161246156fe4552433737373a2073656e642066726f6d20746865207a65726f20616464726573734552433737373a207472616e7366657220616d6f756e7420657863656564732062616c616e63654552433737373a206275726e2066726f6d20746865207a65726f20616464726573734552433737373a20617574686f72697a696e672073656c66206173206f70657261746f724552433737373a207265766f6b696e672073656c66206173206f70657261746f724552433737373a20746f6b656e20726563697069656e7420636f6e747261637420686173206e6f20696d706c656d656e74657220666f7220455243373737546f6b656e73526563697069656e74436f6e747261637420696e7374616e63652068617320616c7265616479206265656e20696e697469616c697a65644552433737373a207472616e7366657220746f20746865207a65726f20616464726573734552433737373a2063616c6c6572206973206e6f7420616e206f70657261746f7220666f7220686f6c6465724552433737373a207472616e7366657220616d6f756e74206578636565647320616c6c6f77616e63654552433737373a207472616e736665722066726f6d20746865207a65726f20616464726573734552433737373a206275726e20616d6f756e7420657863656564732062616c616e63654552433737373a20617070726f766520746f20746865207a65726f2061646472657373a265627a7a723158200c86e1b834f616916b4f95b6965cdc0696d87a7865a2baf4f00e98515e7c363364736f6c634300050c0032",
  "source": "/**\nCopyright 2020 PoolTogether Inc.\n\nThis file is part of PoolTogether.\n\nPoolTogether is free software: you can redistribute it and/or modify\nit under the terms of the GNU General Public License as published by\nthe Free Software Foundation under version 3 of the License.\n\nPoolTogether is distributed in the hope that it will be useful,\nbut WITHOUT ANY WARRANTY; without even the implied warranty of\nMERCHANTABILITY or FITNESS FOR A PARTICULAR PURPOSE.  See the\nGNU General Public License for more details.\n\nYou should have received a copy of the GNU General Public License\nalong with PoolTogether.  If not, see <https://www.gnu.org/licenses/>.\n*/\n\npragma solidity ^0.5.0;\n\nimport \"@pooltogether/pooltogether-contracts/contracts/test/Token.sol\";\nimport \"@pooltogether/pooltogether-contracts/contracts/test/CErc20Mock.sol\";\nimport \"@pooltogether/pooltogether-contracts/contracts/test/ERC777Mintable.sol\";\nimport \"@pooltogether/pooltogether-contracts/contracts/RecipientWhitelistPoolToken.sol\";\n\n/**\n * @dev These contracts just exists so that Truffle pulls in the imported contracts\n */\n\ncontract ImportContracts2 is RecipientWhitelistPoolToken {}\n\ncontract Import777 is ERC777Mintable {}\n\ncontract ImportContracts is Token, CErc20Mock {}",
  "sourcePath": "/home/manjain/Documents/pooltogether-mypods/src/pods/contracts/test/ImportContracts.sol",
  "compiler": {
    "name": "solc",
    "version": "0.5.12+commit.7709ece9.Emscripten.clang"
  },
  "schemaVersion": "3.1.0",
  "updatedAt": "2020-05-19T21:28:44.957Z",
  "devdoc": {
    "methods": {
      "allowance(address,address)": {
        "details": "See {IERC20-allowance}.     * Note that operator and allowance concepts are orthogonal: operators may not have allowance, and accounts with allowance may not be operators themselves."
      },
      "approve(address,uint256)": {
        "details": "See {IERC20-approve}.     * Note that accounts cannot have allowance issued by their operators."
      },
      "authorizeOperator(address)": {
        "details": "See {IERC777-authorizeOperator}."
      },
      "balanceOf(address)": {
        "details": "Returns the amount of tokens owned by an account (`tokenHolder`)."
      },
      "burn(uint256,bytes)": {
        "details": "See {IERC777-burn}.     * Also emits a {IERC20-Transfer} event for ERC20 compatibility."
      },
      "decimals()": {
        "details": "See {ERC20Detailed-decimals}.     * Always returns 18, as per the [ERC777 EIP](https://eips.ethereum.org/EIPS/eip-777#backward-compatibility)."
      },
      "defaultOperators()": {
        "details": "See {IERC777-defaultOperators}."
      },
      "granularity()": {
        "details": "See {IERC777-granularity}.     * This implementation always returns `1`."
      },
      "initialize(string,string,address[])": {
        "details": "`defaultOperators` may be an empty array."
      },
      "isOperatorFor(address,address)": {
        "details": "See {IERC777-isOperatorFor}."
      },
      "mint(address,uint256,bytes)": {
        "details": "See {ERC20-_mint}.     * Requirements:     * - the caller must have the {MinterRole}."
      },
      "name()": {
        "details": "See {IERC777-name}."
      },
      "operatorBurn(address,uint256,bytes,bytes)": {
        "details": "See {IERC777-operatorBurn}.     * Emits {Burned} and {IERC20-Transfer} events."
      },
      "operatorSend(address,address,uint256,bytes,bytes)": {
        "details": "See {IERC777-operatorSend}.     * Emits {Sent} and {IERC20-Transfer} events."
      },
      "revokeOperator(address)": {
        "details": "See {IERC777-revokeOperator}."
      },
      "send(address,uint256,bytes)": {
        "details": "See {IERC777-send}.     * Also emits a {IERC20-Transfer} event for ERC20 compatibility."
      },
      "symbol()": {
        "details": "See {IERC777-symbol}."
      },
      "totalSupply()": {
        "details": "See {IERC777-totalSupply}."
      },
      "transfer(address,uint256)": {
        "details": "See {IERC20-transfer}.     * Unlike `send`, `recipient` is _not_ required to implement the {IERC777Recipient} interface if it is a contract.     * Also emits a {Sent} event."
      },
      "transferFrom(address,address,uint256)": {
        "details": "See {IERC20-transferFrom}.    * Note that operator and allowance concepts are orthogonal: operators cannot call `transferFrom` (unless they have allowance), and accounts with allowance cannot call `operatorSend` (unless they are operators).    * Emits {Sent}, {IERC20-Transfer} and {IERC20-Approval} events."
      }
    }
  },
  "userdoc": {
    "methods": {}
  }
}