{
  "contractName": "ImportContracts",
  "abi": [
    {
      "anonymous": false,
      "inputs": [
        {
          "indexed": true,
          "internalType": "address",
          "name": "owner",
          "type": "address"
        },
        {
          "indexed": true,
          "internalType": "address",
          "name": "spender",
          "type": "address"
        },
        {
          "indexed": false,
          "internalType": "uint256",
          "name": "value",
          "type": "uint256"
        }
      ],
      "name": "Approval",
      "type": "event"
    },
    {
      "anonymous": false,
      "inputs": [
        {
          "indexed": true,
          "internalType": "address",
          "name": "account",
          "type": "address"
        }
      ],
      "name": "MinterAdded",
      "type": "event"
    },
    {
      "anonymous": false,
      "inputs": [
        {
          "indexed": true,
          "internalType": "address",
          "name": "account",
          "type": "address"
        }
      ],
      "name": "MinterRemoved",
      "type": "event"
    },
    {
      "anonymous": false,
      "inputs": [
        {
          "indexed": true,
          "internalType": "address",
          "name": "from",
          "type": "address"
        },
        {
          "indexed": true,
          "internalType": "address",
          "name": "to",
          "type": "address"
        },
        {
          "indexed": false,
          "internalType": "uint256",
          "name": "value",
          "type": "uint256"
        }
      ],
      "name": "Transfer",
      "type": "event"
    },
    {
      "constant": false,
      "inputs": [
        {
          "internalType": "address",
          "name": "account",
          "type": "address"
        }
      ],
      "name": "addMinter",
      "outputs": [],
      "payable": false,
      "stateMutability": "nonpayable",
      "type": "function"
    },
    {
      "constant": true,
      "inputs": [
        {
          "internalType": "address",
          "name": "owner",
          "type": "address"
        },
        {
          "internalType": "address",
          "name": "spender",
          "type": "address"
        }
      ],
      "name": "allowance",
      "outputs": [
        {
          "internalType": "uint256",
          "name": "",
          "type": "uint256"
        }
      ],
      "payable": false,
      "stateMutability": "view",
      "type": "function"
    },
    {
      "constant": false,
      "inputs": [
        {
          "internalType": "address",
          "name": "spender",
          "type": "address"
        },
        {
          "internalType": "uint256",
          "name": "amount",
          "type": "uint256"
        }
      ],
      "name": "approve",
      "outputs": [
        {
          "internalType": "bool",
          "name": "",
          "type": "bool"
        }
      ],
      "payable": false,
      "stateMutability": "nonpayable",
      "type": "function"
    },
    {
      "constant": true,
      "inputs": [
        {
          "internalType": "address",
          "name": "account",
          "type": "address"
        }
      ],
      "name": "balanceOf",
      "outputs": [
        {
          "internalType": "uint256",
          "name": "",
          "type": "uint256"
        }
      ],
      "payable": false,
      "stateMutability": "view",
      "type": "function"
    },
    {
      "constant": false,
      "inputs": [
        {
          "internalType": "address",
          "name": "account",
          "type": "address"
        }
      ],
      "name": "balanceOfUnderlying",
      "outputs": [
        {
          "internalType": "uint256",
          "name": "",
          "type": "uint256"
        }
      ],
      "payable": false,
      "stateMutability": "nonpayable",
      "type": "function"
    },
    {
      "constant": true,
      "inputs": [],
      "name": "decimals",
      "outputs": [
        {
          "internalType": "uint256",
          "name": "",
          "type": "uint256"
        }
      ],
      "payable": false,
      "stateMutability": "view",
      "type": "function"
    },
    {
      "constant": false,
      "inputs": [
        {
          "internalType": "address",
          "name": "spender",
          "type": "address"
        },
        {
          "internalType": "uint256",
          "name": "subtractedValue",
          "type": "uint256"
        }
      ],
      "name": "decreaseAllowance",
      "outputs": [
        {
          "internalType": "bool",
          "name": "",
          "type": "bool"
        }
      ],
      "payable": false,
      "stateMutability": "nonpayable",
      "type": "function"
    },
    {
      "constant": true,
      "inputs": [],
      "name": "getCash",
      "outputs": [
        {
          "internalType": "uint256",
          "name": "",
          "type": "uint256"
        }
      ],
      "payable": false,
      "stateMutability": "view",
      "type": "function"
    },
    {
      "constant": false,
      "inputs": [
        {
          "internalType": "address",
          "name": "spender",
          "type": "address"
        },
        {
          "internalType": "uint256",
          "name": "addedValue",
          "type": "uint256"
        }
      ],
      "name": "increaseAllowance",
      "outputs": [
        {
          "internalType": "bool",
          "name": "",
          "type": "bool"
        }
      ],
      "payable": false,
      "stateMutability": "nonpayable",
      "type": "function"
    },
    {
      "constant": false,
      "inputs": [
        {
          "internalType": "address",
          "name": "sender",
          "type": "address"
        },
        {
          "internalType": "string",
          "name": "_name",
          "type": "string"
        },
        {
          "internalType": "string",
          "name": "_symbol",
          "type": "string"
        },
        {
          "internalType": "uint256",
          "name": "_decimals",
          "type": "uint256"
        }
      ],
      "name": "initialize",
      "outputs": [],
      "payable": false,
      "stateMutability": "nonpayable",
      "type": "function"
    },
    {
      "constant": false,
      "inputs": [
        {
          "internalType": "address",
          "name": "sender",
          "type": "address"
        }
      ],
      "name": "initialize",
      "outputs": [],
      "payable": false,
      "stateMutability": "nonpayable",
      "type": "function"
    },
    {
      "constant": false,
      "inputs": [
        {
          "internalType": "address",
          "name": "_token",
          "type": "address"
        },
        {
          "internalType": "uint256",
          "name": "_supplyRatePerBlock",
          "type": "uint256"
        }
      ],
      "name": "initialize",
      "outputs": [],
      "payable": false,
      "stateMutability": "nonpayable",
      "type": "function"
    },
    {
      "constant": true,
      "inputs": [
        {
          "internalType": "address",
          "name": "account",
          "type": "address"
        }
      ],
      "name": "isMinter",
      "outputs": [
        {
          "internalType": "bool",
          "name": "",
          "type": "bool"
        }
      ],
      "payable": false,
      "stateMutability": "view",
      "type": "function"
    },
    {
      "constant": false,
      "inputs": [
        {
          "internalType": "address",
          "name": "account",
          "type": "address"
        },
        {
          "internalType": "uint256",
          "name": "amount",
          "type": "uint256"
        }
      ],
      "name": "mint",
      "outputs": [
        {
          "internalType": "bool",
          "name": "",
          "type": "bool"
        }
      ],
      "payable": false,
      "stateMutability": "nonpayable",
      "type": "function"
    },
    {
      "constant": false,
      "inputs": [
        {
          "internalType": "uint256",
          "name": "amount",
          "type": "uint256"
        }
      ],
      "name": "mint",
      "outputs": [
        {
          "internalType": "uint256",
          "name": "",
          "type": "uint256"
        }
      ],
      "payable": false,
      "stateMutability": "nonpayable",
      "type": "function"
    },
    {
      "constant": true,
      "inputs": [],
      "name": "name",
      "outputs": [
        {
          "internalType": "string",
          "name": "",
          "type": "string"
        }
      ],
      "payable": false,
      "stateMutability": "view",
      "type": "function"
    },
    {
      "constant": false,
      "inputs": [
        {
          "internalType": "uint256",
          "name": "requestedAmount",
          "type": "uint256"
        }
      ],
      "name": "redeemUnderlying",
      "outputs": [
        {
          "internalType": "uint256",
          "name": "",
          "type": "uint256"
        }
      ],
      "payable": false,
      "stateMutability": "nonpayable",
      "type": "function"
    },
    {
      "constant": false,
      "inputs": [],
      "name": "renounceMinter",
      "outputs": [],
      "payable": false,
      "stateMutability": "nonpayable",
      "type": "function"
    },
    {
      "constant": false,
      "inputs": [
        {
          "internalType": "address",
          "name": "account",
          "type": "address"
        }
      ],
      "name": "reward",
      "outputs": [],
      "payable": false,
      "stateMutability": "nonpayable",
      "type": "function"
    },
    {
      "constant": false,
      "inputs": [
        {
          "internalType": "address",
          "name": "account",
          "type": "address"
        },
        {
          "internalType": "uint256",
          "name": "amount",
          "type": "uint256"
        }
      ],
      "name": "rewardCustom",
      "outputs": [],
      "payable": false,
      "stateMutability": "nonpayable",
      "type": "function"
    },
    {
      "constant": false,
      "inputs": [
        {
          "internalType": "uint256",
          "name": "_supplyRatePerBlock",
          "type": "uint256"
        }
      ],
      "name": "setSupplyRateMantissa",
      "outputs": [],
      "payable": false,
      "stateMutability": "nonpayable",
      "type": "function"
    },
    {
      "constant": true,
      "inputs": [],
      "name": "supplyRatePerBlock",
      "outputs": [
        {
          "internalType": "uint256",
          "name": "",
          "type": "uint256"
        }
      ],
      "payable": false,
      "stateMutability": "view",
      "type": "function"
    },
    {
      "constant": true,
      "inputs": [],
      "name": "symbol",
      "outputs": [
        {
          "internalType": "string",
          "name": "",
          "type": "string"
        }
      ],
      "payable": false,
      "stateMutability": "view",
      "type": "function"
    },
    {
      "constant": true,
      "inputs": [],
      "name": "totalSupply",
      "outputs": [
        {
          "internalType": "uint256",
          "name": "",
          "type": "uint256"
        }
      ],
      "payable": false,
      "stateMutability": "view",
      "type": "function"
    },
    {
      "constant": false,
      "inputs": [
        {
          "internalType": "address",
          "name": "recipient",
          "type": "address"
        },
        {
          "internalType": "uint256",
          "name": "amount",
          "type": "uint256"
        }
      ],
      "name": "transfer",
      "outputs": [
        {
          "internalType": "bool",
          "name": "",
          "type": "bool"
        }
      ],
      "payable": false,
      "stateMutability": "nonpayable",
      "type": "function"
    },
    {
      "constant": false,
      "inputs": [
        {
          "internalType": "address",
          "name": "sender",
          "type": "address"
        },
        {
          "internalType": "address",
          "name": "recipient",
          "type": "address"
        },
        {
          "internalType": "uint256",
          "name": "amount",
          "type": "uint256"
        }
      ],
      "name": "transferFrom",
      "outputs": [
        {
          "internalType": "bool",
          "name": "",
          "type": "bool"
        }
      ],
      "payable": false,
      "stateMutability": "nonpayable",
      "type": "function"
    },
    {
      "constant": true,
      "inputs": [],
      "name": "underlying",
      "outputs": [
        {
          "internalType": "address",
          "name": "",
          "type": "address"
        }
      ],
      "payable": false,
      "stateMutability": "view",
      "type": "function"
    }
  ],
  "bytecode": "0x6080604052611900806100136000396000f3fe608060405234801561001057600080fd5b50600436106101a95760003560e01c80636f307dc3116100f9578063a457c2d711610097578063ae9d70b011610071578063ae9d70b014610631578063c4d66de814610639578063cd6dc6871461065f578063dd62ed3e1461068b576101a9565b8063a457c2d7146105b3578063a9059cbb146105df578063aa271e1a1461060b576101a9565b806395d89b41116100d357806395d89b4114610560578063983b2d5614610568578063986502751461058e578063a0712d6814610596576101a9565b80636f307dc3146104f957806370a082311461051d578063852a12e314610543576101a9565b8063395093511161016657806340c10f191161014057806340c10f191461034b5780634d12d4b6146103775780635a2c37ca146104b65780636353586b146104d3576101a9565b806339509351146102f15780633af9e6691461031d5780633b1d21a214610343576101a9565b806305ca520f146101ae57806306fdde03146101dc578063095ea7b31461025957806318160ddd1461029957806323b872dd146102b3578063313ce567146102e9575b600080fd5b6101da600480360360408110156101c457600080fd5b506001600160a01b0381351690602001356106b9565b005b6101e46106db565b6040805160208082528351818301528351919283929083019185019080838360005b8381101561021e578181015183820152602001610206565b50505050905090810190601f16801561024b5780820380516001836020036101000a031916815260200191505b509250505060405180910390f35b6102856004803603604081101561026f57600080fd5b506001600160a01b038135169060200135610769565b604080519115158252519081900360200190f35b6102a1610786565b60408051918252519081900360200190f35b610285600480360360608110156102c957600080fd5b506001600160a01b0381358116916020810135909116906040013561078d565b6102a161081a565b6102856004803603604081101561030757600080fd5b506001600160a01b038135169060200135610820565b6102a16004803603602081101561033357600080fd5b50356001600160a01b0316610874565b6102a1610893565b6102856004803603604081101561036157600080fd5b506001600160a01b03813516906020013561090f565b6101da6004803603608081101561038d57600080fd5b6001600160a01b0382351691908101906040810160208201356401000000008111156103b857600080fd5b8201836020820111156103ca57600080fd5b803590602001918460018302840111640100000000831117156103ec57600080fd5b91908080601f016020809104026020016040519081016040528093929190818152602001838380828437600092019190915250929594936020810193503591505064010000000081111561043f57600080fd5b82018360208201111561045157600080fd5b8035906020019184600183028401116401000000008311171561047357600080fd5b91908080601f0160208091040260200160405190810160405280939291908181526020018383808284376000920191909152509295505091359250610966915050565b6101da600480360360208110156104cc57600080fd5b5035610a8f565b6101da600480360360208110156104e957600080fd5b50356001600160a01b0316610a94565b610501610ab9565b604080516001600160a01b039092168252519081900360200190f35b6102a16004803603602081101561053357600080fd5b50356001600160a01b0316610ac8565b6102a16004803603602081101561055957600080fd5b5035610ae3565b6101e4610c29565b6101da6004803603602081101561057e57600080fd5b50356001600160a01b0316610c84565b6101da610cd6565b6102a1600480360360208110156105ac57600080fd5b5035610ce8565b610285600480360360408110156105c957600080fd5b506001600160a01b038135169060200135610dd9565b610285600480360360408110156105f557600080fd5b506001600160a01b038135169060200135610e47565b6102856004803603602081101561062157600080fd5b50356001600160a01b0316610e5b565b6102a1610e74565b6101da6004803603602081101561064f57600080fd5b50356001600160a01b0316610e7a565b6101da6004803603604081101561067557600080fd5b506001600160a01b038135169060200135610f33565b6102a1600480360360408110156106a157600080fd5b506001600160a01b0381358116916020013516611049565b6001600160a01b03909116600090815260d16020526040902080549091019055565b609b805460408051602060026001851615610100026000190190941693909304601f810184900484028201840190925281815292918301828280156107615780601f1061073657610100808354040283529160200191610761565b820191906000526020600020905b81548152906001019060200180831161074457829003601f168201915b505050505081565b600061077d610776611074565b8484611078565b50600192915050565b6035545b90565b600061079a848484611164565b610810846107a6611074565b61080b856040518060600160405280602881526020016117e6602891396001600160a01b038a166000908152603460205260408120906107e4611074565b6001600160a01b03168152602081019190915260400160002054919063ffffffff6112c216565b611078565b5060019392505050565b609d5481565b600061077d61082d611074565b8461080b856034600061083e611074565b6001600160a01b03908116825260208083019390935260409182016000908120918c16815292529020549063ffffffff61135916565b6001600160a01b038116600090815260d160205260409020545b919050565b60d054604080516370a0823160e01b815230600482015290516000926001600160a01b0316916370a08231916024808301926020929190829003018186803b1580156108de57600080fd5b505afa1580156108f2573d6000803e3d6000fd5b505050506040513d602081101561090857600080fd5b5051905090565b600061092161091c611074565b610e5b565b61095c5760405162461bcd60e51b81526004018080602001828103825260308152602001806117956030913960400191505060405180910390fd5b61077d83836113ba565b600054610100900460ff168061097f575061097f6114ac565b8061098d575060005460ff16155b6109c85760405162461bcd60e51b815260040180806020018281038252602e815260200180611830602e913960400191505060405180910390fd5b600054610100900460ff161580156109f3576000805460ff1961ff0019909116610100171660011790555b6001600160a01b038516610a40576040805162461bcd60e51b815260206004820152600f60248201526e506f6f6c2f6f776e65722d7a65726f60881b604482015290519081900360640190fd5b610a4985610e7a565b8351610a5c90609b906020870190611691565b508251610a7090609c906020860190611691565b50609d8290558015610a88576000805461ff00191690555b5050505050565b60d255565b6001600160a01b0316600090815260d160205260409020805460646078909102049055565b60d0546001600160a01b031681565b6001600160a01b031660009081526033602052604090205490565b33600090815260d16020526040812054821115610b47576040805162461bcd60e51b815260206004820152601d60248201527f696e73756666696369656e7420756e6465726c79696e672066756e6473000000604482015290519081900360640190fd5b33600081815260d1602090815260408083208054879003905560d054815163a9059cbb60e01b815260048101959095526024850187905290516001600160a01b039091169363a9059cbb9360448083019493928390030190829087803b158015610bb057600080fd5b505af1158015610bc4573d6000803e3d6000fd5b505050506040513d6020811015610bda57600080fd5b505161088e576040805162461bcd60e51b8152602060048201526019602482015278636f756c64206e6f74207472616e7366657220746f6b656e7360381b604482015290519081900360640190fd5b609c805460408051602060026001851615610100026000190190941693909304601f810184900484028201840190925281815292918301828280156107615780601f1061073657610100808354040283529160200191610761565b610c8f61091c611074565b610cca5760405162461bcd60e51b81526004018080602001828103825260308152602001806117956030913960400191505060405180910390fd5b610cd3816114b2565b50565b610ce6610ce1611074565b6114fa565b565b33600081815260d16020908152604080832080548601905560d05481516323b872dd60e01b8152600481019590955230602486015260448501869052905192936001600160a01b03909116926323b872dd9260648084019391929182900301818787803b158015610d5857600080fd5b505af1158015610d6c573d6000803e3d6000fd5b505050506040513d6020811015610d8257600080fd5b5051610dd1576040805162461bcd60e51b8152602060048201526019602482015278636f756c64206e6f74207472616e7366657220746f6b656e7360381b604482015290519081900360640190fd5b506000919050565b600061077d610de6611074565b8461080b856040518060600160405280602581526020016118a76025913960346000610e10611074565b6001600160a01b03908116825260208083019390935260409182016000908120918d1681529252902054919063ffffffff6112c216565b600061077d610e54611074565b8484611164565b6000610e6e60688363ffffffff61154216565b92915050565b60d25490565b600054610100900460ff1680610e935750610e936114ac565b80610ea1575060005460ff16155b610edc5760405162461bcd60e51b815260040180806020018281038252602e815260200180611830602e913960400191505060405180910390fd5b600054610100900460ff16158015610f07576000805460ff1961ff0019909116610100171660011790555b610f1082610e5b565b610f1d57610f1d826114b2565b8015610f2f576000805461ff00191690555b5050565b600054610100900460ff1680610f4c5750610f4c6114ac565b80610f5a575060005460ff16155b610f955760405162461bcd60e51b815260040180806020018281038252602e815260200180611830602e913960400191505060405180910390fd5b600054610100900460ff16158015610fc0576000805460ff1961ff0019909116610100171660011790555b6001600160a01b038316611012576040805162461bcd60e51b81526020600482015260146024820152731d1bdad95b881a5cc81b9bdd081919599a5b995960621b604482015290519081900360640190fd5b60d080546001600160a01b0319166001600160a01b03851617905560d28290558015611044576000805461ff00191690555b505050565b6001600160a01b03918216600090815260346020908152604080832093909416825291909152205490565b3390565b6001600160a01b0383166110bd5760405162461bcd60e51b81526004018080602001828103825260248152602001806118836024913960400191505060405180910390fd5b6001600160a01b0382166111025760405162461bcd60e51b815260040180806020018281038252602281526020018061174d6022913960400191505060405180910390fd5b6001600160a01b03808416600081815260346020908152604080832094871680845294825291829020859055815185815291517f8c5be1e5ebec7d5bd14f71427d1e84f3dd0314c0f7b2291e5b200ac8c7c3b9259281900390910190a3505050565b6001600160a01b0383166111a95760405162461bcd60e51b815260040180806020018281038252602581526020018061185e6025913960400191505060405180910390fd5b6001600160a01b0382166111ee5760405162461bcd60e51b815260040180806020018281038252602381526020018061172a6023913960400191505060405180910390fd5b6112318160405180606001604052806026815260200161176f602691396001600160a01b038616600090815260336020526040902054919063ffffffff6112c216565b6001600160a01b038085166000908152603360205260408082209390935590841681522054611266908263ffffffff61135916565b6001600160a01b0380841660008181526033602090815260409182902094909455805185815290519193928716927fddf252ad1be2c89b69c2b068fc378daa952ba7f163c4a11628f55a4df523b3ef92918290030190a3505050565b600081848411156113515760405162461bcd60e51b81526004018080602001828103825283818151815260200191508051906020019080838360005b838110156113165781810151838201526020016112fe565b50505050905090810190601f1680156113435780820380516001836020036101000a031916815260200191505b509250505060405180910390fd5b505050900390565b6000828201838110156113b3576040805162461bcd60e51b815260206004820152601b60248201527f536166654d6174683a206164646974696f6e206f766572666c6f770000000000604482015290519081900360640190fd5b9392505050565b6001600160a01b038216611415576040805162461bcd60e51b815260206004820152601f60248201527f45524332303a206d696e7420746f20746865207a65726f206164647265737300604482015290519081900360640190fd5b603554611428908263ffffffff61135916565b6035556001600160a01b038216600090815260336020526040902054611454908263ffffffff61135916565b6001600160a01b03831660008181526033602090815260408083209490945583518581529351929391927fddf252ad1be2c89b69c2b068fc378daa952ba7f163c4a11628f55a4df523b3ef9281900390910190a35050565b303b1590565b6114c360688263ffffffff6115a916565b6040516001600160a01b038216907f6ae172837ea30b801fbfcdd4108aa1d5bf8ff775444fd70256b44e6bf3dfc3f690600090a250565b61150b60688263ffffffff61162a16565b6040516001600160a01b038216907fe94479a9f7e1952cc78f2d6baab678adc1b772d936c6583def489e524cb6669290600090a250565b60006001600160a01b0382166115895760405162461bcd60e51b815260040180806020018281038252602281526020018061180e6022913960400191505060405180910390fd5b506001600160a01b03166000908152602091909152604090205460ff1690565b6115b38282611542565b15611605576040805162461bcd60e51b815260206004820152601f60248201527f526f6c65733a206163636f756e7420616c72656164792068617320726f6c6500604482015290519081900360640190fd5b6001600160a01b0316600090815260209190915260409020805460ff19166001179055565b6116348282611542565b61166f5760405162461bcd60e51b81526004018080602001828103825260218152602001806117c56021913960400191505060405180910390fd5b6001600160a01b0316600090815260209190915260409020805460ff19169055565b828054600181600116156101000203166002900490600052602060002090601f016020900481019282601f106116d257805160ff19168380011785556116ff565b828001600101855582156116ff579182015b828111156116ff5782518255916020019190600101906116e4565b5061170b92915061170f565b5090565b61078a91905b8082111561170b576000815560010161171556fe45524332303a207472616e7366657220746f20746865207a65726f206164647265737345524332303a20617070726f766520746f20746865207a65726f206164647265737345524332303a207472616e7366657220616d6f756e7420657863656564732062616c616e63654d696e746572526f6c653a2063616c6c657220646f6573206e6f74206861766520746865204d696e74657220726f6c65526f6c65733a206163636f756e7420646f6573206e6f74206861766520726f6c6545524332303a207472616e7366657220616d6f756e74206578636565647320616c6c6f77616e6365526f6c65733a206163636f756e7420697320746865207a65726f2061646472657373436f6e747261637420696e7374616e63652068617320616c7265616479206265656e20696e697469616c697a656445524332303a207472616e736665722066726f6d20746865207a65726f206164647265737345524332303a20617070726f76652066726f6d20746865207a65726f206164647265737345524332303a2064656372656173656420616c6c6f77616e63652062656c6f77207a65726fa265627a7a72315820be866e4cf6eab2625f42337279f9f6c177d08f479404e82518d9e13a69214e3f64736f6c634300050c0032",
  "source": "/**\nCopyright 2020 PoolTogether Inc.\n\nThis file is part of PoolTogether.\n\nPoolTogether is free software: you can redistribute it and/or modify\nit under the terms of the GNU General Public License as published by\nthe Free Software Foundation under version 3 of the License.\n\nPoolTogether is distributed in the hope that it will be useful,\nbut WITHOUT ANY WARRANTY; without even the implied warranty of\nMERCHANTABILITY or FITNESS FOR A PARTICULAR PURPOSE.  See the\nGNU General Public License for more details.\n\nYou should have received a copy of the GNU General Public License\nalong with PoolTogether.  If not, see <https://www.gnu.org/licenses/>.\n*/\n\npragma solidity ^0.5.0;\n\nimport \"@pooltogether/pooltogether-contracts/contracts/test/Token.sol\";\nimport \"@pooltogether/pooltogether-contracts/contracts/test/CErc20Mock.sol\";\nimport \"@pooltogether/pooltogether-contracts/contracts/test/ERC777Mintable.sol\";\nimport \"@pooltogether/pooltogether-contracts/contracts/RecipientWhitelistPoolToken.sol\";\n\n/**\n * @dev These contracts just exists so that Truffle pulls in the imported contracts\n */\n\ncontract ImportContracts2 is RecipientWhitelistPoolToken {}\n\ncontract Import777 is ERC777Mintable {}\n\ncontract ImportContracts is Token, CErc20Mock {}",
  "sourcePath": "/home/manjain/Documents/pooltogether-mypods/src/pods/contracts/test/ImportContracts.sol",
  "compiler": {
    "name": "solc",
    "version": "0.5.12+commit.7709ece9.Emscripten.clang"
  },
  "schemaVersion": "3.1.0",
  "updatedAt": "2020-05-19T21:28:44.958Z",
  "devdoc": {
    "methods": {
      "allowance(address,address)": {
        "details": "See {IERC20-allowance}."
      },
      "approve(address,uint256)": {
        "details": "See {IERC20-approve}.     * Requirements:     * - `spender` cannot be the zero address."
      },
      "balanceOf(address)": {
        "details": "See {IERC20-balanceOf}."
      },
      "decreaseAllowance(address,uint256)": {
        "details": "Atomically decreases the allowance granted to `spender` by the caller.     * This is an alternative to {approve} that can be used as a mitigation for problems described in {IERC20-approve}.     * Emits an {Approval} event indicating the updated allowance.     * Requirements:     * - `spender` cannot be the zero address. - `spender` must have allowance for the caller of at least `subtractedValue`."
      },
      "increaseAllowance(address,uint256)": {
        "details": "Atomically increases the allowance granted to `spender` by the caller.     * This is an alternative to {approve} that can be used as a mitigation for problems described in {IERC20-approve}.     * Emits an {Approval} event indicating the updated allowance.     * Requirements:     * - `spender` cannot be the zero address."
      },
      "mint(address,uint256)": {
        "details": "See {ERC20-_mint}.    * Requirements:    * - the caller must have the {MinterRole}."
      },
      "totalSupply()": {
        "details": "See {IERC20-totalSupply}."
      },
      "transfer(address,uint256)": {
        "details": "See {IERC20-transfer}.     * Requirements:     * - `recipient` cannot be the zero address. - the caller must have a balance of at least `amount`."
      },
      "transferFrom(address,address,uint256)": {
        "details": "See {IERC20-transferFrom}.     * Emits an {Approval} event indicating the updated allowance. This is not required by the EIP. See the note at the beginning of {ERC20};     * Requirements: - `sender` and `recipient` cannot be the zero address. - `sender` must have a balance of at least `amount`. - the caller must have allowance for `sender`'s tokens of at least `amount`."
      }
    }
  },
  "userdoc": {
    "methods": {}
  }
}