{
  "contractName": "PoolToken",
  "abi": [
    {
      "anonymous": false,
      "inputs": [
        {
          "indexed": true,
          "internalType": "address",
          "name": "owner",
          "type": "address"
        },
        {
          "indexed": true,
          "internalType": "address",
          "name": "spender",
          "type": "address"
        },
        {
          "indexed": false,
          "internalType": "uint256",
          "name": "value",
          "type": "uint256"
        }
      ],
      "name": "Approval",
      "type": "event"
    },
    {
      "anonymous": false,
      "inputs": [
        {
          "indexed": true,
          "internalType": "address",
          "name": "operator",
          "type": "address"
        },
        {
          "indexed": true,
          "internalType": "address",
          "name": "tokenHolder",
          "type": "address"
        }
      ],
      "name": "AuthorizedOperator",
      "type": "event"
    },
    {
      "anonymous": false,
      "inputs": [
        {
          "indexed": true,
          "internalType": "address",
          "name": "operator",
          "type": "address"
        },
        {
          "indexed": true,
          "internalType": "address",
          "name": "from",
          "type": "address"
        },
        {
          "indexed": false,
          "internalType": "uint256",
          "name": "amount",
          "type": "uint256"
        },
        {
          "indexed": false,
          "internalType": "bytes",
          "name": "data",
          "type": "bytes"
        },
        {
          "indexed": false,
          "internalType": "bytes",
          "name": "operatorData",
          "type": "bytes"
        }
      ],
      "name": "Burned",
      "type": "event"
    },
    {
      "anonymous": false,
      "inputs": [
        {
          "indexed": true,
          "internalType": "address",
          "name": "operator",
          "type": "address"
        },
        {
          "indexed": true,
          "internalType": "address",
          "name": "to",
          "type": "address"
        },
        {
          "indexed": false,
          "internalType": "uint256",
          "name": "amount",
          "type": "uint256"
        },
        {
          "indexed": false,
          "internalType": "bytes",
          "name": "data",
          "type": "bytes"
        },
        {
          "indexed": false,
          "internalType": "bytes",
          "name": "operatorData",
          "type": "bytes"
        }
      ],
      "name": "Minted",
      "type": "event"
    },
    {
      "anonymous": false,
      "inputs": [
        {
          "indexed": true,
          "internalType": "address",
          "name": "operator",
          "type": "address"
        },
        {
          "indexed": true,
          "internalType": "address",
          "name": "from",
          "type": "address"
        },
        {
          "indexed": false,
          "internalType": "uint256",
          "name": "amount",
          "type": "uint256"
        },
        {
          "indexed": false,
          "internalType": "bytes",
          "name": "data",
          "type": "bytes"
        },
        {
          "indexed": false,
          "internalType": "bytes",
          "name": "operatorData",
          "type": "bytes"
        }
      ],
      "name": "Redeemed",
      "type": "event"
    },
    {
      "anonymous": false,
      "inputs": [
        {
          "indexed": true,
          "internalType": "address",
          "name": "operator",
          "type": "address"
        },
        {
          "indexed": true,
          "internalType": "address",
          "name": "tokenHolder",
          "type": "address"
        }
      ],
      "name": "RevokedOperator",
      "type": "event"
    },
    {
      "anonymous": false,
      "inputs": [
        {
          "indexed": true,
          "internalType": "address",
          "name": "operator",
          "type": "address"
        },
        {
          "indexed": true,
          "internalType": "address",
          "name": "from",
          "type": "address"
        },
        {
          "indexed": true,
          "internalType": "address",
          "name": "to",
          "type": "address"
        },
        {
          "indexed": false,
          "internalType": "uint256",
          "name": "amount",
          "type": "uint256"
        },
        {
          "indexed": false,
          "internalType": "bytes",
          "name": "data",
          "type": "bytes"
        },
        {
          "indexed": false,
          "internalType": "bytes",
          "name": "operatorData",
          "type": "bytes"
        }
      ],
      "name": "Sent",
      "type": "event"
    },
    {
      "anonymous": false,
      "inputs": [
        {
          "indexed": true,
          "internalType": "address",
          "name": "from",
          "type": "address"
        },
        {
          "indexed": true,
          "internalType": "address",
          "name": "to",
          "type": "address"
        },
        {
          "indexed": false,
          "internalType": "uint256",
          "name": "value",
          "type": "uint256"
        }
      ],
      "name": "Transfer",
      "type": "event"
    },
    {
      "constant": false,
      "inputs": [
        {
          "internalType": "string",
          "name": "name",
          "type": "string"
        },
        {
          "internalType": "string",
          "name": "symbol",
          "type": "string"
        },
        {
          "internalType": "address[]",
          "name": "defaultOperators",
          "type": "address[]"
        },
        {
          "internalType": "contract BasePool",
          "name": "pool",
          "type": "address"
        }
      ],
      "name": "init",
      "outputs": [],
      "payable": false,
      "stateMutability": "nonpayable",
      "type": "function"
    },
    {
      "constant": true,
      "inputs": [],
      "name": "pool",
      "outputs": [
        {
          "internalType": "contract BasePool",
          "name": "",
          "type": "address"
        }
      ],
      "payable": false,
      "stateMutability": "view",
      "type": "function"
    },
    {
      "constant": false,
      "inputs": [
        {
          "internalType": "address",
          "name": "from",
          "type": "address"
        },
        {
          "internalType": "uint256",
          "name": "amount",
          "type": "uint256"
        }
      ],
      "name": "poolRedeem",
      "outputs": [],
      "payable": false,
      "stateMutability": "nonpayable",
      "type": "function"
    },
    {
      "constant": true,
      "inputs": [],
      "name": "name",
      "outputs": [
        {
          "internalType": "string",
          "name": "",
          "type": "string"
        }
      ],
      "payable": false,
      "stateMutability": "view",
      "type": "function"
    },
    {
      "constant": true,
      "inputs": [],
      "name": "symbol",
      "outputs": [
        {
          "internalType": "string",
          "name": "",
          "type": "string"
        }
      ],
      "payable": false,
      "stateMutability": "view",
      "type": "function"
    },
    {
      "constant": true,
      "inputs": [],
      "name": "decimals",
      "outputs": [
        {
          "internalType": "uint8",
          "name": "",
          "type": "uint8"
        }
      ],
      "payable": false,
      "stateMutability": "view",
      "type": "function"
    },
    {
      "constant": true,
      "inputs": [],
      "name": "granularity",
      "outputs": [
        {
          "internalType": "uint256",
          "name": "",
          "type": "uint256"
        }
      ],
      "payable": false,
      "stateMutability": "view",
      "type": "function"
    },
    {
      "constant": true,
      "inputs": [],
      "name": "totalSupply",
      "outputs": [
        {
          "internalType": "uint256",
          "name": "",
          "type": "uint256"
        }
      ],
      "payable": false,
      "stateMutability": "view",
      "type": "function"
    },
    {
      "constant": true,
      "inputs": [
        {
          "internalType": "address",
          "name": "_addr",
          "type": "address"
        }
      ],
      "name": "balanceOf",
      "outputs": [
        {
          "internalType": "uint256",
          "name": "",
          "type": "uint256"
        }
      ],
      "payable": false,
      "stateMutability": "view",
      "type": "function"
    },
    {
      "constant": false,
      "inputs": [
        {
          "internalType": "address",
          "name": "recipient",
          "type": "address"
        },
        {
          "internalType": "uint256",
          "name": "amount",
          "type": "uint256"
        },
        {
          "internalType": "bytes",
          "name": "data",
          "type": "bytes"
        }
      ],
      "name": "send",
      "outputs": [],
      "payable": false,
      "stateMutability": "nonpayable",
      "type": "function"
    },
    {
      "constant": false,
      "inputs": [
        {
          "internalType": "address",
          "name": "recipient",
          "type": "address"
        },
        {
          "internalType": "uint256",
          "name": "amount",
          "type": "uint256"
        }
      ],
      "name": "transfer",
      "outputs": [
        {
          "internalType": "bool",
          "name": "",
          "type": "bool"
        }
      ],
      "payable": false,
      "stateMutability": "nonpayable",
      "type": "function"
    },
    {
      "constant": false,
      "inputs": [
        {
          "internalType": "uint256",
          "name": "amount",
          "type": "uint256"
        },
        {
          "internalType": "bytes",
          "name": "data",
          "type": "bytes"
        }
      ],
      "name": "redeem",
      "outputs": [],
      "payable": false,
      "stateMutability": "nonpayable",
      "type": "function"
    },
    {
      "constant": false,
      "inputs": [
        {
          "internalType": "uint256",
          "name": "",
          "type": "uint256"
        },
        {
          "internalType": "bytes",
          "name": "",
          "type": "bytes"
        }
      ],
      "name": "burn",
      "outputs": [],
      "payable": false,
      "stateMutability": "nonpayable",
      "type": "function"
    },
    {
      "constant": true,
      "inputs": [
        {
          "internalType": "address",
          "name": "operator",
          "type": "address"
        },
        {
          "internalType": "address",
          "name": "tokenHolder",
          "type": "address"
        }
      ],
      "name": "isOperatorFor",
      "outputs": [
        {
          "internalType": "bool",
          "name": "",
          "type": "bool"
        }
      ],
      "payable": false,
      "stateMutability": "view",
      "type": "function"
    },
    {
      "constant": false,
      "inputs": [
        {
          "internalType": "address",
          "name": "operator",
          "type": "address"
        }
      ],
      "name": "authorizeOperator",
      "outputs": [],
      "payable": false,
      "stateMutability": "nonpayable",
      "type": "function"
    },
    {
      "constant": false,
      "inputs": [
        {
          "internalType": "address",
          "name": "operator",
          "type": "address"
        }
      ],
      "name": "revokeOperator",
      "outputs": [],
      "payable": false,
      "stateMutability": "nonpayable",
      "type": "function"
    },
    {
      "constant": true,
      "inputs": [],
      "name": "defaultOperators",
      "outputs": [
        {
          "internalType": "address[]",
          "name": "",
          "type": "address[]"
        }
      ],
      "payable": false,
      "stateMutability": "view",
      "type": "function"
    },
    {
      "constant": false,
      "inputs": [
        {
          "internalType": "address",
          "name": "sender",
          "type": "address"
        },
        {
          "internalType": "address",
          "name": "recipient",
          "type": "address"
        },
        {
          "internalType": "uint256",
          "name": "amount",
          "type": "uint256"
        },
        {
          "internalType": "bytes",
          "name": "data",
          "type": "bytes"
        },
        {
          "internalType": "bytes",
          "name": "operatorData",
          "type": "bytes"
        }
      ],
      "name": "operatorSend",
      "outputs": [],
      "payable": false,
      "stateMutability": "nonpayable",
      "type": "function"
    },
    {
      "constant": false,
      "inputs": [
        {
          "internalType": "address",
          "name": "",
          "type": "address"
        },
        {
          "internalType": "uint256",
          "name": "",
          "type": "uint256"
        },
        {
          "internalType": "bytes",
          "name": "",
          "type": "bytes"
        },
        {
          "internalType": "bytes",
          "name": "",
          "type": "bytes"
        }
      ],
      "name": "operatorBurn",
      "outputs": [],
      "payable": false,
      "stateMutability": "nonpayable",
      "type": "function"
    },
    {
      "constant": false,
      "inputs": [
        {
          "internalType": "address",
          "name": "account",
          "type": "address"
        },
        {
          "internalType": "uint256",
          "name": "amount",
          "type": "uint256"
        },
        {
          "internalType": "bytes",
          "name": "data",
          "type": "bytes"
        },
        {
          "internalType": "bytes",
          "name": "operatorData",
          "type": "bytes"
        }
      ],
      "name": "operatorRedeem",
      "outputs": [],
      "payable": false,
      "stateMutability": "nonpayable",
      "type": "function"
    },
    {
      "constant": true,
      "inputs": [
        {
          "internalType": "address",
          "name": "holder",
          "type": "address"
        },
        {
          "internalType": "address",
          "name": "spender",
          "type": "address"
        }
      ],
      "name": "allowance",
      "outputs": [
        {
          "internalType": "uint256",
          "name": "",
          "type": "uint256"
        }
      ],
      "payable": false,
      "stateMutability": "view",
      "type": "function"
    },
    {
      "constant": false,
      "inputs": [
        {
          "internalType": "address",
          "name": "spender",
          "type": "address"
        },
        {
          "internalType": "uint256",
          "name": "value",
          "type": "uint256"
        }
      ],
      "name": "approve",
      "outputs": [
        {
          "internalType": "bool",
          "name": "",
          "type": "bool"
        }
      ],
      "payable": false,
      "stateMutability": "nonpayable",
      "type": "function"
    },
    {
      "constant": false,
      "inputs": [
        {
          "internalType": "address",
          "name": "spender",
          "type": "address"
        },
        {
          "internalType": "uint256",
          "name": "addedValue",
          "type": "uint256"
        }
      ],
      "name": "increaseAllowance",
      "outputs": [
        {
          "internalType": "bool",
          "name": "",
          "type": "bool"
        }
      ],
      "payable": false,
      "stateMutability": "nonpayable",
      "type": "function"
    },
    {
      "constant": false,
      "inputs": [
        {
          "internalType": "address",
          "name": "spender",
          "type": "address"
        },
        {
          "internalType": "uint256",
          "name": "subtractedValue",
          "type": "uint256"
        }
      ],
      "name": "decreaseAllowance",
      "outputs": [
        {
          "internalType": "bool",
          "name": "",
          "type": "bool"
        }
      ],
      "payable": false,
      "stateMutability": "nonpayable",
      "type": "function"
    },
    {
      "constant": false,
      "inputs": [
        {
          "internalType": "address",
          "name": "holder",
          "type": "address"
        },
        {
          "internalType": "address",
          "name": "recipient",
          "type": "address"
        },
        {
          "internalType": "uint256",
          "name": "amount",
          "type": "uint256"
        }
      ],
      "name": "transferFrom",
      "outputs": [
        {
          "internalType": "bool",
          "name": "",
          "type": "bool"
        }
      ],
      "payable": false,
      "stateMutability": "nonpayable",
      "type": "function"
    },
    {
      "constant": false,
      "inputs": [
        {
          "internalType": "uint256",
          "name": "amount",
          "type": "uint256"
        }
      ],
      "name": "poolMint",
      "outputs": [],
      "payable": false,
      "stateMutability": "nonpayable",
      "type": "function"
    }
  ],
  "bytecode": "0x608060405234801561001057600080fd5b50612a0d806100206000396000f3fe608060405234801561001057600080fd5b506004361061018e5760003560e01c8063959b8c3f116100de578063d7d5b92811610097578063e77c646d11610071578063e77c646d146108ab578063fad8b32a14610920578063fc673c4f14610946578063fe9d930314610a195761018e565b8063d7d5b9281461077c578063d95b63711461084f578063dd62ed3e1461087d5761018e565b8063959b8c3f1461065657806395d89b411461067c5780639bd9bbc614610684578063a359470914610707578063a457c2d714610724578063a9059cbb146107505761018e565b806323b872dd1161014b578063556f0dc711610125578063556f0dc71461039457806362ad1b831461039c57806370a082311461047a57806388a8a919146104a05761018e565b806323b872dd14610314578063313ce5671461034a57806339509351146103685761018e565b806306e485381461019357806306fdde03146101eb578063095ea7b31461026857806314274ad9146102a857806316f0115b146102d657806318160ddd146102fa575b600080fd5b61019b610a50565b60408051602080825283518183015283519192839290830191858101910280838360005b838110156101d75781810151838201526020016101bf565b505050509050019250505060405180910390f35b6101f3610ab3565b6040805160208082528351818301528351919283929083019185019080838360005b8381101561022d578181015183820152602001610215565b50505050905090810190601f16801561025a5780820380516001836020036101000a031916815260200191505b509250505060405180910390f35b6102946004803603604081101561027e57600080fd5b506001600160a01b038135169060200135610b40565b604080519115158252519081900360200190f35b6102d4600480360360408110156102be57600080fd5b506001600160a01b038135169060200135610b58565b005b6102de610c69565b604080516001600160a01b039092168252519081900360200190f35b610302610c78565b60408051918252519081900360200190f35b6102946004803603606081101561032a57600080fd5b506001600160a01b03813581169160208101359091169060400135610cee565b610352610e98565b6040805160ff9092168252519081900360200190f35b6102946004803603604081101561037e57600080fd5b506001600160a01b038135169060200135610e9d565b610302610ee2565b6102d4600480360360a08110156103b257600080fd5b6001600160a01b03823581169260208101359091169160408201359190810190608081016060820135600160201b8111156103ec57600080fd5b8201836020820111156103fe57600080fd5b803590602001918460018302840111600160201b8311171561041f57600080fd5b919390929091602081019035600160201b81111561043c57600080fd5b82018360208201111561044e57600080fd5b803590602001918460018302840111600160201b8311171561046f57600080fd5b509092509050610ee7565b6103026004803603602081101561049057600080fd5b50356001600160a01b0316610fbb565b6102d4600480360360808110156104b657600080fd5b810190602081018135600160201b8111156104d057600080fd5b8201836020820111156104e257600080fd5b803590602001918460018302840111600160201b8311171561050357600080fd5b91908080601f0160208091040260200160405190810160405280939291908181526020018383808284376000920191909152509295949360208101935035915050600160201b81111561055557600080fd5b82018360208201111561056757600080fd5b803590602001918460018302840111600160201b8311171561058857600080fd5b91908080601f0160208091040260200160405190810160405280939291908181526020018383808284376000920191909152509295949360208101935035915050600160201b8111156105da57600080fd5b8201836020820111156105ec57600080fd5b803590602001918460208302840111600160201b8311171561060d57600080fd5b919080806020026020016040519081016040528093929190818152602001838360200280828437600092019190915250929550505090356001600160a01b0316915061103e9050565b6102d46004803603602081101561066c57600080fd5b50356001600160a01b03166113a1565b6101f36114ae565b6102d46004803603606081101561069a57600080fd5b6001600160a01b0382351691602081013591810190606081016040820135600160201b8111156106c957600080fd5b8201836020820111156106db57600080fd5b803590602001918460018302840111600160201b831117156106fc57600080fd5b50909250905061150f565b6102d46004803603602081101561071d57600080fd5b5035611566565b6102946004803603604081101561073a57600080fd5b506001600160a01b0381351690602001356115f3565b6102946004803603604081101561076657600080fd5b506001600160a01b03813516906020013561165b565b6102d46004803603608081101561079257600080fd5b6001600160a01b0382351691602081013591810190606081016040820135600160201b8111156107c157600080fd5b8201836020820111156107d357600080fd5b803590602001918460018302840111600160201b831117156107f457600080fd5b919390929091602081019035600160201b81111561081157600080fd5b82018360208201111561082357600080fd5b803590602001918460018302840111600160201b8311171561084457600080fd5b509092509050611743565b6102946004803603604081101561086557600080fd5b506001600160a01b0381358116916020013516611815565b6103026004803603604081101561089357600080fd5b506001600160a01b03813581169160200135166118b7565b6102d4600480360360408110156108c157600080fd5b81359190810190604081016020820135600160201b8111156108e257600080fd5b8201836020820111156108f457600080fd5b803590602001918460018302840111600160201b8311171561091557600080fd5b5090925090506118e2565b6102d46004803603602081101561093657600080fd5b50356001600160a01b0316611937565b6102d46004803603608081101561095c57600080fd5b6001600160a01b0382351691602081013591810190606081016040820135600160201b81111561098b57600080fd5b82018360208201111561099d57600080fd5b803590602001918460018302840111600160201b831117156109be57600080fd5b919390929091602081019035600160201b8111156109db57600080fd5b8201836020820111156109ed57600080fd5b803590602001918460018302840111600160201b83111715610a0e57600080fd5b509092509050611a46565b6102d460048036036040811015610a2f57600080fd5b81359190810190604081016020820135600160201b8111156109db57600080fd5b60606035805480602002602001604051908101604052809291908181526020018280548015610aa857602002820191906000526020600020905b81546001600160a01b03168152600190910190602001808311610a8a575b505050505090505b90565b60338054604080516020601f6002600019610100600188161502019095169490940493840181900481028201810190925282815260609390929091830182828015610aa85780601f10610b1457610100808354040283529160200191610aa8565b820191906000526020600020905b815481529060010190602001808311610b2257509395945050505050565b600033610b4e818585611a8a565b5060019392505050565b603a546001600160a01b03163314610bad576040805162461bcd60e51b8152602060048201526013602482015272141bdbdb151bdad95b8bdbdb9b1e4b5c1bdbdb606a1b604482015290519081900360640190fd5b610bda82836000846040518060200160405280600081525060405180602001604052806000815250611b3d565b60408051828152606060208201819052600090820181905260a082840181905282015290516001600160a01b0384169182917f1f58e3485c3f6fc2bddf52e2bd0d82ad5c19e1ac9ab403b1aa9f0a1794d2bfb69181900360e00190a36040805182815290516000916001600160a01b038516916000805160206129b98339815191529181900360200190a35050565b603a546001600160a01b031690565b603a5460408051633a3c267d60e21b815290516000926001600160a01b03169163e8f099f4916004808301926020929190829003018186803b158015610cbd57600080fd5b505afa158015610cd1573d6000803e3d6000fd5b505050506040513d6020811015610ce757600080fd5b5051905090565b60006001600160a01b038316610d3f576040805162461bcd60e51b8152602060048201526011602482015270506f6f6c546f6b656e2f746f2d7a65726f60781b604482015290519081900360640190fd5b6001600160a01b038416610d90576040805162461bcd60e51b8152602060048201526013602482015272506f6f6c546f6b656e2f66726f6d2d7a65726f60681b604482015290519081900360640190fd5b6000339050610dc1818686866040518060200160405280600081525060405180602001604052806000815250611b3d565b610ded818686866040518060200160405280600081525060405180602001604052806000815250611e46565b6040805180820182526016815275506f6f6c546f6b656e2f6578636565642d616c6c6f7760501b6020808301919091526001600160a01b03808916600090815260398352848120918616815291529190912054610e5f9187918491610e5a9190889063ffffffff61203316565b611a8a565b610e8d81868686604051806020016040528060008152506040518060200160405280600081525060006120ca565b506001949350505050565b601290565b3360008181526039602090815260408083206001600160a01b03871684529091528120549091610ed9918590610e5a908663ffffffff61238016565b50600192915050565b600190565b610ef13388611815565b610f3b576040805162461bcd60e51b81526020600482015260166024820152752837b7b62a37b5b2b717b737ba16b7b832b930ba37b960511b604482015290519081900360640190fd5b610fb23388888888888080601f01602080910402602001604051908101604052809392919081815260200183838082843760009201919091525050604080516020601f8c018190048102820181019092528a815292508a91508990819084018382808284376000920191909152506123da92505050565b50505050505050565b603a54604080516379f0877160e01b81526001600160a01b038481166004830152915160009392909216916379f0877191602480820192602092909190829003018186803b15801561100c57600080fd5b505afa158015611020573d6000803e3d6000fd5b505050506040513d602081101561103657600080fd5b505192915050565b600054610100900460ff168061105757506110576124a6565b80611065575060005460ff16155b6110a05760405162461bcd60e51b815260040180806020018281038252602e81526020018061298b602e913960400191505060405180910390fd5b600054610100900460ff161580156110cb576000805460ff1961ff0019909116610100171660011790555b845161110f576040805162461bcd60e51b815260206004820152600e60248201526d506f6f6c546f6b656e2f6e616d6560901b604482015290519081900360640190fd5b8351611155576040805162461bcd60e51b815260206004820152601060248201526f141bdbdb151bdad95b8bdcde5b589bdb60821b604482015290519081900360640190fd5b6001600160a01b0382166111a6576040805162461bcd60e51b8152602060048201526013602482015272506f6f6c546f6b656e2f706f6f6c2d7a65726f60681b604482015290519081900360640190fd5b84516111b990603390602088019061286d565b5083516111cd90603490602087019061286d565b50603a80546001600160a01b0319166001600160a01b03841617905582516111fc9060359060208601906128eb565b5060005b603554811015611259576001603660006035848154811061121d57fe5b6000918252602080832091909101546001600160a01b031683528201929092526040019020805460ff1916911515919091179055600101611200565b50604080516329965a1d60e01b815230600482018190527fac7fbab5f54a3ca8194167523c6753bfeb96a445279294b6125b68cce2177054602483015260448201529051731820a4b7618bde71dce8cdc73aab6c95905fad24916329965a1d91606480830192600092919082900301818387803b1580156112d957600080fd5b505af11580156112ed573d6000803e3d6000fd5b5050604080516329965a1d60e01b815230600482018190527faea199e31a596269b42cdafd93407f14436db6e4cad65417994c2eb37381e05a602483015260448201529051731820a4b7618bde71dce8cdc73aab6c95905fad2493506329965a1d9250606480830192600092919082900301818387803b15801561137057600080fd5b505af1158015611384573d6000803e3d6000fd5b50505050801561139a576000805461ff00191690555b5050505050565b336001600160a01b03821614156113f5576040805162461bcd60e51b81526020600482015260136024820152722837b7b62a37b5b2b717b0baba3416b9b2b63360691b604482015290519081900360640190fd5b6001600160a01b03811660009081526036602052604090205460ff1615611446573360009081526038602090815260408083206001600160a01b03851684529091529020805460ff19169055611475565b3360009081526037602090815260408083206001600160a01b03851684529091529020805460ff191660011790555b60405133906001600160a01b038316907ff4caeb2d6ca8932a215a353d0703c326ec2d81fc68170f320eb2ab49e9df61f990600090a350565b60348054604080516020601f6002600019610100600188161502019095169490940493840181900481028201810190925282815260609390929091830182828015610aa85780601f10610b1457610100808354040283529160200191610aa8565b6115603333868686868080601f0160208091040260200160405190810160405280939291908181526020018383808284376000920182905250604080516020810190915290815292506123da915050565b50505050565b603a546001600160a01b031633146115bb576040805162461bcd60e51b8152602060048201526013602482015272141bdbdb151bdad95b8bdbdb9b1e4b5c1bdbdb606a1b604482015290519081900360640190fd5b603a546040805160208082018352600080835283519182019093529182526115f0926001600160a01b031691829185916124ac565b50565b6040805180820182526012815271506f6f6c546f6b656e2f6e6567617469766560701b602080830191909152336000818152603983528481206001600160a01b0388168252909252928120549092610ed99290918691610e5a9190879063ffffffff61203316565b60006001600160a01b0383166116b8576040805162461bcd60e51b815260206004820152601760248201527f506f6f6c546f6b656e2f7472616e736665722d7a65726f000000000000000000604482015290519081900360640190fd5b60003390506116e9818286866040518060200160405280600081525060405180602001604052806000815250611b3d565b611715818286866040518060200160405280600081525060405180602001604052806000815250611e46565b610b4e81828686604051806020016040528060008152506040518060200160405280600081525060006120ca565b61174d3387611815565b611797576040805162461bcd60e51b81526020600482015260166024820152752837b7b62a37b5b2b717b737ba16b7b832b930ba37b960511b604482015290519081900360640190fd5b61180d33878787878080601f01602080910402602001604051908101604052809392919081815260200183838082843760009201919091525050604080516020601f8b0181900481028201810190925289815292508991508890819084018382808284376000920191909152506125fe92505050565b505050505050565b6000816001600160a01b0316836001600160a01b0316148061188057506001600160a01b03831660009081526036602052604090205460ff16801561188057506001600160a01b0380831660009081526038602090815260408083209387168352929052205460ff16155b806118b057506001600160a01b0380831660009081526037602090815260408083209387168352929052205460ff165b9392505050565b6001600160a01b03918216600090815260396020908152604080832093909416825291909152205490565b61193233338585858080601f0160208091040260200160405190810160405280939291908181526020018383808284376000920182905250604080516020810190915290815292506125fe915050565b505050565b6001600160a01b03811633141561198d576040805162461bcd60e51b81526020600482015260156024820152742837b7b62a37b5b2b717b932bb37b5b296b9b2b63360591b604482015290519081900360640190fd5b6001600160a01b03811660009081526036602052604090205460ff16156119e1573360009081526038602090815260408083206001600160a01b03851684529091529020805460ff19166001179055611a0d565b3360009081526037602090815260408083206001600160a01b03851684529091529020805460ff191690555b60405133906001600160a01b038316907f50546e66e5f44d728365dc3908c63bc5cfeeab470722c1677e3073a6ac294aa190600090a350565b6040805162461bcd60e51b8152602060048201526014602482015273141bdbdb151bdad95b8bdb9bcb5cdd5c1c1bdc9d60621b604482015290519081900360640190fd5b6001600160a01b038216611adb576040805162461bcd60e51b8152602060048201526013602482015272506f6f6c546f6b656e2f66726f6d2d7a65726f60681b604482015290519081900360640190fd5b6001600160a01b03808416600081815260396020908152604080832094871680845294825291829020859055815185815291517f8c5be1e5ebec7d5bd14f71427d1e84f3dd0314c0f7b2291e5b200ac8c7c3b9259281900390910190a3505050565b603a60009054906101000a90046001600160a01b03166001600160a01b031663a4e2d6346040518163ffffffff1660e01b815260040160206040518083038186803b158015611b8b57600080fd5b505afa158015611b9f573d6000803e3d6000fd5b505050506040513d6020811015611bb557600080fd5b505115611bff576040805162461bcd60e51b8152602060048201526013602482015272141bdbdb151bdad95b8bda5ccb5b1bd8dad959606a1b604482015290519081900360640190fd5b6040805163555ddc6560e11b81526001600160a01b03871660048201527f29ddb589b1fb5fc7cf394961c1adf5f8c6454761adf795e67fe149f658abe89560248201529051600091731820a4b7618bde71dce8cdc73aab6c95905fad249163aabbb8ca91604480820192602092909190829003018186803b158015611c8357600080fd5b505afa158015611c97573d6000803e3d6000fd5b505050506040513d6020811015611cad57600080fd5b505190506001600160a01b03811615610fb257806001600160a01b03166375ab97828888888888886040518763ffffffff1660e01b815260040180876001600160a01b03166001600160a01b03168152602001866001600160a01b03166001600160a01b03168152602001856001600160a01b03166001600160a01b031681526020018481526020018060200180602001838103835285818151815260200191508051906020019080838360005b83811015611d73578181015183820152602001611d5b565b50505050905090810190601f168015611da05780820380516001836020036101000a031916815260200191505b50838103825284518152845160209182019186019080838360005b83811015611dd3578181015183820152602001611dbb565b50505050905090810190601f168015611e005780820380516001836020036101000a031916815260200191505b5098505050505050505050600060405180830381600087803b158015611e2557600080fd5b505af1158015611e39573d6000803e3d6000fd5b5050505050505050505050565b603a5460408051639e63a8c560e01b81526001600160a01b03888116600483015287811660248301526044820187905291519190921691639e63a8c59160648083019260209291908290030181600087803b158015611ea457600080fd5b505af1158015611eb8573d6000803e3d6000fd5b505050506040513d6020811015611ece57600080fd5b5050604080518481526060602082810182815286519284019290925285516001600160a01b03808a16958b821695918d16947f06b541ddaa720db2b10a4d0cdac39b8d360425fc073085fac19bc82614677987948b948b948b9490939290840191608085019187019080838360005b83811015611f55578181015183820152602001611f3d565b50505050905090810190601f168015611f825780820380516001836020036101000a031916815260200191505b50838103825284518152845160209182019186019080838360005b83811015611fb5578181015183820152602001611f9d565b50505050905090810190601f168015611fe25780820380516001836020036101000a031916815260200191505b509550505050505060405180910390a4836001600160a01b0316856001600160a01b03166000805160206129b9833981519152856040518082815260200191505060405180910390a3505050505050565b600081848411156120c25760405162461bcd60e51b81526004018080602001828103825283818151815260200191508051906020019080838360005b8381101561208757818101518382015260200161206f565b50505050905090810190601f1680156120b45780820380516001836020036101000a031916815260200191505b509250505060405180910390fd5b505050900390565b6040805163555ddc6560e11b81526001600160a01b03871660048201527fb281fc8c12954d22544db45de3159a39272895b169a852b314f9cc762e44c53b60248201529051600091731820a4b7618bde71dce8cdc73aab6c95905fad249163aabbb8ca91604480820192602092909190829003018186803b15801561214e57600080fd5b505afa158015612162573d6000803e3d6000fd5b505050506040513d602081101561217857600080fd5b505190506001600160a01b0381161561230c57806001600160a01b03166223de298989898989896040518763ffffffff1660e01b815260040180876001600160a01b03166001600160a01b03168152602001866001600160a01b03166001600160a01b03168152602001856001600160a01b03166001600160a01b031681526020018481526020018060200180602001838103835285818151815260200191508051906020019080838360005b8381101561223d578181015183820152602001612225565b50505050905090810190601f16801561226a5780820380516001836020036101000a031916815260200191505b50838103825284518152845160209182019186019080838360005b8381101561229d578181015183820152602001612285565b50505050905090810190601f1680156122ca5780820380516001836020036101000a031916815260200191505b5098505050505050505050600060405180830381600087803b1580156122ef57600080fd5b505af1158015612303573d6000803e3d6000fd5b50505050612376565b811561237657612324866001600160a01b0316612831565b15612376576040805162461bcd60e51b815260206004820152601860248201527f506f6f6c546f6b656e2f6e6f2d72656369702d696e7465720000000000000000604482015290519081900360640190fd5b5050505050505050565b6000828201838110156118b0576040805162461bcd60e51b815260206004820152601b60248201527f536166654d6174683a206164646974696f6e206f766572666c6f770000000000604482015290519081900360640190fd5b6001600160a01b03851661242b576040805162461bcd60e51b8152602060048201526013602482015272506f6f6c546f6b656e2f66726f6d2d7a65726f60681b604482015290519081900360640190fd5b6001600160a01b03841661247a576040805162461bcd60e51b8152602060048201526011602482015270506f6f6c546f6b656e2f746f2d7a65726f60781b604482015290519081900360640190fd5b612488868686868686611b3d565b612496868686868686611e46565b61180d86868686868660006120ca565b303b1590565b836001600160a01b0316856001600160a01b03167f2fe5be0146f74c5bce36c0b80911af6c7d86ff27e89d5cfa61fc681327954e5d858585604051808481526020018060200180602001838103835285818151815260200191508051906020019080838360005b8381101561252b578181015183820152602001612513565b50505050905090810190601f1680156125585780820380516001836020036101000a031916815260200191505b50838103825284518152845160209182019186019080838360005b8381101561258b578181015183820152602001612573565b50505050905090810190601f1680156125b85780820380516001836020036101000a031916815260200191505b509550505050505060405180910390a36040805184815290516001600160a01b038616916000916000805160206129b98339815191529181900360200190a35050505050565b6001600160a01b03841661264f576040805162461bcd60e51b8152602060048201526013602482015272506f6f6c546f6b656e2f66726f6d2d7a65726f60681b604482015290519081900360640190fd5b61265e85856000868686611b3d565b603a546040805163a423cd2960e01b81526001600160a01b038781166004830152602482018790529151919092169163a423cd299160448083019260209291908290030181600087803b1580156126b457600080fd5b505af11580156126c8573d6000803e3d6000fd5b505050506040513d60208110156126de57600080fd5b5050604080518481526060602082810182815286519284019290925285516001600160a01b03808a1695908b16947f1f58e3485c3f6fc2bddf52e2bd0d82ad5c19e1ac9ab403b1aa9f0a1794d2bfb6948a948a948a9484019160808501919087019080838360005b8381101561275e578181015183820152602001612746565b50505050905090810190601f16801561278b5780820380516001836020036101000a031916815260200191505b50838103825284518152845160209182019186019080838360005b838110156127be5781810151838201526020016127a6565b50505050905090810190601f1680156127eb5780820380516001836020036101000a031916815260200191505b509550505050505060405180910390a36040805184815290516000916001600160a01b038716916000805160206129b98339815191529181900360200190a35050505050565b6000813f7fc5d2460186f7233c927e7db2dcc703c0e500b653ca82273b7bfad8045d85a47081811480159061286557508115155b949350505050565b828054600181600116156101000203166002900490600052602060002090601f016020900481019282601f106128ae57805160ff19168380011785556128db565b828001600101855582156128db579182015b828111156128db5782518255916020019190600101906128c0565b506128e792915061294c565b5090565b828054828255906000526020600020908101928215612940579160200282015b8281111561294057825182546001600160a01b0319166001600160a01b0390911617825560209092019160019091019061290b565b506128e7929150612966565b610ab091905b808211156128e75760008155600101612952565b610ab091905b808211156128e75780546001600160a01b031916815560010161296c56fe436f6e747261637420696e7374616e63652068617320616c7265616479206265656e20696e697469616c697a6564ddf252ad1be2c89b69c2b068fc378daa952ba7f163c4a11628f55a4df523b3efa265627a7a72315820aec4d518f88167eebf9e823893f525916fb219eef80f487fb3f69efd6e2375c364736f6c634300050c0032",
  "source": "/**\nCopyright 2020 PoolTogether Inc.\n\nThis file is part of PoolTogether.\n\nPoolTogether is free software: you can redistribute it and/or modify\nit under the terms of the GNU General Public License as published by\nthe Free Software Foundation under version 3 of the License.\n\nPoolTogether is distributed in the hope that it will be useful,\nbut WITHOUT ANY WARRANTY; without even the implied warranty of\nMERCHANTABILITY or FITNESS FOR A PARTICULAR PURPOSE.  See the\nGNU General Public License for more details.\n\nYou should have received a copy of the GNU General Public License\nalong with PoolTogether.  If not, see <https://www.gnu.org/licenses/>.\n*/\n\npragma solidity 0.5.12;\n\nimport \"./BasePool.sol\";\nimport \"@openzeppelin/contracts-ethereum-package/contracts/math/SafeMath.sol\";\nimport \"@openzeppelin/contracts-ethereum-package/contracts/token/ERC20/IERC20.sol\";\nimport \"@openzeppelin/contracts-ethereum-package/contracts/token/ERC777/IERC777.sol\";\nimport \"@openzeppelin/contracts-ethereum-package/contracts/token/ERC777/IERC777Recipient.sol\";\nimport \"@openzeppelin/contracts-ethereum-package/contracts/token/ERC777/IERC777Sender.sol\";\nimport \"@openzeppelin/contracts-ethereum-package/contracts/introspection/IERC1820Registry.sol\";\nimport \"@openzeppelin/contracts-ethereum-package/contracts/utils/Address.sol\";\nimport \"@openzeppelin/upgrades/contracts/Initializable.sol\";\n\n/**\n * @dev Implementation of the {IERC777} interface.\n *\n * Largely taken from the OpenZeppelin ERC777 contract.\n *\n * Support for ERC20 is included in this contract, as specified by the EIP: both\n * the ERC777 and ERC20 interfaces can be safely used when interacting with it.\n * Both {IERC777-Sent} and {IERC20-Transfer} events are emitted on token\n * movements.\n *\n * Additionally, the {IERC777-granularity} value is hard-coded to `1`, meaning that there\n * are no special restrictions in the amount of tokens that created, moved, or\n * destroyed. This makes integration with ERC20 applications seamless.\n *\n * It is important to note that no Mint events are emitted.  Tokens are minted in batches\n * by a state change in a tree data structure, so emitting a Mint event for each user\n * is not possible.\n *\n */\ncontract PoolToken is Initializable, IERC20, IERC777 {\n  using SafeMath for uint256;\n  using Address for address;\n\n  /**\n   * Event emitted when a user or operator redeems tokens\n   */\n  event Redeemed(address indexed operator, address indexed from, uint256 amount, bytes data, bytes operatorData);\n\n  IERC1820Registry constant internal ERC1820_REGISTRY = IERC1820Registry(0x1820a4B7618BdE71Dce8cdc73aAB6C95905faD24);\n\n  // We inline the result of the following hashes because Solidity doesn't resolve them at compile time.\n  // See https://github.com/ethereum/solidity/issues/4024.\n\n  // keccak256(\"ERC777TokensSender\")\n  bytes32 constant internal TOKENS_SENDER_INTERFACE_HASH =\n      0x29ddb589b1fb5fc7cf394961c1adf5f8c6454761adf795e67fe149f658abe895;\n\n  // keccak256(\"ERC777TokensRecipient\")\n  bytes32 constant internal TOKENS_RECIPIENT_INTERFACE_HASH =\n      0xb281fc8c12954d22544db45de3159a39272895b169a852b314f9cc762e44c53b;\n\n  // keccak256(\"ERC777Token\")\n  bytes32 constant internal TOKENS_INTERFACE_HASH =\n      0xac7fbab5f54a3ca8194167523c6753bfeb96a445279294b6125b68cce2177054;\n\n  // keccak256(\"ERC20Token\")\n  bytes32 constant internal ERC20_TOKENS_INTERFACE_HASH =\n      0xaea199e31a596269b42cdafd93407f14436db6e4cad65417994c2eb37381e05a;\n\n  string internal _name;\n  string internal _symbol;\n\n  // This isn't ever read from - it's only used to respond to the defaultOperators query.\n  address[] internal _defaultOperatorsArray;\n\n  // Immutable, but accounts may revoke them (tracked in __revokedDefaultOperators).\n  mapping(address => bool) internal _defaultOperators;\n\n  // For each account, a mapping of its operators and revoked default operators.\n  mapping(address => mapping(address => bool)) internal _operators;\n  mapping(address => mapping(address => bool)) internal _revokedDefaultOperators;\n\n  // ERC20-allowances\n  mapping (address => mapping (address => uint256)) internal _allowances;\n\n  // The Pool that is bound to this token\n  BasePool internal _pool;\n\n  /**\n   * @notice Initializes the PoolToken.\n   * @param name The name of the token\n   * @param symbol The token symbol\n   * @param defaultOperators The default operators who are allowed to move tokens\n   */\n  function init (\n    string memory name,\n    string memory symbol,\n    address[] memory defaultOperators,\n    BasePool pool\n  ) public initializer {\n      require(bytes(name).length != 0, \"PoolToken/name\");\n      require(bytes(symbol).length != 0, \"PoolToken/symbol\");\n      require(address(pool) != address(0), \"PoolToken/pool-zero\");\n\n      _name = name;\n      _symbol = symbol;\n      _pool = pool;\n\n      _defaultOperatorsArray = defaultOperators;\n      for (uint256 i = 0; i < _defaultOperatorsArray.length; i++) {\n          _defaultOperators[_defaultOperatorsArray[i]] = true;\n      }\n\n      // register interfaces\n      ERC1820_REGISTRY.setInterfaceImplementer(address(this), TOKENS_INTERFACE_HASH, address(this));\n      ERC1820_REGISTRY.setInterfaceImplementer(address(this), ERC20_TOKENS_INTERFACE_HASH, address(this));\n  }\n\n  /**\n   * @notice Returns the address of the Pool contract\n   * @return The address of the pool contract\n   */\n  function pool() public view returns (BasePool) {\n      return _pool;\n  }\n\n  /**\n   * @notice Calls the ERC777 transfer hook, and emits Redeemed and Transfer.  Can only be called by the Pool contract.\n   * @param from The address from which to redeem tokens\n   * @param amount The amount of tokens to redeem\n   */\n  function poolRedeem(address from, uint256 amount) external onlyPool {\n      _callTokensToSend(from, from, address(0), amount, '', '');\n\n      emit Redeemed(from, from, amount, '', '');\n      emit Transfer(from, address(0), amount);\n  }\n\n  /**\n    * @dev See {IERC777-name}.\n    */\n  function name() public view returns (string memory) {\n      return _name;\n  }\n\n  /**\n    * @dev See {IERC777-symbol}.\n    */\n  function symbol() public view returns (string memory) {\n      return _symbol;\n  }\n\n  /**\n    * @dev See {ERC20Detailed-decimals}.\n    *\n    * Always returns 18, as per the\n    * [ERC777 EIP](https://eips.ethereum.org/EIPS/eip-777#backward-compatibility).\n    */\n  function decimals() public view returns (uint8) {\n      return 18;\n  }\n\n  /**\n    * @dev See {IERC777-granularity}.\n    *\n    * This implementation always returns `1`.\n    */\n  function granularity() public view returns (uint256) {\n      return 1;\n  }\n\n  /**\n    * @dev See {IERC777-totalSupply}.\n    */\n  function totalSupply() public view returns (uint256) {\n      return _pool.committedSupply();\n  }\n\n  /**\n    * @dev See {IERC20-balanceOf}.\n    */\n  function balanceOf(address _addr) external view returns (uint256) {\n      return _pool.committedBalanceOf(_addr);\n  }\n\n  /**\n    * @dev See {IERC777-send}.\n    *\n    * Also emits a {Transfer} event for ERC20 compatibility.\n    */\n  function send(address recipient, uint256 amount, bytes calldata data) external {\n      _send(msg.sender, msg.sender, recipient, amount, data, \"\");\n  }\n\n  /**\n    * @dev See {IERC20-transfer}.\n    *\n    * Unlike `send`, `recipient` is _not_ required to implement the {IERC777Recipient}\n    * interface if it is a contract.\n    *\n    * Also emits a {Sent} event.\n    */\n  function transfer(address recipient, uint256 amount) external returns (bool) {\n      require(recipient != address(0), \"PoolToken/transfer-zero\");\n\n      address from = msg.sender;\n\n      _callTokensToSend(from, from, recipient, amount, \"\", \"\");\n\n      _move(from, from, recipient, amount, \"\", \"\");\n\n      _callTokensReceived(from, from, recipient, amount, \"\", \"\", false);\n\n      return true;\n  }\n\n  /**\n    * @dev Allows a user to withdraw their tokens as the underlying asset.\n    *\n    * Also emits a {Transfer} event for ERC20 compatibility.\n    */\n  function redeem(uint256 amount, bytes calldata data) external {\n      _redeem(msg.sender, msg.sender, amount, data, \"\");\n  }\n\n  /**\n    * @dev See {IERC777-burn}.  Not currently implemented.\n    *\n    * Also emits a {Transfer} event for ERC20 compatibility.\n    */\n  function burn(uint256, bytes calldata) external {\n      revert(\"PoolToken/no-support\");\n  }\n\n  /**\n    * @dev See {IERC777-isOperatorFor}.\n    */\n  function isOperatorFor(\n      address operator,\n      address tokenHolder\n  ) public view returns (bool) {\n      return operator == tokenHolder ||\n          (_defaultOperators[operator] && !_revokedDefaultOperators[tokenHolder][operator]) ||\n          _operators[tokenHolder][operator];\n  }\n\n  /**\n    * @dev See {IERC777-authorizeOperator}.\n    */\n  function authorizeOperator(address operator) external {\n      require(msg.sender != operator, \"PoolToken/auth-self\");\n\n      if (_defaultOperators[operator]) {\n          delete _revokedDefaultOperators[msg.sender][operator];\n      } else {\n          _operators[msg.sender][operator] = true;\n      }\n\n      emit AuthorizedOperator(operator, msg.sender);\n  }\n\n  /**\n    * @dev See {IERC777-revokeOperator}.\n    */\n  function revokeOperator(address operator) external {\n      require(operator != msg.sender, \"PoolToken/revoke-self\");\n\n      if (_defaultOperators[operator]) {\n          _revokedDefaultOperators[msg.sender][operator] = true;\n      } else {\n          delete _operators[msg.sender][operator];\n      }\n\n      emit RevokedOperator(operator, msg.sender);\n  }\n\n  /**\n    * @dev See {IERC777-defaultOperators}.\n    */\n  function defaultOperators() public view returns (address[] memory) {\n      return _defaultOperatorsArray;\n  }\n\n  /**\n    * @dev See {IERC777-operatorSend}.\n    *\n    * Emits {Sent} and {Transfer} events.\n    */\n  function operatorSend(\n      address sender,\n      address recipient,\n      uint256 amount,\n      bytes calldata data,\n      bytes calldata operatorData\n  )\n  external\n  {\n      require(isOperatorFor(msg.sender, sender), \"PoolToken/not-operator\");\n      _send(msg.sender, sender, recipient, amount, data, operatorData);\n  }\n\n  /**\n    * @dev See {IERC777-operatorBurn}.\n    *\n    * Currently not supported\n    */\n  function operatorBurn(address, uint256, bytes calldata, bytes calldata) external {\n      revert(\"PoolToken/no-support\");\n  }\n\n  /**\n    * @dev Allows an operator to redeem tokens for the underlying asset on behalf of a user.\n    *\n    * Emits {Redeemed} and {Transfer} events.\n    */\n  function operatorRedeem(address account, uint256 amount, bytes calldata data, bytes calldata operatorData) external {\n      require(isOperatorFor(msg.sender, account), \"PoolToken/not-operator\");\n      _redeem(msg.sender, account, amount, data, operatorData);\n  }\n\n  /**\n    * @dev See {IERC20-allowance}.\n    *\n    * Note that operator and allowance concepts are orthogonal: operators may\n    * not have allowance, and accounts with allowance may not be operators\n    * themselves.\n    */\n  function allowance(address holder, address spender) public view returns (uint256) {\n      return _allowances[holder][spender];\n  }\n\n  /**\n    * @dev See {IERC20-approve}.\n    *\n    * Note that accounts cannot have allowance issued by their operators.\n    */\n  function approve(address spender, uint256 value) external returns (bool) {\n      address holder = msg.sender;\n      _approve(holder, spender, value);\n      return true;\n  }\n\n  /**\n    * @dev Atomically increases the allowance granted to `spender` by the caller.\n    *\n    * This is an alternative to {approve} that can be used as a mitigation for\n    * problems described in {IERC20-approve}.\n    *\n    * Emits an {Approval} event indicating the updated allowance.\n    *\n    * Requirements:\n    *\n    * - `spender` cannot be the zero address.\n    */\n  function increaseAllowance(address spender, uint256 addedValue) public returns (bool) {\n      _approve(msg.sender, spender, _allowances[msg.sender][spender].add(addedValue));\n      return true;\n  }\n\n  /**\n    * @dev Atomically decreases the allowance granted to `spender` by the caller.\n    *\n    * This is an alternative to {approve} that can be used as a mitigation for\n    * problems described in {IERC20-approve}.\n    *\n    * Emits an {Approval} event indicating the updated allowance.\n    *\n    * Requirements:\n    *\n    * - `spender` cannot be the zero address.\n    * - `spender` must have allowance for the caller of at least\n    * `subtractedValue`.\n    */\n  function decreaseAllowance(address spender, uint256 subtractedValue) public returns (bool) {\n      _approve(msg.sender, spender, _allowances[msg.sender][spender].sub(subtractedValue, \"PoolToken/negative\"));\n      return true;\n  }\n\n  /**\n  * @dev See {IERC20-transferFrom}.\n  *\n  * Note that operator and allowance concepts are orthogonal: operators cannot\n  * call `transferFrom` (unless they have allowance), and accounts with\n  * allowance cannot call `operatorSend` (unless they are operators).\n  *\n  * Emits {Sent}, {Transfer} and {Approval} events.\n  */\n  function transferFrom(address holder, address recipient, uint256 amount) external returns (bool) {\n      require(recipient != address(0), \"PoolToken/to-zero\");\n      require(holder != address(0), \"PoolToken/from-zero\");\n\n      address spender = msg.sender;\n\n      _callTokensToSend(spender, holder, recipient, amount, \"\", \"\");\n\n      _move(spender, holder, recipient, amount, \"\", \"\");\n      _approve(holder, spender, _allowances[holder][spender].sub(amount, \"PoolToken/exceed-allow\"));\n\n      _callTokensReceived(spender, holder, recipient, amount, \"\", \"\", false);\n\n      return true;\n  }\n\n  /**\n   * Called by the associated Pool to emit `Mint` events.\n   * @param amount The amount that was minted\n   */\n  function poolMint(uint256 amount) external onlyPool {\n    _mintEvents(address(_pool), address(_pool), amount, '', '');\n  }\n\n  /**\n    * Emits {Minted} and {IERC20-Transfer} events.\n    */\n  function _mintEvents(\n      address operator,\n      address account,\n      uint256 amount,\n      bytes memory userData,\n      bytes memory operatorData\n  )\n  internal\n  {\n      emit Minted(operator, account, amount, userData, operatorData);\n      emit Transfer(address(0), account, amount);\n  }\n\n  /**\n    * @dev Send tokens\n    * @param operator address operator requesting the transfer\n    * @param from address token holder address\n    * @param to address recipient address\n    * @param amount uint256 amount of tokens to transfer\n    * @param userData bytes extra information provided by the token holder (if any)\n    * @param operatorData bytes extra information provided by the operator (if any)\n    */\n  function _send(\n      address operator,\n      address from,\n      address to,\n      uint256 amount,\n      bytes memory userData,\n      bytes memory operatorData\n  )\n      private\n  {\n      require(from != address(0), \"PoolToken/from-zero\");\n      require(to != address(0), \"PoolToken/to-zero\");\n\n      _callTokensToSend(operator, from, to, amount, userData, operatorData);\n\n      _move(operator, from, to, amount, userData, operatorData);\n\n      _callTokensReceived(operator, from, to, amount, userData, operatorData, false);\n  }\n\n  /**\n    * @dev Redeems tokens for the underlying asset.\n    * @param operator address operator requesting the operation\n    * @param from address token holder address\n    * @param amount uint256 amount of tokens to redeem\n    * @param data bytes extra information provided by the token holder\n    * @param operatorData bytes extra information provided by the operator (if any)\n    */\n  function _redeem(\n      address operator,\n      address from,\n      uint256 amount,\n      bytes memory data,\n      bytes memory operatorData\n  )\n      private\n  {\n      require(from != address(0), \"PoolToken/from-zero\");\n\n      _callTokensToSend(operator, from, address(0), amount, data, operatorData);\n\n      _pool.withdrawCommittedDepositFrom(from, amount);\n\n      emit Redeemed(operator, from, amount, data, operatorData);\n      emit Transfer(from, address(0), amount);\n  }\n\n  /**\n   * @notice Moves tokens from one user to another.  Emits Sent and Transfer events.\n   */\n  function _move(\n      address operator,\n      address from,\n      address to,\n      uint256 amount,\n      bytes memory userData,\n      bytes memory operatorData\n  )\n      private\n  {\n      _pool.moveCommitted(from, to, amount);\n\n      emit Sent(operator, from, to, amount, userData, operatorData);\n      emit Transfer(from, to, amount);\n  }\n\n  /**\n   * Approves of a token spend by a spender for a holder.\n   * @param holder The address from which the tokens are spent\n   * @param spender The address that is spending the tokens\n   * @param value The amount of tokens to spend\n   */\n  function _approve(address holder, address spender, uint256 value) private {\n      require(spender != address(0), \"PoolToken/from-zero\");\n\n      _allowances[holder][spender] = value;\n      emit Approval(holder, spender, value);\n  }\n\n  /**\n    * @dev Call from.tokensToSend() if the interface is registered\n    * @param operator address operator requesting the transfer\n    * @param from address token holder address\n    * @param to address recipient address\n    * @param amount uint256 amount of tokens to transfer\n    * @param userData bytes extra information provided by the token holder (if any)\n    * @param operatorData bytes extra information provided by the operator (if any)\n    */\n  function _callTokensToSend(\n      address operator,\n      address from,\n      address to,\n      uint256 amount,\n      bytes memory userData,\n      bytes memory operatorData\n  )\n      internal notLocked\n  {\n      address implementer = ERC1820_REGISTRY.getInterfaceImplementer(from, TOKENS_SENDER_INTERFACE_HASH);\n      if (implementer != address(0)) {\n          IERC777Sender(implementer).tokensToSend(operator, from, to, amount, userData, operatorData);\n      }\n  }\n\n  /**\n    * @dev Call to.tokensReceived() if the interface is registered. Reverts if the recipient is a contract but\n    * tokensReceived() was not registered for the recipient\n    * @param operator address operator requesting the transfer\n    * @param from address token holder address\n    * @param to address recipient address\n    * @param amount uint256 amount of tokens to transfer\n    * @param userData bytes extra information provided by the token holder (if any)\n    * @param operatorData bytes extra information provided by the operator (if any)\n    * @param requireReceptionAck whether to require that, if the recipient is a contract, it has registered a IERC777Recipient\n    */\n  function _callTokensReceived(\n      address operator,\n      address from,\n      address to,\n      uint256 amount,\n      bytes memory userData,\n      bytes memory operatorData,\n      bool requireReceptionAck\n  )\n      private\n  {\n      address implementer = ERC1820_REGISTRY.getInterfaceImplementer(to, TOKENS_RECIPIENT_INTERFACE_HASH);\n      if (implementer != address(0)) {\n          IERC777Recipient(implementer).tokensReceived(operator, from, to, amount, userData, operatorData);\n      } else if (requireReceptionAck) {\n          require(!to.isContract(), \"PoolToken/no-recip-inter\");\n      }\n  }\n\n  /**\n   * @notice Requires the sender to be the pool contract\n   */\n  modifier onlyPool() {\n    require(msg.sender == address(_pool), \"PoolToken/only-pool\");\n    _;\n  }\n\n  /**\n   * @notice Requires the contract to be unlocked\n   */\n  modifier notLocked() {\n    require(!_pool.isLocked(), \"PoolToken/is-locked\");\n    _;\n  }\n}\n",
  "sourcePath": "@pooltogether/pooltogether-contracts/contracts/PoolToken.sol",
  "compiler": {
    "name": "solc",
    "version": "0.5.12+commit.7709ece9.Emscripten.clang"
  },
  "schemaVersion": "3.1.0",
  "updatedAt": "2020-05-19T21:28:45.013Z",
  "devdoc": {
    "details": "Implementation of the {IERC777} interface. * Largely taken from the OpenZeppelin ERC777 contract. * Support for ERC20 is included in this contract, as specified by the EIP: both the ERC777 and ERC20 interfaces can be safely used when interacting with it. Both {IERC777-Sent} and {IERC20-Transfer} events are emitted on token movements. * Additionally, the {IERC777-granularity} value is hard-coded to `1`, meaning that there are no special restrictions in the amount of tokens that created, moved, or destroyed. This makes integration with ERC20 applications seamless. * It is important to note that no Mint events are emitted.  Tokens are minted in batches by a state change in a tree data structure, so emitting a Mint event for each user is not possible. ",
    "methods": {
      "allowance(address,address)": {
        "details": "See {IERC20-allowance}.    * Note that operator and allowance concepts are orthogonal: operators may not have allowance, and accounts with allowance may not be operators themselves."
      },
      "approve(address,uint256)": {
        "details": "See {IERC20-approve}.    * Note that accounts cannot have allowance issued by their operators."
      },
      "authorizeOperator(address)": {
        "details": "See {IERC777-authorizeOperator}."
      },
      "balanceOf(address)": {
        "details": "See {IERC20-balanceOf}."
      },
      "burn(uint256,bytes)": {
        "details": "See {IERC777-burn}.  Not currently implemented.    * Also emits a {Transfer} event for ERC20 compatibility."
      },
      "decimals()": {
        "details": "See {ERC20Detailed-decimals}.    * Always returns 18, as per the [ERC777 EIP](https://eips.ethereum.org/EIPS/eip-777#backward-compatibility)."
      },
      "decreaseAllowance(address,uint256)": {
        "details": "Atomically decreases the allowance granted to `spender` by the caller.    * This is an alternative to {approve} that can be used as a mitigation for problems described in {IERC20-approve}.    * Emits an {Approval} event indicating the updated allowance.    * Requirements:    * - `spender` cannot be the zero address. - `spender` must have allowance for the caller of at least `subtractedValue`."
      },
      "defaultOperators()": {
        "details": "See {IERC777-defaultOperators}."
      },
      "granularity()": {
        "details": "See {IERC777-granularity}.    * This implementation always returns `1`."
      },
      "increaseAllowance(address,uint256)": {
        "details": "Atomically increases the allowance granted to `spender` by the caller.    * This is an alternative to {approve} that can be used as a mitigation for problems described in {IERC20-approve}.    * Emits an {Approval} event indicating the updated allowance.    * Requirements:    * - `spender` cannot be the zero address."
      },
      "init(string,string,address[],address)": {
        "params": {
          "defaultOperators": "The default operators who are allowed to move tokens",
          "name": "The name of the token",
          "symbol": "The token symbol"
        }
      },
      "isOperatorFor(address,address)": {
        "details": "See {IERC777-isOperatorFor}."
      },
      "name()": {
        "details": "See {IERC777-name}."
      },
      "operatorBurn(address,uint256,bytes,bytes)": {
        "details": "See {IERC777-operatorBurn}.    * Currently not supported"
      },
      "operatorRedeem(address,uint256,bytes,bytes)": {
        "details": "Allows an operator to redeem tokens for the underlying asset on behalf of a user.    * Emits {Redeemed} and {Transfer} events."
      },
      "operatorSend(address,address,uint256,bytes,bytes)": {
        "details": "See {IERC777-operatorSend}.    * Emits {Sent} and {Transfer} events."
      },
      "pool()": {
        "return": "The address of the pool contract"
      },
      "poolMint(uint256)": {
        "params": {
          "amount": "The amount that was minted"
        }
      },
      "poolRedeem(address,uint256)": {
        "params": {
          "amount": "The amount of tokens to redeem",
          "from": "The address from which to redeem tokens"
        }
      },
      "redeem(uint256,bytes)": {
        "details": "Allows a user to withdraw their tokens as the underlying asset.    * Also emits a {Transfer} event for ERC20 compatibility."
      },
      "revokeOperator(address)": {
        "details": "See {IERC777-revokeOperator}."
      },
      "send(address,uint256,bytes)": {
        "details": "See {IERC777-send}.    * Also emits a {Transfer} event for ERC20 compatibility."
      },
      "symbol()": {
        "details": "See {IERC777-symbol}."
      },
      "totalSupply()": {
        "details": "See {IERC777-totalSupply}."
      },
      "transfer(address,uint256)": {
        "details": "See {IERC20-transfer}.    * Unlike `send`, `recipient` is _not_ required to implement the {IERC777Recipient} interface if it is a contract.    * Also emits a {Sent} event."
      },
      "transferFrom(address,address,uint256)": {
        "details": "See {IERC20-transferFrom}.  * Note that operator and allowance concepts are orthogonal: operators cannot call `transferFrom` (unless they have allowance), and accounts with allowance cannot call `operatorSend` (unless they are operators).  * Emits {Sent}, {Transfer} and {Approval} events."
      }
    }
  },
  "userdoc": {
    "methods": {
      "init(string,string,address[],address)": {
        "notice": "Initializes the PoolToken."
      },
      "pool()": {
        "notice": "Returns the address of the Pool contract"
      },
      "poolMint(uint256)": {
        "notice": "Called by the associated Pool to emit `Mint` events."
      },
      "poolRedeem(address,uint256)": {
        "notice": "Calls the ERC777 transfer hook, and emits Redeemed and Transfer.  Can only be called by the Pool contract."
      }
    }
  }
}